:020000040801F1
:10000000E068002065010108C11A01081115010806
:10001000A11A01080503010835600108000000006D
:100020000000000000000000000000002947010857
:10003000D909010800000000693E01086D49010866
:100040007F0101087F0101087F0101087F0101088C
:100050007F0101087F0101087F010108BD0F010830
:100060007F0101087F0101087F0101087F0101086C
:100070007F0101087F0101087F0101087F0101085C
:1000800071090108730901087F0101087F01010856
:10009000336001087F0101087F010108CF0F0108CB
:1000A0007F0101087F0101087F0101087F0101082C
:1000B000294A0108E54E01087F0101087F01010876
:1000C0007F0101087F0101087F0101087F0101080C
:1000D0007F0101087F010108E95B01087F01010838
:1000E0007F0101087F010108276001087F010108E5
:1000F0007F0101087F0101087F0101087F010108DC
:100100007F0101087F0101087F0101087F010108CB
:10011000695901087F0101087F0101087F01010879
:100120007F0101087F0101087F0101087F010108AB
:10013000DFF80CD000F084F800480047A57C0108E7
:10014000E0680020EFF30980704780F3098870476A
:10015000EFF30880704780F30888704740BA704713
:10016000C0BA70470648804706480047FEE7FEE7EA
:10017000FEE7FEE7FEE7FEE7FEE7FEE7FEE7FEE757
:10018000C94901083101010840EA01039B0703D076
:1001900009E008C9121F08C0042AFAD203E011F8C6
:1001A000013B00F8013B521EF9D27047D2B201E088
:1001B00000F8012B491EFBD270470022F6E710B56C
:1001C00013460A4604461946FFF7F0FF204610BDC5
:1001D000421C10F8011B0029FBD1801A70472DE941
:1001E000F05F0546002092469B46884606468146BB
:1001F00040241BE0284641464746224600F041F88D
:1002000053465A46C01A914110D311461846224609
:1002100000F028F82D1A67EB01084F46224601200E
:10022000002100F01FF817EB00094E41201EA4F139
:100230000104DFDC484631462A464346BDE8F09FCC
:10024000064C074D06E0E06840F0010394E8070023
:1002500098471034AC42F6D3FFF76EFF448B010889
:10026000648B0108202A04DB203A00FA02F1002006
:1002700070479140C2F1200320FA03F319439040E4
:100280007047202A04DB203A21FA02F0002170474F
:1002900021FA02F3D040C2F12002914008431946EE
:1002A000704770B58D1810F8014B14F0030201D19E
:1002B00010F8012B231106D110F8013B03E010F8D0
:1002C000016B01F8016B521EF9D1B3B110F8012B8B
:1002D00004F00C048A1A0C2C04D0A2EB841203F153
:1002E000020308E010F8014BA2EB0422F7E712F832
:1002F000014B01F8014B5B1EF9D5A942D3D3002075
:1003000070BD000002A005F0A7FE00BFFEE70000E0
:100310004275734661756C745F48616E646C65729A
:10032000210A000030B503460848016800225869D8
:10033000081A72F1000400D200BF5869091A5C68FB
:100340008C4201D8012030BD0020FCE72C25002084
:100350002DE9F04106460027C6EBC60000EB800001
:10036000DFF83C8108EB001000F10C0191F88C00E3
:10037000402802D00320BDE8F0818D20405C402859
:1003800001D00420F7E78E20405C282801D005200A
:10039000F1E78F20405C412801D00720EBE7912056
:1003A000405CDFF8008188F800004046007810F0DB
:1003B000800F05D10020DFF8F08088F800000CE005
:1003C0000120DFF8E48088F800009120405C00F014
:1003D0007F00DFF8D08088F800009220435C32482C
:1003E000007838B923B10878984201D10120C2E7DA
:1003F0000B700CE023B18878984201D00B20BAE74B
:1004000091F89580487D804501D00C20B3E793207A
:10041000425C12029420405C024402F10B008860AE
:100420001AB140F2B550824201D90920A3E71E4813
:100430000078012806D191F89580487D804501D04B
:100440000C2098E702F1060C8F20475C012506E09E
:10045000E81C01F18C0818F8000047406D1C654548
:10046000F6D302F1090401F18C00005DB8420AD014
:1004700001F18C00005D2A2805D001F18C00005D9F
:1004800008B10A2077E701F18C0004F1010810F8A7
:100490000800292801D006206DE700206BE7000046
:1004A00074390020D52500202600002070471CB597
:1004B0000121084603F098FF0821062000F028FFDC
:1004C0000521022000F024FF4FF4807000F0A8FD09
:1004D0004FF4007000F0A4FD00208DF80400082007
:1004E0008DF805004FF49070009001208DF8060003
:1004F000684600F0AFFD1CBD00B597B001210802B1
:1005000003F042FF012140F2E11003F06DFF4CF2D5
:100510000370ADF81C0018208DF81F0003208DF823
:100520001E0007A9504800F013FF4FF68070ADF889
:100530001C0007A94D4800F00BFF7820ADF81C0007
:1005400007A94A4800F004FF4FF4C050ADF81C0062
:1005500007A9454800F0FCFE4FF23F00ADF81C0033
:1005600007A9434800F0F4FE3F20ADF81C0007A99E
:10057000404800F0EDFE3020ADF81C0007A93A48D5
:1005800000F0E6FE4FF4A050ADF81C0007A9394872
:1005900000F0DEFE0320ADF81C0007A9334800F090
:1005A000D7FE0F200090052001900F200290002020
:1005B00003900490052005900020069004200890E8
:1005C000002009900A900B900C900E900F901090C4
:1005D0004FF4805011900020129013901490CDF899
:1005E00054D0CDF858D008A800F022FE01210420F4
:1005F00000F004FE052000900020019005200290EC
:10060000002003900490059006900620089000209A
:1006100009900A9010200B9000200C900E900F90E3
:1006200010904FF480501190002012900D90139074
:100630001490CDF854D008A800F0FAFD05200090E1
:100640000020019005200290002003900490059066
:100650000690CDF858D008A800F0EAFD0121062048
:1006600000F0CCFD17B000BD00140140001801409F
:10067000001C01400020014010B500F011F800F00E
:10068000C5F804200149086010BD0000100C0140AD
:1006900010B54FF48031C80201F058FA10BD0000C7
:1006A00008B540F20370ADF8000003208DF8020099
:1006B00014208DF803006946314800F049FE0420FB
:1006C000ADF8000003208DF8020010208DF8030023
:1006D00069462C4800F03CFE4EF22300ADF80000C5
:1006E00003208DF8020010208DF80300694625488C
:1006F00000F02EFE4EF21000ADF8000003208DF841
:10070000020010208DF8030069461F4800F020FE0B
:100710004FF49C50ADF8000003208DF80200142027
:100720008DF803006946184800F012FE0C20ADF861
:10073000000003208DF8020014208DF803006946A4
:10074000124800F005FE4FF4F860ADF800000320F9
:100750008DF8020010208DF8030069460C4800F067
:10076000F7FD4FF40060ADF8000003208DF80200A3
:1007700014208DF803006946054800F0E9FD08BD26
:1007800000080140000C014000100140001401402D
:10079000001C014010B50121042003F025FE0121B9
:1007A000082003F021FE0121102003F01DFE01218D
:1007B000202003F019FE0121402003F015FE012145
:1007C000802003F011FE0121080203F00DFE01213B
:1007D000C80203F009FE0121084603F0E5FD0121EE
:1007E000022003F0E1FD0121042003F0DDFD0121E1
:1007F000082003F0D9FD0121202003F0D5FD0120C0
:1008000003F0C2FA002003F079FE10BD08B54FF4E2
:10081000C050ADF8000003208DF8020014208DF8C0
:10082000030069462A4800F093FD4FF43C60ADF8A0
:10083000000003208DF8020014208DF803006946A3
:10084000244800F085FD4FF48050ADF800001020E2
:100850008DF8030003208DF8020069461D4800F062
:1008600077FD4020ADF8000003208DF80200142031
:100870008DF803006946184800F06AFD4020ADF885
:10088000000003208DF8020014208DF80300694653
:10089000124800F05DFD7C20ADF8000003208DF8CB
:1008A000020014208DF8030069460D4800F050FD49
:1008B0004EF6C030ADF8000003208DF80200142081
:1008C0008DF803006946074800F042FD08BD0000AE
:1008D00000080140000C01400010014000140140DC
:1008E000001801400020014030B5164800684FF460
:1008F0007A72B0FBF2F1B1F1807F01D301201DE0EB
:1009000021F07F40401E4FF0E022506150170F222F
:10091000002807DA13071D0E0B4B00F00F04241FED
:100920001D5503E013071C0E084B1C5400BF00208C
:100930004FF0E022906107201061002008B100BF55
:10094000FEE730BD0425002018ED00E000E400E0E3
:1009500029B1064A52680243044B5A6004E0034A34
:1009600052688243014B5A6070470000002004E047
:1009700070477047417890F82720914206D090F850
:10098000271080F82610417880F82710002180F881
:100990002410016AA1F57F42FF3A16D1002180F8A8
:1009A000251001700B490968C160D0E9022191420C
:1009B00006D2C16841F4803182688A1A026108E077
:1009C000D0E90221891A016103E0016A09B101211C
:1009D000417770472C2500207047000010B50D208E
:1009E0003F490880A520488040F2371088804FF4A6
:1009F000E070C8804FF411700881C82048814FF41E
:100A000016708881C881642008822820488264206A
:100A10008882FA20C8822A200883C3204883B12014
:100A200088830D20C8834FF4A5700884642048840F
:100A300040F2AA5088844FF47A70C8844FF44D7005
:100A4000088540F2FA5048854FF4877088854FF446
:100A5000FA70C885400008865020488640F2FA5057
:100A600088864FF48770C8864FF4FA700887400074
:100A70004887502088872020C8872120A1F840007F
:100A80002220A1F842002320A1F844002420A1F84C
:100A900046002520A1F848002620A1F84A0027207A
:100AA000A1F84C002820A1F84E002920A1F8500000
:100AB0002A20A1F852002B20A1F854002C20A1F8E4
:100AC00056002D20A1F858002E20A1F85A002F2002
:100AD000A1F85C003020A1F85E0003F0C7FB10BD58
:100AE000C25A002070B505460026012D02D11148DA
:100AF000066803E0022D01D10F4806680F484079CF
:100B000000F07F04C4EBC40101EB81010C4A02EB4D
:100B1000011101F1980032460849FFF735FBC4EB9B
:100B2000C40000EB8000064901EB0010466120463E
:100B300070BD0000D00000200801002034260020F5
:100B40007439002003460621062212480188124803
:100B50000288A3B1012B1AD132B9A1F56E40EE384B
:100B600000D170470120FCE739B9A2F56E40EE389C
:100B700001D10120F5E70020F3E7AB20F1E709B947
:100B80000020EEE70AB90120EBE7AB20E9E70020FF
:100B9000E7E7000000F0070800F8070810B5042494
:100BA0000B4800F0A1FA0446042C01D0204610BDE9
:100BB0000021074800F0E2FA0446042C01D0204648
:100BC000F5E7044800F090FA04462046EFE70000FD
:100BD00000F0070800F807082DE9F0474FF0060A73
:100BE000062600250027A8464FF0FF397448B0F8C4
:100BF00000A0744806885FEA0A0074D0A0F56E4031
:100C0000EE382AD0A0F5885011386DD146B96C481D
:100C100000F06AFA0446042C1ED02046BDE8F08796
:100C2000A6F56E40EE3810D1654800F05DFA044636
:100C3000042C01D02046F1E70021624800F09EFA22
:100C40000446042C08D02046E8E7FFF7A7FF044637
:100C5000042C01D02046E1E7AEE07EBB002522E077
:100C60005748C088584931F81510884201D10FFA09
:100C700085F94D4515D0544931F81500534900F018
:100C800021F98046B8F1010F0BD04F4931F815001A
:100C90004E49098800F048F90746042F01D038462C
:100CA000BCE7681C85B2C82DDADB0021444800F09F
:100CB00065FA0446042C02D02046AFE707E041481D
:100CC00000F012FA0446042C1FD02046A6E7A6F531
:100CD0007F40FF3812D13B4800F006FA0446042C4E
:100CE00003D020469AE711E05EE00021344800F08E
:100CF00045FA0446042C08D020468FE7FFF74EFF44
:100D00000446042C01D0204688E755E036B9FFF7A9
:100D100045FF0446042C46D020467FE7A6F57F40D9
:100D2000FF3807D1274800F0DFF90446042C3AD0F9
:100D3000204673E7002523E02248801D00882249D1
:100D400031F81510884201D10FFA85F94D4515D0BB
:100D50001D4931F815001D4900F0B4F88046B8F17E
:100D6000010F0BD0184931F815001849098800F017
:100D7000DBF80746042F01D038464FE7681C85B2E0
:100D8000C82DD9DB00210F4800F0F8F90446042CE7
:100D900001D0204642E70A4800F0A6F90446042C98
:100DA00001D020463AE707E0FFF7F8FE0446042C9E
:100DB00001D0204632E700BF00BF04202EE700002C
:100DC00000F0070800F80708545A0020F824002013
:100DD0002DE9F84F074689460425DFF8D0A03448AE
:100DE00000904FF00008002400264FF0000B002078
:100DF000FFF7A8FE8046B8F1010F04D1DFF8B4A0D8
:100E00002D4800900AE0B8F1000F04D1DFF8A8A047
:100E10002848009002E0AB20BDE8F88F4EF6EE6166
:100E2000504600F0ABF90546042D01D02846F3E703
:100E30004946384600F078F80646042E01D0304680
:100E4000EAE700241CE01D4830F81400B84215D031
:100E50001A4931F814001A4900F034F88346BBF1FE
:100E6000010F0BD0154931F814001549098800F01D
:100E70005BF80646042E01D03046CDE7601C84B2F4
:100E8000C82CE0DB009800F02FF90546042D01D0B6
:100E90002846C1E70021504600F070F90546042DB0
:100EA00001D02846B8E72846B6E70000FF0301084E
:100EB0000000010800F0070800F80708545A002055
:100EC000F82400202DE9F04706460F46002445F29D
:100ED00055584FF00109124DAA460020FFF732FE87
:100EE0000446AB2C01D1BDE8F0870E4800EBC42AC4
:100EF000601C0C49891E01EBC0250AE0B5F8008092
:100F0000B04505D135F8020C38804FF0000904E0F7
:100F10002D1F0AF102008542F0D800BF4846E2E7E3
:100F20000000010800F007082DE9F0470646884652
:100F300004270025154CDFF858900120FFF702FE2A
:100F40000546AB2D01D1BDE8F087124800EBC52462
:100F5000681C1049891E01EBC02913E02068401C61
:100F60000FD14146204600F009F90746042F01D071
:100F70003846E8E73146A01C00F000F9074638463D
:100F8000E1E7241D4C45E9D38020DCE7000001089F
:100F9000FF07010800F0070870B505460E4600245B
:100FA00031462846FFF7C0FF0446802C04D1314665
:100FB0002846FFF70DFF0446204670BD10B50220FD
:100FC00000F034F810B1022000F02AF810BD10B57E
:100FD000202000F02BF810B1202000F021F8402054
:100FE00000F024F810B1402000F01AF8802000F042
:100FF0001DF810B1802000F013F84FF4807000F05D
:1010000015F818B14FF4807000F00AF84FF4007032
:1010100000F00CF818B14FF4007000F001F810BDAA
:101020000149086070470000140401400146002097
:101030000022074B1B6803EA0102054B14331B68AF
:101040000B4202D00AB1012000E0002070470000EE
:1010500000040140002123498279002A3AD00A463F
:10106000126803689A430B461A600A1D12680368E7
:101070009A430B1D1A60027911440A6803681A43E7
:101080000A60184A0832126803689A43154B0833FD
:101090001A601A1D126803689A43124B0C331A60C7
:1010A0004279102A0ED11A1F126803681A430D4B99
:1010B00008331A601A1D126803681A43094B0C336F
:1010C0001A600DE00749427911440A6803681A431F
:1010D0000A6005E0027911440A6803689A430A60CD
:1010E000704700000004014030B5044604254FF469
:1010F000302000F06FF80546042D17D10C48006928
:1011000040F002000A49086108464461006940F065
:10111000400008614FF4302000F05CF805460448B8
:10112000006941F6FD71084001490861284630BD5B
:101130000020024004200B49C96811F0010F01D0C2
:1011400001200EE00749C96811F0040F01D0022008
:1011500007E00449C96811F0100F01D0032000E036
:1011600004207047002002400348006940F08000DE
:1011700001490861704700000020024070B5044634
:101180000D460426F00200F025F80646042E11D183
:101190000948006940F00100074908612580F00214
:1011A00000F018F806460448006941F6FE71084050
:1011B00001490861304670BD0020024002480349E1
:1011C000486003484860704723016745002002409B
:1011D000AB89EFCD00B502460423FFF7ABFF034612
:1011E00003E0FFF7A7FF0346521E012B01D1002A9F
:1011F000F7D102B90523184600BD000051B14FF0E8
:10120000204252F8202042F001024FF0204343F8E0
:10121000202009E04FF0204252F82020034B1A40D2
:101220004FF0204343F8202070470000FEFF0F00DE
:10123000D0E901121143C2681143026911434269A6
:10124000114382691143C2691143026A1143426A20
:101250001143826A1143C26A1143026B11434FF07A
:101260002043026843F822108168082908D11A46F1
:10127000016852F8211041F04001026843F8221041
:10128000416B0968426B526841EA0211426B9268F5
:1012900041EA0221426B928941EA0241426B128A81
:1012A00041EA0251426B127D41EA0261426B92694E
:1012B00011430268521C4FF0204343F82210C16AC8
:1012C000B1F5804F1AD1816B0968826B526841EA8F
:1012D0000211826B926841EA0221826B128A41EA12
:1012E0000251826B127D41EA0261826B9269114365
:1012F000026803EB8202C2F8041108E06FF070414B
:101300004FF02043026803EB8202C2F804117047D9
:1013100030B500228B071C0F0F2303FA04F20B4B8E
:101320008C1053F824309343084C8D1044F825302A
:1013300023468C1053F824308C07240F00FA04F451
:101340002343024C8D1044F8253030BD0800014085
:101350002DE9F0410246002500260020002300244C
:10136000002791F803C00CF00F0591F803C01CF0A2
:10137000100F03D091F802C04CEA050591F800C0A7
:10138000BCF1000F31D0146800202BE04FF0010CAD
:101390000CFA00F3B1F800C00CEA03069E4220D11B
:1013A00083004FF00F0C0CFA03F7BC4305FA03FC63
:1013B0004CEA040491F803C0BCF1280F06D14FF0A9
:1013C000010C0CFA00FCC2F814C00AE091F803C04A
:1013D000BCF1480F05D14FF0010C0CFA00FCC2F82B
:1013E00010C0401C0828D1D31460B1F800C0BCF173
:1013F000FF0F34DD546800202EE000F1080C4FF0A0
:10140000010808FA0CF3B1F800C00CEA03069E428A
:1014100021D183004FF00F0C0CFA03F7BC4305FAFF
:1014200003FC4CEA040491F803C0BCF1280F05D179
:1014300000F1080C08FA0CF8C2F8148091F803C007
:10144000BCF1480F07D100F1080C4FF0010808FA71
:101450000CF8C2F81080401C0828CED35460BDE8B8
:10146000F0810000F0B50A46002300240021002589
:1014700000F00046B6F1004F02D11D4EF16901E0C7
:101480001B4E7168C0F3034583B200F44016B6F5F5
:10149000401F08D121F07061154E766826F0706605
:1014A000134F7E6012E000F48016B6F5801F06D15F
:1014B000032606FA05F4A14341F0706106E0460DEB
:1014C000360103FA06F6B14341F0706122B1460DD0
:1014D000360103FA06F6314300F00046B6F1004F3C
:1014E00002D1034EF16101E0014E7160F0BD0000D8
:1014F000000001400246002093680B4201D0012009
:1015000000E00020704741617047016170477047FB
:101510000348006810F0010F00D000BE00BFFEE7D6
:10152000F0ED00E010B5FEF7E7FFFFF733F9FFF746
:10153000A3F8FFF7D9F910BD10B5FEF7B7FFFEF716
:10154000B6FFFFF7A5F810BD002300F10C0000F86E
:101550000C3C00F80B3C03744374837403764376AD
:101560008376C376437701774261A0F10C00C062B5
:101570000063704710B5D049D04802780078401C0D
:10158000CE4B1870CE4840F82210CE49184602784B
:101590000078401C1870CA4840F82210CA49184602
:1015A00002780078401C1870C54840F82210C749DE
:1015B000184602780078401C1870C14840F8221084
:1015C000C34A184601780078401C1870BC4840F89F
:1015D0002120C04A184601780078401C1870B8488D
:1015E00040F82120BC4A184601780078401C187049
:1015F000B34840F82120B94A184601780078401CC9
:101600001870AF4840F82120B54A18460178007894
:10161000401C1870AA4840F82120B24A18460178A8
:101620000078401C1870A64840F82120AE4A1846A1
:1016300001780078401C1870A14840F82120AB497F
:10164000184602780078401C18709D4840F8221017
:10165000A74A184601780078401C1870984840F84E
:101660002120A44A184601780078401C187094483C
:1016700040F82120A049184602780078401C1870D4
:101680008F4840F822109D49184602780078401C87
:1016900018708B4840F82210994A18460178007853
:1016A000401C1870864840F82120964A1846017858
:1016B0000078401C1870824840F821209249184652
:1016C00002780078401C18707D4840F822108F493D
:1016D000184602780078401C1870794840F82210AB
:1016E0008B49184602780078401C1870744840F8FE
:1016F00022108849184602780078401C18707048FB
:1017000040F822108449184602780078401C18706E
:101710006B4840F82210814A184601780078401C36
:101720001870674840F821207D4A184601780078F3
:10173000401C1870624840F821207A491846027807
:101740000078401C18705E4840F822107649184610
:1017500002780078401C1870594840F822107349EC
:10176000184602780078401C1870554840F822103E
:101770006F49184602780078401C1870504840F8AD
:1017800022106C4A184601780078401C18704C48AA
:1017900040F82120684A184601780078401C1870EB
:1017A000474840F82120654A184601780078401CD7
:1017B0001870434840F82120614A184601780078A3
:1017C000401C18703E4840F821205E4A18460178B7
:1017D0000078401C18703A4840F821205A491846B1
:1017E00002780078401C1870354840F8221057499C
:1017F000184602780078401C1870314840F82210D2
:10180000534A184601780078401C18702C4840F85C
:101810002120504A184601780078401C187028484A
:1018200040F821204C49184602780078401C187076
:10183000234840F822104949184602780078401C95
:1018400018701F4840F82210454A18460178007861
:10185000401C18701A4840F8212042491846027866
:101860000078401C1870164840F822103E4A18466E
:1018700001780078401C1870114840F821203B493D
:10188000184602780078401C18700D4840F8221065
:10189000012409E00A4951F824004FF6FE7221465E
:1018A000FFF752FE601CC4B2044800788442F1DBAA
:1018B00005212F48C16610BD245B0020E7250020CC
:1018C00014640020585B00208C5B0020C05B00206B
:1018D000F45B0020285C00205C5C0020905C002011
:1018E000C45C0020F85C00202C5D0020605D0020BE
:1018F000C85D0020945D0020FC5D0020305E00206B
:10190000645E0020985E0020CC5E0020005F002016
:10191000345F0020685F00209C5F0020D05F0020C3
:1019200004600020386000206C600020A06000206F
:10193000D4600020086100203C610020706100201C
:10194000A4610020D86100200C62002040620020C9
:1019500074620020A8620020DC6200201063002076
:101960004463002078630020AC630020E063002023
:10197000505500200246086AA0F57F43FF3B02D184
:10198000126301207047086A58B1012082F82900CB
:101990001163086A106291F8250082F82500002082
:1019A000F0E70020EEE700000146481E00EBC00013
:1019B000044A02EBC000C07808B90120704700203B
:1019C000FCE7000050550020F0B591B004464021DE
:1019D00001A8FEF7F2FB20680F4900EA0107B7F102
:1019E000005F0ED13A460DA101A804F045FB01A805
:1019F00004F032FB666835462068FEF7ACFBA8476A
:101A000007E03A460BA101A804F036FB01A804F058
:101A100023FB11B0F0BD00000000FF2F4F4B2C5BEB
:101A2000537461636B546F703D307825785D210A83
:101A3000000000004661696C2C5B537461636B5459
:101A40006F703D307825785D210A000010B5FFF7F2
:101A50008BFB03A004F000FB0548FFF7B5FF10BDAA
:101A60004A756D7020546F20415050210A000000CB
:101A70000000010810B504A004F0EEFA4FF0006079
:101A8000FFF7A2FF10BD00004A756D7020546F2053
:101A9000426F6F744C6F61646572210A0000000030
:101AA00002A004F0D9FA00BFFEE700004D656D4DBD
:101AB000616E6167655F48616E646C6572210A00E2
:101AC0007047000070B5002100230F22C4780CB3CA
:101AD000164C246804F4E064C4F5E064210AC1F102
:101AE0000403CA40447804FA03F184781440214383
:101AF00009010F4C0678A155047804F01F05012454
:101B0000AC4005786D114FF0E02606EB8505C5F871
:101B1000004109E0047804F01F050124AC40054DA4
:101B20000678761145F8264070BD00000CED00E007
:101B300000E400E080E100E002490143024A116054
:101B4000704700000000FA050CED00E0024A0A4070
:101B50000243024B1A60704780FFFF1F08ED00E050
:101B6000002181777047000010B52F4C207810B10C
:101B7000607F012800D110BD607807284DD2DFE8D2
:101B800000F00407131F2B3743000120607045E06D
:101B9000012026490870264908702649204602F08F
:101BA00043FE0220607039E022492046FFF7E2FE42
:101BB00028B12149204602F037FE032060702DE055
:101BC0001D492046FFF7D6FE28B11C49204602F0E9
:101BD0002BFE0420607021E018492046FFF7CAFE62
:101BE00028B11749204602F01FFE0520607015E05D
:101BF00013492046FFF7BEFE28B11249204602F0E5
:101C000013FE0620607009E00E492046FFF7B2FE81
:101C100010B14FF6FF70206200E000BF00BF204609
:101C2000FEF7A8FE00BFA6E7E0630020082600201C
:101C30000926002070610020D46000204463002049
:101C400078630020AC63002010B5654C207810B19B
:101C5000607F012800D110BD60780E2870D2DFE8C7
:101C600000F007212E36434F5B67707980889AAB6E
:101C70005C480078012807D100205A4908705A486A
:101C800000785A49087003E05948807A574908702B
:101C900056480078052802DD42F605302062012012
:101CA000607096E05348007830B95349204602F0FE
:101CB000BBFD0220607001E00320607089E04E49A6
:101CC0002046FFF757FE08B10320607081E04B48C3
:101CD000007830B94A49204602F0A6FD0420607021
:101CE00001E00420607074E045492046FFF742FEA1
:101CF00028B14449204602F097FD0520607068E055
:101D000040492046FFF736FE28B13F49204602F001
:101D10008BFD062060705CE03B492046FFF72AFE01
:101D200028B13A49204602F07FFD0720607050E05C
:101D300036492046FFF71EFE08B10820607048E0D3
:101D400046E02948007810B90920607001E00B20B6
:101D500060703EE02E49204602F066FD0A20607069
:101D600037E02B492046FFF705FE08B10B206070D5
:101D70002FE028480068642807D226480068401CE5
:101D8000244908600C20607004E009206070002085
:101D9000204908601DE02048144B1B7850F82300B0
:101DA00000EB4000C2001D48B0F90A10012006F007
:101DB0009BFC0D2060700CE00120FFF7F5FD30B1B9
:101DC0000A480078084908704FF6FF70206200E06A
:101DD00000BF00BF2046FEF7CDFD00BF3BE700007F
:101DE0008C5B0020E8250020E92500202C2600201F
:101DF00074370020E4250020CC5E0020E52500207B
:101E0000345F0020985E0020305E0020C85D002016
:101E1000585B0020EC250020F0250020C25A00204D
:101E200010B5184C207810B1607F012800D110BD8A
:101E3000607820B101280DD0FF281CD117E012498D
:101E4000204602F0F1FC1149204602F0EDFC012091
:101E5000607011E00C492046FFF78CFD30B10B4952
:101E60002046FFF787FD08B1FF20607004E04FF6C1
:101E7000FF70206200E000BF00BF2046FEF77AFD41
:101E800000BFD4E7285C00205C5C0020C45C00201C
:101E900010B5184C207810B1607F012800D110BD1A
:101EA000607820B101280DD0FF281CD117E012491D
:101EB000204602F0B9FC1149204602F0B5FC012091
:101EC000607011E00C492046FFF754FD30B10B491A
:101ED0002046FFF74FFD08B1FF20607004E04FF689
:101EE000FF70206200E000BF00BF2046FEF742FD09
:101EF00000BFD4E7F45B0020905C0020F85C002079
:101F000010B5114C207810B1607F012800D110BDB0
:101F1000607820B1012805D002280ED109E0012007
:101F200060700BE00021072004F014FE02206070B6
:101F300004E04FF6FF70206200E000BF00BF2046C3
:101F4000FEF718FD00BFE2E73860002010B5134C23
:101F5000207810B1607F012800D110BD607820B1D9
:101F6000012805D0022812D10DE0012060700FE099
:101F700000210B2004F0EEFD0021062004F0EAFD14
:101F80000220607004E04FF6FF70206200E000BFA6
:101F900000BF2046FEF7EEFC00BFDEE7605D0020DC
:101FA00010B52A4C207810B1607F012800D110BDF7
:101FB0006078052842D2DFE800F00306232B3A00C0
:101FC000012060703BE022480078022803D14FF6E0
:101FD000FF70206213E01E48007830B91D4920468A
:101FE00002F022FC0220607009E01B48B0F92030AA
:101FF00014220121052006F01FFA032060701EE064
:1020000014492046FFF7B6FC08B10120607016E0C5
:102010000520FFF7C9FC48B1142005F02BFE10B9CC
:102020000420607002E042F61430206207E00220D3
:10203000074908704FF6FF70206200E000BF00BF44
:102040002046FEF797FC00BFB1E70000D8610020F2
:1020500010260020A4610020C25A002010B51B4C9D
:10206000207810B1607F012800D110BD607810B1D8
:10207000012824D113E00B2005F0FCFD18B14FF628
:10208000FF7020620AE00121022004F063FD40F6A7
:10209000B831204602F04CFB0120607010E00B20AC
:1020A00005F0E8FD18B14FF6FF70206206E020460B
:1020B000FEF738F910B142F6FD20206200E000BFC3
:1020C00000BF2046FEF756FC00BFCEE7FC5D0020B7
:1020D00010B51B4C207810B1607F012800D110BDD5
:1020E000607810B1012824D113E00A2005F0C2FD68
:1020F00018B14FF6FF7020620AE00021022004F0C0
:1021000029FD40F6B831204602F012FB0120607034
:1021100010E00A2005F0AEFD18B14FF6FF70206206
:1021200006E02046FEF7FEF810B142F6FE202062DF
:1021300000E000BF00BF2046FEF71CFC00BFCEE75A
:10214000305E002010B5934C207810B1607F0128DC
:1021500000D110BD6078182872D2DFE800F00C17AB
:102160001E2A3240484F5764727D8A959DAAB7C295
:10217000CEDBE6F1FEEE022005F07CFD10B9012079
:10218000607002E042F60E302062FCE08249204698
:1021900002F04AFB02206070F5E07F492046FFF71D
:1021A000E9FB28B17D49204602F03EFB0320607028
:1021B000E9E07A492046FFF7DDFB08B104206070B2
:1021C000E1E077480078012802D10620607005E040
:1021D0007449204602F028FB05206070D3E0714965
:1021E0002046FFF7C7FB08B106206070CBE06E49C0
:1021F000204602F019FB07206070C4E06A492046BF
:10220000FFF7B8FB08B108206070BCE00120674907
:1022100008700420664908706649204602F004FBF5
:1022200009206070AFE063492046FFF7A3FB30B19F
:102230004FF47A71204602F07BFA0A206070A2E027
:10224000A0E02046FEF76EF828B15B49204602F078
:10225000EBFA0B20607096E057492046FFF78AFBA7
:1022600030B14FF47A71204602F062FA0C206070AF
:1022700089E02046FEF756F828B14B49204602F087
:10228000D3FA0D2060707EE047492046FFF772FBCD
:1022900008B10E20607076E00120444908700520E6
:1022A000434908704349204602F0BEFA0F2060708F
:1022B00069E040492046FFF75DFB30B14FF4FA7109
:1022C000204602F035FA102060705CE02046FEF7F0
:1022D00029F828B13949204602F0A6FA1120607089
:1022E00051E036492046FFF745FB28B134492046E6
:1022F00002F09AFA1220607045E031492046FFF75B
:1023000039FB30B14FF47A71204602F011FA1320F4
:10231000607038E02046FEF705F828B121492046D4
:1023200002F082FA142060702DE01E492046FFF76B
:1023300021FB08B11520607025E01AE00DE0FFE7F1
:1023400001201A49087003201949087019492046CC
:1023500002F06AFA1620607015E016492046FFF771
:1023600009FB28B11749204602F05EFA1720607079
:1023700009E014492046FFF7FDFA10B14FF6FF704F
:10238000206200E000BF00BF2046FEF7F3FA00BF66
:10239000DFE60000D4600020285C0020CC5E002036
:1023A000E5250020345F0020985E0020E82500200D
:1023B000E92500208C5B0020645E0020F45B002097
:1023C000685F0020005F002010B5504C207810B1ED
:1023D000607F012800D110BD607805284FD005DC52
:1023E00078D2DFE800F00C26343C450006284ED0B9
:1023F00007285ED008286FD0FF287FD176E04448B8
:102400000078012807D10020414908704148007830
:102410004149087003E04148807A3F4908703E48CE
:102420000078052802DD42F611302062012060703C
:1024300065E03B480078012802D10320607005E088
:102440003849204602F0F0F90220607057E0354923
:102450002046FFF78FFA08B1032060704FE02D4847
:10246000007810B90420607001E00620607046E03A
:102470002D49204602F0D8F9052060703FE02A4936
:102480002046FFF777FA08B10620607037E027484A
:102490000068642807D225480068401C234908606A
:1024A0000720607004E00420607000201F4908606D
:1024B00025E01F48184B1B7850F8230000EB400024
:1024C000C2001C48B0F91410062006F00DF90820CF
:1024D000607014E012E0FFE70620FFF765FA20B114
:1024E000062006F0EDF9FF20607008E00A48007849
:1024F000084908704FF6FF70206200E000BF00BF7F
:102500002046FEF737FA00BF65E700007061002043
:1025100008260020092600202D26002074370020E0
:1025200010260020A46100203C6100200C26002021
:1025300014260020C25A002010B52B4C207810B170
:10254000607F012800D110BD6078052845D2DFE802
:1025500000F0030A172B3B000120607001210920C5
:1025600004F0F8FA3AE001202049087002202049DE
:1025700008702049204602F057F9022060702DE0D3
:102580001C492046FFF7F6F968B1152005F072FBEB
:1025900030B11949204602F047F90320607002E08B
:1025A00042F61830206219E013492046FFF7E2F99D
:1025B00048B10021092004F0CDFA1049204602F06C
:1025C00033F90420607009E00C492046FFF7D2F986
:1025D00010B14FF6FF70206200E000BF00BF204640
:1025E000FEF7C8F900BFAEE74463002008260020CC
:1025F0000926002070610020D8610020DC620020E4
:1026000010B5384C207810B1607F012800D110BD82
:10261000607808285ED2DFE800F0041119272F3C0B
:1026200048543148007810B10220607005E02F490D
:10263000204602F0F9F8012060704CE02B4920465A
:10264000FFF798F908B10220607044E0284800784C
:10265000012802D10420607005E02649204602F0DE
:10266000E3F80320607036E022492046FFF782F944
:1026700008B1042060702EE001201F49087003207B
:102680001E4908701E49204602F0CEF805206070F1
:1026900021E01B492046FFF76DF928B11949204672
:1026A00002F0C2F80620607015E016492046FFF7D8
:1026B00061F928B11449204602F0B6F8072060708D
:1026C00009E011492046FFF755F910B14FF6FF70A8
:1026D000206200E000BF00BF2046FEF74BF900BFBC
:1026E00095E70000A0600020E6250020245B002084
:1026F000E4250020CC5E0020E8250020E92500200C
:102700008C5B0020005F0020F45B002010B5114CB2
:10271000207810B1607F012800D110BD607820B111
:10272000012805D002280ED109E0012060700BE0DD
:102730000021082004F00EFA0220607004E04FF639
:10274000FF70206200E000BF00BF2046FEF712F9D4
:1027500000BFE2E7A862002010B5114C207810B14C
:10276000607F012800D110BD607820B1012805D01C
:1027700002280ED109E0012060700BE00121082041
:1027800004F0E8F90220607004E04FF6FF70206268
:1027900000E000BF00BF2046FEF7ECF800BFE2E714
:1027A0007462002010B51F4C207810B1607F0128A2
:1027B00000D110BD607810B101282CD113E00820A1
:1027C00005F058FA18B14FF6FF7020620AE00121B7
:1027D000052004F0BFF940F6B831204601F0A8FF0B
:1027E0000120607018E0082005F044FA38B1032198
:1027F000052004F0AFF94FF6FF7020620AE0204692
:10280000FDF790FD30B10321052004F0A3F942F655
:102810000330206200E000BF00BF2046FEF7AAF8A8
:1028200000BFC6E7C45C002010B51F4C207810B173
:10283000607F012800D110BD607810B101282CD133
:1028400013E0092005F016FA18B14FF6FF70206268
:102850000AE00121052004F07DF940F6B831204658
:1028600001F066FF0120607018E0092005F002FA0F
:1028700038B10321052004F06DF94FF6FF70206296
:102880000AE02046FDF74EFD30B10321052004F09B
:1028900061F942F60430206200E000BF00BF20462C
:1028A000FEF768F800BFC6E7F85C002010B5314CB1
:1028B000207810B1607F012800D110BD6078072812
:1028C00051D2DFE800F004070E202C384800012028
:1028D000607049E02849204601F0A6FF02206070A0
:1028E00042E025492046FFF745F858B10120234929
:1028F00008700320224908702249204601F094FF05
:102900000320607030E01F492046FFF733F828B1FC
:102910001D49204601F088FF0420607024E01A4918
:102920002046FFF727F828B11849204601F07CFF20
:102930000520607018E015492046FFF71BF848B1E4
:102940001348B0F9263032220121042005F074FD2D
:102950000620607008E00420FFF726F810B14FF65B
:10296000FF70206200E000BF00BF2046FEF702F8C3
:1029700000BFA2E7AC630020A4610020082600206D
:102980000926002070610020D8610020DC62002050
:10299000C25A002010B5114C207810B1607F012878
:1029A00000D110BD607820B1012805D002280ED1D9
:1029B00009E0012060700BE00121072004F0CAF853
:1029C0000220607004E04FF6FF70206200E000BF5C
:1029D00000BF2046FDF7CEFF00BFE2E70460002005
:1029E00010B5134C207810B1607F012800D110BDC4
:1029F000607820B1012805D0022812D10DE0012015
:102A000060700FE001210B2004F0A4F801210620E2
:102A100004F0A0F80220607004E04FF6FF7020621E
:102A200000E000BF00BF2046FDF7A4FF00BFDEE7C7
:102A30002C5D002010B51B4C207810B1607F012860
:102A400000D110BD607810B1012824D113E00E2010
:102A500005F010F918B14FF6FF7020620AE001216D
:102A6000032004F077F840F6B831204601F060FE0C
:102A70000120607010E00E2005F0FCF818B14FF650
:102A8000FF70206206E02046FDF74CFC10B142F6D4
:102A9000FF20206200E000BF00BF2046FDF76AFF74
:102AA00000BFCEE7645E002010B51B4C207810B14B
:102AB000607F012800D110BD607810B1012824D1B9
:102AC00013E00F2005F0D6F818B14FF6FF70206222
:102AD0000AE00021032004F03DF840F6B83120461A
:102AE00001F026FE0120607010E00F2005F0C2F812
:102AF00018B14FF6FF70206206E02046FDF712FC89
:102B000010B14FF42C50206200E000BF00BF2046FF
:102B1000FDF730FF00BFCEE7985E002010B5334CC4
:102B2000207810B1607F012800D110BD60780528A1
:102B300055D2DFE800F00317303B4500052005F0D3
:102B400099F810B1032060700BE00020284908704C
:102B500041F270730A220121022005F06DFC012070
:102B600060703DE0052005F085F860B1022005F0B9
:102B7000A7FE4FF4AF730A220121022005F05CFC8E
:102B80000220607006E00220FEF70EFF10B142F650
:102B90000630206224E00220FEF706FF28B1012063
:102BA000134908704FF6FF70206219E04FF4C873A4
:102BB0000A220021022005F03FFC042060700FE093
:102BC0000220FEF7F1FE48B1052005F053F810B9D8
:102BD0000020607002E042F60730206200E000BF93
:102BE00000BF2046FDF7C6FE00BF9EE7CC5E00207A
:102BF000E425002010B52B4C207810B1607F01280F
:102C000000D110BD607830B101281AD0022820D040
:102C100003283FD128E024480078022803D14FF64A
:102C2000FF7020620CE020480078012802D10220C9
:102C3000607005E01D49204601F0F6FD012060703E
:102C400029E01A492046FEF795FE08B1022060707F
:102C500021E01748B0F90C300A220021022005F0CB
:102C6000EBFB0320607016E00220FEF79DFE80B1B2
:102C7000052004F0FFFF30B902200B4908704FF621
:102C8000FF70206205E000200749087042F6193005
:102C9000206200E000BF00BF2046FDF76BFE00BFD2
:102CA000AFE70000005F0020E4250020CC5E00209C
:102CB000C25A002010B5114C207810B1607F012855
:102CC00000D110BD607820B1012805D002280ED1B6
:102CD00009E0012060700BE000210A2003F03AFFB8
:102CE0000220607004E04FF6FF70206200E000BF39
:102CF00000BF2046FDF73EFE00BFE2E7D05F0020A8
:102D000010B5114C207810B1607F012800D110BDA2
:102D1000607820B1012805D002280ED109E00120F9
:102D200060700BE001210A2003F014FF02206070A4
:102D300004E04FF6FF70206200E000BF00BF2046B5
:102D4000FDF718FE00BFE2E79C5F002070B5314C34
:102D5000207810B1607F012800D170BD607806280E
:102D600050D2DFE800F003071B35414B002501205E
:102D7000607048E0182004F07DFF58B12648B0F993
:102D8000222041F288330121042005F055FB022066
:102D9000607002E042F61530206234E01C2004F03E
:102DA00069FF28B1042005F08BFD052060700EE05E
:102DB0000420FEF7F9FD50B1032D04DA681CC5B2FA
:102DC0000320607003E0002542F6163020621AE00E
:102DD0001148B0F9222041F288330021042005F087
:102DE0002BFB042060700EE0182004F043FF20B19C
:102DF000042005F065FD0120607004E04FF6FF70CF
:102E0000206200E000BF00BF2046FDF7B3FD00BF19
:102E1000A3E70000DC620020C25A002070B5354CE8
:102E2000207810B1607F012800D170BD607806283D
:102E300059D2DFE800F00307131D305000250120B0
:102E4000607051E02C48B0F9222040F6B8330021E0
:102E5000042005F0F1FA0220607045E0182004F02B
:102E600009FF20B1042005F02BFD032060703BE03A
:102E70002248007803280BD11F48B0F9222040F6E1
:102E8000B8330021042005F0D7FA0420607001E077
:102E90000520607028E0162004F0ECFE58B91648B2
:102EA000B0F922204FF496730021042005F0C4FAF3
:102EB000052060700EE00420FEF776FD50B1032D72
:102EC00004DA681CC5B20320607003E0002542F6F6
:102ED0001730206208E00420FEF766FD10B14FF6BF
:102EE000FF70206200E000BF00BF2046FDF742FDFA
:102EF00000BF9AE710630020C25A00200926002074
:102F000010B53D4C207810B1607F012800D110BD74
:102F10006078092868D2DFE800F005081925313902
:102F200040525E00012060705FE034480078032862
:102F300009D0012032490870032030490870314916
:102F4000204601F071FC022060704EE02D492046C1
:102F5000FEF710FD28B12C49204601F065FC032046
:102F6000607042E028492046FEF704FD28B1274959
:102F7000204601F059FC0420607036E023492046C9
:102F8000FEF7F8FC08B1052060702EE020492046CD
:102F900001F04AFC0620607027E01D492046FEF73C
:102FA000E9FC58B101201649087005201349087042
:102FB0001449204601F038FC0720607015E01149E3
:102FC0002046FEF7D7FC28B10F49204601F02CFC23
:102FD0000820607009E00C492046FEF7CBFC10B1D8
:102FE0004FF6FF70206200E000BF00BF2046FDF7F3
:102FF000C1FC00BF8BE70000786300200926002099
:103000000826002070610020D86100201063002095
:10301000A461002010B5114C207810B1607F012808
:1030200000D110BD607820B1012805D002280ED152
:1030300009E0012060700BE00021092003F08AFD07
:103040000220607004E04FF6FF70206200E000BFD5
:1030500000BF2046FDF78EFC00BFE2E74062002083
:1030600010B5114C207810B1607F012800D110BD3F
:10307000607820B1012805D002280ED109E0012096
:1030800060700BE00121092003F064FD02206070F4
:1030900004E04FF6FF70206200E000BF00BF204652
:1030A000FDF768FC00BFE2E70C62002010B51B4C86
:1030B000207810B1607F012800D110BD607830B158
:1030C00001280BD0022811D003281FD115E0144984
:1030D000204601F0A9FB0120607018E0104920464D
:1030E000FEF748FC08B10220607010E00D49204650
:1030F00001F09AFB0320607009E00A492046FEF7C0
:1031000039FC10B14FF6FF70206200E000BF00BF35
:103110002046FDF72FFC00BFCFE70000C05B00207A
:10312000F45B0020285C002010B55E4C207810B1C4
:10313000607F012800D110BD60780D2875D2DFE8CE
:1031400000F0070D14202C38444C647981939C00C6
:10315000002055490870012060709DE053492046C9
:1031600001F062FB0220607096E050492046FEF7B5
:1031700001FC28B14E49204601F056FB0320607047
:103180008AE04B492046FEF7F5FB28B14949204625
:1031900001F04AFB042060707EE046492046FEF7BD
:1031A000E9FB28B14449204601F03EFB0520607050
:1031B00072E041492046FEF7DDFB28B13F49204639
:1031C00001F032FB0620607066E03C492046FEF7C5
:1031D000D1FB08B1072060705EE0012004F04AFDD9
:1031E00048B948F6A04396220121084605F024F983
:1031F0000A20607008E04FF47073962200210120CD
:1032000005F01AF90820607046E00120FEF7CCFBBB
:1032100078B1012004F02EFD40B94FF4967120469C
:1032200001F086FA0920607003E034E042F6F920EC
:10323000206231E02046FDF775F8012801D1072012
:10324000607029E0012004F015FD28B1012005F08F
:1032500037FB0B20607006E00120FEF7A5FB10B1E4
:1032600042F6FA20206217E0182364220121084662
:1032700005F0E2F80C2060700EE00120FEF794FBF0
:1032800040B1012005F060FA0620074908704FF6AA
:10329000FF70206200E000BF00BF2046FDF76AFB20
:1032A00000BF48E7585B0020E9250020CC5E0020E5
:1032B000345F0020985E0020305E0020C85D002052
:1032C00010B5404C207810B1607F012800D110BDAE
:1032D000607807286ED2DFE800F0040A2C404759D6
:1032E00062000020384908700120607063E01420FB
:1032F00004F0C0FCA0B9182004F0BCFC30B14FF4BD
:10330000FA6364220021042005F096F84FF47A73E2
:1033100032220021052005F08FF80420607007E0BC
:10332000DC2332220121052005F086F8022060709E
:1033300041E00520FEF738FB70B1142004F09AFC40
:1033400038B94FF49671204601F0F2F9032060700D
:1033500002E042F6123020622DE02046FCF7E2FF48
:10336000012800D1607026E0142004F083FC28B10D
:10337000052005F0A5FA0520607006E00520FEF79F
:1033800013FB10B142F61330206214E0B423142270
:103390000021052005F050F8062060700BE00520A4
:1033A000FEF702FB28B10120074908704FF6FF70B5
:1033B000206200E000BF00BF2046FDF7DBFA00BF3F
:1033C00085E70000A46100201026002010B54C4CB9
:1033D000207810B1607F012800D110BD60780928E5
:1033E00077D2DFE800F0050B19213D51596B7700CA
:1033F000002044490870012060707AE0424800785B
:10340000012802D10320607005E04049204601F008
:103410000BFA022060706CE03C492046FEF7AAFAE5
:1034200008B10320607064E0172004F023FC58B951
:103430003748B0F914204FF4FA530021062004F065
:10344000FBFF062060700AE03148B0F914204FF409
:1034500096730121062004F0EFFF0420607048E01D
:103460000620FEF7A1FA70B1172004F003FC38B96A
:103470004FF49671204601F05BF90520607002E080
:1034800042F60F30206234E02046FCF74BFF012863
:1034900001D1032060702CE0172004F0EBFB28B171
:1034A000062005F00DFA0720607006E00620FEF702
:1034B0007BFA10B142F6103020621AE01448B0F9DD
:1034C00014200A230021062004F0B6FF08206070B3
:1034D0000FE00DE00620FEF767FA40B1062005F088
:1034E00033F90620074908704FF6FF70206200E0AC
:1034F00000BF00BF2046FDF73DFA00BF6DE70000AA
:103500003C6100200926002010260020A461002034
:10351000C25A002010B5584C207810B1607F0128A5
:1035200000D110BD60780D2879D2DFE800F00711D6
:103530001C29303C4854606C7985910000204F492B
:1035400008704F4908704F490870012060708CE086
:103550004D49204601F068F94C49204601F064F9D4
:103560000220607081E048492046FEF703FA30B13E
:1035700046492046FEF7FEF908B10320607074E06A
:103580004349204601F050F9042060706DE0404945
:103590002046FEF7EFF928B13E49204601F044F9F4
:1035A0000520607061E03B492046FEF7E3F928B151
:1035B0003949204601F038F90620607055E0364957
:1035C0002046FEF7D7F928B13449204601F02CF9FE
:1035D0000720607049E031492046FEF7CBF928B159
:1035E0002F49204601F020F9082060703DE02C4969
:1035F0002046FEF7BFF928B12A49204601F014F908
:103600000920607031E027492046FEF7B3F928B160
:103610002549204601F008F90A20607025E023E0E2
:1036200021492046FEF7A6F928B12049204601F09D
:10363000FBF80B20607018E01C492046FEF79AF951
:1036400028B11B49204601F0EFF80C2060700CE017
:1036500017492046FEF78EF928B101200749087066
:103660004FF6FF70206200E000BF00BF2046FDF76C
:1036700081F900BF55E70000245B0020E62500200B
:10368000E4250020E52500202C5D002004600020BA
:10369000CC5E0020345F0020985E0020305E002069
:1036A000C85D0020C05B0020585B00203C6100200A
:1036B000A461002010B51F4C207810B1607F012854
:1036C00000D110BD607810B101282CD113E0062084
:1036D00004F0D0FA18B14FF6FF7020620AE0012121
:1036E000042003F037FA40F6B831204601F020F804
:1036F0000120607018E0062004F0BCFA38B1032104
:10370000042003F027FA4FF6FF7020620AE02046FB
:10371000FCF708FE30B10321042003F01BFA42F647
:103720000130206200E000BF00BF2046FDF722F913
:1037300000BFC6E75C5C002010B51F4C207810B1BC
:10374000607F012800D110BD607810B101282CD114
:1037500013E0072004F08EFA18B14FF6FF702062D4
:103760000AE00121042003F0F5F940F6B8312046C3
:1037700000F0DEFF0120607018E0072004F07AFA04
:1037800038B10321042003F0E5F94FF6FF70206201
:103790000AE02046FCF7C6FD30B10321042003F007
:1037A000D9F942F60230206200E000BF00BF204697
:1037B000FDF7E0F800BFC6E7905C002010B5234C91
:1037C000207810B1607F012800D110BD607830B141
:1037D000012813D002281DD0032830D126E0002074
:1037E0001B4908701B490870012005F069F81A4947
:1037F000204601F019F80120607021E016492046AA
:10380000FEF7B8F828B11549204601F00DF802205E
:10381000607015E011492046FEF7ACF828B1104958
:10382000204601F001F80320607009E00C492046B1
:10383000FEF7A0F810B14FF6FF70206200E000BF65
:1038400000BF2046FDF796F800BFBEE708610020E4
:10385000D46000206C600020C85D0020305E002035
:10386000985E002010B59C4C207810B1607F012834
:1038700000D110BD60781C2878D2DFE800F00E1966
:10388000202C3844777777777777774C586B788A1E
:1038900096A8BBC7D9E4FAF8F7F6022004F0EAF9D3
:1038A00010B90120607002E042F60A3020620DE19A
:1038B0008A49204600F0B8FF0220607006E187497F
:1038C0002046FEF757F828B18549204600F0ACFFA6
:1038D00003206070FAE082492046FEF74BF828B1D9
:1038E0008049204600F0A0FF04206070EEE07D4992
:1038F0002046FEF73FF828B17B49204600F094FFB0
:1039000005206070E2E078492046FEF733F808B100
:103910000D206070DAE00120744908707449087065
:103920007449204600F080FF0E206070CEE0042035
:1039300004F0A0F910B10F2060700AE06D49204634
:10394000FEF718F828B1012004F0BAFF42F60B3058
:103950002062BBE067492046FEF70CF828B16649B3
:10396000204600F061FF10206070AFE0ADE06249DA
:103970002046FDF7FFFF58B16048B0F910004FF442
:103980007A7200FB02F1204600F0D2FE1120607036
:103990009CE02046FCF7C6FC012805D15249204690
:1039A00000F042FF1220607090E04F492046FDF782
:1039B000E1FF58B101204D49087002204C490870C0
:1039C0004C49204600F030FF132060707EE0032059
:1039D00004F050F910B1142060700AE04549204607
:1039E000FDF7C8FF28B1012004F06AFF42F60C3051
:1039F00020626BE03F492046FDF7BCFF28B14049FB
:103A0000204600F011FF152060705FE03C49204621
:103A1000FDF7B0FF58B13948B0F912004FF47A728F
:103A200000FB02F1204600F083FE162060704DE09E
:103A30002046FCF777FC28B12A49204600F0F4FE26
:103A40001720607042E027492046FDF793FF58B1E8
:103A50000120264908700320254908702549204681
:103A600000F0E2FE1820607030E025E019E00CE084
:103A7000FFE720492046FDF77DFF28B12149204678
:103A800000F0D2FE1920607020E01E492046FDF7AC
:103A900071FF28B11C49204600F0C6FE1A20607054
:103AA00014E0022004F0E6F810B91B20607002E078
:103AB00042F60D30206209E013492046FDF75AFF17
:103AC00010B14FF6FF70206200E000BF00BF20463B
:103AD000FCF750FF00BFCCE66C600020285C0020A3
:103AE000CC5E0020305E0020C85D0020E82500206C
:103AF000E92500208C5B0020945D0020C25A002044
:103B0000FC5D0020005F0020F45B002010B51B4C22
:103B1000207810B1607F012800D110BD607810B10D
:103B2000012824D113E00D2004F0A4F818B14FF6B9
:103B3000FF7020620AE00121084603F00BF840F60E
:103B4000B831204600F0F4FD0120607010E00D2037
:103B500004F090F818B14FF6FF70206206E020469E
:103B6000FCF7E0FB10B142F6FB20206200E000BF52
:103B700000BF2046FCF7FEFE00BFCEE7945D0020AC
:103B800010B51B4C207810B1607F012800D110BD0A
:103B9000607810B1012824D113E00C2004F06AF8F9
:103BA00018B14FF6FF7020620AE00021012002F0F8
:103BB000D1FF40F6B831204600F0BAFD0120607018
:103BC00010E00C2004F056F818B14FF6FF70206298
:103BD00006E02046FCF7A6FB10B142F6FC2020626E
:103BE00000E000BF00BF2046FCF7C4FE00BFCEE7E8
:103BF000C85D002010B52B4C207810B1607F0128E3
:103C000000D110BD607830B101281AD0022820D030
:103C100003283FD128E024480078022803D14FF63A
:103C2000FF7020620CE020480078012802D10220B9
:103C3000607005E01D49204600F0F6FD012060702F
:103C400029E01A492046FDF795FE08B10220607070
:103C500021E01748B0F90E300A220021032004F0B9
:103C6000EBFB0320607016E00320FDF79DFE80B1A2
:103C7000102003F0FFFF30B902200B4908704FF607
:103C8000FF70206205E000200749087042F61A30F4
:103C9000206200E000BF00BF2046FCF76BFE00BFC3
:103CA000AFE70000685F0020E5250020345F0020BA
:103CB000C25A002010B5324C207810B1607F012824
:103CC00000D110BD6078052853D2DFE800F003175B
:103CD0002F3A4300102003F0CDFF10B10320607095
:103CE0000BE00020274908704FF4FA630A220121F3
:103CF000032004F0A1FB012060703BE0102003F0E2
:103D0000B9FF58B1032004F0DBFD64230A2201212E
:103D1000032004F091FB0220607006E00320FDF711
:103D200043FE10B142F60830206223E00320FDF785
:103D30003BFE28B10120134908704FF6FF70206246
:103D400018E0C8230A220021032004F075FB042098
:103D500060700FE00320FDF727FE48B1102003F04C
:103D600089FF10B90020607002E042F6093020623D
:103D700000E000BF00BF2046FCF7FCFD00BFA0E74D
:103D8000345F0020E52500200149086270470000EB
:103D900000000E422DE9F05F80460F4691461D4619
:103DA0004FF0000B0026B246C7EBC70000EB8000C7
:103DB0002B4901EB001000F10C04802104F10C00F0
:103DC000FCF7FBF940202073402161732821A17387
:103DD0004121E1732774B8F1000F07D02148007822
:103DE00040F0800161742178A1740EE01D480178D3
:103DF0006174A078FF2801D1012060706178A174FE
:103E00006078A0706078401C6070290AE1742575A4
:103E1000002607E006F1090019F8002004F10C0162
:103E20000A54761CAE42F5D394F80FA0012606E0A2
:103E3000F01C04F10C01085C80EA0A0A761CA81D3B
:103E40008642F5D3C01C04F10C0101F800A0292220
:103E5000401C0A5405F10B0B5846BDE8F09F0000CA
:103E600074390020D42500207047000070B500256B
:103E700046480078002870D0002044490870444823
:103E8000407A632823DC4FF4007241494148FCF733
:103E90007BF93F48807A3E49C97A083188403C49DD
:103EA000497A3D4A52F8211088613949497A52F8D5
:103EB000210000F0D9FC18B1E0203849887202E0F6
:103EC000E1203649887201203549086026E03048F3
:103ED000407A642819D14FF400722D49491C2D48AD
:103EE000FCF752F92A49897A2B4A52F8210000F04E
:103EF000BBFC18B1E0202949887202E0E120274983
:103F0000887201202649086008E02148407AC828C4
:103F100002DB00F04DF801E000F0C4F940201F4939
:103F200008704870282088704120C8701D480078AB
:103F300008711D48007848711C480078887118483D
:103F40000088401C000AC87115480078401C08729F
:103F50000F48407A4872002406E015E0E01C0F4943
:103F6000085C4540601CC4B20D480068C01D844216
:103F7000F4D30B4800680A3008490D542921084839
:103F800000680B30054A115470BD00001400002079
:103F9000342600207437002014640020F42B002005
:103FA00018000020D5250020D42500202400002062
:103FB00070B500249E48407AD1287BD00BDCA0F15C
:103FC000C5000C286CD2DFE800F01F6B6B1B293595
:103FD0003E43485C616CD62875D008DCD22879D085
:103FE000D3287CD0D42871D0D52859D1B3E0D72894
:103FF0006DD0D8286CD0FE286BD0FF28F5D10CE10D
:104000004FF00060804710E18AA002F025F8FD2003
:104010009049887201209049086006E1844AD17A6B
:10402000907A02F097FDE0208A49887201208A493F
:104030000860FAE004F0BEFCE020864988720120A6
:1040400085490860F1E002F013FB83490860ECE069
:1040500002F0A8FA80490860E7E0804800787D49CE
:1040600088727E480088000AC8727C480068000C8C
:1040700008737A480068000E487304207649086087
:10408000D3E003F0EFF974490860CEE004F09CF946
:10409000E0207049887201206F490860C5E009E09E
:1040A000C2E0FDF734FAE0206A49887201206A49CB
:1040B0000860BAE000F0B6FBE02066498872012093
:1040C00065490860B1E056E004E008E025E061E001
:1040D0006EE07CE002F044FB5F490860A5E001244B
:1040E00010E05F4850F82400066AC6F30720082154
:1040F00001EB4401574A5054092101EB4401565445
:10410000601CC4B2574800788442EADB5548007806
:10411000401E40005049086087E0012410E05048EC
:1041200050F824000569C5F30720082101EB44017C
:10413000484A5054092101EB44015554601CC4B253
:10414000484800788442EADB46480078401E400038
:104150004149086069E0364AD17A927A404B53F877
:10416000220000F01BFA10B1E0203A4988720120C9
:104170003949086059E02E4AD17A927A384B53F87F
:10418000220000F079FBE020324988720120324998
:1041900008604AE02649897A314A52F82100FDF741
:1041A000DFFCE0202B49887201202B4908603CE0AD
:1041B0001F4AD17A927A2A4B53F8220000F0B5FABE
:1041C000E020244988720120234908602DE0184826
:1041D000807A4D280FD1002405E01549601C085C49
:1041E0000855601CC4B2204800680C308442F4D3E7
:1041F000FFF7DEFE10E00E48807A532806D1E0205B
:104200001449887201201449086005E0E020114932
:10421000887201201049086007E0E0200D4988728B
:1042200001200D49086000E000BF00BF70BD000024
:1042300034260020506C6561736520676F20746FB1
:1042400020426F6F746C6F6164657220466972738F
:1042500074210A00F42B0020180000201C250020E7
:1042600014640020E72500202C00002000200FE02F
:10427000094931F91020094B411C43F82120064A15
:104280000A3132F91120064B411C43F82120C8B2F3
:104290000528EDDB70470000C25A0020F025002001
:1042A0001426002010B500243348407A822847D0D5
:1042B0000CDC6F282FD004DC642822D06E2858D163
:1042C00022E071282ED0722853D132E0832847D0C3
:1042D000842849D0C62802D0C7284AD108E0FDF773
:1042E000B5FBE0202549887201202549086041E09E
:1042F000FDF7C0FBE02021498872012020490860B9
:1043000038E000F015F935E0E0201C498872012002
:104310001B4908602EE0E0201849887201201849E6
:10432000086027E0E02015498872012014490860E0
:1043300020E0E0201149887201201149086019E04D
:10434000002407E00F48015D04F10A000B4A1154F4
:10435000601CC4B20A2CF5DB0A200949086009E098
:1043600001200749086005E002F0C2F9044908602D
:1043700000E000BF00BF10BD34260020F42B002059
:1043800018000020B85A002029B1064A5269024399
:10439000044B5A6104E0034A52698243014B5A615B
:1043A000704700000010024029B1064AD26902435A
:1043B000044BDA6104E0034AD2698243014BDA61BB
:1043C000704700000010024029B1064A12690243FA
:1043D000044B1A6104E0034A12698243014B1A61DB
:1043E000704700000010024029B1064A926902435A
:1043F000044B9A6104E0034A92698243014B9A613B
:10440000704700000010024029B1064AD2680243FA
:10441000044BDA6004E0034AD2688243014BDA605D
:10442000704700000010024030B500210022002437
:1044300000232D4D6D6805F00C0121B1042905D034
:10444000082923D105E0294D056022E0274D0560AC
:104450001FE0254D6D6805F47012234D6D6805F45D
:104460008034022505EB92421CB9214D554305606D
:104470000BE01D4D6D6815F4003F03D01C4D5543F6
:10448000056002E0194D5543056002E0174D0560D7
:1044900000BF00BF144D6D6805F0F0010909154D0E
:1044A0006B5C0568DD4045600F4D6D6805F4E061AB
:1044B000090A104D6B5C4568DD4085600A4D6D68EA
:1044C00005F46051C90A0B4D6B5C4568DD40C56061
:1044D000054D6D6805F44041890B074D6B5CC5685F
:1044E000B5FBF3F5056130BD0010024000127A0003
:1044F00000093D00000000201000002000210A4AB1
:1045000011700A4A82F82010012802D0042808D12C
:1045100003E00121044A117004E00521024A1170F0
:1045200000E000BF00BF70472010024000100240B2
:1045300010B5022409E0164951F824004FF6FF7225
:104540002146FDF701F8601CC4B21248007884428D
:10455000F1DB012405E00021204602F0FBFA601C9B
:10456000C4B20C2CF7DD01240FE0204604F0A8F9BA
:104570000121204604F02AF9002004EBC401064A78
:1045800002EBC1014871601CC4B2082CEDDD10BD06
:1045900014640020E72500205055002010B5024685
:1045A0000B460120107082F82430002082F825008C
:1045B0001146086AA0F57F44FF3C01D00020086244
:1045C0000020487709E0C96A086AA0F57F44FF3CEB
:1045D00001D00020086200204877C86A8842F2D1E2
:1045E000012010BD00B587B0012141F20400FFF7A2
:1045F000FBFEE020ADF8040001208DF80600182035
:104600008DF8070001A91C48FCF7A2FE1020ADF8A8
:10461000040001208DF8060010208DF8070001A984
:104620001548FCF795FE10211348FCF76EFF00209B
:10463000ADF808004FF48270ADF80A000020ADF824
:104640000C00ADF80E00ADF810004FF40070ADF89E
:1046500012001020ADF814000020ADF8160007205D
:10466000ADF8180002A9054800F040F80121034800
:1046700000F022F807B000BD000801400030014002
:1046800010B5044600BF02210A4800F021F80028B6
:10469000F9D02146074800F027F800BF012105485E
:1046A00000F016F80028F9D0024800F01AF8C0B25D
:1046B00010BD00000030014021B1028842F04002EC
:1046C000028004E002884FF6BF731A4002807047F0
:1046D0000246002013890B4201D0012000E0002097
:1046E00070470146888970478181704710B5002264
:1046F000028802F441520B884C8823438C88234360
:10470000CC8823430C8923434C8923438C8923433E
:10471000CC8923431A430280838B4FF2FF742340DA
:1047200083830B8A038210BD7047017770470000B6
:10473000024A126842614160704700002C25002047
:1047400010B500F001F810BD0CB5002001900090EC
:104750003248006840F480303049086000BF2F487C
:10476000006800F4003000900198401C019000980F
:1047700018B90198B0F5A06FF1D12848006810F47D
:10478000003F02D00120009001E00020009000983E
:10479000012842D12248006840F0100020490860FA
:1047A0000846006820F0030008600846006840F0F2
:1047B0000200086019484068184948600846406887
:1047C00048600846406840F4806048600846406899
:1047D00020F47C1048600846406840F4E8104860C7
:1047E0000846006840F08070086000BF0B48006811
:1047F00010F0007FFAD00948406820F00300074914
:1048000048600846406840F00200486000BF034826
:10481000406800F00C000828F9D10CBD00100240DF
:1048200000200240704700000246012001F10C0107
:1048300001F80C0C4FF0000001F80B0C08744874E0
:1048400088744861087648768876C8764877A1F1FA
:104850000C011163CA620348006888604FF00100D0
:10486000704700002C25002000B5034600211846A3
:1048700000F002F800BD00000246012002F10C0227
:1048800002F80C0C4FF0000002F80B0C117450747D
:1048900090745061107650769076D0765077A2F171
:1048A0000C02D26212630348006890604FF001006E
:1048B000704700002C25002010B5FEF72BFEFEF7F8
:1048C00033FCFDF7C1F9FEF7F1FBFDF7E1FAFDF767
:1048D000A7FAFEF7EFFEFEF72FFFFDF763FFFDF7E8
:1048E000A3FFFEF77DF8FDF731FBFFF749F9FFF76E
:1048F0000DF9FDF7EDFBFDF7B1FBFEF7D5F8FEF77F
:1049000099F8FEF70BF9FEF775F9FFF7D3F9FFF702
:1049100071F9FEF7F5F9FEF7CDF9FEF73BF8FDF773
:10492000EFFAFEF79FFFFDF76BFEFDF70BFCFEF7BE
:1049300045FFFEF74BFDFDF747FDFEF7C1FCFDF718
:104940002FFBFEF78DFBFEF765FBFDF705FFFDF77F
:10495000DDFEFEF7FBF9FEF761FAFDF7EDFDFEF770
:10496000CFFAFDF7A3FFFDF7FFF810BD124800686E
:10497000401C1149086011480068401C0F4908603C
:104980000D480068B0F5FA7F15D300200A49086089
:104990000B48007818B101200A49086003E00120A3
:1049A0000849091F08600648007808B9012000E09E
:1049B0000020034908707047002500202C250020A6
:1049C000FC2400201408014010B51348006840F092
:1049D00001001149086008464068104908400E4926
:1049E0004860084600680E4908400B4908600846C0
:1049F000006820F4802008600846406820F4FE002B
:104A000048604FF41F008860FFF79AFE4FF0006087
:104A10000449086010BD0000001002400000FFF8CB
:104A2000FFFFF6FE08ED00E02DE9F0470027B8464D
:104A3000B946BA460221480700F0C5FD18B1FD4D40
:104A4000012600241CE00421080700F0BCFD18B179
:104A5000F94D0226012413E00821C80600F0B3FD39
:104A600018B1F64D032602240AE01021880600F052
:104A7000AAFD18B1F24D0426032401E0BDE8F08739
:104A800004EBC400EF4901EBC000807830B304EBC5
:104A9000C40001EBC000406935F8108004EBC4008D
:104AA00001EBC000406B401C04EBC401E54A02EB83
:104AB000C101486304EBC400114601EBC000406B28
:104AC000C8280AD9002004EBC40102EBC101887098
:104AD00004EBC40102EBC1014863BAE104EBC4007A
:104AE000D84901EBC000007998B9012004EBC4015A
:104AF000D44A02EBC10108710021304603F0B2FE36
:104B000004EBC400CF4901EBC000406935F81080C8
:104B10009FE1002004EBC401CA4A02EBC101087105
:104B2000012004EBC40102EBC101C8700121304631
:104B300003F098FE04EBC400C24901EBC0004079C9
:104B400058B904EBC40001EBC0008069401C04EBC1
:104B5000C401BC4A02EBC101886104EBC400B9493D
:104B600011F83000B849095D88420DD104EBC4004A
:104B7000B44901EBC000806B401C04EBC401B14A96
:104B800002EBC10188630CE004EBC400AD4901EB0A
:104B9000C000806B401E04EBC401AA4A02EBC101B5
:104BA000886304EBC400A74901EBC00040780128EA
:104BB00015D104EBC40001EBC000806804EBC40114
:104BC000A04A02EBC101C860002004EBC40102EB63
:104BD000C101886004EBC40102EBC101086104EB70
:104BE000C400984901EBC000806828B304EBC400FE
:104BF00001EBC000406935F8108004EBC40001EB04
:104C0000C0008068401E04EBC4018E4A02EBC10163
:104C1000886004EBC400114601EBC000806858B303
:104C200004EBC40001EBC0004069401C04EBC4016C
:104C300002EBC10148614CE004EBC400814901EB87
:104C4000C0000069C8B104EBC40001EBC0004069BA
:104C500035F8108004EBC40001EBC000407958B96E
:104C600004EBC40001EBC0000069401E04EBC4016A
:104C7000744A02EBC10108612BE004EBC4007149E6
:104C800001EBC000C06820B304EBC40001EBC0001E
:104C9000406935F8108004EBC40001EBC000C06827
:104CA000401E04EBC401674A02EBC101C86004EB7B
:104CB000C400114601EBC000406950B104EBC400D0
:104CC00001EBC0004069401E04EBC40102EBC101CE
:104CD000486104EBC4005B4901EBC000C06828BB1D
:104CE0002CB900220221480700F07EFC16E0012CBE
:104CF00005D100220421080700F076FC0EE0022C0A
:104D000005D100220821C80600F06EFC06E0032C45
:104D100004D100221021880600F066FC002004EB7C
:104D2000C401484A02EBC101C87092E004EBC40020
:104D3000444901EBC00090F83D00002879D00020E4
:104D400004EBC4013F4A02EBC10181F83D0004EBD2
:104D5000C400114601EBC000806804EBC40102EB03
:104D6000C1010969084404EBC40102EBC101C9682F
:104D700000EB010904EBC400114601EBC000406CDC
:104D800004EBC40102EBC101496988420DD904EB6F
:104D9000C400114601EBC000406C04EBC40102EBFF
:104DA000C1014969A0EB010A0DE004EBC4002549EB
:104DB00001EBC000406904EBC401224A02EBC101CF
:104DC000496CA0EB010A04EBC4001E4901EBC000D2
:104DD000406C504448453CD204EBC40001EBC00099
:104DE000C0F808A004EBC40001EBC000406C04EB69
:104DF000C401144A02EBC101C86004EBC4001146AF
:104E000001EBC0008068A9EB000004EBC40102EBD9
:104E1000C101C968401A04EBC40102EBC101086179
:104E200004EBC400114601EBC000406C04EBC4016C
:104E30000CE00EE0300100201805002000090020E1
:104E4000E80C002050550020E824002002EBC101AE
:104E5000086484B90221480700F0A4FA4FF08040AA
:104E600000F0A4FB074607EB080081B24FF080403A
:104E700000F01FFD33E0012C0ED10421080700F0E3
:104E800091FAA00700F095FB074607EB080081B2F6
:104E9000A00700F010FD22E0022C0ED10821C80668
:104EA00000F080FA600700F087FB074607EB080078
:104EB00081B2600700F001FD11E0032C0FD1102139
:104EC000880600F06FFA4FF0804000F078FB07464C
:104ED00007EB080081B24FF0804000F0F0FC00BF0B
:104EE000CCE500002DE9F0470027B846B946BA46A0
:104EF0000221FD4800F067FB18B1FC4D0526042493
:104F00001CE00421F84800F05EFB18B1F84D0626BD
:104F1000052413E00821F44800F055FB18B1F54DC5
:104F2000072606240AE01021EF4800F04CFB18B1D8
:104F3000F14D0826072401E0BDE8F08704EBC4002A
:104F4000EE4901EBC000807830B304EBC40001EB04
:104F5000C000406935F8108004EBC40001EBC000CC
:104F6000406B401C04EBC401E44A02EBC1014863FE
:104F700004EBC400114601EBC000406BC8280AD9FD
:104F8000002004EBC40102EBC101887004EBC401F2
:104F900002EBC1014863BDE104EBC400D74901EB5A
:104FA000C000007998B9012004EBC401D34A02EB98
:104FB000C10108710021304603F054FC04EBC40029
:104FC000CE4901EBC000406935F81080A2E1002015
:104FD00004EBC401C94A02EBC1010871012004EBD2
:104FE000C40102EBC101C8700121304603F03AFC54
:104FF00004EBC400C14901EBC000407958B904EB8F
:10500000C40001EBC0008069401C04EBC401BB4A32
:1050100002EBC101886104EBC400B84911F830000B
:10502000B749095D88420DD104EBC400B34901EBD7
:10503000C000806B401C04EBC401B04A02EBC1010C
:1050400088630CE004EBC400AC4901EBC000806B4A
:10505000401E04EBC401A94A02EBC101886304EBC2
:10506000C400A64901EBC0004078012815D104EB2B
:10507000C40001EBC000806804EBC4019F4A02EB4E
:10508000C101C860002004EBC40102EBC1018860CB
:1050900004EBC40102EBC101086104EBC4009749B1
:1050A00001EBC000806828B304EBC40001EBC00032
:1050B000406935F8108004EBC40001EBC000806843
:1050C000401E04EBC4018D4A02EBC101886004EB71
:1050D000C400114601EBC000806858B304EBC40063
:1050E00001EBC0004069401C04EBC40102EBC101AC
:1050F00048614CE004EBC400804901EBC00000694A
:10510000C8B104EBC40001EBC000406935F8108061
:1051100004EBC40001EBC000407958B904EBC400B3
:1051200001EBC0000069401E04EBC401734A02EBAE
:10513000C10108612BE004EBC400704901EBC00021
:10514000C06820B304EBC40001EBC000406935F82F
:10515000108004EBC40001EBC000C068401E04EBEB
:10516000C401664A02EBC101C86004EBC4001146E9
:1051700001EBC000406950B104EBC40001EBC0007A
:105180004069401E04EBC40102EBC101486104EB1D
:10519000C4005A4901EBC000C06830BB042C05D1E3
:1051A00000220221504800F01FFA16E0052C05D11C
:1051B000002204214C4800F017FA0EE0062C05D11D
:1051C00000220821484800F00FFA06E0072C04D11D
:1051D00000221021444800F007FA002004EBC4012B
:1051E000464A02EBC101C87094E004EBC400434995
:1051F00001EBC00090F83D00002874D0002004EBC3
:10520000C4013E4A02EBC10181F83D0004EBC40039
:10521000114601EBC000806804EBC40102EBC10140
:105220000969084404EBC40102EBC101C96800EB41
:10523000010904EBC400114601EBC000406C04EB13
:10524000C40102EBC101496988420DD904EBC400D5
:10525000114601EBC000406C04EBC40102EBC1013C
:105260004969A0EB010A0DE004EBC400234901EBFE
:10527000C000406904EBC401204A02EBC101496C43
:10528000A0EB010A04EBC4001C4901EBC000406C18
:10529000504448453ED204EBC40001EBC000C0F8C6
:1052A00008A004EBC40001EBC000406C04EBC40197
:1052B000124A02EBC101C86004EBC400114601EBC5
:1052C000C0008068A9EB000004EBC40102EBC1013F
:1052D000C968401A04EBC40102EBC101086104EB88
:1052E000C40011460EE015E000040040B814002090
:1052F000A0180020881C002070200020505500209D
:10530000E824002001EBC000406C04EBC40102EB78
:10531000C1010864042C0ED10221214800F042F89A
:105320001F4800F043F9074607EB080081B21C480C
:1053300000F0BFFA31E0052C0ED10421184800F02E
:1053400031F8174800F035F9074607EB080081B23D
:10535000134800F0B0FA20E0062C0ED108211048C6
:1053600000F020F80E4800F027F9074607EB080088
:1053700081B20B4800F0A1FA0FE0072C0DD11021EB
:10538000074800F00FF8064800F019F9074607EB48
:10539000080081B2024800F092FA00BFCCE500009C
:1053A00000040040CA430282704721B1028842F0E3
:1053B0000102028004E002884FF6FE731A40028068
:1053C0007047000010B504466848844208D10121A6
:1053D000C014FFF719F80021E014FFF715F8C4E036
:1053E000B4F1804F08D101210846FEF7EDFF0021FE
:1053F0000120FEF7E9FFB8E05D48844208D10121B1
:105400000220FEF7E1FF00210220FEF7DDFFACE005
:105410005848844208D101210420FEF7D5FF00211D
:105420000420FEF7D1FFA0E05348844208D10121B7
:105430000820FEF7C9FF00210820FEF7C5FF94E011
:105440004E48844208D101211020FEF7BDFF002103
:105450001020FEF7B9FF88E04948844208D10121B5
:105460002020FEF7B1FF00212020FEF7ADFF7CE0F9
:105470004448844208D101214014FEF7C5FF0021B1
:105480006014FEF7C1FF70E03F48844209D101215A
:10549000C804FEF7B9FF00214FF40020FEF7B4FF67
:1054A00063E03A48844209D101210805FEF7ACFFC8
:1054B00000214FF48010FEF7A7FF56E034488442E5
:1054C00009D101214805FEF79FFF00214FF400108C
:1054D000FEF79AFF49E02F48844208D1012140207D
:1054E000FEF772FF00214020FEF76EFF3DE02A48E4
:1054F000844208D101218020FEF766FF0021802030
:10550000FEF762FF31E02548844208D10121801571
:10551000FEF75AFF0021A015FEF756FF25E02048B0
:10552000844209D101210804FEF76EFF00214FF4E7
:105530008030FEF769FF18E01A48844209D1012142
:105540004804FEF761FF00214FF40030FEF75CFFD6
:105550000BE01548844208D101218804FEF754FF6E
:1055600000214FF48020FEF74FFF10BD002C0140BA
:105570000004004000080040000C00400010004003
:105580000014004000340140004C01400050014034
:105590000054014000180040001C00400020004062
:1055A0000040014000440140004801400146888E0F
:1055B00070470146088F70470146888F7047014643
:1055C000B1F84000704730B50246002000230024A7
:1055D000158A05EA0103958905EA010413B10CB1A6
:1055E000012000E0002030BD1AB183890B43838184
:1055F00002E083898B4383817047000070B50024EB
:1056000000220023058C4FF6FE7635400584028C7F
:105610008388048B4FF68F752C40B51E2C400D8867
:105620002C43751E2A400D892A434D882A43144D68
:10563000A8420BD0134DA84208D0134DA84205D064
:10564000124DA84202D0124DA84213D14FF6F77561
:105650002A404D892A434FF6FB752A408D882A43FC
:105660004FF6FF652B404FF6FF552B408D892B439E
:10567000CD892B4383800483CD888586028470BDC9
:10568000002C014000340140004001400044014032
:10569000004801400A460021018B4FF6F77319407C
:1056A000114301837047000070B5002400220023DD
:1056B000058C4FF6EF7635400584028C8388048B89
:1056C00048F6FF752C404FF6FF452C400D884FF6ED
:1056D000FF7606EA05252C434FF6DF752A400D8933
:1056E00006EA05152A434D8806EA05152A43154D95
:1056F000A84202D0144DA8421DD14FF67F752A4012
:105700004D894FF6FF7606EA05152A434FF6BF7519
:105710002A408D8806EA05152A434FF6FF352B40AF
:105720004FF2FF752B408D8906EA85052B43CD8905
:1057300006EA85052B4383800483CD880587028490
:1057400070BD0000002C0140003401400A460021D9
:10575000018B4FF2FF7319404FF6FF7303EA0223E8
:10576000194301837047000070B500240022002314
:10577000058C4FF6FF6635400584028C8388848B48
:105780004FF68F752C404FF6FC752C400D882C433E
:105790004FF6FF552A400D894FF6FF7606EA05259C
:1057A0002A434D8806EA05252A43154DA84202D012
:1057B000144DA8421DD14FF2FF752A404D894FF676
:1057C000FF7606EA05252A434FF6FF352A408D88E5
:1057D00006EA05252A434EF6FF752B404DF6FF7568
:1057E0002B408D8906EA05152B43CD8906EA051560
:1057F0002B4383808483CD888587028470BD00001D
:10580000002C0140003401400A460021818B4FF6F4
:10581000F7731940114381837047000070B500226F
:1058200000230024058C4EF6FF7635400584038C5A
:105830008488828B48F6FF752A404FF6FF452A4040
:105840000D884FF6FF7606EA05252A434DF6FF75CB
:105850002B400D8906EA05352B434D8806EA0535B0
:105860002B430B4DA84202D00A4DA84208D14BF65B
:10587000FF752C408D894FF6FF7606EA85152C437F
:1058800084808283CD88A0F84050038470BD0000DE
:10589000002C0140003401400A460021818B4FF268
:1058A000FF7319404FF6FF7303EA02231943818304
:1058B0007047818670470187704781877047A0F8DD
:1058C00040107047002202881D4B98420ED01D4B9D
:1058D00098420BD0B0F1804F08D01B4B984205D0B6
:1058E0001A4B984202D01A4B984204D14FF68F734C
:1058F0001A404B881A43174B984207D0164B9842D0
:1059000004D04FF6FF431A40CB881A4302808B889D
:1059100083850B8803850A4B98420BD0094B98422C
:1059200008D00E4B984205D00D4B984202D00D4B3B
:10593000984201D10B7A03860123838270470000CD
:10594000002C0140003401400004004000080040E9
:10595000000C0040001000400014004000400140D6
:10596000004401400048014010B540F225518F48E5
:1059700000F094FA00286FD08C4800F04BFBC4B2C2
:105980008B48007828B10020894908700120894996
:105990000870884800780C2816D2DFE800F0E3068B
:1059A00016273849535E6B9FB7C9402C0CD1402055
:1059B0008149087002207F49087001207F490870E2
:1059C0007F4800687F490860CCE0402C0AD1402025
:1059D000794948707A4800687A4908600320754917
:1059E000087002E0012073490870BBE0282C0AD13E
:1059F0002820714988707248006872490860042044
:105A00006C49087002E001206A490870AAE0412C44
:105A10000AD141206849C87069480068694908602E
:105A200005206449087002E001206249087099E08D
:105A300061480471624800686249086006205D4957
:105A400008708FE05C4844715D4800685D490860FB
:105A500007205849087085E085E057488471584808
:105A600000685849086000205749086008205149DB
:105A7000087077E054480068C01D4F490C545048E6
:105A800000685049086050480068401C4E49086052
:105A900008460068022820D14748C0794B49086071
:105AA00008460068000208604348007A0968084414
:105AB000464908600846006860B10846006840F240
:105AC000B551884206D800203F490860092039496D
:105AD000087002E001203749087043E03A48006846
