:020000040801F1
:1000000038650020650101084D1B0108191501081C
:100010002D1B0108050301084D6B010800000000BD
:100020000000000000000000000000005151010825
:10003000D90901080000000071480108AD5301080A
:100040007F0101087F0101087F0101087F0101088C
:100050007F0101087F0101087F010108C50F010828
:100060007F0101087F0101087F0101087F0101086C
:100070007F0101087F0101087F0101087F0101085C
:1000800071090108730901087F0101087F01010856
:10009000736A01087F0101087F010108D70F010879
:1000A0007F0101087F0101087F0101087F0101082C
:1000B00069540108255901087F0101087F010108E1
:1000C0007F0101087F0101087F0101087F0101080C
:1000D0007F0101087F010108296601087F010108ED
:1000E0007F0101087F010108676A01087F0101089B
:1000F0007F0101087F0101087F0101087F010108DC
:100100007F0101087F0101087F0101087F010108CB
:10011000A96301087F0101087F0101087F0101082F
:100120007F0101087F0101087F0101087F010108AB
:10013000DFF80CD000F084F800480047C1870108C0
:1001400038650020EFF30980704780F30988704715
:10015000EFF30880704780F30888704740BA704713
:10016000C0BA70470648804706480047FEE7FEE7EA
:10017000FEE7FEE7FEE7FEE7FEE7FEE7FEE7FEE757
:10018000095401083101010840EA01039B0703D02B
:1001900009E008C9121F08C0042AFAD203E011F8C6
:1001A000013B00F8013B521EF9D27047D2B201E088
:1001B00000F8012B491EFBD270470022F6E710B56C
:1001C00013460A4604461946FFF7F0FF204610BDC5
:1001D000421C10F8011B0029FBD1801A70472DE941
:1001E000F05F0546002092469B46884606468146BB
:1001F00040241BE0284641464746224600F041F88D
:1002000053465A46C01A914110D311461846224609
:1002100000F028F82D1A67EB01084F46224601200E
:10022000002100F01FF817EB00094E41201EA4F139
:100230000104DFDC484631462A464346BDE8F09FCC
:10024000064C074D06E0E06840F0010394E8070023
:1002500098471034AC42F6D3FFF76EFF6096010862
:1002600080960108202A04DB203A00FA02F10020DF
:1002700070479140C2F1200320FA03F319439040E4
:100280007047202A04DB203A21FA02F0002170474F
:1002900021FA02F3D040C2F12002914008431946EE
:1002A000704770B58D1810F8014B14F0030201D19E
:1002B00010F8012B231106D110F8013B03E010F8D0
:1002C000016B01F8016B521EF9D1B3B110F8012B8B
:1002D00004F00C048A1A0C2C04D0A2EB841203F153
:1002E000020308E010F8014BA2EB0422F7E712F832
:1002F000014B01F8014B5B1EF9D5A942D3D3002075
:1003000070BD000002A006F033FC00BFFEE7000055
:100310004275734661756C745F48616E646C65729A
:10032000210A000030B503460848016800225869D8
:10033000081A72F1000400D200BF5869091A5C68FB
:100340008C4201D8012030BD0020FCE7C41F0020F2
:100350002DE9F04106460027C6EBC60000EB800001
:10036000DFF83C8108EB001000F10C0191F88C00E3
:10037000402802D00320BDE8F0818D20405C402859
:1003800001D00420F7E78E20405C282801D005200A
:10039000F1E78F20405C412801D00720EBE7912056
:1003A000405CDFF8008188F800004046007810F0DB
:1003B000800F05D10020DFF8F08088F800000CE005
:1003C0000120DFF8E48088F800009120405C00F014
:1003D0007F00DFF8D08088F800009220435C32482C
:1003E000007838B923B10878984201D10120C2E7DA
:1003F0000B700CE023B18878984201D00B20BAE74B
:1004000091F89580487D804501D00C20B3E793207A
:10041000425C12029420405C024402F10B008860AE
:100420001AB140F2B550824201D90920A3E71E4813
:100430000078012806D191F89580487D804501D04B
:100440000C2098E702F1060C8F20475C012506E09E
:10045000E81C01F18C0818F8000047406D1C654548
:10046000F6D302F1090401F18C00005DB8420AD014
:1004700001F18C00005D2A2805D001F18C00005D9F
:1004800008B10A2077E701F18C0004F1010810F8A7
:100490000800292801D006206DE700206BE7000046
:1004A0001C3400206D2000202600002070471CB561
:1004B0000121084604F0ACFC0821062000F02CFFC6
:1004C0000521022000F028FF4FF4807000F0ACFD01
:1004D0004FF4007000F0A8FD00208DF80400082003
:1004E0008DF805004FF49070009001208DF8060003
:1004F000684600F0B3FD1CBD00B597B001210802AD
:1005000004F056FC012140F2E11004F081FC4CF2B1
:100510000370ADF81C0018208DF81F0003208DF823
:100520001E0007A9504800F017FF4FF68070ADF885
:100530001C0007A94D4800F00FFF7820ADF81C0003
:1005400007A94A4800F008FF4FF4C050ADF81C005E
:1005500007A9454800F000FF4FF23F00ADF81C002E
:1005600007A9434800F0F8FE3F20ADF81C0007A99A
:10057000404800F0F1FE3020ADF81C0007A93A48D1
:1005800000F0EAFE4FF4A050ADF81C0007A939486E
:1005900000F0E2FE0320ADF81C0007A9334800F08C
:1005A000DBFE0F200090052001900F20029000201C
:1005B00003900490052005900020069004200890E8
:1005C000002009900A900B900C900E900F901090C4
:1005D0004FF4805011900020129013901490CDF899
:1005E00054D0CDF858D008A800F026FE01210420F0
:1005F00000F008FE052000900020019005200290E8
:10060000002003900490059006900620089000209A
:1006100009900A9010200B9000200C900E900F90E3
:1006200010904FF480501190002012900D90139074
:100630001490CDF854D008A800F0FEFD05200090DD
:100640000020019005200290002003900490059066
:100650000690CDF858D008A800F0EEFD0121062044
:1006600000F0D0FD17B000BD00140140001801409B
:10067000001C01400020014010B500F011F800F00E
:10068000C5F804200149086010BD0000100C0140AD
:1006900010B54FF48031C80201F09EFA10BD000081
:1006A00008B540F20370ADF8000003208DF8020099
:1006B00014208DF803006946314800F04DFE0420F7
:1006C000ADF8000003208DF8020010208DF8030023
:1006D00069462C4800F040FE4EF22300ADF80000C1
:1006E00003208DF8020010208DF80300694625488C
:1006F00000F032FE4EF21000ADF8000003208DF83D
:10070000020010208DF8030069461F4800F024FE07
:100710004FF49C50ADF8000003208DF80200142027
:100720008DF803006946184800F016FE0C20ADF85D
:10073000000003208DF8020014208DF803006946A4
:10074000124800F009FE4FF4F860ADF800000320F5
:100750008DF8020010208DF8030069460C4800F067
:10076000FBFD4FF40060ADF8000003208DF802009F
:1007700014208DF803006946054800F0EDFD08BD22
:1007800000080140000C014000100140001401402D
:10079000001C014010B50121042004F039FB0121A7
:1007A000082004F035FB0121102004F031FB012169
:1007B000202004F02DFB0121402004F029FB012121
:1007C000802004F025FB0121080204F021FB012117
:1007D000C80204F01DFB0121084604F0F9FA0121CA
:1007E000022004F0F5FA0121042004F0F1FA0121BD
:1007F000082004F0EDFA0121202004F0E9FA01209C
:1008000003F0C6FF002004F08DFB10BD08B54FF4C7
:10081000C050ADF8000003208DF8020014208DF8C0
:10082000030069462A4800F097FD4FF43C60ADF89C
:10083000000003208DF8020014208DF803006946A3
:10084000244800F089FD4FF48050ADF800001020DE
:100850008DF8030003208DF8020069461D4800F062
:100860007BFD4020ADF8000003208DF8020014202D
:100870008DF803006946184800F06EFD4020ADF881
:10088000000003208DF8020014208DF80300694653
:10089000124800F061FD7C20ADF8000003208DF8C7
:1008A000020014208DF8030069460D4800F054FD45
:1008B0004EF6C030ADF8000003208DF80200142081
:1008C0008DF803006946074800F046FD08BD0000AA
:1008D00000080140000C01400010014000140140DC
:1008E000001801400020014030B5164800684FF460
:1008F0007A72B0FBF2F1B1F1807F01D301201DE0EB
:1009000021F07F40401E4FF0E022506150170F222F
:10091000002807DA13071D0E0B4B00F00F04241FED
:100920001D5503E013071C0E084B1C5400BF00208C
:100930004FF0E022906107201061002008B100BF55
:10094000FEE730BD9C1F002018ED00E000E400E051
:1009500029B1064A52680243044B5A6004E0034A34
:1009600052688243014B5A6070470000002004E047
:1009700070477047417890F82720914206D090F850
:10098000271080F82610417880F82710002180F881
:100990002410016AA1F57F42FF3A16D1002180F8A8
:1009A000251001700B490968C160D0E9022191420C
:1009B00006D2C16841F4803182688A1A026108E077
:1009C000D0E90221891A016103E0016A09B101211C
:1009D00041777047C41F00207047000010B50D20FC
:1009E00041490880A520488040F23710888040F2B5
:1009F000C110C8804FF4117008814FF4AF70488166
:100A00004FF4257088814FF41670C88164200882E5
:100A100028204882FA208882F520C882292008836D
:100A2000C3204883B02088830C20C8834FF4EB7028
:100A300008846420488440F2AA50888440F69800D4
:100A4000C8844FF4167008854FF48C7048854FF4B5
:100A5000877088854FF4FA70C8854000088650205A
:100A6000488640F2FA5088864FF48770C8864FF463
:100A7000FA70088740004887502088872020C88760
:100A80002120A1F840002220A1F842002320A1F853
:100A900044002420A1F846002520A1F84800262083
:100AA000A1F84A002720A1F84C002820A1F84E0008
:100AB0002920A1F850002A20A1F852002B20A1F8EB
:100AC00054002C20A1F856002D20A1F858002E200B
:100AD000A1F85A002F20A1F85C003020A1F85E0098
:100AE00004F0C8F810BD00006A55002070B5054636
:100AF0000026012D02D11148066803E0022D01D124
:100B00000F4806680F48407900F07F04C4EBC40129
:100B100001EB81010C4A02EB011101F19800324610
:100B20000849FFF731FBC4EBC40000EB8000064925
:100B300001EB00104661204670BD0000D00000208F
:100B400008010020DC2000201C3400200346062180
:100B500006221248018812480288A3B1012B1AD13B
:100B600032B9A1F56E40EE3800D170470120FCE7A4
:100B700039B9A2F56E40EE3801D10120F5E7002029
:100B8000F3E7AB20F1E709B90020EEE70AB901204D
:100B9000EBE7AB20E9E70020E7E7000000F00708FB
:100BA00000F8070810B504240B4800F0A1FA044629
:100BB000042C01D0204610BD0021074800F0E2FAC5
:100BC0000446042C01D02046F5E7044800F090FAD2
:100BD00004462046EFE7000000F0070800F8070889
:100BE0002DE9F0474FF0060A062600250027A84603
:100BF0004FF0FF397448B0F800A0744806885FEAE7
:100C00000A0074D0A0F56E40EE382AD0A0F58850C6
:100C100011386DD146B96C4800F06AFA0446042CCC
:100C20001ED02046BDE8F087A6F56E40EE3810D104
:100C3000654800F05DFA0446042C01D02046F1E737
:100C40000021624800F09EFA0446042C08D0204699
:100C5000E8E7FFF7A7FF0446042C01D02046E1E7B0
:100C6000AEE07EBB002522E05748C088584931F8E5
:100C70001510884201D10FFA85F94D4515D0544918
:100C800031F81500534900F021F98046B8F1010F01
:100C90000BD04F4931F815004E49098800F048F94A
:100CA0000746042F01D03846BCE7681C85B2C82D22
:100CB000DADB0021444800F065FA0446042C02D037
:100CC0002046AFE707E0414800F012FA0446042C42
:100CD0001FD02046A6E7A6F57F40FF3812D13B483B
:100CE00000F006FA0446042C03D020469AE711E0EF
:100CF0005EE00021344800F045FA0446042C08D098
:100D000020468FE7FFF74EFF0446042C01D0204613
:100D100088E755E036B9FFF745FF0446042C46D076
:100D200020467FE7A6F57F40FF3807D1274800F02F
:100D3000DFF90446042C3AD0204673E7002523E06F
:100D40002248801D0088224931F81510884201D1BF
:100D50000FFA85F94D4515D01D4931F815001D498B
:100D600000F0B4F88046B8F1010F0BD0184931F803
:100D700015001849098800F0DBF80746042F01D058
:100D800038464FE7681C85B2C82DD9DB00210F48D3
:100D900000F0F8F90446042C01D0204642E70A4846
:100DA00000F0A6F90446042C01D020463AE707E0FB
:100DB000FFF7F8FE0446042C01D0204632E700BFBE
:100DC00000BF04202EE7000000F0070800F8070825
:100DD000FC540020901F00202DE9F84F074689465B
:100DE0000425DFF8D0A0344800904FF0000800241C
:100DF00000264FF0000B0020FFF7A8FE8046B8F158
:100E0000010F04D1DFF8B4A02D4800900AE0B8F13A
:100E1000000F04D1DFF8A8A02848009002E0AB2022
:100E2000BDE8F88F4EF6EE61504600F0ABF905468E
:100E3000042D01D02846F3E74946384600F078F8FB
:100E40000646042E01D03046EAE700241CE01D4887
:100E500030F81400B84215D01A4931F814001A4974
:100E600000F034F88346BBF1010F0BD0154931F87F
:100E700014001549098800F05BF80646042E01D0DD
:100E80003046CDE7601C84B2C82CE0DB009800F04F
:100E90002FF90546042D01D02846C1E70021504610
:100EA00000F070F90546042D01D02846B8E7284621
:100EB000B6E70000FF0301080000010800F0070882
:100EC00000F80708FC540020901F00202DE9F0478F
:100ED00006460F46002445F255584FF00109124DC1
:100EE000AA460020FFF732FE0446AB2C01D1BDE834
:100EF000F0870E4800EBC42A601C0C49891E01EBE8
:100F0000C0250AE0B5F80080B04505D135F8020CDF
:100F100038804FF0000904E02D1F0AF102008542DD
:100F2000F0D800BF4846E2E70000010800F00708DB
:100F30002DE9F0470646884604270025154CDFF8C2
:100F400058900120FFF702FE0546AB2D01D1BDE808
:100F5000F087124800EBC524681C1049891E01EB7C
:100F6000C02913E02068401C0FD14146204600F004
:100F700009F90746042F01D03846E8E73146A01C9E
:100F800000F000F907463846E1E7241D4C45E9D357
:100F90008020DCE700000108FF07010800F00708D7
:100FA00070B505460E46002431462846FFF7C0FFBF
:100FB0000446802C04D131462846FFF70DFF044635
:100FC000204670BD10B5022000F034F810B10220A8
:100FD00000F02AF810BD10B5202000F02BF810B159
:100FE000202000F021F8402000F024F810B140202B
:100FF00000F01AF8802000F01DF810B1802000F0F9
:1010000013F84FF4807000F015F818B14FF48070A9
:1010100000F00AF84FF4007000F00CF818B14FF42B
:10102000007000F001F810BD014908607047000031
:1010300014040140014600200022074B1B6803EA0C
:101040000102054B14331B680B4202D00AB1012088
:1010500000E0002070470000000401400021234907
:101060008279002A3AD00A46126803689A430B46EE
:101070001A600A1D126803689A430B1D1A600279F0
:1010800011440A6803681A430A60184A0832126851
:1010900003689A43154B08331A601A1D12680368D7
:1010A0009A43124B0C331A604279102A0ED11A1F40
:1010B000126803681A430D4B08331A601A1D126830
:1010C00003681A43094B0C331A600DE00749427953
:1010D00011440A6803681A430A6005E00279114462
:1010E0000A6803689A430A607047000000040140E0
:1010F00030B5044604254FF4302000F06FF8054663
:10110000042D17D10C48006940F002000A4908611B
:1011100008464461006940F0400008614FF4302007
:1011200000F05CF805460448006941F6FD7108408E
:1011300001490861284630BD0020024004200B49C7
:10114000C96811F0010F01D001200EE00749C968FC
:1011500011F0040F01D0022007E00449C96811F022
:10116000100F01D0032000E004207047002002404F
:101170000348006940F080000149086170470000A1
:101180000020024070B504460D460426F00200F02F
:1011900025F80646042E11D10948006940F00100E7
:1011A000074908612580F00200F018F80646044857
:1011B000006941F6FE71084001490861304670BD82
:1011C00000200240024803494860034848607047D5
:1011D0002301674500200240AB89EFCD00B50246F0
:1011E0000423FFF7ABFF034603E0FFF7A7FF034627
:1011F000521E012B01D1002AF7D102B9052318464E
:1012000000BD000051B14FF0204252F8202042F0C2
:1012100001024FF0204343F8202009E04FF0204224
:1012200052F82020034B1A404FF0204343F820206F
:1012300070470000FEFF0F00D0E901121143C268A1
:101240001143026911434269114382691143C26922
:101250001143026A1143426A1143826A1143C26A0E
:101260001143026B11434FF02043026843F82210F0
:101270008168082908D11A46016852F8211041F006
:101280004001026843F82210416B0968426B5268C2
:1012900041EA0211426B926841EA0221426B928953
:1012A00041EA0241426B128A41EA0251426B127DCD
:1012B00041EA0261426B926911430268521C4FF08D
:1012C000204343F82210C16AB1F5804F1AD1816BD7
:1012D0000968826B526841EA0211826B926841EAA6
:1012E0000221826B128A41EA0251826B127D41EA2D
:1012F0000261826B92691143026803EB8202C2F8B9
:10130000041108E06FF070414FF02043026803EBD6
:101310008202C2F80411704730B500228B071C0FFF
:101320000F2303FA04F20B4B8C1053F82430934331
:10133000084C8D1044F8253023468C1053F8243087
:101340008C07240F00FA04F42343024C8D1044F858
:10135000253030BD080001402DE9F041024600254E
:101360000026002000230024002791F803C00CF081
:101370000F0591F803C01CF0100F03D091F802C0C4
:101380004CEA050591F800C0BCF1000F31D014689B
:1013900000202BE04FF0010C0CFA00F3B1F800C074
:1013A0000CEA03069E4220D183004FF00F0C0CFA8A
:1013B00003F7BC4305FA03FC4CEA040491F803C0AC
:1013C000BCF1280F06D14FF0010C0CFA00FCC2F85A
:1013D00014C00AE091F803C0BCF1480F05D14FF0EA
:1013E000010C0CFA00FCC2F810C0401C0828D1D334
:1013F0001460B1F800C0BCF1FF0F34DD5468002068
:101400002EE000F1080C4FF0010808FA0CF3B1F8D7
:1014100000C00CEA03069E4221D183004FF00F0C5E
:101420000CFA03F7BC4305FA03FC4CEA040491F8F8
:1014300003C0BCF1280F05D100F1080C08FA0CF824
:10144000C2F8148091F803C0BCF1480F07D100F135
:10145000080C4FF0010808FA0CF8C2F81080401C84
:101460000828CED35460BDE8F0810000F0B50A46EC
:10147000002300240021002500F00046B6F1004FB3
:1014800002D11D4EF16901E01B4E7168C0F30345A6
:1014900083B200F44016B6F5401F08D121F0706108
:1014A000154E766826F07066134F7E6012E000F4E9
:1014B0008016B6F5801F06D1032606FA05F4A1436F
:1014C00041F0706106E0460D360103FA06F6B143BD
:1014D00041F0706122B1460D360103FA06F6314340
:1014E00000F00046B6F1004F02D1034EF16101E079
:1014F000014E7160F0BD0000000001400246002076
:1015000093680B4201D0012000E000207047416148
:1015100070470161704770470348006810F0010F81
:1015200000D000BE00BFFEE7F0ED00E010B5FEF712
:10153000E3FFFFF72FF9FFF79FF8FFF7D5F910BD8D
:1015400010B5FEF7B3FFFEF7B2FFFFF7A1F810BD2D
:10155000002300F10C0000F80C3C00F80B3C037475
:1015600043748374037643768376C3764377017737
:101570004261A0F10C00C0620063704710B5EB49F6
:10158000EB4802780078401CE94B1870E94840F8B5
:101590002210E949184602780078401C1870E54886
:1015A00040F82210E54A184601780078401C18706F
:1015B000E04840F82120E249184602780078401CB3
:1015C0001870DC4840F82210DE491846027800788E
:1015D000401C1870D74840F82210DB4918460278A2
:1015E0000078401C1870D34840F82210D74A18469B
:1015F00001780078401C1870CE4840F82120D4496A
:10160000184602780078401C1870CA4840F822102A
:10161000D04A184601780078401C1870C54840F838
:101620002120CD4A184601780078401C1870C14826
:1016300040F82120C94A184601780078401C1870EB
:10164000BC4840F82120C64A184601780078401C62
:101650001870B84840F82120C24A1846017800782E
:10166000401C1870B34840F82120BF4A1846017842
:101670000078401C1870AF4840F82120BB4A18463B
:1016800001780078401C1870AA4840F82120B84A18
:10169000184601780078401C1870A64840F82120B0
:1016A000B44A184601780078401C1870A14840F8E8
:1016B0002120B14A184601780078401C18709D48D6
:1016C00040F82120AD49184602780078401C187077
:1016D000984840F82210AA49184602780078401C21
:1016E0001870944840F82210A64A184601780078ED
:1016F000401C18708F4840F82120A34918460278F2
:101700000078401C18708B4840F822109F4A1846F9
:1017100001780078401C1870864840F821209C49C8
:10172000184602780078401C1870824840F8221051
:10173000984A184601780078401C18707D4840F897
:101740002120954A184601780078401C1870794885
:1017500040F821209149184602780078401C187002
:10176000744840F822108E49184602780078401CD0
:101770001870704840F822108A491846027800789C
:10178000401C18706B4840F82210874A18460178B0
:101790000078401C1870674840F82120834A18469A
:1017A00001780078401C1870624840F82120804978
:1017B000184602780078401C18705E4840F82210E5
:1017C0007C49184602780078401C1870594840F847
:1017D00022107949184602780078401C1870554844
:1017E00040F822107549184602780078401C18709D
:1017F000504840F82210724A184601780078401C80
:1018000018704C4840F821206E491846027800783C
:10181000401C1870474840F822106B4A184601785F
:101820000078401C1870434840F82120674A184649
:1018300001780078401C18703E4840F82120644927
:10184000184602780078401C18703A4840F8221078
:101850006049184602780078401C1870354840F8F6
:1018600022105D49184602780078401C18703148F3
:1018700040F82210594A184601780078401C187028
:101880002C4840F82120564A184601780078401C20
:101890001870284840F82120524A184601780078EC
:1018A000401C1870234840F821204F4A1846017800
:1018B0000078401C18701F4840F821204B4A1846F9
:1018C00001780078401C18701A4840F82120484AD6
:1018D000184601780078401C1870164840F82120FE
:1018E000444A184601780078401C1870114840F8A6
:1018F0002120414A184601780078401C18700D4894
:1019000040F82120012409E00A4951F824004FF64B
:10191000FE722146FFF71CFE601CC4B2044800782A
:101920008442F1DB05213548C16610BDCC5500204D
:1019300080200020F45F0020005600203456002054
:10194000685600209C560020D056002004570020E6
:10195000385700206C570020A0570020D457002093
:1019600008580020705800203C580020A45800203F
:10197000D85800200C5900204059002074590020EC
:10198000A8590020DC590020105A0020445A002099
:10199000785A0020AC5A0020E05A0020145B002046
:1019A000485B00207C5B0020B05B0020E45B0020F3
:1019B000185C00204C5C0020805C0020B45C00209F
:1019C000E85C00201C5D0020505D0020845D00204C
:1019D000B85D0020EC5D0020205E0020545E0020F9
:1019E000885E0020BC5E0020F05E0020245F0020A6
:1019F000585F00208C5F0020C05F0020F84F00205F
:101A00000246086AA0F57F43FF3B02D11263012022
:101A10007047086A58B1012082F829001163086AEA
:101A2000106291F8250082F825000020F0E70020E0
:101A3000EEE700000146481E00EBC000044A02EB3E
:101A4000C000C07808B9012070470020FCE7000002
:101A5000F84F0020F0B591B00446402101A8FEF7F0
:101A6000ACFB20680F4900EA0107B7F1005F0ED117
:101A70003A460DA101A805F08BF801A805F078F809
:101A8000666835462068FEF766FBA84707E03A46D9
:101A90000BA101A805F07CF801A805F069F811B0C8
:101AA000F0BD00000000FF2F4F4B2C5B53746163AF
:101AB0006B546F703D307825785D210A000000007E
:101AC0004661696C2C5B537461636B546F703D307D
:101AD0007825785D210A000010B5FFF749FB03A0C7
:101AE00005F046F80548FFF7B5FF10BD4A756D7063
:101AF00020546F20415050210A00000000000108CE
:101B000010B504A005F034F84FF00060FFF7A2FF15
:101B100010BD00004A756D7020546F20426F6F74C5
:101B20004C6F61646572210A0000000002A005F09C
:101B30001FF800BFFEE700004D656D4D616E6167E7
:101B4000655F48616E646C6572210A007047000031
:101B500070B5002100230F22C4780CB3164C246802
:101B600004F4E064C4F5E064210AC1F10403CA404E
:101B7000447804FA03F184781440214309010F4C9E
:101B80000678A155047804F01F050124AC400578BF
:101B90006D114FF0E02606EB8505C5F8004109E020
:101BA000047804F01F050124AC40054D0678761139
:101BB00045F8264070BD00000CED00E000E400E0B8
:101BC00080E100E002490143024A116070470000D1
:101BD0000000FA050CED00E0024A0A400243024B05
:101BE0001A60704780FFFF1F08ED00E00021817739
:101BF0007047000010B56F4C207810B1607F01284D
:101C000000D110BD60780F2870D2DFE800F00829FD
:101C10003E46545C63707C848D949CAEBF006648E5
:101C20000078012807D100206349087063480078D4
:101C30006349087003E06348807A6149087060482E
:101C40000078052802DD42F6073020625C48007803
:101C5000032802D000205C49087001206070A2E0D7
:101C60005A480078012802D1032060700CE05648E1
:101C70000078012802D10320607005E05449204615
:101C800003F0E6FA022060708DE051492046FFF72C
:101C9000B7FE08B10320607085E04E480078012847
:101CA00002D10520607005E04B49204603F0D0FAD0
:101CB0000420607077E048492046FFF7A1FE08B194
:101CC000052060706FE04549204603F0C1FA062008
:101CD000607068E041492046FFF792FE28B1404914
:101CE000204603F0B5FA072060705CE05AE03C49FA
:101CF0002046FFF785FE28B13A49204603F0A8FAAE
:101D0000082060704FE037492046FFF779FE08B1A0
:101D10000920607047E02948007810B90A206070F7
:101D200001E00C2060703EE02F49204603F090FA5D
:101D30000B20607037E02C492046FFF761FE08B1A8
:101D40000C2060702FE029480068642807D22748DB
:101D50000068401C254908600D20607004E00A20DE
:101D600060700020214908601DE02148144B1B7859
:101D700050F8230000EB4000C2001E48B0F90A10E2
:101D8000012007F03FFA0E2060700CE00120FFF701
:101D900051FE30B10A480078084908704FF6FF70CC
:101DA000206200E000BF00BF2046FEF7E3FD00BF59
:101DB00027E70000345600208120002082200020E8
:101DC000D02000201C3200207F2000207C2000201A
:101DD000745900207D200020DC590020405900204B
:101DE000D858002070580020005600208420002081
:101DF000882000206A55002010B5184C207810B1BA
:101E0000607F012800D110BD607820B101280DD07D
:101E1000FF281CD117E01249204603F019FA114996
:101E2000204603F015FA0120607011E00C492046AD
:101E3000FFF7E6FD30B10B492046FFF7E1FD08B1A1
:101E4000FF20607004E04FF6FF70206200E000BFEA
:101E500000BF2046FEF78EFD00BFD4E7D05600201D
:101E6000045700206C57002010B5184C207810B192
:101E7000607F012800D110BD607820B101280DD00D
:101E8000FF281CD117E01249204603F0E1F911495F
:101E9000204603F0DDF90120607011E00C49204676
:101EA000FFF7AEFD30B10B492046FFF7A9FD08B1A1
:101EB000FF20607004E04FF6FF70206200E000BF7A
:101EC00000BF2046FEF756FD00BFD4E79C56002019
:101ED00038570020A057002010B5114C207810B1C1
:101EE000607F012800D110BD607820B1012805D0A5
:101EF00002280ED109E0012060700BE000210720CC
:101F000005F0B4FB0220607004E04FF6FF70206221
:101F100000E000BF00BF2046FEF72CFD00BFE2E757
:101F2000E05A002010B5134C207810B1607F0128D2
:101F300000D110BD607820B1012805D0022812D14F
:101F40000DE0012060700FE000210B2005F08EFBFA
:101F50000021062005F08AFB0220607004E04FF6A5
:101F6000FF70206200E000BF00BF2046FEF702FDC8
:101F700000BFDEE70858002010B51B4C207810B1D8
:101F8000607F012800D110BD607810B1012824D1F4
:101F900013E00B2006F0FCFB18B14FF6FF70206237
:101FA0000AE00121022005F061FB40F6B83120462D
:101FB00003F0D2F80120607010E00B2006F0E8FB7F
:101FC00018B14FF6FF70206206E02046FEF7AAF92E
:101FD00010B142F6FF20206200E000BF00BF2046A3
:101FE000FEF7C8FC00BFCEE7A458002010B51B4C7C
:101FF000207810B1607F012800D110BD607810B149
:10200000012824D113E00A2006F0C2FB18B14FF6D4
:10201000FF7020620AE00021022005F027FB40F655
:10202000B831204603F098F80120607010E00A20D3
:1020300006F0AEFB18B14FF6FF70206206E02046B6
:10204000FEF770F910B14FF42C50206200E000BF91
:1020500000BF2046FEF78EFC00BFCEE7D858002018
:1020600010B52B4C207810B1607F012800D110BD35
:102070006078072845D2DFE800F004071321282FF5
:102080003B00012060703DE0012022490870224998
:1020900008702249204603F0DBF80220607031E02E
:1020A0001E492046FFF7ACFC38B1C823142200219A
:1020B000052006F04FFF0320607023E00520FFF7A6
:1020C000B9FC08B10420607000BF1549204603F038
:1020D000BFF80520607015E011492046FFF790FC1D
:1020E00028B11049204603F0B3F80620607009E0DB
:1020F0000C492046FFF784FC10B14FF6FF702062B8
:1021000000E000BF00BF2046FEF734FC00BFAEE792
:10211000885E0020A0200020A1200020185C002064
:102120007C5B0020EC5D002010B59C4C207810B149
:10213000607F012800D110BD607818287AD2DFE8CE
:1021400000F00C1F26323A4850575F6C7A85929DFA
:10215000A5B2C7D2DEF0FBEDECEB022006F018FBD7
:1021600050B901210B2005F081FA0121062005F06C
:102170007DFA0120607002E042F61230206206E132
:102180008749204603F064F802206070FFE084492C
:102190002046FFF735FC28B18249204603F058F865
:1021A00003206070F3E07F492046FFF729FC08B167
:1021B00004206070EBE07C480078012802D1062002
:1021C000607005E07949204603F042F80520607010
:1021D000DDE076492046FFF713FC08B10620607069
:1021E000D5E07349204603F033F807206070CEE055
:1021F0006F492046FFF704FC08B108206070C6E074
:1022000001206C49087004206B4908706B49204616
:1022100003F01EF809206070B9E068492046FFF716
:10222000EFFB30B14FF49671204602F095FF0A2083
:102230006070ACE0AAE02046FEF774F828B160496F
:10224000204603F005F80B206070A0E05C492046B2
:10225000FFF7D6FB30B14FF49671204602F07CFFB9
:102260000C20607093E02046FEF75CF828B15049DE
:10227000204602F0EDFF0D20607088E04C492046BA
:10228000FFF7BEFB08B10E20607080E001204949D5
:1022900008700520484908704849204602F0D8FFD8
:1022A0000F20607073E045492046FFF7A9FB70B12D
:1022B00000210B2005F0DAF90021062005F0D6F9FF
:1022C0004FF49671204602F047FF102060705EE0E8
:1022D0002046FEF727F828B13A49204602F0B8FF19
:1022E0001120607053E037492046FFF789FB28B181
:1022F0003549204602F0ACFF1220607047E03249B9
:102300002046FFF77DFB30B14FF47A71204602F092
:1023100023FF132060703AE02FE022E014E00BE08E
:10232000FFE72046FDF7FEFF28B12049204602F0D6
:102330008FFF142060702AE01C492046FFF760FBE5
:1023400008B11520607022E001201A4908700320AE
:10235000194908701949204602F07AFF162060706A
:1023600015E016492046FFF74BFB28B117492046D8
:1023700002F06EFF1720607009E014492046FFF755
:102380003FFB10B14FF6FF70206200E000BF00BFBE
:102390002046FEF7EFFA00BFCDE600007C5B002090
:1023A000D0560020745900207D200020DC590020E8
:1023B0004059002081200020822000203456002037
:1023C0000C5900209C560020105A0020A8590020CB
:1023D00010B5304C207810B1607F012800D110BDBD
:1023E000607806284ED2DFE800F003101825313D52
:1023F0002948007810B10220607005E02749204686
:1024000002F026FF012060703DE024492046FFF7DE
:10241000F7FA08B10220607035E001202049087009
:102420000320204908702049204602F011FF0320B4
:10243000607028E01C492046FFF7E2FA28B11B49EA
:10244000204602F005FF042060701CE0174920467A
:10245000FFF7D6FA28B11649204602F0F9FE05200A
:10246000607010E012492046FFF7CAFA48B1012116
:10247000072005F0FBF801200E4908704FF6FF70A9
:10248000206200E000BF00BF2046FEF773FA00BFE5
:10249000A5E70000485B00207E200020CC550020EE
:1024A000812000208220002034560020A8590020DE
:1024B0009C5600207F20002010B5114C207810B1D0
:1024C000607F012800D110BD607820B1012805D0BF
:1024D00002280ED109E0012060700BE000210820E5
:1024E00005F0C4F80220607004E04FF6FF7020622F
:1024F00000E000BF00BF2046FEF73CFA00BFE2E765
:10250000505D002010B5114C207810B1607F01287B
:1025100000D110BD607820B1012805D002280ED16D
:1025200009E0012060700BE00121082005F09EF811
:102530000220607004E04FF6FF70206200E000BFF0
:1025400000BF2046FEF716FA00BFE2E71C5D002040
:1025500010B51F4C207810B1607F012800D110BD4C
:10256000607810B101282CD113E0082006F010F992
:1025700018B14FF6FF7020620AE00121052005F036
:1025800075F840F6B831204602F0E6FD0120607093
:1025900018E0082006F0FCF838B10321052005F00A
:1025A00065F84FF6FF7020620AE02046FDF7BAFE9C
:1025B00030B10321052005F059F842F605302062BC
:1025C00000E000BF00BF2046FEF7D4F900BFC6E719
:1025D0006C57002010B51F4C207810B1607F012887
:1025E00000D110BD607810B101282CD113E0092072
:1025F00006F0CEF818B14FF6FF7020620AE0012114
:10260000052005F033F840F6B831204602F0A4FD6D
:102610000120607018E0092006F0BAF838B10321F3
:10262000052005F023F84FF6FF7020620AE02046EF
:10263000FDF778FE30B10321052005F017F842F6CA
:102640000630206200E000BF00BF2046FEF792F98E
:1026500000BFC6E7A057002010B52E4C207810B15F
:10266000607F012800D110BD607805284BD2DFE8DB
:1026700000F0031D2A323E0027480078012807D1C8
:10268000002025490870254800782549087003E096
:102690002448807A2249087021480078032802DD06
:1026A00042F618302062012060702DE01B4800784F
:1026B00030B91D49204602F0CBFD0220607001E0D8
:1026C0000320607020E018492046FFF799F908B10F
:1026D0000320607018E015481149097850F821204E
:1026E0001421052006F08EFD042060700CE005200A
:1026F000FFF7A0F930B10A480078084908704FF692
:10270000FF70206200E000BF00BF2046FEF732F9F4
:1027100000BFA8E7805C0020BC200020BD20002076
:10272000D32000201C3200204C5C0020C020002060
:1027300010B53C4C207810B1607F012800D110BD4D
:102740006078072866D2DFE800F0040A21353C4EA5
:102750005700002034490870012060705BE01420AD
:1027600006F016F848B94FF47A7332220121052099
:1027700006F0F0FB0420607007E0DC233222002129
:10278000052006F0E7FB0220607044E00520FFF71B
:1027900051F970B1142005F0FBFF38B94FF4967170
:1027A000204602F0D9FC0320607002E042F61630A9
:1027B000206230E02046FDF7B5FD08B101206070D1
:1027C00029E0142005F0E4FF28B1052006F006FEFC
:1027D0000520607006E00520FFF72CF910B142F6E5
:1027E0001730206217E0B42314220121052006F0DF
:1027F000B1FB062060700EE00520FFF71BF940B129
:10280000052006F02FFD0420074908704FF6FF70E1
:10281000206200E000BF00BF2046FEF7ABF800BF1B
:102820008DE700004C5C0020BD20002010B56B4CF3
:10283000207810B1607F012800D110BD6078062893
:102840005FD005DC70D2DFE800F0122C3340485432
:102850000A286AD006DC072871D008287CD009280D
:1028600062D19AE00B2876D0FF28F9D1ABE018208E
:1028700005F08EFF18B91C2005F08AFF10B142F652
:1028800024302062162005F083FF10B142F6253077
:10289000206200205249087052490870012060707F
:1028A00096E00021042006F01FFD022060708FE0FA
:1028B00001204D49087003204C4908704C492046BE
:1028C00002F0C6FC0320607082E049492046FFF711
:1028D00097F808B1042060707AE00120454908703B
:1028E000454908704549204602F0B2FC0520607059
:1028F0006EE042492046FFF783F808B10620607079
:1029000066E0182005F044FF10B10720607015E064
:102910003348007803280BDA31480078401C3049EE
:1029200008700120607009E051E03DE007E013E02D
:1029300000202B49087042F62630206248E03048DB
:10294000B0F9222041F288330121042006F002FB75
:10295000082060703CE02EE01C2005F019FF28B133
:10296000042006F03BFDFF20607015E00420FFF717
:1029700061F888B11B480078032807DA1948007805
:10298000401C184908700920607005E000201549B6
:10299000087042F6273020621AE00021042006F079
:1029A000A3FC0A20607013E01649204602F050FC98
:1029B0000B2060700CE013492046FFF721F808B1A6
:1029C0000420607004E04FF6FF70206200E000BF5A
:1029D00000BF2046FDF7CEFF00BF2EE7245F00209A
:1029E000D4200020D5200020A0200020A1200020FD
:1029F000185C0020BC200020BD200020805C00204E
:102A00006A5500204C5C002010B5414C207810B174
:102A1000607F012800D110BD607804283ED007DC1B
:102A200068B1012815D0022824D0032869D129E0F3
:102A300005283BD006284DD0FF2862D15DE0162046
:102A400005F0A6FE10B142F62C3020620120607025
:102A500058E00021042006F047FC01202D490870B1
:102A600004202D4908702D49204602F0F1FB022078
:102A7000607047E029492046FEF7C2FF08B10320F5
:102A800060703FE0012026490870264908702649F9
:102A9000204602F0DDFB0420607033E0224920462E
:102AA000FEF7AEFF08B1052060702BE0182005F09E
:102AB0006FFE58B11D48B0F9222041F28833002141
:102AC000042006F047FA0620607002E042F62D303E
:102AD000206217E0182005F05BFE30B9162005F0E3
:102AE00057FE10B1FF20607006E00420FEF7A2FF41
:102AF00010B142F62E30206204E04FF6FF702062E3
:102B000000E000BF00BF2046FDF734FF00BF82E7B2
:102B10008C5F0020A0200020A1200020185C002055
:102B2000BC200020BD200020805C00206A550020D1
:102B300010B5454C207810B1607F012800D110BD40
:102B400060780B2879D2DFE800F006152243626F27
:102B50007878787853000121072004F087FD01215F
:102B6000092004F083FD0021042006F0BDFB0120B4
:102B7000607063E001203549087002203449087014
:102B80003449204602F064FB0220607056E031496F
:102B90002046FEF735FFD0B1152005F0F9FD58B1FC
:102BA00001202D4908702D4908702D49204602F05A
:102BB0004FFB032060700AE00021092004F056FD5D
:102BC0000021072004F052FD42F61D30206235E05E
:102BD00023492046FEF714FF48B12249204602F05F
:102BE00037FB4621204602F0B7FA0A20607025E044
:102BF0002046FDF797FB48B10021092004F036FD7F
:102C00000021072004F032FD0420607016E0154911
:102C10002046FEF7F5FE28B11349204602F018FBC6
:102C2000052060700AE008E00F492046FEF7E8FE44
:102C300010B14FF6FF70206200E000BF00BF2046D9
:102C4000FDF798FE00BF7AE7EC5D0020A020002091
:102C5000A1200020185C0020BC200020BD20002006
:102C6000805C0020845D00204C5C002010B5504C3E
:102C7000207810B1607F012800D110BD6078052850
:102C80004FD005DC78D2DFE800F00C26343C45005C
:102C900006284ED007285ED008286FD0FF287FD1A5
:102CA00076E044480078012807D1002041490870A7
:102CB000414800784149087003E04148807A3F4923
:102CC00008703E480078052802DD42F61530206283
:102CD0000120607065E03B480078042802D10320A1
:102CE000607005E03849204602F0B2FA02206070B8
:102CF00057E035492046FEF783FE08B10320607097
:102D00004FE02D48007810B90420607001E00620E3
:102D1000607046E02D49204602F09AFA0520607066
:102D20003FE02A492046FEF76BFE08B1062060709E
:102D300037E027480078642807DA25480078401CE7
:102D4000234908700720607004E0042060700020B0
:102D50001F49087025E01F48184B1B7850F82300C6
:102D600000EB4000C2001C48B0F91410062006F029
:102D700049FA0820607014E012E0FFE70620FEF731
:102D800059FE20B1062006F029FBFF20607008E004
:102D90000A480078084908704FF6FF70206200E08A
:102DA00000BF00BF2046FDF7E5FD00BF65E700005E
:102DB000185C0020A0200020A1200020D1200020AD
:102DC0001C320020BD2000204C5C0020B05B0020A5
:102DD000D2200020A42000206A55002010B53D4CD0
:102DE000207810B1607F012800D110BD60780928DB
:102DF00068D2DFE800F0050B676723373E505900C3
:102E0000002035490870012060705CE0172005F053
:102E1000BFFC48B941F6507364220021062006F039
:102E200099F80620607008E04FF49C736422012139
:102E3000062006F08FF80420607044E00620FEF7BC
:102E4000F9FD70B1172005F0A3FC38B94FF4967165
:102E5000204602F081F90520607002E042F613304E
:102E6000206230E02046FDF75DFA08B10120607075
:102E700029E0172005F08CFC28B1062006F0AEFAF8
:102E80000720607006E00620FEF7D4FD10B142F680
:102E90001430206217E00A2364220021062006F085
:102EA00059F8082060700EE00620FEF7C3FD40B11F
:102EB000062006F0D7F90620074908704FF6FF7084
:102EC000206200E000BF00BF2046FDF753FD00BFB9
:102ED0008BE70000B05B0020A120002010B5584C0B
:102EE000207810B1607F012800D110BD60780B28D8
:102EF0007CD2DFE800F006091B283C4C586A7C882D
:102F000094000120607094E04E492046FEF778FD61
:102F100058B101204C49087003204C4908704C49B5
:102F2000204602F095F90220607082E04849204670
:102F3000FEF766FD30B141F28831204602F00CF90F
:102F40000320607075E0162005F022FC38B94FF4BC
:102F50007A71204602F000F90420607006E02046F5
:102F6000FDF7E0F910B142F61E30206261E0204624
:102F7000FDF7D8F950B10120334908703349087082
:102F80003349204602F064F90520607051E0304971
:102F90002046FEF735FD28B12E49204602F058F9AB
:102FA0000620607045E02B492046FEF729FD58B108
:102FB000012029490870032028490870214920462A
:102FC00002F046F90720607033E01E492046FEF704
:102FD00017FD50B101201C4908701C4908701C499C
:102FE000204602F035F90820607022E020E0184900
:102FF0002046FEF705FD28B11949204602F028F9C0
:103000000920607015E016492046FEF7F9FC28B14A
:103010001449204602F01CF90A20607009E01149A9
:103020002046FEF7EDFC10B14FF6FF70206200E085
:1030300000BF00BF2046FDF79DFC00BF55E7000024
:10304000545E0020185C0020BC200020BD20002021
:10305000805C00204C5C0020A0200020A1200020EB
:10306000845D0020F05E002010B5114C207810B176
:10307000607F012800D110BD607820B1012805D003
:1030800002280ED109E0012060700BE00121072029
:1030900004F0ECFA0220607004E04FF6FF7020624A
:1030A00000E000BF00BF2046FDF764FC00BFE2E780
:1030B000AC5A002010B5134C207810B1607F012865
:1030C00000D110BD607820B1012805D0022812D1AE
:1030D0000DE0012060700FE001210B2004F0C6FA22
:1030E0000121062004F0C2FA0220607004E04FF6CD
:1030F000FF70206200E000BF00BF2046FDF73AFCF1
:1031000000BFDEE7D457002010B5384C207810B14E
:10311000607F012800D110BD607807285ED2DFE80B
:1031200000F0040E1A2C384A55001C2005F030FB24
:1031300010B942F621302062012060704FE02C4827
:10314000B0F9222041F288330021042005F002FF6B
:103150000220607043E0182005F01AFB28B104201B
:1031600006F03CF90320607006E00420FEF762FCE4
:1031700010B142F62230206231E01D48B0F9222021
:103180004FF4FA630121042005F0E4FE042060708E
:1031900025E01C2005F0FCFA28B1042006F01EF9F9
:1031A0000520607006E00420FEF744FC10B142F6F2
:1031B0002330206213E00E48B0F922200A230121B7
:1031C000042005F0C7FE0620607008E00420FEF72A
:1031D00031FC10B14FF6FF70206200E000BF00BF6D
:1031E0002046FDF7C7FB00BF95E70000BC5E00204E
:1031F0006A55002010B52A4C207810B1607F012854
:1032000000D110BD607830B1012810D0022820D044
:1032100003283ED129E02348B0F922204FF4FA6375
:103220000021042005F096FE0120607032E0182095
:1032300005F0AEFA28B1042006F0D0F80220607044
:1032400006E00420FEF7F6FB10B142F61F302062C4
:1032500020E01448B0F92630B0F9222001210420E2
:1032600005F078FE0320607014E00420FEF7E2FB16
:1032700070B11C2005F08CFA38B10021042006F052
:1032800033F84FF6FF70206202E042F620302062F1
:1032900000E000BF00BF2046FDF76CFB00BFB0E7B9
:1032A000F05E00206A55002010B51B4C207810B14C
:1032B000607F012800D110BD607810B1012824D1B1
:1032C00013E00E2005F064FA18B14FF6FF7020628B
:1032D0000AE00121032004F0C9F940F6B831204684
:1032E00001F03AFF0120607010E00E2005F050FA66
:1032F00018B14FF6FF70206206E02046FDF712F885
:1033000010B142F60130206200E000BF00BF20464D
:10331000FDF730FB00BFCEE70C59002010B51B4C69
:10332000207810B1607F012800D110BD607810B105
:10333000012824D113E00F2005F02AFA18B14FF626
:10334000FF7020620AE00021032004F08FF940F6AC
:10335000B831204601F000FF0120607010E00F201E
:1033600005F016FA18B14FF6FF70206206E020460D
:10337000FCF7D8FF10B142F60230206200E000BF37
:1033800000BF2046FDF7F6FA00BFCEE74059002007
:1033900010B5354C207810B1607F012800D110BDE8
:1033A0006078052859D2DFE800F00317303F490064
:1033B000052005F0EDF910B1032060700BE000204E
:1033C0002A49087041F270730A220121022005F097
:1033D000C1FD0120607041E0052005F0D9F960B120
:1033E000022005F0FBFF4FF4AF730A2201210220F7
:1033F00005F0B0FD0220607006E00220FEF71AFB27
:1034000010B142F60830206228E00220FEF712FBDD
:1034100048B100210A2004F029F90120134908705D
:103420004FF6FF70206219E04FF4C8730A220021A2
:10343000022005F08FFD042060700FE00220FEF7EF
:10344000F9FA48B1052005F0A3F910B90020607021
:1034500002E042F60930206200E000BF00BF2046D3
:10346000FDF788FA00BF9AE7745900207C200020FD
:1034700010B52B4C207810B1607F012800D110BD11
:10348000607830B101281AD0022820D003283FD11B
:1034900028E024480078022803D14FF6FF7020620C
:1034A0000CE020480078012802D10220607005E07D
:1034B0001D49204601F0CCFE0120607029E01A4928
:1034C0002046FEF79DFA08B10220607021E01748FF
:1034D000B0F90C300A220021022005F03BFD032048
:1034E000607016E00220FEF7A5FA80B1052005F015
:1034F0004FF930B902200B4908704FF6FF70206277
:1035000005E000200749087042F60A30206200E01A
:1035100000BF00BF2046FDF72DFA00BFAFE7000057
:10352000A85900207C200020745900206A550020F2
:1035300010B5114C207810B1607F012800D110BD6A
:10354000607820B1012805D002280ED109E00120C1
:1035500060700BE000210A2004F088F802206070FF
:1035600004E04FF6FF70206200E000BF00BF20467D
:10357000FDF700FA00BFE2E7785A002010B5114CC1
:10358000207810B1607F012800D110BD607820B193
:10359000012805D002280ED109E0012060700BE05F
:1035A00001210A2004F062F80220607004E04FF666
:1035B000FF70206200E000BF00BF2046FDF7DAF98F
:1035C00000BFE2E7445A002010B52A4C207810B121
:1035D000607F012800D110BD6078062842D2DFE864
:1035E00000F0030D192B363D1C2005F0D1F810B169
:1035F00042F6193020620120607034E01E48B0F9B4
:10360000222041F288330121042005F0A3FC02208E
:10361000607028E01C2005F0BBF828B1042005F0FC
:10362000DDFE0320607006E00420FEF703FA10B10F
:1036300042F61A30206216E00F48B0F922200A2321
:103640000121042005F086FC042060700BE00420BA
:10365000FEF7F0F908B10520607004E04FF6FF7046
:10366000206200E000BF00BF2046FDF783F900BFE5
:10367000B1E70000845D00206A55002010B52B4C96
:10368000207810B1607F012800D110BD6078052836
:1036900045D2DFE800F003061224300001206070FC
:1036A0003EE02348B0F9222040F6B8330021042040
:1036B00005F050FC0220607032E0182005F068F838
:1036C00028B1042005F08AFE0320607006E0042083
:1036D000FEF7B0F910B142F61B30206220E014482A
:1036E000B0F9222040F6B8330021042005F032FC66
:1036F0000420607014E0182005F04AF838B91C2046
:1037000005F046F818B94FF6FF70206206E0042075
:10371000FEF790F910B142F61C30206200E000BFC5
:1037200000BF2046FDF726F900BFAEE7B85D0020D8
:103730006A55002010B56A4C207810B1607F0128CE
:1037400000D110BD6078072875D006DC70D2DFE8A4
:1037500000F0131D2B374D5A62000C2869D006DC8F
:10376000082872D009287CD00B2861D188E00D2868
:103770006AD0FF28F9D1A8E0162005F009F810B9A1
:1037800042F62830206201206070A3E0182004F087
:10379000FFFF30B91C2004F0FBFF10B9022060705D
:1037A00001E00420607095E04E48B0F922204FF40B
:1037B000FA730021042005F0CDFB0320607089E03E
:1037C000182004F0E5FF18B91C2004F0E1FF28B12F
:1037D000042005F003FE0420607006E00420FEF7DC
:1037E00029F910B142F62930206273E001203E49E8
:1037F000087003203D4908703D49204601F028FD2E
:103800000520607066E03A492046FEF7F9F808B1F5
:10381000062060705EE00120364908703649087065
:103820003649204601F014FD0720607052E002E0A6
:103830004FE02CE009E031492046FEF7E1F808B1FD
:103840000820607046E00CE02CE02648B0F9222009
:1038500041F288330021042005F07CFB09206070D0
:1038600038E0162004F094FF10B90B20607006E0D9
:103870000420FEF7DFF810B142F62A30206229E07A
:103880001F49204601F0E4FC0C20607022E01C4936
:103890002046FEF7B5F820B1042005F09FFD0D206D
:1038A000607017E0182004F073FF50B91C2004F07A
:1038B0006FFF30B9162004F06BFF10B9FF20607065
:1038C00002E042F62B30206204E04FF6FF702062E7
:1038D00000E000BF00BF2046FDF74CF800BF30E716
:1038E000585F00206A550020A0200020A120002061
:1038F000185C0020BC200020BD200020805C00203F
:103900004C5C002010B55B4C207810B1607F012822
:1039100000D110BD6078042862D007DC78B101289E
:1039200010D0022833D0032870D13CE0052863D0A2
:10393000062876D007286BD0FF28F5D18FE001202C
:10394000607091E0182004F023FF30B91C2004F0CF
:103950001FFF10B90220607018E0182004F018FF53
:1039600030B11C2004F014FF10B9042060700DE089
:10397000182004F00DFF30B91C2004F009FF10B12D
:103980000620607002E042F62F3020626CE03A4878
:10399000B0F9222040F6B8330121042005F0DAFA0C
:1039A0000320607060E01C2004F0F2FE28B10420C7
:1039B00005F014FDFF20607011E00420FEF73AF8D6
:1039C00068B1182004F0E4FE30B91C2004F0E0FED9
:1039D00010B9FF20607002E042F63030206243E010
:1039E0002548B0F9222041F288330121042005F056
:1039F000B1FA0520607037E01C2004F0C9FE40B128
:103A0000042005F0EBFCFF20607009E02BE008E0EB
:103A100013E00420FEF70EF810B142F631302062B8
:103A200022E01548B0F9222041F288330021042019
:103A300005F090FA0720607016E0182004F0A8FE48
:103A400028B1042005F0CAFC0420607006E00420C0
:103A5000FDF7F0FF10B142F63230206204E04FF67D
:103A6000FF70206200E000BF00BF2046FCF782FF2D
:103A700000BF4EE7C05F00206A55002010B5334CF0
:103A8000207810B1607F012800D110BD607808282F
:103A900054D2DFE800F004070E16232B384A012029
:103AA00060704CE02A49204601F0D2FB0220607091
:103AB00045E027492046FDF7A3FF08B103206070C9
:103AC0003DE001202349087005202349087023495F
:103AD000204601F0BDFB0420607030E01F49204605
:103AE000FDF78EFF08B10520607028E001201C4919
:103AF000087002201B4908701B49204601F0A8FBF2
:103B0000062060701BE018492046FDF779FF58B188
:103B100001201349087003201249087012492046F9
:103B200001F096FB0720607009E00F492046FDF781
:103B300067FF10B14FF6FF70206200E000BF00BFCA
:103B40002046FCF717FF00BF9FE70000205E002023
:103B5000585F0020A0200020A1200020185C002039
:103B6000BC200020BD200020805C002010B5114C3E
:103B7000207810B1607F012800D110BD607820B19D
:103B8000012805D002280ED109E0012060700BE069
:103B90000021092003F06AFD0220607004E04FF666
:103BA000FF70206200E000BF00BF2046FCF7E2FE8D
:103BB00000BFE2E7E85C002010B5114C207810B19E
:103BC000607F012800D110BD607820B1012805D0A8
:103BD00002280ED109E0012060700BE001210920CC
:103BE00003F044FD0220607004E04FF6FF70206295
:103BF00000E000BF00BF2046FCF7BCFE00BFE2E7CC
:103C0000B45C002010B51B4C207810B1607F0128F7
:103C100000D110BD607830B101280BD0022811D03E
:103C200003281FD115E01449204601F011FB0120A3
:103C3000607018E010492046FDF7E2FE08B102204E
:103C4000607010E00D49204601F002FB0320607017
:103C500009E00A492046FDF7D3FE10B14FF6FF7088
:103C6000206200E000BF00BF2046FCF783FE00BFDB
:103C7000CFE70000685600209C560020D056002058
:103C800010B5664C207810B1607F012800D110BDBE
:103C900060780E2876D2DFE800F0070D1B23313D57
:103CA00049555D768A91A3AC00205D4908700120DA
:103CB0006070ADE05B480078012802D1032060709D
:103CC00005E05949204601F0C3FA022060709FE0E8
:103CD00055492046FDF794FE08B10320607097E037
:103CE00052480078012802D10520607005E0504953
:103CF000204601F0ADFA0420607089E04C4920466E
:103D0000FDF77EFE28B14B49204601F0A1FA0520BF
:103D100060707DE047492046FDF772FE28B14649B4
:103D2000204601F095FA0620607071E04249204675
:103D3000FDF766FE28B14149204601F089FA0720C7
:103D4000607065E03D492046FDF75AFE08B1082045
:103D500060705DE0012004F01BFD48B948F6A04307
:103D600064220121084605F0F5F80B20607008E098
:103D70004FF4707364220021012005F0EBF8092054
:103D8000607045E043E00120FDF754FE70B1012072
:103D900004F0FEFC38B94FF49671204601F0DCF9CE
:103DA0000A20607002E042F6FB20206230E02046EC
:103DB000FCF7B8FA08B10820607029E0012004F08F
:103DC000E7FC28B1012005F009FB0C20607006E03B
:103DD0000120FDF72FFE10B142F6FC20206217E013
:103DE000182364220121084605F0B4F80D20607004
:103DF0000EE00120FDF71EFE40B1012005F032FA71
:103E00000620074908704FF6FF70206200E000BFEF
:103E100000BF2046FCF7AEFD00BF38E7005600208B
:103E2000822000207C200020745900207D2000206A
:103E3000DC59002040590020D8580020705800203C
:103E400010B51C4C207810B1607F012800D110BD46
:103E50006078052826D2DFE800F003060D151C0067
:103E6000012060701FE01449204601F0F1F90220A2
:103E7000607018E010492046FDF7C2FD08B103202C
:103E8000607010E00D49204601F0E2F904206070F6
:103E900009E00A492046FDF7B3FD10B14FF6FF7067
:103EA000206200E000BF00BF2046FCF763FD00BFBA
:103EB000CDE70000E45B00204C5C0020B05B0020FC
:103EC00010B58E4C207810B1607F012800D110BD54
:103ED000607816286FD2DFE800F00B151C1F263221
:103EE0003E4A56626F7784909CA4ABB3CFEAF7FF4B
:103EF00000208349087083490870834908700120B5
:103F00006070F4E00121082003F0B0FB0220607033
:103F1000EDE003206070EAE07C49204601F098F96A
:103F200004206070E3E079492046FDF769FD28B17F
:103F30007749204601F08CF905206070D7E074497C
:103F40002046FDF75DFD28B17249204601F080F959
:103F500006206070CBE06F492046FDF751FD28B187
:103F60006D49204601F074F907206070BFE06A498E
:103F70002046FDF745FD28B16849204601F068F963
:103F800008206070B3E065492046FDF739FD28B18F
:103F90006349204601F05CF909206070A7E06049A0
:103FA0002046FDF72DFD28B15E49204601F050F96D
:103FB0000A2060709BE099E05A492046FDF720FDF9
:103FC00008B10B20607092E001205749087003206F
:103FD000564908705649204601F03AF90C206070A5
:103FE00085E053492046FDF70BFD28B15149204695
:103FF00001F02EF90D20607079E04E492046FDF762
:10400000FFFC28B14C49204601F022F90E206070D7
:104010006DE049492046FDF7F3FC08B10F206070C0
:1040200065E04649204601F013F9102060705EE01B
:1040300042492046FDF7E4FC08B11120607056E0CB
:10404000162004F0A5FB38B91C2004F0A1FB18B120
:1040500042F6F92020620EE00121072003F006FB62
:104060000121092003F002FB4FF4FA61204601F020
:1040700073F8122060703AE02046FCF753F9A8B1BB
:10408000152004F085FB78B11C2004F081FB58B1A9
:104090000021092003F0EAFA0021072003F0E6FAE4
:1040A00042F6FA20206201E0132060701FE02449EC
:1040B000204601F0CDF80021092003F0D7FA1420A2
:1040C000607014E008E0FFE71D492046FDF798FC0A
:1040D00008B1152060700AE000201A49087001201C
:1040E000074908704FF6FF70206200E000BF00BF74
:1040F0002046FCF73FFC00BFE9E60000CC5500205D
:104100007E2000207C2000207D200020745900208B
:10411000DC59002040590020D85800207058002059
:1041200068560020005600208120002082200020B8
:1041300034560020A85900209C560020C05F002063
:10414000E45B00207F20002010B51F4C207810B1C8
:10415000607F012800D110BD607810B101282CD1FA
:1041600013E0062004F014FB18B14FF6FF70206234
:104170000AE00121042003F079FA40F6B831204624
:1041800000F0EAFF0120607018E0062004F000FB58
:1041900038B10321042003F069FA4FF6FF70206262
:1041A0000AE02046FCF7BEF830B10321042003F0FA
:1041B0005DFA42F60330206200E000BF00BF2046F7
:1041C000FCF7D8FB00BFC6E70457002010B51F4C12
:1041D000207810B1607F012800D110BD607810B147
:1041E00001282CD113E0072004F0D2FA18B14FF6C1
:1041F000FF7020620AE00121042003F037FA40F644
:10420000B831204600F0A8FF0120607018E00720B8
:1042100004F0BEFA38B10321042003F027FA4FF668
:10422000FF7020620AE02046FCF77CF830B10321E1
:10423000042003F01BFA42F60430206200E000BFC5
:1042400000BF2046FCF796FB00BFC6E738570020AA
:1042500010B5A34C207810B1607F012800D110BDAB
:104260006078152875D2DFE800F00B1E25313D4936
:1042700051617581939EB0C3CFE1F1EFEEEDEC009B
:1042800001210B2003F0F2F90121062003F0EEF9E1
:10429000022004F07DFA10B90120607002E042F6BD
:1042A0000E30206215E18F49204600F0D1FF022038
:1042B00060700EE18B492046FDF7A2FB28B18A49C8
:1042C000204600F0C5FF0320607002E186492046C9
:1042D000FDF796FB28B18549204600F0B9FF042080
:1042E0006070F6E081492046FDF78AFB28B18049DD
:1042F000204600F0ADFF05206070EAE07C492046D2
:10430000FDF77EFB08B106206070E2E00021072087
:1043100003F0ACF9012077490870774908707749B4
:10432000204600F095FF07206070D2E0042004F0E2
:104330002FFA10B1082060700AE070492046FDF79E
:104340005FFB28B1012005F049F842F60F302062EA
:10435000BFE0BDE069492046FDF752FB28B168493E
:10436000204600F075FF09206070B2E064492046E5
:10437000FDF746FB58B16348B0F910004FF47A726C
:1043800000FB02F1204600F0E7FE0A206070A0E08A
:104390002046FBF7C7FF28B15549204600F058FFDB
:1043A0000B20607095E052492046FDF729FB58B17B
:1043B00001205049087002204F4908704F4920469B
:1043C00000F046FF0C20607083E0032004F0E0F969
:1043D00010B10D2060700AE048492046FDF710FB3F
:1043E00028B1012004F0FAFF42F61030206270E09C
:1043F00042492046FDF704FB28B14349204600F01E
:1044000027FF0E20607064E03F492046FDF7F8FA70
:1044100058B13C48B0F912004FF47A7200FB02F137
:10442000204600F099FE0F20607052E02046FBF716
:1044300079FF28B12D49204600F00AFF1020607056
:1044400047E038E02CE01FE012E0FFE72749204674
:10445000FDF7D6FA58B101202649087003202649F5
:1044600008702649204600F0F3FE1120607030E00D
:1044700022492046FDF7C4FA28B12449204600F01D
:10448000E7FE1220607024E020492046FDF7B8FACC
:1044900028B11F49204600F0DBFE1320607018E0B1
:1044A000022004F075F910B91420607002E042F6A1
:1044B000113020620DE016492046FDF7A1FA30B117
:1044C0000121072003F0D2F84FF6FF70206200E0D0
:1044D00000BF00BF2046FCF74DFA00BFBFE600005A
:1044E000145B0020D056002074590020D8580020BA
:1044F00070580020812000208220002034560020A7
:104500003C5800206A550020A4580020A8590020DB
:104510009C56002010B51B4C207810B1607F0128FC
:1045200000D110BD607810B1012824D113E00D2016
:1045300004F02EF918B14FF6FF7020620AE0012155
:10454000084603F093F840F6B831204600F004FE28
:104550000120607010E00D2004F01AF918B14FF638
:10456000FF70206206E02046FBF7DCFE10B142F649
:10457000FD20206200E000BF00BF2046FCF7FAF9F2
:1045800000BFCEE73C58002010B51B4C207810B17E
:10459000607F012800D110BD607810B1012824D1BE
:1045A00013E00C2004F0F4F818B14FF6FF7020620D
:1045B0000AE00021012003F059F840F6B831204606
:1045C00000F0CAFD0120607010E00C2004F0E0F85B
:1045D00018B14FF6FF70206206E02046FBF7A2FEFE
:1045E00010B142F6FE20206200E000BF00BF20466E
:1045F000FCF7C0F900BFCEE77058002010B52B4C77
:10460000207810B1607F012800D110BD607830B1F2
:1046100001281AD0022820D003283FD128E02448BE
:104620000078022803D14FF6FF7020620CE020488A
:104630000078012802D10220607005E01D49204663
:1046400000F006FE0120607029E01A492046FDF7BF
:10465000D7F908B10220607021E01748B0F90E3098
:1046600032220021032004F075FC0320607016E064
:104670000320FDF7DFF980B1102004F089F830B98C
:1046800002200B4908704FF6FF70206205E0002001
:104690000749087042F60D30206200E000BF00BFFD
:1046A0002046FCF767F900BFAFE70000105A002072
:1046B0007D200020DC5900206A55002010B5324CC6
:1046C000207810B1607F012800D110BD60780528E6
:1046D00053D2DFE800F003172F3A4300102004F014
:1046E00057F810B1032060700BE0002027490870D4
:1046F0004FF4FA6332220121032004F02BFC012045
:1047000060703BE0102004F043F858B1032004F03F
:1047100065FE642332220121032004F01BFC0220E9
:10472000607006E00320FDF785F910B142F60B300A
:10473000206223E00320FDF77DF928B10120134911
:1047400008704FF6FF70206218E0C8233222002163
:10475000032004F0FFFB042060700FE00320FDF74E
:1047600069F948B1102004F013F810B90020607006
:1047700002E042F60C30206200E000BF00BF20469D
:10478000FCF7F8F800BFA0E7DC5900207D200020EE
:10479000014908627047000000000E422DE9F05FF9
:1047A00080460F4691461D464FF0000B0026B2464C
:1047B000C7EBC70000EB80002B4901EB001000F1B4
:1047C0000C04802104F10C00FBF7F7FC402020735F
:1047D000402161732821A1734121E1732774B8F14D
:1047E000000F07D02148007840F0800161742178E3
:1047F000A1740EE01D4801786174A078FF2801D1F2
:10480000012060706178A1746078A0706078401CAD
:104810006070290AE1742575002607E006F1090099
:1048200019F8002004F10C010A54761CAE42F5D3AD
:1048300094F80FA0012606E0F01C04F10C01085CBE
:1048400080EA0A0A761CA81D8642F5D3C01C04F132
:104850000C0101F800A02922401C0A5405F10B0BA1
:104860005846BDE8F09F00001C3400206C2000205A
:104870007047000070B5002546480078002870D0C9
:104880000020444908704448407A632823DC4FF4F0
:10489000007241494148FBF777FC3F48807A3E4926
:1048A000C97A083188403C49497A3D4A52F821107A
:1048B00088613949497A52F8210000F0E9FC18B1C1
:1048C000E0203849887202E0E120364988720120F0
:1048D0003549086026E03048407A642819D14FF401
:1048E00000722D49491C2D48FBF74EFC2A49897A54
:1048F0002B4A52F8210000F0CBFC18B1E0202949E6
:10490000887202E0E1202749887201202649086068
:1049100008E02148407AC82802DB00F04DF801E0A9
:1049200000F0D2F940201F49087048702820887094
:104930004120C8701D48007808711D4800784871F2
:104940001C480078887118480088401C000AC8710B
:1049500015480078401C08720F48407A48720024BD
:1049600006E015E0E01C0F49085C4540601CC4B23D
:104970000D480068C01D8442F4D30B4800680A301B
:1049800008490D542921084800680B30054A115484
:1049900070BD000014000020DC2000201C3200202C
:1049A000F45F00209C260020180000206D200020CD
:1049B0006C2000202400002070B500249E48407A1E
:1049C000D1287BD00BDCA0F1C5000C286CD2DFE82D
:1049D00000F01F6B6B1B29353E43485C616CD62889
:1049E00075D008DCD22879D0D3287CD0D42871D0D7
:1049F000D52859D1B3E0D7286DD0D8286CD0FE285F
:104A00006BD0FF28F5D10CE14FF00060804710E13A
:104A10008AA002F0ADF8FD209049887201209049EB
:104A2000086006E1844AD17A907A02F01FFEE02005
:104A30008A49887201208A490860FAE004F048FD3A
:104A4000E02086498872012085490860F1E002F083
:104A50009BFB83490860ECE002F030FB8049086072
:104A6000E7E0804800787D4988727E480088000A27
:104A7000C8727C480068000C08737A480068000E11
:104A80004873042076490860D3E003F077FA74494C
:104A90000860CEE004F026FAE02070498872012018
:104AA0006F490860C5E009E0C2E0FCF734FDE02092
:104AB0006A49887201206A490860BAE000F0C6FBC2
:104AC000E02066498872012065490860B1E056E03F
:104AD00004E008E025E061E06EE07CE002F0CCFB61
:104AE0005F490860A5E0012410E05F4850F8240009
:104AF000066AC6F30720082101EB4401574A5054C7
:104B0000092101EB44015654601CC4B25748007897
:104B10008442EADB55480078401E40005049086056
:104B200087E0012410E0504850F824000569C5F3DF
:104B30000720082101EB4401484A5054092101EBA8
:104B400044015554601CC4B2484800788442EADBF2
:104B500046480078401E40004149086069E0364AF6
:104B6000D17A927A404B53F8220000F02BFA10B120
:104B7000E0203A49887201203949086059E02E4AFC
:104B8000D17A927A384B53F8220000F089FBE0206A
:104B9000324988720120324908604AE02649897A00
:104BA000314A52F82100FDF721F8E0202B498872A4
:104BB00001202B4908603CE01F4AD17A927A2A4BA7
:104BC00053F8220000F0C5FAE02024498872012041
:104BD000234908602DE01848807A4D280FD1002421
:104BE00005E01549601C085C0855601CC4B22048EB
:104BF00000680C308442F4D3FFF7DEFE10E00E486C
:104C0000807A532806D1E020144988720120144983
:104C1000086005E0E0201149887201201049086011
:104C200007E0E0200D49887201200D49086000E08E
:104C300000BF00BF70BD0000DC200020506C65612B
:104C4000736520676F20746F20426F6F746C6F61A3
:104C5000646572204669727374210A009C260020E4
:104C600018000020B41F0020F45F002080200020E6
:104C70002C00002000200FE00F4931F910200F4BCD
:104C8000411C43F821200C4A0A3132F911200C4B07
:104C9000411C43F82120C8B20528EDDB0649B1F9D3
:104CA0002010084A51600449B1F928109160024966
:104CB000B1F92A10D16070476A5500208820002081
:104CC000A4200020C020002010B500243448407AE1
:104CD000822847D00CDC6F282FD004DC642822D037
:104CE0006E285AD122E071282ED0722855D132E098
:104CF000832849D084284BD0C62802D0C7284CD15D
:104D000008E0FCF7E9FEE0202649887201202649E8
:104D1000086043E0FCF7F4FEE0202249887201209D
:104D2000214908603AE000F017F937E0E0201D491A
:104D3000887201201C49086030E0E020194988721F
:104D400001201949086029E0E020164988720120F5
:104D50001549086022E0E0201249887201201249BA
:104D600008601BE001F086FE002407E00F48015DAB
:104D700004F10A000B4A1154601CC4B20A2CF5DB82
:104D80000A200949086009E001200749086005E098
:104D900002F03AFA0449086000E000BF00BF10BD0D
:104DA000DC2000209C2600201800002060550020F8
:104DB00029B1064A52690243044B5A6104E0034A8E
:104DC00052698243014B5A61704700000010024053
:104DD00029B1064AD2690243044BDA6104E0034A6E
:104DE000D2698243014BDA61704700000010024033
:104DF00029B1064A12690243044B1A6104E0034ACE
:104E000012698243014B1A61704700000010024092
:104E100029B1064A92690243044B9A6104E0034AAD
:104E200092698243014B9A61704700000010024072
:104E300029B1064AD2680243044BDA6004E0034A0F
:104E4000D2688243014BDA607047000000100240D4
:104E500030B500210022002400232D4D6D6805F09F
:104E60000C0121B1042905D0082923D105E0294DE1
:104E7000056022E0274D05601FE0254D6D6805F4B3
:104E80007012234D6D6805F48034022505EB9242C3
:104E90001CB9214D554305600BE01D4D6D6815F49F
:104EA000003F03D01C4D5543056002E0194D5543AA
:104EB000056002E0174D056000BF00BF144D6D682E
:104EC00005F0F0010909154D6B5C0568DD40456092
:104ED0000F4D6D6805F4E061090A104D6B5C456883
:104EE000DD4085600A4D6D6805F46051C90A0B4DBF
:104EF0006B5C4568DD40C560054D6D6805F440415B
:104F0000890B074D6B5CC568B5FBF3F5056130BDDA
:104F10000010024000127A0000093D00000000204D
:104F20001000002000210A4A11700A4A82F820105D
:104F3000012802D0042808D103E00121044A11709D
:104F400004E00521024A117000E000BF00BF704775
:104F5000201002400010024010B5022409E016495A
:104F600051F824004FF6FF722146FCF7F1FA601C5D
:104F7000C4B2124800788442F1DB012405E000212C
:104F8000204602F073FB601CC4B20C2CF7DD012438
:104F90000FE0204604F022FA0121204604F0A4F993
:104FA000002004EBC401064A02EBC1014871601CF9
:104FB000C4B2082CEDDD10BDF45F0020802000207D
:104FC000F84F002010B502460B460120107082F801
:104FD0002430002082F825001146086AA0F57F449D
:104FE000FF3C01D0002008620020487709E0C96A30
:104FF000086AA0F57F44FF3C01D000200862002031
:105000004877C86A8842F2D1012010BD00B587B048
:10501000012141F20400FFF7FBFEE020ADF804009F
:1050200001208DF8060018208DF8070001A91C4802
:10503000FCF792F91020ADF8040001208DF806006D
:1050400010208DF8070001A91548FCF785F91021FB
:105050001348FCF75EFA0020ADF808004FF48270A8
:10506000ADF80A000020ADF80C00ADF80E00ADF868
:1050700010004FF40070ADF812001020ADF81400CD
:105080000020ADF816000720ADF8180002A9054869
:1050900000F040F80121034800F022F807B000BDFD
:1050A000000801400030014010B5044600BF022155
:1050B0000A4800F021F80028F9D02146074800F0FE
:1050C00027F800BF0121054800F016F80028F9D0A4
:1050D000024800F01AF8C0B210BD000000300140D4
:1050E00021B1028842F04002028004E002884FF6BB
:1050F000BF731A40028070470246002013890B429A
:1051000001D0012000E000207047014688897047E7
:105110008181704710B50022028802F441520B8849
:105120004C8823438C882343CC8823430C89234316
:105130004C8923438C892343CC8923431A4302801F
:10514000838B4FF2FF74234083830B8A038210BD4D
:105150007047017770470000024A1268426141605F
:1051600070470000C41F002010B500F001F810BD0A
:105170000CB50020019000903248006840F4803067
:105180003049086000BF2F48006800F400300090EC
:105190000198401C0190009818B90198B0F5A06FD3
:1051A000F1D12848006810F4003F02D0012000909F
:1051B00001E0002000900098012842D122480068B8
:1051C00040F01000204908600846006820F0030005
:1051D00008600846006840F002000860194840680E
:1051E000184948600846406848600846406840F4EE
:1051F000806048600846406820F47C10486008469B
:10520000406840F4E81048600846006840F080704C
:10521000086000BF0B48006810F0007FFAD0094812
:10522000406820F00300074948600846406840F0A5
:105230000200486000BF0348406800F00C000828E6
:10524000F9D10CBD00100240002002407047000060
:105250000246012001F10C0101F80C0C4FF0000096
:1052600001F80B0C08744874887448610876487615
:105270008876C8764877A1F10C011163CA620348A9
:10528000006888604FF0010070470000C41F0020D4
:1052900000B503460021184600F002F800BD0000EA
:1052A0000246012002F10C0202F80C0C4FF0000043
:1052B00002F80B0C11745074907450611076507693
:1052C0009076D0765077A2F10C02D2621263034836
:1052D000006890604FF0010070470000C41F00207C
:1052E00010B5FEF7EDFDFEF7CBFCFCF783FCFEF7F7
:1052F00089FCFCF7B9FDFCF77FFDFEF725FFFEF703
:1053000065FFFDF725F9FDF765F9FDF7D3FEFCF71D
:1053100009FEFFF739F9FFF7FDF8FCF767FEFCF728
:105320002BFEFDF7FBFFFDF7BFFFFEF731F8FEF7A1
:105330009FF8FFF7C3F9FFF761F9FEF71FF9FEF7D2
:10534000F7F8FDF791FEFCF7C7FDFEF781FFFDF7CB
:105350003FF8FCF7E9FEFDF741FDFEF771FDFDF7B3
:1053600085FCFDF7E5F9FDF777F9FEF725FCFEF77B
:10537000FDFBFDF7C7F8FDF79FF8FEF725F9FEF7EF
:105380007DF9FDF7D5FBFEF779FBFDF7A7FDFCF7EF
:1053900067FEFDF7B9FEFDF72DFFFDF747FAFEF7B3
:1053A000C9F9FDF731FBFEF7ADFA10BD12480068F0
:1053B000401C1149086011480068401C0F490860F2
:1053C0000D480068B0F5FA7F15D300200A4908603F
:1053D0000B48007818B101200A49086003E0012059
:1053E0000849091F08600648007808B9012000E054
:1053F0000020034908707047981F0020C41F002038
:10540000941F00201408014010B51348006840F0B4
:1054100001001149086008464068104908400E49DB
:105420004860084600680E4908400B490860084675
:10543000006820F4802008600846406820F4FE00E0
:1054400048604FF41F008860FFF78EFE4FF0006049
:105450000449086010BD0000001002400000FFF881
:10546000FFFFF6FE08ED00E02DE9F0470027B84603
:10547000B946BA460221480700F0C5FD18B1FD4DF6
:10548000012600241CE00421080700F0BCFD18B12F
:10549000F94D0226012413E00821C80600F0B3FDEF
:1054A00018B1F64D032602240AE01021880600F008
:1054B000AAFD18B1F24D0426032401E0BDE8F087EF
:1054C00004EBC400EF4901EBC000807830B304EB7B
:1054D000C40001EBC000406935F8108004EBC40043
:1054E00001EBC000406B401C04EBC401E54A02EB39
:1054F000C101486304EBC400114601EBC000406BDE
:10550000C8280AD9002004EBC40102EBC10188704D
:1055100004EBC40102EBC1014863BAE104EBC4002F
:10552000D84901EBC000007998B9012004EBC4010F
:10553000D44A02EBC10108710021304603F020FF7C
:1055400004EBC400CF4901EBC000406935F810807E
:105550009FE1002004EBC401CA4A02EBC1010871BB
:10556000012004EBC40102EBC101C87001213046E7
:1055700003F006FF04EBC400C24901EBC000407910
:1055800058B904EBC40001EBC0008069401C04EB77
:10559000C401BC4A02EBC101886104EBC400B949F3
:1055A00011F83000B849095D88420DD104EBC40000
:1055B000B44901EBC000806B401C04EBC401B14A4C
:1055C00002EBC10188630CE004EBC400AD4901EBC0
:1055D000C000806B401E04EBC401AA4A02EBC1016B
:1055E000886304EBC400A74901EBC00040780128A0
:1055F00015D104EBC40001EBC000806804EBC401CA
:10560000A04A02EBC101C860002004EBC40102EB18
:10561000C101886004EBC40102EBC101086104EB25
:10562000C400984901EBC000806828B304EBC400B3
:1056300001EBC000406935F8108004EBC40001EBB9
:10564000C0008068401E04EBC4018E4A02EBC10119
:10565000886004EBC400114601EBC000806858B3B9
:1056600004EBC40001EBC0004069401C04EBC40122
:1056700002EBC10148614CE004EBC400814901EB3D
:10568000C0000069C8B104EBC40001EBC000406970
:1056900035F8108004EBC40001EBC000407958B924
:1056A00004EBC40001EBC0000069401E04EBC40120
:1056B000744A02EBC10108612BE004EBC40071499C
:1056C00001EBC000C06820B304EBC40001EBC000D4
:1056D000406935F8108004EBC40001EBC000C068DD
:1056E000401E04EBC401674A02EBC101C86004EB31
:1056F000C400114601EBC000406950B104EBC40086
:1057000001EBC0004069401E04EBC40102EBC10183
:10571000486104EBC4005B4901EBC000C06828BBD2
:105720002CB900220221480700F07EFC16E0012C73
:1057300005D100220421080700F076FC0EE0022CBF
:1057400005D100220821C80600F06EFC06E0032CFB
:1057500004D100221021880600F066FC002004EB32
:10576000C401484A02EBC101C87092E004EBC400D6
:10577000444901EBC00090F83D00002879D000209A
:1057800004EBC4013F4A02EBC10181F83D0004EB88
:10579000C400114601EBC000806804EBC40102EBB9
:1057A000C1010969084404EBC40102EBC101C968E5
:1057B00000EB010904EBC400114601EBC000406C92
:1057C00004EBC40102EBC101496988420DD904EB25
:1057D000C400114601EBC000406C04EBC40102EBB5
:1057E000C1014969A0EB010A0DE004EBC4002549A1
:1057F00001EBC000406904EBC401224A02EBC10185
:10580000496CA0EB010A04EBC4001E4901EBC00087
:10581000406C504448453CD204EBC40001EBC0004E
:10582000C0F808A004EBC40001EBC000406C04EB1E
:10583000C401144A02EBC101C86004EBC400114664
:1058400001EBC0008068A9EB000004EBC40102EB8F
:10585000C101C968401A04EBC40102EBC10108612F
:1058600004EBC400114601EBC000406C04EBC40122
:105870000CE00EE0300100201A0500200409002091
:10588000EE0C0020F84F0020801F002002EBC10129
:10589000086484B90221480700F0A4FA4FF0804060
:1058A00000F0A4FB074607EB080081B24FF08040F0
:1058B00000F01FFD33E0012C0ED10421080700F099
:1058C00091FAA00700F095FB074607EB080081B2AC
:1058D000A00700F010FD22E0022C0ED10821C8061E
:1058E00000F080FA600700F087FB074607EB08002E
:1058F00081B2600700F001FD11E0032C0FD11021EF
:10590000880600F06FFA4FF0804000F078FB074601
:1059100007EB080081B24FF0804000F0F0FC00BFC0
:10592000CCE500002DE9F0470027B846B946BA4655
:105930000221FD4800F067FB18B1FC4D0526042448
:105940001CE00421F84800F05EFB18B1F84D062673
:10595000052413E00821F44800F055FB18B1F54D7B
:10596000072606240AE01021EF4800F04CFB18B18E
:10597000F14D0826072401E0BDE8F08704EBC400E0
:10598000EE4901EBC000807830B304EBC40001EBBA
:10599000C000406935F8108004EBC40001EBC00082
:1059A000406B401C04EBC401E44A02EBC1014863B4
:1059B00004EBC400114601EBC000406BC8280AD9B3
:1059C000002004EBC40102EBC101887004EBC401A8
:1059D00002EBC1014863BDE104EBC400D74901EB10
:1059E000C000007998B9012004EBC401D34A02EB4E
:1059F000C10108710021304603F0C2FC04EBC40071
:105A0000CE4901EBC000406935F81080A2E10020CA
:105A100004EBC401C94A02EBC1010871012004EB87
:105A2000C40102EBC101C8700121304603F0A8FC9B
:105A300004EBC400C14901EBC000407958B904EB44
:105A4000C40001EBC0008069401C04EBC401BB4AE8
:105A500002EBC101886104EBC400B84911F83000C1
:105A6000B749095D88420DD104EBC400B34901EB8D
:105A7000C000806B401C04EBC401B04A02EBC101C2
:105A800088630CE004EBC400AC4901EBC000806B00
:105A9000401E04EBC401A94A02EBC101886304EB78
:105AA000C400A64901EBC0004078012815D104EBE1
:105AB000C40001EBC000806804EBC4019F4A02EB04
:105AC000C101C860002004EBC40102EBC101886081
:105AD00004EBC40102EBC101086104EBC400974967
