:020000040801F1
:10000000D067002065010108111A0108E5140108F4
:10001000F1190108050301089959010800000000C1
:10002000000000000000000000000000AD400108DA
:10003000BD09010800000000A1370108D1420108F4
:100040007F0101087F0101087F0101087F0101088C
:100050007F0101087F0101087F010108910F01085C
:100060007F0101087F0101087F0101087F0101086C
:100070007F0101087F0101087F0101087F0101085C
:1000800055090108570901087F0101087F0101088E
:10009000975901087F0101087F010108A30F01089A
:1000A0007F0101087F0101087F0101087F0101082C
:1000B0008D430108494801087F0101087F010108BB
:1000C0007F0101087F0101087F0101087F0101080C
:1000D0007F0101087F0101084D5501087F010108DA
:1000E0007F0101087F0101088B5901087F01010888
:1000F0007F0101087F0101087F0101087F010108DC
:100100007F0101087F0101087F0101087F010108CB
:10011000CD5201087F0101087F0101087F0101081C
:100120007F0101087F0101087F0101087F010108AB
:10013000DFF80CD000F084F8004800470976010889
:10014000D0670020EFF30980704780F3098870477B
:10015000EFF30880704780F30888704740BA704713
:10016000C0BA70470648804706480047FEE7FEE7EA
:10017000FEE7FEE7FEE7FEE7FEE7FEE7FEE7FEE757
:100180002D4301083101010840EA01039B0703D018
:1001900009E008C9121F08C0042AFAD203E011F8C6
:1001A000013B00F8013B521EF9D27047D2B201E088
:1001B00000F8012B491EFBD270470022F6E710B56C
:1001C00013460A4604461946FFF7F0FF204610BDC5
:1001D000421C10F8011B0029FBD1801A70472DE941
:1001E000F05F0546002092469B46884606468146BB
:1001F00040241BE0284641464746224600F041F88D
:1002000053465A46C01A914110D311461846224609
:1002100000F028F82D1A67EB01084F46224601200E
:10022000002100F01FF817EB00094E41201EA4F139
:100230000104DFDC484631462A464346BDE8F09FCC
:10024000064C074D06E0E06840F0010394E8070023
:1002500098471034AC42F6D3FFF76EFFA88401082C
:10026000C8840108202A04DB203A00FA02F10020A9
:1002700070479140C2F1200320FA03F319439040E4
:100280007047202A04DB203A21FA02F0002170474F
:1002900021FA02F3D040C2F12002914008431946EE
:1002A000704770B58D1810F8014B14F0030201D19E
:1002B00010F8012B231106D110F8013B03E010F8D0
:1002C000016B01F8016B521EF9D1B3B110F8012B8B
:1002D00004F00C048A1A0C2C04D0A2EB841203F153
:1002E000020308E010F8014BA2EB0422F7E712F832
:1002F000014B01F8014B5B1EF9D5A942D3D3002075
:1003000070BD000002A005F059FB00BFFEE7000031
:100310004275734661756C745F48616E646C65729A
:10032000210A000030B503460848016800225869D8
:10033000081A72F1000400D200BF5869091A5C68FB
:100340008C4201D8012030BD0020FCE72C25002084
:100350002DE9F04106460027C6EBC60000EB800001
:10036000DFF83C8108EB001000F10C0191F88C00E3
:10037000402802D00320BDE8F0818D20405C402859
:1003800001D00420F7E78E20405C282801D005200A
:10039000F1E78F20405C412801D00720EBE7912056
:1003A000405CDFF8008188F800004046007810F0DB
:1003B000800F05D10020DFF8F08088F800000CE005
:1003C0000120DFF8E48088F800009120405C00F014
:1003D0007F00DFF8D08088F800009220435C32482C
:1003E000007838B923B10878984201D10120C2E7DA
:1003F0000B700CE023B18878984201D00B20BAE74B
:1004000091F89580487D804501D00C20B3E793207A
:10041000425C12029420405C024402F10B008860AE
:100420001AB140F2B550824201D90920A3E71E4813
:100430000078012806D191F89580487D804501D04B
:100440000C2098E702F1060C8F20475C012506E09E
:10045000E81C01F18C0818F8000047406D1C654548
:10046000F6D302F1090401F18C00005DB8420AD014
:1004700001F18C00005D2A2805D001F18C00005D9F
:1004800008B10A2077E701F18C0004F1010810F8A7
:100490000800292801D006206DE700206BE7000046
:1004A0009C390020D52500202600002070471CB56F
:1004B0000121084603F05AFC0821062000F012FF33
:1004C0000521022000F00EFF4FF4807000F092FD35
:1004D0004FF4007000F08EFD00208DF8040008201D
:1004E0008DF805004FF49070009001208DF8060003
:1004F000684600F099FD1CBD00B597B001210802C7
:1005000003F004FC012140F2E11003F02FFC4CF257
:100510000370ADF81C0018208DF81F0003208DF823
:100520001E0007A9504800F0FDFE4FF68070ADF8A0
:100530001C0007A94D4800F0F5FE7820ADF81C001E
:1005400007A94A4800F0EEFE4FF4C050ADF81C0079
:1005500007A9454800F0E6FE4FF23F00ADF81C0049
:1005600007A9434800F0DEFE3F20ADF81C0007A9B4
:10057000404800F0D7FE3020ADF81C0007A93A48EB
:1005800000F0D0FE4FF4A050ADF81C0007A9394888
:1005900000F0C8FE0320ADF81C0007A9334800F0A6
:1005A000C1FE0F200090052001900F200290002036
:1005B00003900490052005900020069004200890E8
:1005C000002009900A900B900C900E900F901090C4
:1005D0004FF4805011900020129013901490CDF899
:1005E00054D0CDF858D008A800F00CFE012104200A
:1005F00000F0EEFD05200090002001900520029003
:10060000002003900490059006900620089000209A
:1006100009900A9010200B9000200C900E900F90E3
:1006200010904FF480501190002012900D90139074
:100630001490CDF854D008A800F0E4FD05200090F7
:100640000020019005200290002003900490059066
:100650000690CDF858D008A800F0D4FD012106205E
:1006600000F0B6FD17B000BD0014014000180140B5
:10067000001C01400020014010B500F011F800F00E
:10068000C5F804200149086010BD0000100C0140AD
:1006900010B54FF48031C80201F000FA10BD00001F
:1006A00008B540F20370ADF8000003208DF8020099
:1006B00014208DF803006946314800F033FE042011
:1006C000ADF8000003208DF8020010208DF8030023
:1006D00069462C4800F026FE4EF22300ADF80000DB
:1006E00003208DF8020010208DF80300694625488C
:1006F00000F018FE4EF21000ADF8000003208DF857
:10070000020010208DF8030069461F4800F00AFE21
:100710004FF49C50ADF8000003208DF80200142027
:100720008DF803006946184800F0FCFD0C20ADF878
:10073000000003208DF8020014208DF803006946A4
:10074000124800F0EFFD4FF4F860ADF80000032010
:100750008DF8020010208DF8030069460C4800F067
:10076000E1FD4FF40060ADF8000003208DF80200B9
:1007700014208DF803006946054800F0D3FD08BD3C
:1007800000080140000C014000100140001401402D
:10079000001C014010B50121042003F0E7FA0121FB
:1007A000082003F0E3FA0121102003F0DFFA012111
:1007B000202003F0DBFA0121402003F0D7FA0121C9
:1007C000802003F0D3FA0121080203F0CFFA0121BF
:1007D000C80203F0CBFA0121084603F0A7FA012171
:1007E000022003F0A3FA0121042003F09FFA012163
:1007F000082003F09BFA0121202003F097FA012042
:1008000002F05EFF002003F03BFB10BD08B54FF483
:10081000C050ADF8000003208DF8020014208DF8C0
:1008200003006946234800F07DFD4FF4DE50ADF82B
:10083000000003208DF8020014208DF803006946A3
:100840001D4800F06FFD4020ADF8000003208DF83A
:10085000020014208DF803006946184800F062FD7C
:100860004020ADF8000003208DF8020014208DF820
:1008700003006946124800F055FD7C20ADF80000E9
:1008800003208DF8020014208DF8030069460D48FE
:1008900000F048FD4EF6C030ADF8000003208DF8A2
:1008A000020014208DF803006946074800F03AFD65
:1008B00008BD000000080140000C0140001001408C
:1008C00000140140001801400020014030B51648D6
:1008D00000684FF47A72B0FBF2F1B1F1807F01D37E
:1008E00001201DE021F07F40401E4FF0E0225061CA
:1008F00050170F22002807DA13071D0E0B4B00F0CC
:100900000F04241F1D5503E013071C0E084B1C5435
:1009100000BF00204FF0E02290610720106100200E
:1009200008B100BFFEE730BD0425002018ED00E04F
:1009300000E400E029B1064A52680243044B5A60C1
:1009400004E0034A52688243014B5A60704700003A
:10095000002004E070477047417890F827209142CA
:1009600006D090F8271080F82610417880F82710DC
:10097000002180F82410016AA1F57F42FF3A16D1C8
:10098000002180F8251001700B490968C160D0E989
:100990000221914206D2C16841F4803182688A1AEC
:1009A000026108E0D0E90221891A016103E0016ACD
:1009B00009B10121417770472C25002070470000C4
:1009C00010B58C203B49088040F22670488040F6E4
:1009D000AC5088804FF49650C88041F638000881AA
:1009E00019204881962088818000C88140F24C40BF
:1009F000088264204882282088820C20C8820D202A
:100A000008830E2048830F2088831020C88311207C
:100A1000088412204884132088841420C884152058
:100A2000088516204885172088851820C885192034
:100A300008861A2048861B2088861C20C8861D2010
:100A400008871E2048871F2088872020C8872120EC
:100A5000A1F840002220A1F842002320A1F8440080
:100A60002420A1F846002520A1F848002620A1F85E
:100A70004A002720A1F84C002820A1F84E00292088
:100A8000A1F850002A20A1F852002B20A1F8540010
:100A90002C20A1F856002D20A1F858002E20A1F8F6
:100AA0005A002F20A1F85C003020A1F85E0003F06E
:100AB00079F810BDEA5A002070B505460026012DD0
:100AC00002D11148066803E0022D01D10F480668E3
:100AD0000F48407900F07F04C4EBC40101EB8101B1
:100AE0000C4A02EB011101F1980032460849FFF768
:100AF0004BFBC4EBC40000EB8000064901EB001087
:100B00004661204670BD0000D00000200801002092
:100B10005C2600209C39002003460621062212484C
:100B2000018812480288A3B1012B1AD132B9A1F56C
:100B30006E40EE3800D170470120FCE739B9A2F5CC
:100B40006E40EE3801D10120F5E70020F3E7AB203D
:100B5000F1E709B90020EEE70AB90120EBE7AB2085
:100B6000E9E70020E7E7000000F0070800F80708C1
:100B700010B504240B4800F0A1FA0446042C01D05F
:100B8000204610BD0021074800F0E2FA0446042C7C
:100B900001D02046F5E7044800F090FA04462046CC
:100BA000EFE7000000F0070800F807082DE9F0471C
:100BB0004FF0060A062600250027A8464FF0FF3909
:100BC0007448B0F800A0744806885FEA0A0074D040
:100BD000A0F56E40EE382AD0A0F5885011386DD1BE
:100BE00046B96C4800F06AFA0446042C1ED0204630
:100BF000BDE8F087A6F56E40EE3810D1654800F0EC
:100C00005DFA0446042C01D02046F1E70021624839
:100C100000F09EFA0446042C08D02046E8E7FFF7CF
:100C2000A7FF0446042C01D02046E1E7AEE07EBBDE
:100C3000002522E05748C088584931F815108842ED
:100C400001D10FFA85F94D4515D0544931F81500F9
:100C5000534900F021F98046B8F1010F0BD04F49FC
:100C600031F815004E49098800F048F90746042F6D
:100C700001D03846BCE7681C85B2C82DDADB0021FC
:100C8000444800F065FA0446042C02D02046AFE741
:100C900007E0414800F012FA0446042C1FD0204619
:100CA000A6E7A6F57F40FF3812D13B4800F006FAD0
:100CB0000446042C03D020469AE711E05EE00021B0
:100CC000344800F045FA0446042C08D020468FE74B
:100CD000FFF74EFF0446042C01D0204688E755E07C
:100CE00036B9FFF745FF0446042C46D020467FE77F
:100CF000A6F57F40FF3807D1274800F0DFF904460A
:100D0000042C3AD0204673E7002523E02248801DBA
:100D10000088224931F81510884201D10FFA85F96F
:100D20004D4515D01D4931F815001D4900F0B4F8A6
:100D30008046B8F1010F0BD0184931F81500184959
:100D4000098800F0DBF80746042F01D038464FE74A
:100D5000681C85B2C82DD9DB00210F4800F0F8F9D6
:100D60000446042C01D0204642E70A4800F0A6F9C8
:100D70000446042C01D020463AE707E0FFF7F8FECE
:100D80000446042C01D0204632E700BF00BF0420F7
:100D90002EE7000000F0070800F807087C5A002042
:100DA000F82400202DE9F84F074689460425DFF88E
:100DB000D0A0344800904FF00008002400264FF0E7
:100DC000000B0020FFF7A8FE8046B8F1010F04D108
:100DD000DFF8B4A02D4800900AE0B8F1000F04D16C
:100DE000DFF8A8A02848009002E0AB20BDE8F88F0B
:100DF0004EF6EE61504600F0ABF90546042D01D0E9
:100E00002846F3E74946384600F078F80646042EAF
:100E100001D03046EAE700241CE01D4830F81400F9
:100E2000B84215D01A4931F814001A4900F034F8C4
:100E30008346BBF1010F0BD0154931F81400154959
:100E4000098800F05BF80646042E01D03046CDE755
:100E5000601C84B2C82CE0DB009800F02FF9054636
:100E6000042D01D02846C1E70021504600F070F95A
:100E70000546042D01D02846B8E72846B6E700000D
:100E8000FF0301080000010800F0070800F8070848
:100E90007C5A0020F82400202DE9F04706460F4632
:100EA000002445F255584FF00109124DAA46002082
:100EB000FFF732FE0446AB2C01D1BDE8F0870E48A7
:100EC00000EBC42A601C0C49891E01EBC0250AE016
:100ED000B5F80080B04505D135F8020C38804FF0E8
:100EE000000904E02D1F0AF102008542F0D800BF7E
:100EF0004846E2E70000010800F007082DE9F04746
:100F00000646884604270025154CDFF85890012036
:100F1000FFF702FE0546AB2D01D1BDE8F087124870
:100F200000EBC524681C1049891E01EBC02913E0A1
:100F30002068401C0FD14146204600F009F90746C1
:100F4000042F01D03846E8E73146A01C00F000F934
:100F500007463846E1E7241D4C45E9D38020DCE70D
:100F600000000108FF07010800F0070870B50546FA
:100F70000E46002431462846FFF7C0FF0446802C69
:100F800004D131462846FFF70DFF0446204670BDC8
:100F900010B5022000F034F810B1022000F02AF859
:100FA00010BD10B5202000F02BF810B1202000F06B
:100FB00021F8402000F024F810B1402000F01AF889
:100FC000802000F01DF810B1802000F013F84FF4DD
:100FD000807000F015F818B14FF4807000F00AF836
:100FE0004FF4007000F00CF818B14FF4007000F0EE
:100FF00001F810BD01490860704700001404014069
:10100000014600200022074B1B6803EA0102054B42
:1010100014331B680B4202D00AB1012000E000200B
:101020007047000000040140002123498279002A12
:101030003AD00A46126803689A430B461A600A1DA2
:10104000126803689A430B1D1A60027911440A68FA
:1010500003681A430A60184A0832126803689A4300
:10106000154B08331A601A1D126803689A43124B15
:101070000C331A604279102A0ED11A1F12680368C5
:101080001A430D4B08331A601A1D126803681A437D
:10109000094B0C331A600DE00749427911440A6884
:1010A00003681A430A6005E0027911440A6803687C
:1010B0009A430A60704700000004014030B50446BE
:1010C00004254FF4302000F06FF80546042D17D1A9
:1010D0000C48006940F002000A4908610846446172
:1010E000006940F0400008614FF4302000F05CF8E7
:1010F00005460448006941F6FD7108400149086150
:10110000284630BD0020024004200B49C96811F078
:10111000010F01D001200EE00749C96811F0040F4A
:1011200001D0022007E00449C96811F0100F01D076
:10113000032000E0042070470020024003480069BB
:1011400040F0800001490861704700000020024023
:1011500070B504460D460426F00200F025F8064658
:10116000042E11D10948006940F0010007490861C7
:101170002580F00200F018F806460448006941F6A0
:10118000FE71084001490861304670BD00200240F0
:101190000248034948600348486070472301674597
:1011A00000200240AB89EFCD00B502460423FFF7D3
:1011B000ABFF034603E0FFF7A7FF0346521E012BD8
:1011C00001D1002AF7D102B90523184600BD00005D
:1011D00051B14FF0204252F8202042F001024FF06E
:1011E000204343F8202009E04FF0204252F820200D
:1011F000034B1A404FF0204343F820207047000073
:10120000FEFF0F00D0E901121143C26811430269C9
:1012100011434269114382691143C2691143026A51
:101220001143426A1143826A1143C26A1143026B3D
:1012300011434FF02043026843F8221081680829C7
:1012400008D11A46016852F8211041F040010268A5
:1012500043F82210416B0968426B526841EA02115F
:10126000426B926841EA0221426B928941EA024153
:10127000426B128A41EA0251426B127D41EA0261DD
:10128000426B926911430268521C4FF0204343F8AD
:101290002210C16AB1F5804F1AD1816B0968826B47
:1012A000526841EA0211826B926841EA0221826B24
:1012B000128A41EA0251826B127D41EA0261826B1D
:1012C00092691143026803EB8202C2F8041108E03C
:1012D0006FF070414FF02043026803EB8202C2F8C6
:1012E0000411704730B500228B071C0F0F2303FA3F
:1012F00004F20B4B8C1053F824309343084C8D10A0
:1013000044F8253023468C1053F824308C07240FE2
:1013100000FA04F42343024C8D1044F8253030BD0C
:10132000080001402DE9F04102460025002600207A
:1013300000230024002791F803C00CF00F0591F85A
:1013400003C01CF0100F03D091F802C04CEA050551
:1013500091F800C0BCF1000F31D0146800202BE0E0
:101360004FF0010C0CFA00F3B1F800C00CEA0306D0
:101370009E4220D183004FF00F0C0CFA03F7BC43C0
:1013800005FA03FC4CEA040491F803C0BCF1280FF1
:1013900006D14FF0010C0CFA00FCC2F814C00AE0B0
:1013A00091F803C0BCF1480F05D14FF0010C0CFAC5
:1013B00000FCC2F810C0401C0828D1D31460B1F85A
:1013C00000C0BCF1FF0F34DD546800202EE000F1B6
:1013D000080C4FF0010808FA0CF3B1F800C00CEA51
:1013E00003069E4221D183004FF00F0C0CFA03F745
:1013F000BC4305FA03FC4CEA040491F803C0BCF1B9
:10140000280F05D100F1080C08FA0CF8C2F8148076
:1014100091F803C0BCF1480F07D100F1080C4FF060
:10142000010808FA0CF8C2F81080401C0828CED336
:101430005460BDE8F0810000F0B50A4600230024A6
:101440000021002500F00046B6F1004F02D11D4EEC
:10145000F16901E01B4E7168C0F3034583B200F4EB
:101460004016B6F5401F08D121F07061154E766820
:1014700026F07066134F7E6012E000F48016B6F519
:10148000801F06D1032606FA05F4A14341F07061DE
:1014900006E0460D360103FA06F6B14341F07061ED
:1014A00022B1460D360103FA06F6314300F000463C
:1014B000B6F1004F02D1034EF16101E0014E7160BF
:1014C000F0BD0000000001400246002093680B427E
:1014D00001D0012000E000207047416170470161A8
:1014E000704770470348006810F0010F00D000BE3D
:1014F00000BFFEE7F0ED00E010B5FEF7FDFFFFF7DF
:1015000049F9FFF7B9F8FFF7E1F910BD10B5FEF79B
:10151000CDFFFEF7CCFFFFF7BBF810BD002300F1B5
:101520000C0000F80C3C00F80B3C0374437483740B
:10153000037643768376C376437701774261A0F1E1
:101540000C00C0620063704710B5B549B548027819
:101550000078401CB34B1870B34840F82210B34ACF
:10156000184601780078401C1870AF4840F82120D8
:10157000AF4A184601780078401C1870AA4840F815
:101580002120AC49184602780078401C1870A64803
:1015900040F82210A849184602780078401C1870BC
:1015A000A14840F82210A54A184601780078401C4E
:1015B00018709D4840F82120A1491846027800780B
:1015C000401C1870984840F822109E49184602782E
:1015D0000078401C1870944840F822109A49184628
:1015E00002780078401C18708F4840F82210974904
:1015F000184602780078401C18708B4840F822107A
:101600009349184602780078401C1870864840F8C4
:1016100022109049184602780078401C18708248C1
:1016200040F822108C49184602780078401C187047
:101630007D4840F82210894A184601780078401CFD
:101640001870794840F821208549184602780078BA
:10165000401C1870744840F82210824A18460178DD
:101660000078401C1870704840F821207E491846C8
:1016700002780078401C18706B4840F822107B4AB2
:10168000184601780078401C1870674840F82120FF
:10169000774A184601780078401C1870624840F874
:1016A00021207449184602780078401C18705E4862
:1016B00040F822107049184602780078401C1870D3
:1016C000594840F822106D49184602780078401CAD
:1016D0001870554840F82210694918460278007879
:1016E000401C1870504840F82210664A184601788D
:1016F0000078401C18704C4840F82120624A184677
:1017000001780078401C1870474840F821205F4954
:10171000184602780078401C1870434840F82210A0
:101720005B4A184601780078401C18703E4840F823
:1017300021205849184602780078401C18703A4811
:1017400040F822105449184602780078401C18705E
:10175000354840F82210514A184601780078401C5C
:101760001870314840F821204D4918460278007819
:10177000401C18702C4840F822104A49184602783C
:101780000078401C1870284840F82210464A184635
:1017900001780078401C1870234840F82120434904
:1017A000184602780078401C18701F4840F8221034
:1017B0003F49184602780078401C18701A4840F8D3
:1017C00022103C4A184601780078401C18701648D0
:1017D00040F821203849184602780078401C1870DB
:1017E000114840F82210354A184601780078401C0C
:1017F00018700D4840F82120012409E00A4951F8E9
:1018000024004FF6FE722146FFF788FE601CC4B22A
:10181000044800788442F1DB05212948C16610BDE7
:101820004C5B0020EA25002004630020805B002040
:10183000585E0020F45E0020285F0020245E002017
:10184000545D0020885D0020BC5D0020F05D00201C
:10185000EC5C0020205D0020E85B0020B45B0020F1
:101860001C5C0020505C0020845C0020B85C0020E0
:101870008C5E0020C05E00205C5F0020905F002036
:10188000C45F0020F85F00202C6000206060002012
:1018900094600020C8600020FC60002030610020BF
:1018A0006461002098610020CC610020006200206B
:1018B00034620020686200209C620020D062002018
:1018C000785500200246086AA0F57F43FF3B02D10D
:1018D000126301207047086A58B1012082F829007C
:1018E0001163086A106291F8250082F82500002033
:1018F000F0E70020EEE700000146481E00EBC000C4
:10190000044A02EBC000C07808B9012070470020EB
:10191000FCE7000078550020F0B591B00446402166
:1019200001A8FEF74AFC20680F4900EA0107B7F159
:10193000005F0ED13A460DA101A804F04FF801A8AE
:1019400004F03CF8666835462068FEF704FCA847BA
:1019500007E03A460BA101A804F040F801A804F002
:101960002DF811B0F0BD00000000FF2F4F4B2C5B95
:10197000537461636B546F703D307825785D210A34
:10198000000000004661696C2C5B537461636B540A
:101990006F703D307825785D210A000010B5FFF7A3
:1019A000CDFB03A004F00AF80548FFF7B5FF10BD12
:1019B0004A756D7020546F20415050210A0000007C
:1019C0000000010810B504A003F0F8FF4FF000601C
:1019D000FFF7A2FF10BD00004A756D7020546F2004
:1019E000426F6F744C6F61646572210A00000000E1
:1019F00002A003F0E3FF00BFFEE700004D656D4D60
:101A0000616E6167655F48616E646C6572210A0092
:101A10007047000070B5002100230F22C4780CB37A
:101A2000164C246804F4E064C4F5E064210AC1F1B2
:101A30000403CA40447804FA03F184781440214333
:101A400009010F4C0678A155047804F01F05012404
:101A5000AC4005786D114FF0E02606EB8505C5F822
:101A6000004109E0047804F01F050124AC40054D55
:101A70000678761145F8264070BD00000CED00E0B8
:101A800000E400E080E100E002490143024A116005
:101A9000704700000000FA050CED00E0024A0A4021
:101AA0000243024B1A60704780FFFF1F08ED00E001
:101AB000002181777047000010B56D4C207810B17F
:101AC000607F012800D110BD6078142833D007DC76
:101AD000072873D2DFE800F0157B848B93A5B30051
:101AE000182853D006DC15282CD0162836D01728F5
:101AF00064D13FE0192855D01A2860D0FF28F7D1CB
:101B0000A7E05C480078012807D1002059490870F7
:101B1000594800785949087003E05948807A574974
:101B2000087056480078052802DD42F21D702062D8
:101B30001420607096E05349204602F037FB1520D0
:101B400060708FE04F492046FFF7BCFE28B14E4938
:101B5000204602F02BFB1620607083E04A492046A5
:101B6000FFF7B0FE28B14949204602F01FFB1720BD
:101B7000607077E045492046FFF7A4FE28B144494C
:101B8000204602F013FB182060706BE040492046AD
:101B9000FFF798FE28B13F49204602F007FB1920C5
:101BA00060705FE03B492046FFF78CFE28B13A4960
:101BB000204602F0FBFA1A20607053E051E03649EB
:101BC0002046FFF77FFE08B1012060704AE02A48F6
:101BD000007810B90220607001E00420607041E0DC
:101BE0002E49204602F0E2FA032060703AE02B49C9
:101BF0002046FFF767FE08B10420607032E02848F5
:101C00000078642807DA26480078401C24490870C8
:101C10000520607004E002206070002020490870F8
:101C200020E02048154B1B7850F823201E48B0F9BF
:101C30000C10012006F00AFA0620607012E0012064
:101C4000FFF75AFE20B1012006F0ECFAFF20607089
:101C500008E00A480078084908704FF6FF702062D3
:101C600000E000BF00BF2046FEF776FE00BF2AE777
:101C7000585E0020ED250020EE250020542600208F
:101C80009C3700208C5E00205C5F0020B85C002048
:101C9000505C0020E85B0020245E0020805B002078
:101CA000EF250020F8250020EA5A002010B5184C36
:101CB000207810B1607F012800D110BD607820B17C
:101CC00001280DD0FF281CD117E01249204602F050
:101CD0006DFA1149204602F069FA0120607011E0A6
:101CE0000C492046FFF7EEFD30B10B492046FFF7C7
:101CF000E9FD08B1FF20607004E04FF6FF7020623C
:101D000000E000BF00BF2046FEF726FE00BFD4E77C
:101D1000245E0020545D0020BC5D002010B5184CEE
:101D2000207810B1607F012800D110BD607820B10B
:101D300001280DD0FF281CD117E01249204602F0DF
:101D400035FA1149204602F031FA0120607011E0A5
:101D50000C492046FFF7B6FD30B10B492046FFF78E
:101D6000B1FD08B1FF20607004E04FF6FF70206203
:101D700000E000BF00BF2046FEF7EEFD00BFD4E745
:101D8000285F0020885D0020F05D002010B5114C18
:101D9000207810B1607F012800D110BD607820B19B
:101DA000012805D002280ED109E0012060700BE067
:101DB0000021022004F080FB0220607004E04FF656
:101DC000FF70206200E000BF00BF2046FEF7C4FDA8
:101DD00000BFE2E7C860002010B5114C207810B1B8
:101DE000607F012800D110BD607820B1012805D0A6
:101DF00002280ED109E0012060700BE000210820CC
:101E000004F05AFB0220607004E04FF6FF7020627D
:101E100000E000BF00BF2046FEF79EFD00BFE2E7E6
:101E2000205D002010B51B4C207810B1607F012888
:101E300000D110BD607810B1012824D113E00D202D
:101E400005F0CAFB18B14FF6FF7020620AE00121CD
:101E5000062004F031FB40F6B831204602F02AF9A2
:101E60000120607010E00D2005F0B6FB18B14FF6B0
:101E7000FF70206206E02046FEF754FA10B142F2ED
:101E80001570206200E000BF00BF2046FEF764FD31
:101E900000BFCEE71C5C002010B51B4C207810B1B1
:101EA000607F012800D110BD607810B1012824D1D5
:101EB00013E00C2005F090FB18B14FF6FF70206284
:101EC0000AE00021062004F0F7FA40F6B831204677
:101ED00002F0F0F80120607010E00C2005F07CFBAF
:101EE00018B14FF6FF70206206E02046FEF71AFA9E
:101EF00010B142F21670206200E000BF00BF204621
:101F0000FEF72AFD00BFCEE7505C002010B58E4CD6
:101F1000207810B1607F012800D110BD60781828AA
:101F200075D2DFE800F00C0F16222A3840474F5CCC
:101F30006975828D95A2AFBAC6D3DEEAF4F20120AC
:101F40006070FBE08149204602F030F902206070A9
:101F5000F4E07E492046FFF7B5FC28B17C492046D5
:101F600002F024F903206070E8E079492046FFF789
:101F7000A9FC08B104206070E0E0764800780128F0
:101F800002D10620607005E07349204602F00EF988
:101F900005206070D2E070492046FFF793FC08B13D
:101FA00006206070CAE06D49204602F0FFF8072065
:101FB0006070C3E069492046FFF784FC08B108203F
:101FC0006070BBE001206649087005206549087013
:101FD0006549204602F0EAF809206070AEE06249E7
:101FE0002046FFF76FFC30B14FF47A71204602F0C3
:101FF00061F80A206070A1E02046FEF793F928B14D
:102000005A49204602F0D2F80B20607096E094E026
:1020100056492046FFF756FC30B14FF47A712046FE
:1020200002F048F80C20607088E02046FEF77AF94C
:1020300028B14A49204602F0B9F80D2060707DE0D1
:1020400046492046FFF73EFC08B10E20607075E05F
:102050000120434908700320424908704249204644
:1020600002F0A4F80F20607068E03F492046FFF7B7
:1020700029FC30B14FF47A71204602F01BF8102091
:1020800060705BE02046FEF74DF928B138492046E4
:1020900002F08CF81120607050E035492046FFF7BF
:1020A00011FC28B13349204602F080F812206070FC
:1020B00044E030492046FFF705FC30B14FF47A7117
:1020C000204601F0F7FF1320607037E02046FEF74E
:1020D00029F928B12049204602F068F814206070E0
:1020E0002CE01D492046FFF7EDFB28B1174920469B
:1020F00002F05CF81520607020E014492046FFF7DC
:10210000E1FB08B11620607018E00DE0FFE7012048
:10211000134908700420134908701349204602F03F
:1021200045F81720607009E00F492046FFF7CAFB09
:1021300010B14FF6FF70206200E000BF00BF2046E4
:10214000FEF70AFC00BFE8E664610020245E002080
:102150008C5E0020E62500205C5F0020B85C00203B
:10216000ED250020EE250020585E0020845C002034
:10217000285F0020905F002010B5384C207810B107
:10218000607F012800D110BD607808285ED2DFE8AA
:1021900000F0041119272F3C48543148007810B141
:1021A0000220607005E02F49204601F0FFFF01206A
:1021B00060704CE02B492046FFF784FB08B10220F9
:1021C000607044E028480078012802D10420607043
:1021D00005E02649204601F0E9FF0320607036E063
:1021E00022492046FFF76EFB08B1042060702EE004
:1021F00001201F49087004201E4908701E4920460E
:1022000001F0D4FF0520607021E01B492046FFF754
:1022100059FB28B11949204601F0C8FF062060701B
:1022200015E016492046FFF74DFB28B1144920461A
:1022300001F0BCFF0720607009E011492046FFF75C
:1022400041FB10B14FF6FF70206200E000BF00BFFD
:102250002046FEF781FB00BF95E7000030610020BB
:10226000E92500204C5B0020E52500208C5E002045
:10227000ED250020EE250020585E0020C05E0020E5
:10228000285F002010B51F4C207810B1607F012816
:1022900000D110BD607810B101282CD113E00820C6
:1022A00005F09AF918B14FF6FF7020620AE001219B
:1022B0000A2004F001F940F6B831204601F0FAFE98
:1022C0000120607018E0082005F086F938B103217C
:1022D0000A2004F0F1F84FF6FF7020620AE0204671
:1022E000FEF720F830B103210A2004F0E5F842F2AD
:1022F0001B70206200E000BF00BF2046FEF72CFBF1
:1023000000BFC6E7BC5D002010B51F4C207810B19F
:10231000607F012800D110BD607810B101282CD158
:1023200013E0092005F058F918B14FF6FF7020624C
:102330000AE001210A2004F0BFF840F6B831204637
:1023400001F0B8FE0120607018E0092005F044F9A2
:1023500038B103210A2004F0AFF84FF6FF70206275
:102360000AE02046FDF7DEFF30B103210A2004F029
:10237000A3F842F21C70206200E000BF00BF2046BC
:10238000FEF7EAFA00BFC6E7F05D002010B57D4C0D
:10239000207810B1607F012800D110BD6078192825
:1023A0007AD2DFE800F00D1017232F3BE8E8E8E8C9
:1023B000E8E8E8434F5B6D7A8C98AAB5C7D3DF0095
:1023C00001206070D8E07049204601F0EFFE022045
:1023D0006070D1E06C492046FFF774FA28B16B4970
:1023E000204601F0E3FE03206070C5E06749204607
:1023F000FFF768FA28B16649204601F0D7FE0420AD
:102400006070B9E062492046FFF75CFA28B1614983
:10241000204601F0CBFE05206070ADE05D4920460E
:10242000FFF750FA08B10D206070A5E001205A496D
:1024300008705A4908705A49204601F0B7FE0E202C
:10244000607099E056492046FFF73CFA28B155499B
:10245000204601F0ABFE0F2060708DE05149204610
:10246000FFF730FA58B15048B0F912004FF47A72C1
:1024700000FB02F1204601F01DFE102060707BE0A1
:102480002046FDF74FFF012805D14249204601F0C3
:102490008DFE112060706FE06DE03E492046FFF731
:1024A00011FA58B101203C49087002203B490870DC
:1024B0003B49204601F07AFE122060705CE038490A
:1024C0002046FFF7FFF928B13849204601F06EFE9B
:1024D0001320607050E035492046FFF7F3F958B1FA
:1024E0003148B0F914004FF47A7200FB02F1204633
:1024F00001F0E0FD142060703EE02046FDF712FF81
:1025000028B12349204601F051FE1520607033E0C8
:102510001F492046FFF7D6F958B101201E4908701F
:1025200004201E4908701E49204601F03FFE162077
:10253000607021E01A492046FFF7C4F928B11C4910
:10254000204601F033FE1720607015E01849204640
:10255000FFF7B8F928B11749204601F027FE1820E7
:10256000607009E013492046FFF7ACF910B14FF64F
:10257000FF70206200E000BF00BF2046FEF7ECF9CC
:1025800000BF0AE7FC600020245E00208C5E002073
:10259000505C0020E85B0020ED250020EE250020A7
:1025A000585E0020B45B0020EA5A00201C5C00202A
:1025B000C05E0020285F002010B5114C207810B1BB
:1025C000607F012800D110BD607820B1012805D0BE
:1025D00002280ED109E0012060700BE001210220E9
:1025E00003F06AFF0220607004E04FF6FF70206283
:1025F00000E000BF00BF2046FEF7AEF900BFE2E7F3
:102600009460002010B5114C207810B1607F012833
:1026100000D110BD607820B1012805D002280ED16C
:1026200009E0012060700BE00121082003F044FF65
:102630000220607004E04FF6FF70206200E000BFEF
:1026400000BF2046FEF788F900BFE2E7EC5C0020FF
:1026500010B51B4C207810B1607F012800D110BD4F
:10266000607810B1012824D113E00E2004F0B4FFEB
:1026700018B14FF6FF7020620AE00121072003F035
:102680001BFF40F6B831204601F014FD01206070B8
:1026900010E00E2004F0A0FF18B14FF6FF7020628A
:1026A00006E02046FDF73EFE10B142F217702062B0
:1026B00000E000BF00BF2046FEF74EF900BFCEE7A6
:1026C000845C002010B51B4C207810B1607F01287D
:1026D00000D110BD607810B1012824D113E00F2083
:1026E00004F07AFF18B14FF6FF7020620AE0002173
:1026F000072003F0E1FE40F6B831204601F0DAFC95
:102700000120607010E00F2004F066FF18B14FF652
:10271000FF70206206E02046FDF704FE10B142F291
:102720001870206200E000BF00BF2046FEF714F9D9
:1027300000BFCEE7B85C002010B53B4C207810B14C
:10274000607F012800D110BD6078022841D003DCF1
:1027500038B1012861D123E0142845D015285CD177
:102760004CE032480078012803D14FF6FF70206218
:1027700015E0012004F030FF28B100202B4908703B
:10278000142060700BE000202849087041F270733B
:102790000A220121032005F001FB012060703DE0C9
:1027A000012004F019FF60B1032005F03BFD4FF458
:1027B000AF730A220121032005F0F0FA02206070B5
:1027C00006E00320FFF798F810B142F21E70206275
:1027D00024E00320FFF790F828B101201349087086
:1027E0004FF6FF70206219E04FF4C8730A220021EF
:1027F000032005F0D3FA152060700FE00320FFF7E7
:102800007BF848B1012004F0E7FE10B900206070A9
:1028100002E042F21F70206200E000BF00BF2046CD
:10282000FEF79AF800BF8EE78C5E0020E5250020B9
:1028300010B5254C207810B1607F012800D110BD63
:10284000607830B101281AD0022820D0032834D172
:1028500028E01E480078022803D14FF6FF7020625E
:102860000CE01A480078012802D10220607005E0CF
:102870001749204601F09AFC012060701EE01449BF
:102880002046FFF71FF808B10220607016E01148DB
:10289000B0F90E300A220021032005F07FFA032050
:1028A00060700BE00320FFF727F828B102200749EA
:1028B00008704FF6FF70206200E000BF00BF2046A6
:1028C000FEF74AF800BFBAE7C05E0020E525002009
:1028D0008C5E0020EA5A002010B5114C207810B10F
:1028E000607F012800D110BD607820B1012805D09B
:1028F00002280ED109E0012060700BE000210320C6
:1029000003F0DAFD0220607004E04FF6FF702062F1
:1029100000E000BF00BF2046FEF71EF800BFE2E760
:10292000F85F002010B5114C207810B1607F0128AD
:1029300000D110BD607820B1012805D002280ED149
:1029400009E0012060700BE00121032003F0B4FDD9
:102950000220607004E04FF6FF70206200E000BFCC
:1029600000BF2046FDF7F8FF00BFE2E7C45F00208C
:1029700010B51B4C207810B1607F012800D110BD2C
:10298000607830B101280BD0022811D003281FD164
:1029900015E01449204601F009FC0120607018E0A0
:1029A00010492046FEF78EFF08B10220607010E04B
:1029B0000D49204601F0FAFB0320607009E00A4946
:1029C0002046FEF77FFF10B14FF6FF70206200E057
:1029D00000BF00BF2046FDF7BFFF00BFCFE70000EC
:1029E000F45E0020285F0020245E002010B56B4CB0
:1029F000207810B1607F012800D110BD60781428C4
:102A00001DD007DC082875D2DFE800F01358758D5B
:102A1000C094A6AF18283DD006DC152816D016287D
:102A200020D0172866D129E019283FD0FF28F9D1F6
:102A3000A2E000205A49087014206070A7E05949AC
:102A4000204601F0B3FB15206070A0E055492046F8
:102A5000FEF738FF28B15449204601F0A7FB1620A5
:102A6000607094E050492046FEF72CFF28B14F4992
:102A7000204601F09BFB1720607088E04B49204600
:102A8000FEF720FF28B14A49204601F08FFB1820AD
:102A900060707CE046492046FEF714FF28B14549A6
:102AA000204601F083FB1920607070E04149204608
:102AB000FEF708FF08B10120607068E0052004F00F
:102AC0008BFD48B94CF2503350220121084605F0E5
:102AD00065F9052060700CE0052004F07DFD40B133
:102AE0004FF47A7350220021012005F057F902209B
:102AF00060704CE04AE00120FEF7FEFE90B1052038
:102B000004F06AFD38B94FF49671204601F0D2FA0C
:102B10000320607006E00120FEF7EEFE10B142F2E5
:102B20001170206233E02046FDF7FCFB012800D144
:102B300060702CE0052004F04FFD28B1012005F065
:102B400071FB0620607006E00120FEF7D5FE10B193
:102B500042F2127020621AE005230A22012108467F
:102B600005F01CF90720607011E00120FEF7C4FE9B
:102B700008B1FF2060700AE0012005F097FA0620F6
:102B8000074908704FF6FF70206200E000BF00BFE9
:102B90002046FDF7E1FE00BF2FE70000805B00202C
:102BA000EE2500208C5E00205C5F0020B85C0020D9
:102BB000505C0020E85B002010B54B4C207810B131
:102BC000607F012800D110BD60780B2878D2DFE843
:102BD00000F006101B282F3B47535F6B7800002046
:102BE00042490870424908704249087001206070EB
:102BF00074E04149204601F0D9FA4049204601F0ED
:102C0000D5FA0220607069E03B492046FEF75AFE83
:102C100030B13A492046FEF755FE08B103206070F6
:102C20005CE03749204601F0C1FA0420607055E0AD
:102C300033492046FEF746FE28B13249204601F0CE
:102C4000B5FA0520607049E02E492046FEF73AFEAD
:102C500028B12D49204601F0A9FA062060703DE018
:102C600029492046FEF72EFE28B12849204601F0CA
:102C70009DFA0720607031E024492046FEF722FECD
:102C800028B12349204601F091FA0820607025E020
:102C90001F492046FEF716FE28B11E49204601F0C6
:102CA00085FA0920607019E01A492046FEF70AFEED
:102CB00028B11949204601F079FA0A2060700DE028
:102CC0000BE015492046FEF7FDFD28B1012007491C
:102CD00008704FF6FF70206200E000BF00BF204682
:102CE000FDF73AFE00BF6EE74C5B0020E9250020AF
:102CF000E5250020E6250020EC5C00209460002003
:102D00008C5E00205C5F0020B85C0020505C0020DE
:102D1000E85B0020F45E0020805B002010B5504C82
:102D2000207810B1607F012800D110BD607806289E
:102D300074D005DC70D2DFE800F00C213D558B5CCF
:102D4000072874D014280AD015280FD0FF287FD167
:102D500074E00020434908701420607079E0424913
:102D6000204601F023FA1520607072E03E492046AB
:102D7000FEF7A8FD08B1012060706AE0032004F0AE
:102D80002BFC48B94CF2503350220121042005F0AD
:102D900005F8052060700CE0032004F01DFC40B134
:102DA0004FF47A7350220021042004F0F7FF022030
:102DB00060704EE00420FEF79FFD90B1032004F008
:102DC0000BFC38B94FF49671204601F073F90320DB
:102DD000607006E00420FEF78FFD10B142F2237010
:102DE000206236E02046FDF79DFA012800D1607090
:102DF0002FE0032004F0F0FB28B1042005F012FAC4
:102E00000620607006E00120FEF776FD10B142F268
:102E1000247020621DE001E01AE008E005230A2288
:102E20000121042004F0BAFF0720607011E00120A6
:102E3000FEF762FD08B1FF2060700AE0042005F093
:102E400035F90720094908704FF6FF70206200E04D
:102E500000BF00BF2046FDF77FFD00BF65E7000013
:102E600000620020F125002034620020EE250020C1
:102E700010B51F4C207810B1607F012800D110BD23
:102E8000607810B101282CD113E0062004F0A4FBD7
:102E900018B14FF6FF7020620AE00121092003F00B
:102EA0000BFB40F6B831204601F004F901206070B8
:102EB00018E0062004F090FB38B10321092003F04C
:102EC000FBFA4FF6FF7020620AE02046FDF72AFA6F
:102ED00030B10321092003F0EFFA42F219702062A9
:102EE00000E000BF00BF2046FDF736FD00BFC6E78B
:102EF000545D002010B51F4C207810B1607F012870
:102F000000D110BD607810B101282CD113E007204A
:102F100004F062FB18B14FF6FF7020620AE0012155
:102F2000092003F0C9FA40F6B831204601F0C2F892
:102F30000120607018E0072004F04EFB38B1032137
:102F4000092003F0B9FA4FF6FF7020620AE020462C
:102F5000FDF7E8F930B10321092003F0ADFA42F2A0
:102F60001A70206200E000BF00BF2046FDF7F4FCAD
:102F700000BFC6E7885D002010B5244C207810B152
:102F8000607F012800D110BD6078052837D2DFE8C6
:102F900000F003121E2A320000201D4908701D494E
:102FA0000870012005F03EF91B49204601F0FEF8AB
:102FB0000120607023E018492046FEF783FC28B109
:102FC0001649204601F0F2F80220607017E013491C
:102FD0002046FEF777FC28B11149204601F0E6F8BB
:102FE000032060700BE00E492046FEF76BFC08B131
:102FF0000420607003E04FF6FF70206200BF00BF46
:103000002046FDF7A9FC00BFBDE700009861002045
:1030100064610020FC600020E85B0020505C002020
:10302000B85C002010B54A4C207810B1607F0128B0
:1030300000D110BD6078052862D005DC78D2DFE8C9
:1030400000F00C353E454D00062867D014281ED0F0
:10305000152823D0FF2874D16BE03E480078012862
:1030600007D100203B4908703B4800783B49087075
:1030700003E03B48807A39490870384800780628D0
:1030800002DD42F222702062142060705AE035495D
:10309000204601F08BF81520607053E0314920463E
:1030A000FEF710FC08B1012060704BE02A48007860
:1030B00010B90220607001E00420607042E02A49EB
:1030C000204601F073F8032060703BE0264920465B
:1030D000FEF7F8FB08B10420607033E02348007865
:1030E000642807DA21480078401C20490870052030
:1030F000607004E00220607000201C49087021E02C
:103100001B48164B1B7850F823201A48B0F90C10B6
:10311000042004F09BFF0620607013E00420FEF7FB
:10312000EBFB20B1042005F07DF8FF20607009E082
:1031300007E00A480078104908704FF6FF702062D7
:1031400000E000BF00BF2046FDF706FC00BF70E7AF
:10315000CC610020F0250020F1250020552600201C
:103160009C3700203462002000620020F2250020FD
:1031700014260020EA5A0020EE25002010B5424C0B
:10318000207810B1607F012800D110BD607804283C
:1031900041D007DC68B1012825D002282CD00328B3
:1031A0006BD130E0052848D0062854D0FF2864D1E0
:1031B0005BE036480078012807D1002033490870C9
:1031C000334800783349087003E03348807A314946
:1031D000087030480078062802DD42F2277020622D
:1031E000012060704AE02A48007810B9022060701F
:1031F00001E00420607041E02849204600F0D6FF3D
:10320000032060703AE025492046FEF75BFB08B1D9
:103210000420607032E022480078642807DA2048F1
:103220000078401C1E4908700520607004E00220F0
:10323000607000201A49087020E01A48154B1B786E
:1032400050F823201848B0F90C10052004F0FEFEB9
:103250000620607012E00520FEF74EFB20B105202D
:1032600004F0E0FFFF20607008E00A4800780F4992
:1032700008704FF6FF70206200E000BF00BF2046DC
:10328000FDF76AFB00BF80E768620020F32500209D
:10329000F4250020562600209C37002034620020B0
:1032A000F525002034260020EA5A0020EE250020D3
:1032B00010B53A4C207810B1607F012800D110BDC4
:1032C0006078022840D003DC38B101285FD123E0C8
:1032D000142844D015285AD14AE0314800780728EC
:1032E00003D14FF6FF70206215E0042004F074F95A
:1032F00028B100202A490870142060700BE00020DB
:10330000274908704FF4FA6332220021052004F0A7
:1033100045FD012060703BE0042004F05DF958B1E8
:10332000052004F07FFF64230A220021052004F019
:1033300035FD0220607006E00520FEF7DDFA10B1D1
:1033400042F22570206223E00520FEF7D5FA28B16D
:103350000720134908704FF6FF70206218E0C82359
:1033600032220121052004F019FD152060700FE0C4
:103370000520FEF7C1FA48B1042004F02DF910B978
:103380000020607002E042F22670206200E000BF80
:1033900000BF2046FDF7E0FA00BF90E7346200204E
:1033A000E725002010B51B4C207810B1607F012864
:1033B00000D110BD607810B1012824D113E00B209A
:1033C00004F00AF918B14FF6FF7020620AE00121FB
:1033D000052003F071F840F6B831204600F06AFE8F
:1033E0000120607010E00B2004F0F6F818B14FF6E1
:1033F000FF70206206E02046FCF794FF10B142F215
:103400001370206200E000BF00BF2046FDF7A4FA61
:1034100000BFCEE7B45B002010B51B4C207810B184
:10342000607F012800D110BD607810B1012824D13F
:1034300013E00A2004F0D0F818B14FF6FF702062B4
:103440000AE00021052003F037F840F6B8312046A5
:1034500000F030FE0120607010E00A2004F0BCF89B
:1034600018B14FF6FF70206206E02046FCF75AFFC5
:1034700010B142F21470206200E000BF00BF20468D
:10348000FDF76AFA00BFCEE7E85B002010B5254CD7
:10349000207810B1607F012800D110BD607830B174
:1034A00001281AD0022820D0032834D128E01E4851
:1034B0000078022803D14FF6FF7020620CE01A4812
:1034C0000078012802D10220607005E017492046EB
:1034D00000F06CFE012060701EE014492046FEF7EB
:1034E000F1F908B10220607016E01148B0F910300F
:1034F0000A220021022004F051FC032060700BE03E
:103500000220FEF7F9F928B10220074908704FF6AA
:10351000FF70206200E000BF00BF2046FDF71CFAEC
:1035200000BFBAE7905F0020E62500205C5F002026
:10353000EA5A002010B53A4C207810B1607F01287B
:1035400000D110BD6078022840D003DC38B10128DA
:103550005FD123E0142844D015285AD14AE03148DD
:103560000078012803D14FF6FF70206215E010208B
:1035700004F032F828B100202A4908701420607045
:103580000BE00020274908704FF4FA630A2201215A
:10359000022004F003FC012060703BE0102004F0E6
:1035A0001BF858B1022004F03DFE64230A220121D9
:1035B000022004F0F3FB0220607006E00220FEF718
:1035C0009BF910B142F22070206223E00220FEF746
:1035D00093F928B10120134908704FF6FF7020625B
:1035E00018E0C8230A220021022004F0D7FB15208E
:1035F00060700FE00220FEF77FF948B1102003F061
:10360000EBFF10B90020607002E042F221702062EE
:1036100000E000BF00BF2046FDF79EF900BF90E725
:103620005C5F0020E625002010B5114C207810B119
:10363000607F012800D110BD607820B1012805D03D
:1036400002280ED109E0012060700BE00021042067
:1036500002F032FF0220607004E04FF6FF7020623B
:1036600000E000BF00BF2046FDF776F900BFE2E7AB
:103670006060002010B5114C207810B1607F0128E7
:1036800000D110BD607820B1012805D002280ED1EC
:1036900009E0012060700BE00121042002F00CFF22
:1036A0000220607004E04FF6FF70206200E000BF6F
:1036B00000BF2046FDF750F900BFE2E72C60002074
:1036C000014908627047000000000E422DE9F05FDA
:1036D00080460F4691461D464FF0000B0026B2462D
:1036E000C7EBC70000EB80002B4901EB001000F195
:1036F0000C04802104F10C00FCF75FFD40202073D6
:10370000402161732821A1734121E1732774B8F12D
:10371000000F07D02148007840F0800161742178C3
:10372000A1740EE01D4801786174A078FF2801D1D2
:10373000012060706178A1746078A0706078401C8E
:103740006070290AE1742575002607E006F109007A
:1037500019F8002004F10C010A54761CAE42F5D38E
:1037600094F80FA0012606E0F01C04F10C01085C9F
:1037700080EA0A0A761CA81D8642F5D3C01C04F113
:103780000C0101F800A02922401C0A5405F10B0B82
:103790005846BDE8F09F00009C390020D425002049
:1037A0007047000070B5002546480078002870D0AA
:1037B0000020444908704448407A632823DC4FF4D1
:1037C000007241494148FCF7DFFC3F48807A3E499E
:1037D000C97A083188403C49497A3D4A52F821105B
:1037E00088613949497A52F8210000F0FFFC18B18C
:1037F000E0203849887202E0E120364988720120D1
:103800003549086026E03048407A642819D14FF4E1
:1038100000722D49491C2D48FCF7B6FC2A49897ACB
:103820002B4A52F8210000F0E1FC18B1E0202949B0
:10383000887202E0E1202749887201202649086049
:1038400008E02148407AC82802DB00F04DF801E08A
:1038500000F0CEF940201F49087048702820887079
:103860004120C8701D48007808711D4800784871D3
:103870001C480078887118480088401C000AC871EC
:1038800015480078401C08720F48407A487200249E
:1038900006E015E0E01C0F49085C4540601CC4B21E
:1038A0000D480068C01D8442F4D30B4800680A30FC
:1038B00008490D542921084800680B30054A115465
:1038C00070BD0000140000205C2600209C37002002
:1038D000046300201C2C002018000020D5250020A7
:1038E000D42500202400002070B500249E48407A92
:1038F000D1287BD00BDCA0F1C5000C286CD2DFE80E
:1039000000F01F6B6B1B29353E43485C616CD62869
:1039100075D008DCD22879D0D3287CD0D42871D0B7
:10392000D52859D1B3E0D7286DD0D8286CD0FE283F
:103930006BD0FF28F5D10CE14FF00060804710E11B
:103940008AA002F03BF8FD2090498872012090493E
:10395000086006E1844AD17A907A02F0ADFDE02059
:103960008A49887201208A490860FAE004F0D4FC90
:10397000E02086498872012085490860F1E002F064
:1039800029FB83490860ECE002F0BEFA8049086038
:10399000E7E0804800787D4988727E480088000A08
:1039A000C8727C480068000C08737A480068000EF2
:1039B0004873042076490860D3E003F005FA74499F
:1039C0000860CEE004F0B2F9E0207049887201206E
:1039D0006F490860C5E009E0C2E0FDF782FDE02024
:1039E0006A49887201206A490860BAE000F0DCFB8D
:1039F000E02066498872012065490860B1E056E020
:103A000004E008E025E061E06EE07CE002F05AFBB3
:103A10005F490860A5E0012410E05F4850F82400E9
:103A2000066AC6F30720082101EB4401574A5054A7
:103A3000092101EB44015654601CC4B25748007878
:103A40008442EADB55480078401E40005049086037
:103A500087E0012410E0504850F824000569C5F3C0
:103A60000720082101EB4401484A5054092101EB89
:103A700044015554601CC4B2484800788442EADBD3
:103A800046480078401E40004149086069E0364AD7
:103A9000D17A927A404B53F8220000F041FA10B1EB
:103AA000E0203A49887201203949086059E02E4ADD
:103AB000D17A927A384B53F8220000F09FFBE02035
:103AC000324988720120324908604AE02649897AE1
:103AD000314A52F82100FDF7EBFFE0202B498872B4
:103AE00001202B4908603CE01F4AD17A927A2A4B88
:103AF00053F8220000F0DBFAE0202449887201200C
:103B0000234908602DE01848807A4D280FD1002401
:103B100005E01549601C085C0855601CC4B22048CB
:103B200000680C308442F4D3FFF7DEFE10E00E484C
:103B3000807A532806D1E020144988720120144964
:103B4000086005E0E02011498872012010490860F2
:103B500007E0E0200D49887201200D49086000E06F
:103B600000BF00BF70BD00005C260020506C656186
:103B7000736520676F20746F20426F6F746C6F6184
:103B8000646572204669727374210A001C2C00203F
:103B9000180000201C25002004630020EA250020D6
:103BA0002C000020002017E00D4931F910200D4BAA
:103BB000411C43F821200A4A0A3132F911200A4BEC
:103BC000411C43F82120064A103132F91120074BDD
:103BD000411C43F82120C8B20628E5DB70470000ED
:103BE000EA5A0020F8250020142600203426002060
:103BF00010B500243F48407A822847D00CDC6F285B
:103C00002FD004DC642822D06E286FD122E07128E6
:103C10002ED072286AD132E0832847D084285FD022
:103C2000C62802D0C72861D108E0FDF7B7FEE02022
:103C30003149887201203149086058E0FDF7C2FE21
:103C4000E0202D49887201202C4908604FE000F0E7
:103C500031F94CE0E02028498872012027490860AA
:103C600045E0E020244988720120244908603EE0B4
:103C7000E0202149887201202049086037E0E020D7
:103C80001D49887201201D49086030E0002407E0CA
:103C90001B48015D04F10A00174A1154601CC4B2AC
:103CA0000A2CF5DB0A201549086020E01148807ACB
:103CB000012806D1134800780F4988720020114965
:103CC00008700C48807A022806D10F4800780A490B
:103CD000887200200C49087001200849086006E03D
:103CE00002F0B8F90549086001E0FFE700BF00BF36
:103CF00010BD00005C2600201C2C002018000020B5
:103D0000E05A0020EB250020EC25002029B1064ACE
:103D100052690243044B5A6104E0034A52698243E8
:103D2000014B5A61704700000010024029B1064A59
:103D3000D2690243044BDA6104E0034AD269824348
:103D4000014BDA61704700000010024029B1064AB9
:103D500012690243044B1A6104E0034A1269824368
:103D6000014B1A61704700000010024029B1064A59
:103D700092690243044B9A6104E0034A92698243C8
:103D8000014B9A61704700000010024029B1064AB9
:103D9000D2680243044BDA6004E0034AD2688243EB
:103DA000014BDA60704700000010024030B500217E
:103DB0000022002400232D4D6D6805F00C0121B177
:103DC000042905D0082923D105E0294D056022E00A
:103DD000274D05601FE0254D6D6805F47012234DD9
:103DE0006D6805F48034022505EB92421CB9214D23
:103DF000554305600BE01D4D6D6815F4003F03D081
:103E00001C4D5543056002E0194D5543056002E025
:103E1000174D056000BF00BF144D6D6805F0F0013F
:103E20000909154D6B5C0568DD4045600F4D6D68F7
:103E300005F4E061090A104D6B5C4568DD40856062
:103E40000A4D6D6805F46051C90A0B4D6B5C4568FD
:103E5000DD40C560054D6D6805F44041890B074D97
:103E60006B5CC568B5FBF3F5056130BD0010024021
:103E700000127A0000093D00000000201000002020
:103E800000210A4A11700A4A82F82010012802D043
:103E9000042808D103E00121044A117004E005213F
:103EA000024A117000E000BF00BF704720100240BE
:103EB0000010024010B5022409E0164951F8240010
:103EC0004FF6FF722146FDF729FB601CC4B2124871
:103ED00000788442F1DB012405E00021204602F055
:103EE000EBFA601CC4B20C2CF7DD01240FE0204675
:103EF00004F098F90121204604F01AF9002004EB9F
:103F0000C401064A02EBC1014871601CC4B2082C0E
:103F1000EDDD10BD04630020EA2500207855002067
:103F200010B502460B460120107082F824300020A4
:103F300082F825001146086AA0F57F44FF3C01D0B5
:103F4000002008620020487709E0C96A086AA0F5E5
:103F50007F44FF3C01D00020086200204877C86AF7
:103F60008842F2D1012010BD00B587B0012141F295
:103F70000400FFF7FBFEE020ADF8040001208DF8FF
:103F8000060018208DF8070001A91C48FDF7CAF9A2
:103F90001020ADF8040001208DF8060010208DF8E7
:103FA000070001A91548FDF7BDF910211348FDF7D9
:103FB00096FA0020ADF808004FF48270ADF80A00C0
:103FC0000020ADF80C00ADF80E00ADF810004FF475
:103FD0000070ADF812001020ADF814000020ADF80C
:103FE00016000720ADF8180002A9054800F040F8B7
:103FF0000121034800F022F807B000BD000801408D
:104000000030014010B5044600BF02210A4800F00C
:1040100021F80028F9D02146074800F027F800BF12
:104020000121054800F016F80028F9D0024800F0F8
:104030001AF8C0B210BD00000030014021B1028862
:1040400042F04002028004E002884FF6BF731A403B
:10405000028070470246002013890B4201D00120E4
:1040600000E00020704701468889704781817047D1
:1040700010B50022028802F441520B884C88234379
:104080008C882343CC8823430C8923434C892343C6
:104090008C892343CC8923431A430280838B4FF2BC
:1040A000FF74234083830B8A038210BD704701771E
:1040B00070470000024A1268426141607047000088
:1040C0002C25002010B500F001F810BD0CB5002023
:1040D000019000903248006840F480303049086018
:1040E00000BF2F48006800F4003000900198401C89
:1040F0000190009818B90198B0F5A06FF1D1284847
:10410000006810F4003F02D00120009001E0002080
:1041100000900098012842D12248006840F0100029
:10412000204908600846006820F00300086008463F
:10413000006840F00200086019484068184948606B
:104140000846406848600846406840F4806048601F
:104150000846406820F47C1048600846406840F4F7
:10416000E81048600846006840F08070086000BFB2
:104170000B48006810F0007FFAD00948406820F032
:104180000300074948600846406840F00200486064
:1041900000BF0348406800F00C000828F9D10CBDAE
:1041A000001002400020024070470000024601203B
:1041B00001F10C0101F80C0C4FF0000001F80B0CA0
:1041C0000874487488744861087648768876C8769A
:1041D0004877A1F10C011163CA6203480068886046
:1041E0004FF00100704700002C25002000B5034669
:1041F0000021184600F002F800BD00000246012030
:1042000002F10C0202F80C0C4FF0000002F80B0C4B
:104210001174507490745061107650769076D07608
:104220005077A2F10C02D2621263034800689060DA
:104230004FF00100704700002C25002010B5FEF75C
:10424000BBFCFEF7D3FBFDF737FCFEF791FBFDF758
:1042500065FDFDF72BFDFEF70BFEFEF74BFEFEF7AF
:1042600011F8FEF751F8FEF7CDF9FDF7B5FDFFF7B0
:10427000D3F8FFF797F8FDF70FFEFDF7D3FDFEF734
:1042800021FAFEF7E5F9FEF757FAFEF7D1FAFFF744
:1042900051F9FFF7FBF8FEF745FBFEF71DFBFFF7B3
:1042A000E9F9FFF7C1F9FEF787F9FDF76FFDFEF7B2
:1042B0006DF8FDF761FFFDF729FEFEF75DFEFEF7E5
:1042C000B1FEFEF72BFDFEF7F3FFFEF757FF10BD23
:1042D00012480068401C1149086011480068401CE1
:1042E0000F4908600D480068B0F5FA7F15D300202B
:1042F0000A4908600B48007818B101200A49086093
:1043000003E001200849091F08600648007808B941
:10431000012000E0002003490870704700250020BC
:104320002C250020FC2400201408014010B513485F
:10433000006840F0010011490860084640681049D3
:1043400008400E494860084600680E4908400B497D
:1043500008600846006820F480200860084640682D
:1043600020F4FE0048604FF41F008860FFF7AAFEAB
:104370004FF000600449086010BD000000100240CA
:104380000000FFF8FFFFF6FE08ED00E02DE9F04722
:104390000027B846B946BA460221480700F0C5FDD5
:1043A00018B1FD4D012600241CE00421080700F08F
:1043B000BCFD18B1F94D0226012413E00821C806FE
:1043C00000F0B3FD18B1F64D032602240AE01021D7
:1043D000880600F0AAFD18B1F24D0426032401E07E
:1043E000BDE8F08704EBC400EF4901EBC000807822
:1043F00030B304EBC40001EBC000406935F8108015
:1044000004EBC40001EBC000406B401C04EBC40192
:10441000E54A02EBC101486304EBC400114601EB1D
:10442000C000406BC8280AD9002004EBC40102EB8D
:10443000C101887004EBC40102EBC1014863BAE119
:1044400004EBC400D84901EBC000007998B9012001
:1044500004EBC401D44A02EBC101087100213046CB
:1044600003F0B2FE04EBC400CF4901EBC000406989
:1044700035F810809FE1002004EBC401CA4A02EB2A
:10448000C1010871012004EBC40102EBC101C87035
:104490000121304603F098FE04EBC400C24901EB51
:1044A000C000407958B904EBC40001EBC00080693A
:1044B000401C04EBC401BC4A02EBC101886104EB5F
:1044C000C400B94911F83000B849095D88420DD1DE
:1044D00004EBC400B44901EBC000806B401C04EB4A
:1044E000C401B14A02EBC10188630CE004EBC400D3
:1044F000AD4901EBC000806B401E04EBC401AA4A29
:1045000002EBC101886304EBC400A74901EBC000C2
:104510004078012815D104EBC40001EBC00080688D
:1045200004EBC401A04A02EBC101C860002004EB07
:10453000C40102EBC101886004EBC40102EBC101BC
:10454000086104EBC400984901EBC000806828B3FF
:1045500004EBC40001EBC000406935F8108004EBA7
:10456000C40001EBC0008068401E04EBC4018E4A09
:1045700002EBC101886004EBC400114601EBC000EE
:10458000806858B304EBC40001EBC0004069401CD4
:1045900004EBC40102EBC10148614CE004EBC40030
:1045A000814901EBC0000069C8B104EBC40001EB14
:1045B000C000406935F8108004EBC40001EBC00076
:1045C000407958B904EBC40001EBC0000069401EFB
:1045D00004EBC401744A02EBC10108612BE004EB57
:1045E000C400714901EBC000C06820B304EBC400F3
:1045F00001EBC000406935F8108004EBC40001EB0A
:10460000C000C068401E04EBC401674A02EBC10150
:10461000C86004EBC400114601EBC000406950B112
:1046200004EBC40001EBC0004069401E04EBC40170
:1046300002EBC101486104EBC4005B4901EBC0001F
:10464000C06828BB2CB900220221480700F07EFC7C
:1046500016E0012C05D100220421080700F076FCA9
:104660000EE0022C05D100220821C80600F06EFCE5
:1046700006E0032C04D100221021880600F066FC1D
:10468000002004EBC401484A02EBC101C87092E06B
:1046900004EBC400444901EBC00090F83D00002841
:1046A00079D0002004EBC4013F4A02EBC10181F83C
:1046B0003D0004EBC400114601EBC000806804EB30
:1046C000C40102EBC1010969084404EBC40102EB17
:1046D000C101C96800EB010904EBC400114601EBFC
:1046E000C000406C04EBC40102EBC101496988427F
:1046F0000DD904EBC400114601EBC000406C04EB83
:10470000C40102EBC1014969A0EB010A0DE004EB11
:10471000C400254901EBC000406904EBC401224AF2
:1047200002EBC101496CA0EB010A04EBC4001E4975
:1047300001EBC000406C504448453CD204EBC4003F
:1047400001EBC000C0F808A004EBC40001EBC000FE
:10475000406C04EBC401144A02EBC101C86004EBD5
:10476000C400114601EBC0008068A9EB000004EB17
:10477000C40102EBC101C968401A04EBC40102EB99
:10478000C101086104EBC400114601EBC000406C9C
:1047900004EBC4010CE00EE03001002018050020FD
:1047A00000090020E80C002078550020E8240020B3
:1047B00002EBC101086484B90221480700F0A4FAA1
:1047C0004FF0804000F0A4FB074607EB080081B2E1
:1047D0004FF0804000F01FFD33E0012C0ED104218A
:1047E000080700F091FAA00700F095FB074607EBD9
:1047F000080081B2A00700F010FD22E0022C0ED1CB
:104800000821C80600F080FA600700F087FB074621
:1048100007EB080081B2600700F001FD11E0032CF6
:104820000FD11021880600F06FFA4FF0804000F0A1
:1048300078FB074607EB080081B24FF0804000F09C
:10484000F0FC00BFCCE500002DE9F0470027B8469A
:10485000B946BA460221FD4800F067FB18B1FC4D8D
:10486000052604241CE00421F84800F05EFB18B182
:10487000F84D0626052413E00821F44800F055FB06
:1048800018B1F54D072606240AE01021EF4800F084
:104890004CFB18B1F14D0826072401E0BDE8F08774
:1048A00004EBC400EE4901EBC000807830B304EBA8
:1048B000C40001EBC000406935F8108004EBC4006F
:1048C00001EBC000406B401C04EBC401E44A02EB66
:1048D000C101486304EBC400114601EBC000406B0A
:1048E000C8280AD9002004EBC40102EBC10188707A
:1048F00004EBC40102EBC1014863BDE104EBC40059
:10490000D74901EBC000007998B9012004EBC4013C
:10491000D34A02EBC10108710021304603F054FC78
:1049200004EBC400CE4901EBC000406935F81080AB
:10493000A2E1002004EBC401C94A02EBC1010871E5
:10494000012004EBC40102EBC101C8700121304613
:1049500003F03AFC04EBC400C14901EBC00040790C
:1049600058B904EBC40001EBC0008069401C04EBA3
:10497000C401BB4A02EBC101886104EBC400B84921
:1049800011F83000B749095D88420DD104EBC4002D
:10499000B34901EBC000806B401C04EBC401B04A7A
:1049A00002EBC10188630CE004EBC400AC4901EBED
:1049B000C000806B401E04EBC401A94A02EBC10198
:1049C000886304EBC400A64901EBC00040780128CD
:1049D00015D104EBC40001EBC000806804EBC401F6
:1049E0009F4A02EBC101C860002004EBC40102EB46
:1049F000C101886004EBC40102EBC101086104EB52
:104A0000C400974901EBC000806828B304EBC400E0
:104A100001EBC000406935F8108004EBC40001EBE5
:104A2000C0008068401E04EBC4018D4A02EBC10146
:104A3000886004EBC400114601EBC000806858B3E5
:104A400004EBC40001EBC0004069401C04EBC4014E
:104A500002EBC10148614CE004EBC400804901EB6A
:104A6000C0000069C8B104EBC40001EBC00040699C
:104A700035F8108004EBC40001EBC000407958B950
:104A800004EBC40001EBC0000069401E04EBC4014C
:104A9000734A02EBC10108612BE004EBC4007049CA
:104AA00001EBC000C06820B304EBC40001EBC00000
:104AB000406935F8108004EBC40001EBC000C06809
:104AC000401E04EBC401664A02EBC101C86004EB5E
:104AD000C400114601EBC000406950B104EBC400B2
:104AE00001EBC0004069401E04EBC40102EBC101B0
:104AF000486104EBC4005A4901EBC000C06830BBF8
:104B0000042C05D100220221504800F01FFA16E0C3
:104B1000052C05D1002204214C4800F017FA0EE0C4
:104B2000062C05D100220821484800F00FFA06E0C3
:104B3000072C04D100221021444800F007FA00207D
:104B400004EBC401464A02EBC101C87094E004EBD7
:104B5000C400434901EBC00090F83D00002874D028
:104B6000002004EBC4013E4A02EBC10181F83D0084
:104B700004EBC400114601EBC000806804EBC401E3
:104B800002EBC1010969084404EBC40102EBC10155
:104B9000C96800EB010904EBC400114601EBC00039
:104BA000406C04EBC40102EBC101496988420DD994
:104BB00004EBC400114601EBC000406C04EBC401DF
:104BC00002EBC1014969A0EB010A0DE004EBC4004E
:104BD000234901EBC000406904EBC401204A02EB09
:104BE000C101496CA0EB010A04EBC4001C4901EBB4
:104BF000C000406C504448453ED204EBC40001EB79
:104C0000C000C0F808A004EBC40001EBC000406C79
:104C100004EBC401124A02EBC101C86004EBC400FA
:104C2000114601EBC0008068A9EB000004EBC40151
:104C300002EBC101C968401A04EBC40102EBC101D7
:104C4000086104EBC40011460EE015E000040040CA
:104C5000B8140020A0180020881C0020702000201C
:104C600078550020E824002001EBC000406C04EBE4
:104C7000C40102EBC1010864042C0ED102212148B9
:104C800000F042F81F4800F043F9074607EB080020
:104C900081B21C4800F0BFFA31E0052C0ED104218E
:104CA000184800F031F8174800F035F9074607EBCF
:104CB000080081B2134800F0B0FA20E0062C0ED1B3
:104CC0000821104800F020F80E4800F027F90746A8
:104CD00007EB080081B20B4800F0A1FA0FE0072CA7
:104CE0000DD11021074800F00FF8064800F019F91F
:104CF000074607EB080081B2024800F092FA00BFB5
:104D0000CCE5000000040040CA430282704721B194
:104D1000028842F00102028004E002884FF6FE732E
:104D20001A4002807047000010B50446684884426B
:104D300008D10121C014FFF729F80021E014FFF782
:104D400025F8C4E0B4F1804F08D101210846FEF7F0
:104D5000FDFF00210120FEF7F9FFB8E05D48844225
:104D600008D101210220FEF7F1FF00210220FEF709
:104D7000EDFFACE05848844208D101210420FEF741
:104D8000E5FF00210420FEF7E1FFA0E05348844244
:104D900008D101210820FEF7D9FF00210820FEF7E5
:104DA000D5FF94E04E48844208D101211020FEF73F
:104DB000CDFF00211020FEF7C9FF88E0494884425A
:104DC00008D101212020FEF7C1FF00212020FEF79D
:104DD000BDFF7CE04448844208D101214014FEF725
:104DE000D5FF00216014FEF7D1FF70E03F488442F8
:104DF00009D10121C804FEF7C9FF00214FF40020AA
:104E0000FEF7C4FF63E03A48844209D10121080556
:104E1000FEF7BCFF00214FF48010FEF7B7FF56E00D
:104E20003448844209D101214805FEF7AFFF002133
:104E30004FF40010FEF7AAFF49E02F48844208D142
:104E400001214020FEF782FF00214020FEF77EFF77
:104E50003DE02A48844208D101218020FEF776FFF8
:104E600000218020FEF772FF31E02548844208D1FE
:104E700001218015FEF76AFF0021A015FEF766FFED
:104E800025E02048844209D101210804FEF77EFF75
:104E900000214FF48030FEF779FF18E01A48844271
:104EA00009D101214804FEF771FF00214FF40030C1
:104EB000FEF76CFF0BE01548844208D101218804FD
:104EC000FEF764FF00214FF48020FEF75FFF10BD66
:104ED000002C01400004004000080040000C00408D
:104EE000001000400014004000340140004C01401C
:104EF000005001400054014000180040001C0040D8
:104F000000200040004001400044014000480140B2
:104F10000146888E70470146088F70470146888F8A
:104F200070470146B1F84000704730B50246002096
:104F300000230024158A05EA0103958905EA010486
:104F400013B10CB1012000E0002030BD1AB18389FB
:104F50000B43838102E083898B4383817047000088
:104F600070B5002400220023058C4FF6FE763540F4
:104F70000584028C8388048B4FF68F752C40B51EF8
:104F80002C400D882C43751E2A400D892A434D88DC
:104F90002A43144DA8420BD0134DA84208D0134DFC
:104FA000A84205D0124DA84202D0124DA84213D1FA
:104FB0004FF6F7752A404D892A434FF6FB752A4074
:104FC0008D882A434FF6FF652B404FF6FF552B4047
:104FD0008D892B43CD892B4383800483CD8885869F
:104FE000028470BD002C01400034014000400140AB
:104FF00000440140004801400A460021018B4FF661
:10500000F7731940114301837047000070B5002405
:1050100000220023058C4FF6EF7635400584028C84
:105020008388048B48F6FF752C404FF6FF452C40D3
:105030000D884FF6FF7606EA05252C434FF6DF75FF
:105040002A400D8906EA05152A434D8806EA05150A
:105050002A43154DA84202D0144DA8421DD14FF647
:105060007F752A404D894FF6FF7606EA05152A43DB
:105070004FF6BF752A408D8806EA05152A434FF67C
:10508000FF352B404FF2FF752B408D8906EA8505D1
:105090002B43CD8906EA85052B4383800483CD8885
:1050A0000587028470BD0000002C014000340140DF
:1050B0000A460021018B4FF2FF7319404FF6FF7330
:1050C00003EA0223194301837047000070B50024EE
:1050D00000220023058C4FF6FF6635400584028CC4
:1050E0008388848B4FF68F752C404FF6FC752C40CF
:1050F0000D882C434FF6FF552A400D894FF6FF7659
:1051000006EA05252A434D8806EA05252A43154D5A
:10511000A84202D0144DA8421DD14FF2FF752A407B
:105120004D894FF6FF7606EA05252A434FF6FF35EF
:105130002A408D8806EA05252A434EF6FF752B4046
:105140004DF6FF752B408D8906EA05152B43CD8959
:1051500006EA05152B4383808483CD8885870284E6
:1051600070BD0000002C0140003401400A460021BF
:10517000818B4FF6F773194011438183704700000C
:1051800070B5002200230024058C4EF6FF763540D2
:105190000584038C8488828B48F6FF752A404FF67D
:1051A000FF452A400D884FF6FF7606EA05252A437B
:1051B0004DF6FF752B400D8906EA05352B434D88CA
:1051C00006EA05352B430B4DA84202D00A4DA842F2
:1051D00008D14BF6FF752C408D894FF6FF7606EA15
:1051E00085152C4384808283CD88A0F840500384A9
:1051F00070BD0000002C0140003401400A4600212F
:10520000818B4FF2FF7319404FF6FF7303EA0223BD
:105210001943818370478186704701877047818772
:105220007047A0F840107047002202881D4B98423A
:105230000ED01D4B98420BD0B0F1804F08D01B4BC5
:10524000984205D01A4B984202D01A4B984204D18A
:105250004FF68F731A404B881A43174B984207D06A
:10526000164B984204D04FF6FF431A40CB881A439E
:1052700002808B8883850B8803850A4B98420BD06C
:10528000094B984208D00E4B984205D00D4B9842DE
:1052900002D00D4B984201D10B7A03860123838201
:1052A00070470000002C0140003401400004004021
:1052B00000080040000C00400010004000140040B6
:1052C00000400140004401400048014010B540F258
:1052D00025518F4800F094FA00286FD08C4800F0D8
:1052E0004BFBC4B28B48007828B100208949087074
:1052F000012089490870884800780C2816D2DFE818
:1053000000F0E30616273849535E6B9FB7C9402C5F
:105310000CD140208149087002207F49087001208B
:105320007F4908707F4800687F490860CCE0402CC6
:105330000AD14020794948707A4800687A49086063
:1053400003207549087002E0012073490870BBE032
:10535000282C0AD128207149887072480068724947
:10536000086004206C49087002E001206A49087056
:10537000AAE0412C0AD141206849C87069480068F8
:105380006949086005206449087002E0012062490B
:10539000087099E0614804716248006862490860D9
:1053A00006205D4908708FE05C4844715D480068E4
:1053B0005D49086007205849087085E085E0574836
:1053C00084715848006858490860002057490860AF
:1053D00008205149087077E054480068C01D4F49C3
:1053E0000C54504800685049086050480068401C00
:1053F0004E49086008460068022820D14748C07915
:105400004B49086008460068000208604348007A7B
:1054100009680844464908600846006860B10846C3
:10542000006840F2B551884206D800203F49086024
:1054300009203949087002E001203749087043E02B
:105440003A480068093035490C54364800683649F6
:10545000086036480068401C344908600846006807
:1054600033490968884202D10A202B4908702BE091
:105470002E480068093029490C542A4800682A49F6
:1054800008602A480068401C284908600B2022490F
:10549000087019E0292C16D1292124480068093008
:1054A0001E4A115401202349087000201C4908702D
:1054B0001F4800680B302049086000201B49086025
:1054C00001201549087000BF00BF40F22771104845
:1054D00000F096F9D8B1194800781949096888424E
:1054E0000CD21848154A1278815C094800F049FA34
:1054F00012480078401C1149087008E00120124948
:105500000870002240F22771014800F0A3F910BD95
:10551000004C0040150100202C0100205C260020DA
:10552000140100202C25002010010020280100205B
:105530002401002001010020080100200C010020AE
:10554000040100201C2C00200201002010B540F2B4
:1055500025518C4800F054F900286FD0894800F09C
:105560000BFAC4B28848007828B100208649087038
:10557000012086490870854800780C2816D2DFE89B
:1055800000F0DD0616273849535E6B9FB7C9402CE3
:105590000CD140207E49087002207C49087001200F
:1055A0007C4908707C4800687C490860C6E0402C53
:1055B0000AD14020764948707748006877490860EA
:1055C00003207249087002E0012070490870B5E0BC
:1055D000282C0AD128206E4988706F4800686F49CE
:1055E000086004206949087002E0012067490870DA
:1055F000A4E0412C0AD141206549C8706648006882
:105600006649086005206149087002E001205F4991
:10561000087093E05E4804715F4800685F49086065
:1056200006205A49087089E0594844715A48006870
:105630005A4908600720554908707FE07FE05448C8
:105640008471554800685549086000205449086035
:1056500008204E49087071E051480068C01D4C494F
:105660000C544D4800684D4908604D480068401C86
:105670004B49086008460068022820D14448C07998
:105680004849086008460068000208604048007AFF
:1056900009680844434908600846006860B1084644
:1056A000006840F2B551884206D800203C490860A5
:1056B00009203649087002E00120344908703DE0B5
:1056C00037480068093032490C5433480068334980
:1056D000086033480068401C31490860084600688B
:1056E00030490968884202D10A202849087025E01B
:1056F0002B480068093026490C5427480068274980
:10570000086027480068401C254908600B201F4995
:10571000087013E0292C10D1292121480068093094
:105720001B4A1154012020490870002019490870B3
:105730001B49086001201549087000BF00BF40F2F6
:105740002771104800F05CF8D8B118480078184963
:10575000096888420CD21748144A1278815C0948BB
:1057600000F00FF911480078401C1049087008E05B
:10577000012011490870002240F22771014800F011
:1057800069F810BD004400401501002020010020F0
:105790005C260020140100202C2500201001002090
:1057A0001C01002018010020010100200C01002034
:1057B000040100201C2C00200201002001F40072D2
:1057C000B2F5007F00D100BFCA430280704721B10B
:1057D000828942F40052828104E082894DF6FF738F
:1057E0001A408281704702460020B1F5007F00D147
:1057F00000BF13880B4201D0012000E00020704759
:1058000070B502460024002300250020A1F5106693
:105810006A3E00D100BFC1F3421501F01F0301260B
:1058200006FA03F3012D02D19689334006E0022DDA
:1058300002D1168A334001E0968A33400C120126C9
:1058400006FA04F41688344013B10CB1012000E0CC
:10585000002070BDF0B5034600240026002500207E
:10586000A1F510676A3F00D100BF1846C1F342148A
:1058700001F01F06012707FA06F5012C01D10C30B3
:1058800004E0022C01D1103000E014301AB1076896
:105890002F43076002E00768AF430760F0BD0000D8
:1058A0002DE9F04786B005460E460024A24600BF0B
:1058B000A1460027B08900B100BF2F462C8A4CF6C4
:1058C000FF700440F08804432C82AC894EF6F3103C
:1058D0000440B08831890843718908430443AC818E
:1058E000AC8A4FF6FF400440B0890443AC8201A863
:1058F000FEF75CFA1F48874202D1DDF810A001E0F4
:10590000DDF80CA0A88910F4004F08D00AEBCA00FB
:1059100000EB0A1031684900B0FBF1F807E00AEB30
:10592000CA0000EB0A1031688900B0FBF1F864206E
:10593000B8FBF0F004012009642101FB1089A8895B
:1059400010F4004F08D0322000EBC900B0FBF1F09A
:1059500000F00700044308E0322000EB0910642146
:10596000B0FBF1F000F00F0004432C8106B0BDE85D
:10597000F08700000038014001468888C0F3080025
:105980007047C1F308028280704710B54FF4802041
:10599000FBF730FB10BD704702A000F00FF800BF0E
:1059A000FEE7000055736167654661756C745F487A
:1059B000616E646C6572210A000000000FB4054B33
:1059C00010B503A9044A029800F02CF810BC5DF849
:1059D00014FB0000FD6C0108582600200FB4084B92
:1059E00010B504A902AA039800F01CF8044602A905
:1059F000002000F046FA204610BC5DF814FB0000C1
:105A0000835E010802E008C8121F08C1002AFAD10B
:105A100070477047002001E001C1121F002AFBD12E
:105A2000704700002DE9FF4F8DB00F460546002658
:105A3000DEE1252874D100246D1CF149A246A1465F
:105A400001222B78203B02FA03F0084202D00443E3
:105A50006D1CF6E728782A2810D06FF02F022878DE
:105A6000A0F13001092915D80AEB8A0102EB4101A6
:105A700044F0020400EB010A6D1CF0E757F804AB98
:105A8000BAF1000F03DA44F40054CAF1000A44F0FA
:105A900002046D1C28782E2817D115F8010F44F048
:105AA00004042A280ED06FF02F022878A0F13001CC
:105AB00009290AD809EB890102EB410100EB010930
:105AC0006D1CF2E757F8049B6D1C28786C280FD0EA
:105AD00006DC4C2817D068280DD06A2814D104E0C1
