:020000040801F1
:10000000A068002065010108691A0108E5140108CB
:10001000491A010805030108A16701080000000052
:100020000000000000000000000000009D4E0108DC
:10003000BD0901080000000091450108D9500108E0
:100040007F0101087F0101087F0101087F0101088C
:100050007F0101087F0101087F010108910F01085C
:100060007F0101087F0101087F0101087F0101086C
:100070007F0101087F0101087F0101087F0101085C
:1000800055090108570901087F0101087F0101088E
:100090009F6701087F0101087F010108A30F010884
:1000A0007F0101087F0101087F0101087F0101082C
:1000B00095510108515601087F0101087F0101088F
:1000C0007F0101087F0101087F0101087F0101080C
:1000D0007F0101087F010108556301087F010108C4
:1000E0007F0101087F010108936701087F01010872
:1000F0007F0101087F0101087F0101087F010108DC
:100100007F0101087F0101087F0101087F010108CB
:10011000D56001087F0101087F0101087F01010806
:100120007F0101087F0101087F0101087F010108AB
:10013000DFF80CD000F084F8004800471184010873
:10014000A0680020EFF30980704780F309887047AA
:10015000EFF30880704780F30888704740BA704713
:10016000C0BA70470648804706480047FEE7FEE7EA
:10017000FEE7FEE7FEE7FEE7FEE7FEE7FEE7FEE757
:10018000355101083101010840EA01039B0703D002
:1001900009E008C9121F08C0042AFAD203E011F8C6
:1001A000013B00F8013B521EF9D27047D2B201E088
:1001B00000F8012B491EFBD270470022F6E710B56C
:1001C00013460A4604461946FFF7F0FF204610BDC5
:1001D000421C10F8011B0029FBD1801A70472DE941
:1001E000F05F0546002092469B46884606468146BB
:1001F00040241BE0284641464746224600F041F88D
:1002000053465A46C01A914110D311461846224609
:1002100000F028F82D1A67EB01084F46224601200E
:10022000002100F01FF817EB00094E41201EA4F139
:100230000104DFDC484631462A464346BDE8F09FCC
:10024000064C074D06E0E06840F0010394E8070023
:1002500098471034AC42F6D3FFF76EFFB092010816
:10026000D0920108202A04DB203A00FA02F1002093
:1002700070479140C2F1200320FA03F319439040E4
:100280007047202A04DB203A21FA02F0002170474F
:1002900021FA02F3D040C2F12002914008431946EE
:1002A000704770B58D1810F8014B14F0030201D19E
:1002B00010F8012B231106D110F8013B03E010F8D0
:1002C000016B01F8016B521EF9D1B3B110F8012B8B
:1002D00004F00C048A1A0C2C04D0A2EB841203F153
:1002E000020308E010F8014BA2EB0422F7E712F832
:1002F000014B01F8014B5B1EF9D5A942D3D3002075
:1003000070BD000002A006F05DFA00BFFEE700002D
:100310004275734661756C745F48616E646C65729A
:10032000210A000030B503460848016800225869D8
:10033000081A72F1000400D200BF5869091A5C68FB
:100340008C4201D8012030BD0020FCE72C25002084
:100350002DE9F04106460027C6EBC60000EB800001
:10036000DFF83C8108EB001000F10C0191F88C00E3
:10037000402802D00320BDE8F0818D20405C402859
:1003800001D00420F7E78E20405C282801D005200A
:10039000F1E78F20405C412801D00720EBE7912056
:1003A000405CDFF8008188F800004046007810F0DB
:1003B000800F05D10020DFF8F08088F800000CE005
:1003C0000120DFF8E48088F800009120405C00F014
:1003D0007F00DFF8D08088F800009220435C32482C
:1003E000007838B923B10878984201D10120C2E7DA
:1003F0000B700CE023B18878984201D00B20BAE74B
:1004000091F89580487D804501D00C20B3E793207A
:10041000425C12029420405C024402F10B008860AE
:100420001AB140F2B550824201D90920A3E71E4813
:100430000078012806D191F89580487D804501D04B
:100440000C2098E702F1060C8F20475C012506E09E
:10045000E81C01F18C0818F8000047406D1C654548
:10046000F6D302F1090401F18C00005DB8420AD014
:1004700001F18C00005D2A2805D001F18C00005D9F
:1004800008B10A2077E701F18C0004F1010810F8A7
:100490000800292801D006206DE700206BE7000046
:1004A000A0390020D52500202600002070471CB56B
:1004B0000121084604F052FB0821062000F012FF3B
:1004C0000521022000F00EFF4FF4807000F092FD35
:1004D0004FF4007000F08EFD00208DF8040008201D
:1004E0008DF805004FF49070009001208DF8060003
:1004F000684600F099FD1CBD00B597B001210802C7
:1005000004F0FCFA012140F2E11004F027FB4CF268
:100510000370ADF81C0018208DF81F0003208DF823
:100520001E0007A9504800F0FDFE4FF68070ADF8A0
:100530001C0007A94D4800F0F5FE7820ADF81C001E
:1005400007A94A4800F0EEFE4FF4C050ADF81C0079
:1005500007A9454800F0E6FE4FF23F00ADF81C0049
:1005600007A9434800F0DEFE3F20ADF81C0007A9B4
:10057000404800F0D7FE3020ADF81C0007A93A48EB
:1005800000F0D0FE4FF4A050ADF81C0007A9394888
:1005900000F0C8FE0320ADF81C0007A9334800F0A6
:1005A000C1FE0F200090052001900F200290002036
:1005B00003900490052005900020069004200890E8
:1005C000002009900A900B900C900E900F901090C4
:1005D0004FF4805011900020129013901490CDF899
:1005E00054D0CDF858D008A800F00CFE012104200A
:1005F00000F0EEFD05200090002001900520029003
:10060000002003900490059006900620089000209A
:1006100009900A9010200B9000200C900E900F90E3
:1006200010904FF480501190002012900D90139074
:100630001490CDF854D008A800F0E4FD05200090F7
:100640000020019005200290002003900490059066
:100650000690CDF858D008A800F0D4FD012106205E
:1006600000F0B6FD17B000BD0014014000180140B5
:10067000001C01400020014010B500F011F800F00E
:10068000C5F804200149086010BD0000100C0140AD
:1006900010B54FF48031C80201F02CFA10BD0000F3
:1006A00008B540F20370ADF8000003208DF8020099
:1006B00014208DF803006946314800F033FE042011
:1006C000ADF8000003208DF8020010208DF8030023
:1006D00069462C4800F026FE4EF22300ADF80000DB
:1006E00003208DF8020010208DF80300694625488C
:1006F00000F018FE4EF21000ADF8000003208DF857
:10070000020010208DF8030069461F4800F00AFE21
:100710004FF49C50ADF8000003208DF80200142027
:100720008DF803006946184800F0FCFD0C20ADF878
:10073000000003208DF8020014208DF803006946A4
:10074000124800F0EFFD4FF4F860ADF80000032010
:100750008DF8020010208DF8030069460C4800F067
:10076000E1FD4FF40060ADF8000003208DF80200B9
:1007700014208DF803006946054800F0D3FD08BD3C
:1007800000080140000C014000100140001401402D
:10079000001C014010B50121042004F0DFF9012103
:1007A000082004F0DBF90121102004F0D7F9012121
:1007B000202004F0D3F90121402004F0CFF90121D9
:1007C000802004F0CBF90121080204F0C7F90121CF
:1007D000C80204F0C3F90121084604F09FF9012181
:1007E000022004F09BF90121042004F097F9012173
:1007F000082004F093F90121202004F08FF9012052
:1008000003F056FE002004F033FA10BD08B54FF493
:10081000C050ADF8000003208DF8020014208DF8C0
:1008200003006946234800F07DFD4FF4DE50ADF82B
:10083000000003208DF8020014208DF803006946A3
:100840001D4800F06FFD4020ADF8000003208DF83A
:10085000020014208DF803006946184800F062FD7C
:100860004020ADF8000003208DF8020014208DF820
:1008700003006946124800F055FD7C20ADF80000E9
:1008800003208DF8020014208DF8030069460D48FE
:1008900000F048FD4EF6C030ADF8000003208DF8A2
:1008A000020014208DF803006946074800F03AFD65
:1008B00008BD000000080140000C0140001001408C
:1008C00000140140001801400020014030B51648D6
:1008D00000684FF47A72B0FBF2F1B1F1807F01D37E
:1008E00001201DE021F07F40401E4FF0E0225061CA
:1008F00050170F22002807DA13071D0E0B4B00F0CC
:100900000F04241F1D5503E013071C0E084B1C5435
:1009100000BF00204FF0E02290610720106100200E
:1009200008B100BFFEE730BD0425002018ED00E04F
:1009300000E400E029B1064A52680243044B5A60C1
:1009400004E0034A52688243014B5A60704700003A
:10095000002004E070477047417890F827209142CA
:1009600006D090F8271080F82610417880F82710DC
:10097000002180F82410016AA1F57F42FF3A16D1C8
:10098000002180F8251001700B490968C160D0E989
:100990000221914206D2C16841F4803182688A1AEC
:1009A000026108E0D0E90221891A016103E0016ACD
:1009B00009B10121417770472C25002070470000C4
:1009C00010B58C203B49088040F22670488040F6E4
:1009D000AC5088804FF49650C88041F638000881AA
:1009E00019204881962088818000C88140F24C40BF
:1009F000088264204882282088820C20C8820D202A
:100A000008830E2048830F2088831020C88311207C
:100A1000088412204884132088841420C884152058
:100A200008851620488517208885C820C88508862F
:100A30001A2048861B2088861C20C8861D2008870F
:100A40001E2048871F2088872020C8872120A1F8E2
:100A500040002220A1F842002320A1F844002420D5
:100A6000A1F846002520A1F848002620A1F84A0058
:100A70002720A1F84C002820A1F84E002920A1F839
:100A800050002A20A1F852002B20A1F854002C205D
:100A9000A1F856002D20A1F858002E20A1F85A00E8
:100AA0002F20A1F85C003020A1F85E0003F072FF57
:100AB00010BD0000EE5A002070B505460026012D3D
:100AC00002D11148066803E0022D01D10F480668E3
:100AD0000F48407900F07F04C4EBC40101EB8101B1
:100AE0000C4A02EB011101F1980032460849FFF768
:100AF0004BFBC4EBC40000EB8000064901EB001087
:100B00004661204670BD0000D00000200801002092
:100B100060260020A0390020034606210622124844
:100B2000018812480288A3B1012B1AD132B9A1F56C
:100B30006E40EE3800D170470120FCE739B9A2F5CC
:100B40006E40EE3801D10120F5E70020F3E7AB203D
:100B5000F1E709B90020EEE70AB90120EBE7AB2085
:100B6000E9E70020E7E7000000F0070800F80708C1
:100B700010B504240B4800F0A1FA0446042C01D05F
:100B8000204610BD0021074800F0E2FA0446042C7C
:100B900001D02046F5E7044800F090FA04462046CC
:100BA000EFE7000000F0070800F807082DE9F0471C
:100BB0004FF0060A062600250027A8464FF0FF3909
:100BC0007448B0F800A0744806885FEA0A0074D040
:100BD000A0F56E40EE382AD0A0F5885011386DD1BE
:100BE00046B96C4800F06AFA0446042C1ED0204630
:100BF000BDE8F087A6F56E40EE3810D1654800F0EC
:100C00005DFA0446042C01D02046F1E70021624839
:100C100000F09EFA0446042C08D02046E8E7FFF7CF
:100C2000A7FF0446042C01D02046E1E7AEE07EBBDE
:100C3000002522E05748C088584931F815108842ED
:100C400001D10FFA85F94D4515D0544931F81500F9
:100C5000534900F021F98046B8F1010F0BD04F49FC
:100C600031F815004E49098800F048F90746042F6D
:100C700001D03846BCE7681C85B2C82DDADB0021FC
:100C8000444800F065FA0446042C02D02046AFE741
:100C900007E0414800F012FA0446042C1FD0204619
:100CA000A6E7A6F57F40FF3812D13B4800F006FAD0
:100CB0000446042C03D020469AE711E05EE00021B0
:100CC000344800F045FA0446042C08D020468FE74B
:100CD000FFF74EFF0446042C01D0204688E755E07C
:100CE00036B9FFF745FF0446042C46D020467FE77F
:100CF000A6F57F40FF3807D1274800F0DFF904460A
:100D0000042C3AD0204673E7002523E02248801DBA
:100D10000088224931F81510884201D10FFA85F96F
:100D20004D4515D01D4931F815001D4900F0B4F8A6
:100D30008046B8F1010F0BD0184931F81500184959
:100D4000098800F0DBF80746042F01D038464FE74A
:100D5000681C85B2C82DD9DB00210F4800F0F8F9D6
:100D60000446042C01D0204642E70A4800F0A6F9C8
:100D70000446042C01D020463AE707E0FFF7F8FECE
:100D80000446042C01D0204632E700BF00BF0420F7
:100D90002EE7000000F0070800F80708805A00203E
:100DA000F82400202DE9F84F074689460425DFF88E
:100DB000D0A0344800904FF00008002400264FF0E7
:100DC000000B0020FFF7A8FE8046B8F1010F04D108
:100DD000DFF8B4A02D4800900AE0B8F1000F04D16C
:100DE000DFF8A8A02848009002E0AB20BDE8F88F0B
:100DF0004EF6EE61504600F0ABF90546042D01D0E9
:100E00002846F3E74946384600F078F80646042EAF
:100E100001D03046EAE700241CE01D4830F81400F9
:100E2000B84215D01A4931F814001A4900F034F8C4
:100E30008346BBF1010F0BD0154931F81400154959
:100E4000098800F05BF80646042E01D03046CDE755
:100E5000601C84B2C82CE0DB009800F02FF9054636
:100E6000042D01D02846C1E70021504600F070F95A
:100E70000546042D01D02846B8E72846B6E700000D
:100E8000FF0301080000010800F0070800F8070848
:100E9000805A0020F82400202DE9F04706460F462E
:100EA000002445F255584FF00109124DAA46002082
:100EB000FFF732FE0446AB2C01D1BDE8F0870E48A7
:100EC00000EBC42A601C0C49891E01EBC0250AE016
:100ED000B5F80080B04505D135F8020C38804FF0E8
:100EE000000904E02D1F0AF102008542F0D800BF7E
:100EF0004846E2E70000010800F007082DE9F04746
:100F00000646884604270025154CDFF85890012036
:100F1000FFF702FE0546AB2D01D1BDE8F087124870
:100F200000EBC524681C1049891E01EBC02913E0A1
:100F30002068401C0FD14146204600F009F90746C1
:100F4000042F01D03846E8E73146A01C00F000F934
:100F500007463846E1E7241D4C45E9D38020DCE70D
:100F600000000108FF07010800F0070870B50546FA
:100F70000E46002431462846FFF7C0FF0446802C69
:100F800004D131462846FFF70DFF0446204670BDC8
:100F900010B5022000F034F810B1022000F02AF859
:100FA00010BD10B5202000F02BF810B1202000F06B
:100FB00021F8402000F024F810B1402000F01AF889
:100FC000802000F01DF810B1802000F013F84FF4DD
:100FD000807000F015F818B14FF4807000F00AF836
:100FE0004FF4007000F00CF818B14FF4007000F0EE
:100FF00001F810BD01490860704700001404014069
:10100000014600200022074B1B6803EA0102054B42
:1010100014331B680B4202D00AB1012000E000200B
:101020007047000000040140002123498279002A12
:101030003AD00A46126803689A430B461A600A1DA2
:10104000126803689A430B1D1A60027911440A68FA
:1010500003681A430A60184A0832126803689A4300
:10106000154B08331A601A1D126803689A43124B15
:101070000C331A604279102A0ED11A1F12680368C5
:101080001A430D4B08331A601A1D126803681A437D
:10109000094B0C331A600DE00749427911440A6884
:1010A00003681A430A6005E0027911440A6803687C
:1010B0009A430A60704700000004014030B50446BE
:1010C00004254FF4302000F06FF80546042D17D1A9
:1010D0000C48006940F002000A4908610846446172
:1010E000006940F0400008614FF4302000F05CF8E7
:1010F00005460448006941F6FD7108400149086150
:10110000284630BD0020024004200B49C96811F078
:10111000010F01D001200EE00749C96811F0040F4A
:1011200001D0022007E00449C96811F0100F01D076
:10113000032000E0042070470020024003480069BB
:1011400040F0800001490861704700000020024023
:1011500070B504460D460426F00200F025F8064658
:10116000042E11D10948006940F0010007490861C7
:101170002580F00200F018F806460448006941F6A0
:10118000FE71084001490861304670BD00200240F0
:101190000248034948600348486070472301674597
:1011A00000200240AB89EFCD00B502460423FFF7D3
:1011B000ABFF034603E0FFF7A7FF0346521E012BD8
:1011C00001D1002AF7D102B90523184600BD00005D
:1011D00051B14FF0204252F8202042F001024FF06E
:1011E000204343F8202009E04FF0204252F820200D
:1011F000034B1A404FF0204343F820207047000073
:10120000FEFF0F00D0E901121143C26811430269C9
:1012100011434269114382691143C2691143026A51
:101220001143426A1143826A1143C26A1143026B3D
:1012300011434FF02043026843F8221081680829C7
:1012400008D11A46016852F8211041F040010268A5
:1012500043F82210416B0968426B526841EA02115F
:10126000426B926841EA0221426B928941EA024153
:10127000426B128A41EA0251426B127D41EA0261DD
:10128000426B926911430268521C4FF0204343F8AD
:101290002210C16AB1F5804F1AD1816B0968826B47
:1012A000526841EA0211826B926841EA0221826B24
:1012B000128A41EA0251826B127D41EA0261826B1D
:1012C00092691143026803EB8202C2F8041108E03C
:1012D0006FF070414FF02043026803EB8202C2F8C6
:1012E0000411704730B500228B071C0F0F2303FA3F
:1012F00004F20B4B8C1053F824309343084C8D10A0
:1013000044F8253023468C1053F824308C07240FE2
:1013100000FA04F42343024C8D1044F8253030BD0C
:10132000080001402DE9F04102460025002600207A
:1013300000230024002791F803C00CF00F0591F85A
:1013400003C01CF0100F03D091F802C04CEA050551
:1013500091F800C0BCF1000F31D0146800202BE0E0
:101360004FF0010C0CFA00F3B1F800C00CEA0306D0
:101370009E4220D183004FF00F0C0CFA03F7BC43C0
:1013800005FA03FC4CEA040491F803C0BCF1280FF1
:1013900006D14FF0010C0CFA00FCC2F814C00AE0B0
:1013A00091F803C0BCF1480F05D14FF0010C0CFAC5
:1013B00000FCC2F810C0401C0828D1D31460B1F85A
:1013C00000C0BCF1FF0F34DD546800202EE000F1B6
:1013D000080C4FF0010808FA0CF3B1F800C00CEA51
:1013E00003069E4221D183004FF00F0C0CFA03F745
:1013F000BC4305FA03FC4CEA040491F803C0BCF1B9
:10140000280F05D100F1080C08FA0CF8C2F8148076
:1014100091F803C0BCF1480F07D100F1080C4FF060
:10142000010808FA0CF8C2F81080401C0828CED336
:101430005460BDE8F0810000F0B50A4600230024A6
:101440000021002500F00046B6F1004F02D11D4EEC
:10145000F16901E01B4E7168C0F3034583B200F4EB
:101460004016B6F5401F08D121F07061154E766820
:1014700026F07066134F7E6012E000F48016B6F519
:10148000801F06D1032606FA05F4A14341F07061DE
:1014900006E0460D360103FA06F6B14341F07061ED
:1014A00022B1460D360103FA06F6314300F000463C
:1014B000B6F1004F02D1034EF16101E0014E7160BF
:1014C000F0BD0000000001400246002093680B427E
:1014D00001D0012000E000207047416170470161A8
:1014E000704770470348006810F0010F00D000BE3D
:1014F00000BFFEE7F0ED00E010B5FEF7FDFFFFF7DF
:1015000049F9FFF7B9F8FFF7E1F910BD10B5FEF79B
:10151000CDFFFEF7CCFFFFF7BBF810BD002300F1B5
:101520000C0000F80C3C00F80B3C0374437483740B
:10153000037643768376C376437701774261A0F1E1
:101540000C00C0620063704710B5C749C7480278F5
:101550000078401CC54B1870C54840F82210C5499A
:10156000184602780078401C1870C14840F82210D4
:10157000C149184602780078401C1870BC4840F8F1
:101580002210BE49184602780078401C1870B848EE
:1015900040F82210BA4A184601780078401C1870AA
:1015A000B34840F82120B749184602780078401C1B
:1015B0001870AF4840F82210B349184602780078F6
:1015C000401C1870AA4840F82210B04A184601780A
:1015D0000078401C1870A64840F82120AC491846F5
:1015E00002780078401C1870A14840F82210A949E0
:1015F000184602780078401C18709D4840F8221068
:10160000A549184602780078401C1870984840F8A0
:101610002210A24A184601780078401C187094489D
:1016200040F821209E4A184601780078401C187026
:101630008F4840F821209B4A184601780078401CCA
:1016400018708B4840F82120974A18460178007896
:10165000401C1870864840F82120944A18460178AA
:101660000078401C1870824840F82120904A1846A3
:1016700001780078401C18707D4840F821208D4981
:10168000184602780078401C1870794840F82210FB
:101690008949184602780078401C1870744840F850
:1016A0002210864A184601780078401C187070484D
:1016B00040F821208249184602780078401C1870B2
:1016C0006B4840F822107F4A184601780078401C89
:1016D0001870674840F821207B4A18460178007846
:1016E000401C1870624840F821207849184602785A
:1016F0000078401C18705E4840F82210744A184662
:1017000001780078401C1870594840F82120714930
:10171000184602780078401C1870554840F822108E
:101720006D4A184601780078401C1870504840F8FF
:1017300021206A49184602780078401C18704C48ED
:1017400040F822106649184602780078401C18704C
:10175000474840F82210634A184601780078401C38
:101760001870434840F821205F4A184601780078F5
:10177000401C18703E4840F821205C491846027809
:101780000078401C18703A4840F822105849184612
:1017900002780078401C1870354840F822105549EE
:1017A000184602780078401C1870314840F8221022
:1017B0005149184602780078401C18702C4840F8AF
:1017C00022104E49184602780078401C18702848AC
:1017D00040F822104A4A184601780078401C1870D8
:1017E000234840F82120474A184601780078401CD9
:1017F00018701F4840F82120434A184601780078A5
:10180000401C18701A4840F82120404918460278B8
:101810000078401C1870164840F822103C491846C1
:1018200002780078401C1870114840F82210394A9C
:10183000184601780078401C18700D4840F82120A7
:10184000012409E00A4951F824004FF6FE722146AE
:10185000FFF764FE601CC4B2044800788442F1DBE8
:1018600005212D48C16610BD505B0020EA250020EF
:10187000D8630020845B00205C5E0020F85E0020BE
:101880002C5F0020285E0020585D00208C5D002029
:10189000C05D0020F45D0020F05C0020245D00208D
:1018A000EC5B0020B85B0020205C0020545C002032
:1018B000885C0020BC5C0020905E0020C45E00209C
:1018C000605F0020945F0020C85F0020FC5F002064
:1018D000306000206460002098600020CC60002010
:1018E0000061002034610020686100209C610020BC
:1018F000D061002004620020386200206C62002069
:10190000A0620020D4620020086300203C63002015
:1019100070630020A46300207C5500200246086A02
:10192000A0F57F43FF3B02D1126301207047086A94
:1019300058B1012082F829001163086A106291F8F9
:10194000250082F825000020F0E70020EEE70000E7
:101950000146481E00EBC000044A02EBC000C078FC
:1019600008B9012070470020FCE700007C550020EA
:10197000F0B591B00446402101A8FEF71EFC206896
:101980000F4900EA0107B7F1005F0ED13A460DA1F9
:1019900001A804F027FF01A804F014FF666835468B
:1019A0002068FEF7D8FBA84707E03A460BA101A83C
:1019B00004F018FF01A804F005FF11B0F0BD00000D
:1019C0000000FF2F4F4B2C5B537461636B546F709F
:1019D0003D307825785D210A000000004661696C81
:1019E0002C5B537461636B546F703D307825785D68
:1019F000210A000010B5FFF7A1FB03A004F0E2FEEE
:101A00000548FFF7B5FF10BD4A756D7020546F2073
:101A1000415050210A0000000000010810B504A048
:101A200004F0D0FE4FF00060FFF7A2FF10BD0000F1
:101A30004A756D7020546F20426F6F744C6F6164F3
:101A40006572210A0000000002A004F0BBFE00BF86
:101A5000FEE700004D656D4D616E6167655F486131
:101A60006E646C6572210A007047000070B5002139
:101A700000230F22C4780CB3164C246804F4E064ED
:101A8000C4F5E064210AC1F10403CA40447804FAB1
:101A900003F184781440214309010F4C0678A155C5
:101AA000047804F01F050124AC4005786D114FF057
:101AB000E02606EB8505C5F8004109E0047804F04E
:101AC0001F050124AC40054D0678761145F82640E7
:101AD00070BD00000CED00E000E400E080E100E0FB
:101AE00002490143024A1160704700000000FA05F4
:101AF0000CED00E0024A0A400243024B1A607047B4
:101B000080FFFF1F08ED00E0002181777047000093
:101B100010B5EC4C207810B1607F012800D110BDC9
:101B200060781D2871D2DFE800F00F1925323F4C94
:101B30005864717D8FA0B1C3D5F4F2F1F0EFEEEDF2
:101B4000ECEBEAE9E8E7E6000020DF490870DF494E
:101B5000204603F023FA01206070ADE1DB49204606
:101B6000FFF7DCFE28B1DA49204603F017FA02201D
:101B70006070A1E1D6492046FFF7D0FE30B1D248CF
:101B80000078401CD04908700320607094E1CE4872
:101B90000078062805DD0020CB490870042060701D
:101BA00001E00120607087E10120CA49087002202D
:101BB000C9490870C949204603F0F0F90520607052
:101BC0007AE1C6492046FFF7A9FE28B1C44920465C
:101BD00003F0E4F9062060706EE1C1492046FFF78A
:101BE0009DFE28B1BF49204603F0D8F90720607058
:101BF00062E1BC492046FFF791FE28B1BA49204670
:101C000003F0CCF90820607056E154E1B649204653
:101C1000FFF784FE28B1B549204603F0BFF909203B
:101C2000607049E1B1492046FFF778FE58B10120C4
:101C3000A84908700220A8490870A849204603F066
:101C4000ADF90A20607037E1A4492046FFF766FE2F
:101C500050B1A749204603F0A1F94FF4FA7120468C
:101C600003F020F90B20607026E1A1492046FFF720
:101C700055FE50B12046FEF755FB012805D1994984
:101C8000204603F08BF90C20607015E19549204641
:101C9000FFF744FE58B10120964908700320964989
:101CA00008709649204603F079F90D20607003E131
:101CB00092492046FFF732FE58B10120854908704D
:101CC0000320854908708549204603F067F90E20F6
:101CD0006070F1E081492046FFF720FE50B188494D
:101CE000204603F05BF94FF4FA71204603F0DAF86E
:101CF0000F206070E0E0D5E0C8E0BBE0AEE0A1E01E
:101D00008EE07BE069E057E044E031E024E011E060
:101D1000FFE77B492046FFF701FE50B12046FEF762
:101D200001FB012805D16F49204603F037F9102047
:101D30006070C1E06B492046FFF7F0FD58B101200B
:101D40006C49087002206C4908706C49204603F009
:101D500025F911206070AFE068492046FFF7DEFDED
:101D600028B16249204603F019F912206070A3E0FF
:101D70005E492046FFF7D2FD58B101205D49087049
:101D800003205D4908705D49204603F007F91320E0
:101D9000607091E059492046FFF7C0FD58B101201D
:101DA0004C49087003204C4908704C49204603F008
:101DB000F5F8142060707FE048492046FFF7AEFD3B
:101DC00050B14B49204603F0E9F84FF4FA71204630
:101DD00003F068F8152060706EE045492046FFF773
:101DE0009DFD50B12046FEF79DFA012805D13D49E1
:101DF000204603F0D3F8162060705DE03949204694
:101E0000FFF78CFD58B101203A49087002203A4989
:101E100008703A49204603F0C1F8172060704BE083
:101E200036492046FFF77AFD58B10120294908704C
:101E30000220294908702949204603F0AFF81820EC
:101E4000607039E025492046FFF768FD28B12C492C
:101E5000204603F0A3F8192060702DE028492046A1
:101E6000FFF75CFD28B11E49204603F097F81A20C1
:101E7000607021E01A492046FFF750FD28B119494A
:101E8000204603F08BF81B20607015E015492046B2
:101E9000FFF744FD28B11B49204603F07FF81C20C2
:101EA000607009E017492046FFF738FD10B14FF682
:101EB000FF70206200E000BF00BF2046FEF74CFD2F
:101EC00000BF2CE63C63002059260020346100202E
:101ED00008630020F3250020F42500206C62002018
:101EE000285E00203862002000610020A4630020EA
:101EF00030600020F0250020F1250020D061002076
:101F0000646000206861002010B5334C207810B167
:101F1000607F012800D110BD607802281ED003DC4C
:101F200038B1012851D111E003282FD0FF284CD11E
:101F300044E02A48007830B92949204603F02EF8B9
:101F40000120607001E0022060703FE024492046DB
:101F5000FFF7E4FC08B10220607037E0172006F0BC
:101F60003FFA18B94FF6FF7020620EE01D48B0F935
:101F70000A0000EB800083001A48B0F930200121EC
:101F8000062006F00FFE032060701FE0182006F008
:101F900027FA48B1062007F049F802200F490870D7
:101FA00042F22A70206208E0172006F019FA20B9E0
:101FB000062007F03BF8FF20607007E00220074989
:101FC00008704FF6FF70206200E000BF00BF20469F
:101FD000FEF7C2FC00BF9EE7D4620020E825002087
:101FE000A0620020EE5A002010B56D4C207810B190
:101FF000607F012800D110BD6078142833D007DC41
:10200000072873D2DFE800F0157B848B93A5B3001B
:10201000182853D006DC15282CD0162836D01728BF
:1020200064D13FE0192855D01A2860D0FF28F7D195
:10203000A7E05C480078012807D1002059490870C2
:10204000594800785949087003E05948807A57493F
:10205000087056480078052802DD42F21D702062A3
:102060001420607096E05349204602F097FF152037
:1020700060708FE04F492046FFF750FC28B14E4971
:10208000204602F08BFF1620607083E04A4920460C
:10209000FFF744FC28B14949204602F07FFF172092
:1020A000607077E045492046FFF738FC28B1444985
:1020B000204602F073FF182060706BE04049204614
:1020C000FFF72CFC28B13F49204602F067FF19209A
:1020D00060705FE03B492046FFF720FC28B13A4999
:1020E000204602F05BFF1A20607053E051E0364951
:1020F0002046FFF713FC08B1012060704AE02A482F
:10210000007810B90220607001E00420607041E0A6
:102110002E49204602F042FF032060703AE02B492E
:102120002046FFF7FBFB08B10420607032E028482E
:102130000078642807DA26480078401C2449087093
:102140000520607004E002206070002020490870C3
:1021500020E02048154B1B7850F823201E48B0F98A
:102160000C10012006F076FE0620607012E00120BF
:10217000FFF7EEFB20B1012006F058FFFF20607052
:1021800008E00A480078084908704FF6FF7020629E
:1021900000E000BF00BF2046FEF7DEFB00BF2AE7DD
:1021A0005C5E0020ED250020EE2500205426002056
:1021B000A0370020905E0020605F0020BC5C002003
:1021C000545C0020EC5B0020285E0020845B002033
:1021D000EF250020F8250020EE5A002010B5184CFD
:1021E000207810B1607F012800D110BD607820B147
:1021F00001280DD0FF281CD117E01249204602F01B
:10220000CDFE1149204602F0C9FE0120607011E0A8
:102210000C492046FFF782FB30B10B492046FFF7FF
:102220007DFB08B1FF20607004E04FF6FF70206274
:1022300000E000BF00BF2046FEF78EFB00BFD4E7E2
:10224000285E0020585D0020C05D002010B5184CAD
:10225000207810B1607F012800D110BD607820B1D6
:1022600001280DD0FF281CD117E01249204602F0AA
:1022700095FE1149204602F091FE0120607011E0A8
:102280000C492046FFF74AFB30B10B492046FFF7C7
:1022900045FB08B1FF20607004E04FF6FF7020623C
:1022A00000E000BF00BF2046FEF756FB00BFD4E7AA
:1022B0002C5F00208C5D0020F45D002010B5114CD7
:1022C000207810B1607F012800D110BD607820B166
:1022D000012805D002280ED109E0012060700BE032
:1022E0000021022004F0ECFF0220607004E04FF6B1
:1022F000FF70206200E000BF00BF2046FEF72CFB0D
:1023000000BFE2E7CC60002010B5114C207810B17E
:10231000607F012800D110BD607820B1012805D070
:1023200002280ED109E0012060700BE00021082096
:1023300004F0C6FF0220607004E04FF6FF702062D8
:1023400000E000BF00BF2046FEF706FB00BFE2E74B
:10235000245D002010B51B4C207810B1607F01284F
:1023600000D110BD607810B1012824D113E00D20F8
:1023700006F036F818B14FF6FF7020620AE001212E
:10238000062004F09DFF40F6B831204602F08AFD99
:102390000120607010E00D2006F022F818B14FF611
:1023A000FF70206206E02046FDF7BCFF10B142F24C
:1023B0001570206200E000BF00BF2046FEF7CCFA97
:1023C00000BFCEE7205C002010B51B4C207810B178
:1023D000607F012800D110BD607810B1012824D1A0
:1023E00013E00C2005F0FCFF18B14FF6FF702062DF
:1023F0000AE00021062004F063FF40F6B8312046D1
:1024000002F050FD0120607010E00C2005F0E8FFA4
:1024100018B14FF6FF70206206E02046FDF782FFFC
:1024200010B142F21670206200E000BF00BF2046EB
:10243000FEF792FA00BFCEE7545C002010B5A54C21
:10244000207810B1607F012800D110BD60781A2873
:1024500077D2DFE800F00D181F2B33414950586A3E
:102460007B8893A0ABB3C0CDD8E4F7F5F4F3F2F1D9
:10247000022005F0B5FF10B90120607002E042F2C1
:102480003070206220E19449204602F087FD02204E
:10249000607019E190492046FFF740FA28B18F4952
:1024A000204602F07BFD032060700DE18B49204641
:1024B000FFF734FA08B10420607005E1884800781D
:1024C000012802D10620607005E08649204602F00E
:1024D00065FD05206070F7E082492046FFF71EFA8F
:1024E00008B106206070EFE07F49204602F056FDFB
:1024F00007206070E8E07C492046FFF70FFA08B13A
:1025000008206070E0E001207849087005207849D3
:1025100008707849204602F041FD4FF47A71204658
:1025200002F0C0FC09206070CEE02046FDF7FAFE04
:1025300001280AD1132005F053FF18B90A20607052
:1025400003E0C0E042F231702062BDE069492046FC
:10255000FFF7E4F930B14FF47A71204602F0A2FCA3
:102560000B206070B0E02046FDF7DCFE28B1624928
:10257000204602F013FD0C206070A5E05E49204665
:10258000FFF7CCF930B14FF47A71204602F08AFCA3
:102590000D20607098E02046FDF7C4FE28B1524936
:1025A000204602F0FBFC0E2060708DE04E49204674
:1025B000FFF7B4F908B10F20607085E001204B49A6
:1025C000087003204A4908704A49204602F0E6FC98
:1025D0001020607078E047492046FFF79FF930B13E
:1025E0004FF47A71204602F05DFC112060706BE0C0
:1025F0002046FDF797FE28B14049204602F0CEFC68
:102600001220607060E03D492046FFF787F928B14D
:102610003B49204602F0C2FC1320607054E0384968
:102620002046FFF77BF930B14FF47A71204602F073
:1026300039FC1420607047E03CE02FE022E014E019
:102640000BE0FFE72046FDF76DFE28B12549204647
:1026500002F0A4FC1520607036E022492046FFF706
:102660005DF908B1162060702EE001201F49087046
:1026700004201F4908701F49204602F08FFC1720D4
:10268000607021E01B492046FFF748F928B11D4939
:10269000204602F083FC1820607015E0194920469E
:1026A000FFF73CF928B11549204602F077FC1920C4
:1026B000607009E011492046FFF730F910B14FF67C
:1026C000FF70206200E000BF00BF2046FEF744F923
:1026D00000BFBAE668610020285E0020905E0020FE
:1026E000E6250020605F0020BC5C0020ED25002076
:1026F000EE2500205C5E0020885C00202C5F00201E
:10270000945F0020C45E002010B5384C207810B1D2
:10271000607F012800D110BD607808285ED2DFE814
:1027200000F0041119272F3C48543148007810B1AB
:102730000220607005E02F49204602F02FFC0120A6
:1027400060704CE02B492046FFF7E8F808B1022002
:10275000607044E028480078012802D104206070AD
:1027600005E02649204602F019FC0320607036E09F
:1027700022492046FFF7D2F808B1042060702EE00D
:1027800001201F49087004201E4908701E49204678
:1027900002F004FC0520607021E01B492046FFF791
:1027A000BDF828B11949204602F0F8FB06206070F8
:1027B00015E016492046FFF7B1F828B11449204624
:1027C00002F0ECFB0720607009E011492046FFF79A
:1027D000A5F810B14FF6FF70206200E000BF00BF07
:1027E0002046FEF7B9F800BF95E7000034610020ED
:1027F000E9250020505B0020E5250020905E0020A8
:10280000ED250020EE2500205C5E0020C45E002047
:102810002C5F002010B51F4C207810B1607F01287C
:1028200000D110BD607810B101282CD113E0082030
:1028300005F0D6FD18B14FF6FF7020620AE00121C5
:102840000A2004F03DFD40F6B831204602F02AFB94
:102850000120607018E0082005F0C2FD38B10321A6
:102860000A2004F02DFD4FF6FF7020620AE020469A
:10287000FDF758FD30B103210A2004F021FD42F29A
:102880001B70206200E000BF00BF2046FEF764F826
:1028900000BFC6E7C05D002010B51F4C207810B106
:1028A000607F012800D110BD607810B101282CD1C3
:1028B00013E0092005F094FD18B14FF6FF70206277
:1028C0000AE001210A2004F0FBFC40F6B831204662
:1028D00002F0E8FA0120607018E0092005F080FDA0
:1028E00038B103210A2004F0EBFC4FF6FF702062A0
:1028F0000AE02046FDF716FD30B103210A2004F05E
:10290000DFFC42F21C70206200E000BF00BF2046E6
:10291000FEF722F800BFC6E7F45D002010B5114CA9
:10292000207810B1607F012800D110BD607820B1FF
:10293000012805D002280ED109E0012060700BE0CB
:102940000121022004F0BCFC0220607004E04FF67C
:10295000FF70206200E000BF00BF2046FDF7FCFFD3
:1029600000BFE2E79860002010B5114C207810B14C
:10297000607F012800D110BD607820B1012805D00A
:1029800002280ED109E0012060700BE0012108202F
:1029900004F096FC0220607004E04FF6FF702062A5
:1029A00000E000BF00BF2046FDF7D6FF00BFE2E712
:1029B000F05C002010B51B4C207810B1607F01281E
:1029C00000D110BD607810B1012824D113E00E2091
:1029D00005F006FD18B14FF6FF7020620AE00121F4
:1029E000072004F06DFC40F6B831204602F05AFA98
:1029F0000120607010E00E2005F0F2FC18B14FF6D7
:102A0000FF70206206E02046FDF78CFC10B142F218
:102A10001770206200E000BF00BF2046FDF79CFF5A
:102A200000BFCEE7885C002010B51B4C207810B1A9
:102A3000607F012800D110BD607810B1012824D139
:102A400013E00F2005F0CCFC18B14FF6FF702062A8
:102A50000AE00021072004F033FC40F6B83120469C
:102A600002F020FA0120607010E00F2005F0B8FCA1
:102A700018B14FF6FF70206206E02046FDF752FCC9
:102A800010B142F21870206200E000BF00BF204683
:102A9000FDF762FF00BFCEE7BC5C002010B53B4CE9
:102AA000207810B1607F012800D110BD6078022825
:102AB00041D003DC38B1012861D123E0142845D08E
:102AC00015285CD14CE032480078012803D14FF63C
:102AD000FF70206215E0012005F082FC28B1002083
:102AE0002B490870142060700BE000202849087002
:102AF00041F270730A220121032006F053F80120ED
:102B000060703DE0012005F06BFC60B1032006F031
:102B10008DFA4FF4AF730A220121032006F042F828
:102B20000220607006E00320FEF712FF10B142F2AF
:102B30001E70206224E00320FEF70AFF28B1012066
:102B4000134908704FF6FF70206219E04FF4C87304
:102B50000A220021032006F025F8152060700FE0FE
:102B60000320FEF7F5FE48B1012005F039FC10B94D
:102B70000020607002E042F21F70206200E000BF9F
:102B800000BF2046FDF7E8FE00BF8EE7905E002004
:102B9000E525002010B56E4C207810B1607F01282B
:102BA00000D110BD60780B2813D2DFE800F00613C7
:102BB0002435586475869CAFC100012065490870B2
:102BC0000220654908706549204602F0E7F90120B6
:102BD0006070B6E061492046FEF7A0FE50B1604942
:102BE000204602F0DBF94FF4FA71204602F05AF960
:102BF00002206070A5E05A492046FEF78FFE50B1D2
:102C00002046FDF78FFB012805D15649204602F0EA
:102C1000C5F90320607094E052492046FEF77EFE1D
:102C2000E0B1122005F0DCFB30B1192005F0D8FB33
:102C300010B90420607011E04B480078032807DACF
:102C400049480078401C484908700020607005E041
:102C500000204549087042F23370206271E0012083
:102C600042490870424908704249204602F096F9EC
:102C70000520607065E03F492046FEF74FFE50B1E9
:102C8000012034490870344908703449204602F064
:102C900085F90620607054E030492046FEF73EFE7C
:102CA00050B13549204602F079F94FF4FA712046C7
:102CB00002F0F8F80720607043E02F492046FEF745
:102CC0002DFE78B12046FDF72DFB01280AD12549BC
:102CD000204602F063F94FF47A71204602F0E2F8E0
:102CE000082060702DE02046FDF71CFB01280CD168
:102CF000192005F075FB30B9052006F097F942F26E
:102D00003470206201E0092060701AE01549204605
:102D1000FEF704FE58B1012014490870022014493E
:102D200008701449204602F039F90A20607008E062
:102D300010492046FEF7F2FD10B14FF6FF702062F9
:102D400000BF00BF2046FDF707FE00BF29E70000D7
:102D5000A4630020F3250020F42500206C620020ED
:102D6000306000203862002058260020F025002026
:102D7000F1250020D06100206460002010B5254CB2
:102D8000207810B1607F012800D110BD607830B18B
:102D900001281AD0022820D0032834D128E01E4868
:102DA0000078022803D14FF6FF7020620CE01A4829
:102DB0000078012802D10220607005E01749204602
:102DC00002F0ECF8012060701EE014492046FEF786
:102DD000A5FD08B10220607016E01148B0F90E3070
:102DE0000A220021032005F0DDFE032060700BE0C5
:102DF0000320FEF7ADFD28B10220074908704FF609
:102E0000FF70206200E000BF00BF2046FDF7A4FD78
:102E100000BFBAE7C45E0020E5250020905E0020D8
:102E2000EE5A002010B5114C207810B1607F0128B7
:102E300000D110BD607820B1012805D002280ED144
:102E400009E0012060700BE00021032004F038FA53
:102E50000220607004E04FF6FF70206200E000BFC7
:102E600000BF2046FDF778FD00BFE2E7FC5F0020D1
:102E700010B5114C207810B1607F012800D110BD31
:102E8000607820B1012805D002280ED109E0012088
:102E900060700BE00121032004F012FA0220607040
:102EA00004E04FF6FF70206200E000BF00BF204644
:102EB000FDF752FD00BFE2E7C85F002010B53D4CB2
:102EC000207810B1607F012800D110BD6078022801
:102ED00043D003DC38B1012865D124E0142847D061
:102EE000152860D150E034480078012803D14FF60E
:102EF000FF70206216E0162005F072FA28B100205B
:102F00002D490870142060700CE000202A490870D8
:102F10002A48B0F930202A4B0021062005F042FE55
:102F20000120607040E0162005F05AFA68B10620D2
:102F300006F07CF82148B0F9302005230021062056
:102F400005F030FE0220607006E00620FEF700FD6E
:102F500010B142F22870206226E00220FEF7F8FC51
:102F600028B10120144908704FF6FF7020621BE061
:102F70001248B0F930204FF4FA730121062005F011
:102F800011FE152060700FE00620FEF7E1FC48B14D
:102F9000162005F025FA10B90020607002E042F218
:102FA0002970206200E000BF00BF2046FDF7D4FC7E
:102FB00000BF8AE7A0620020E8250020EE5A00202A
:102FC0008038010010B51B4C207810B1607F0128BB
:102FD00000D110BD607830B101280BD0022811D08B
:102FE00003281FD115E01449204601F0D7FF012026
:102FF000607018E010492046FEF790FC08B10220EE
:10300000607010E00D49204601F0C8FF0320607099
:1030100009E00A492046FEF781FC10B14FF6FF7027
:10302000206200E000BF00BF2046FDF795FC00BF16
:10303000CFE70000F85E00202C5F0020285E002013
:1030400010B56B4C207810B1607F012800D110BD05
:10305000607814281DD007DC082875D2DFE800F05E
:103060001358758DC094A6AF18283DD006DC1528DE
:1030700016D0162820D0172866D129E019283FD06D
:10308000FF28F9D1A2E000205A490870142060708E
:10309000A7E05949204601F081FF15206070A0E0AB
:1030A00055492046FEF73AFC28B15449204601F024
:1030B00075FF1620607094E050492046FEF72EFC04
:1030C00028B14F49204601F069FF1720607088E061
:1030D0004B492046FEF722FC28B14A49204601F020
:1030E0005DFF182060707CE046492046FEF716FC24
:1030F00028B14549204601F051FF1920607070E069
:1031000041492046FEF70AFC08B10120607068E0E2
:10311000052005F065F948B94CF2503350220121E1
:10312000084605F03FFD052060700CE0052005F025
:1031300057F940B14FF47A7350220021012005F075
:1031400031FD022060704CE04AE00120FEF700FCF7
:1031500090B1052005F044F938B94FF49671204636
:1031600001F0A0FE0320607006E00120FEF7F0FBF6
:1031700010B142F21170206233E02046FDF7D2F820
:10318000012800D160702CE0052005F029F928B154
:10319000012005F04BFF0620607006E00120FEF7DD
:1031A000D7FB10B142F2127020621AE005230A2206
:1031B0000121084605F0F6FC0720607011E00120AF
:1031C000FEF7C6FB08B1FF2060700AE0012005F0A1
:1031D00071FE0620074908704FF6FF70206200E07C
:1031E00000BF00BF2046FDF7B7FB00BF2FE7000080
:1031F000845B0020EE250020905E0020605F0020B0
:10320000BC5C0020545C0020EC5B002010B55E4CE0
:10321000207810B1607F012800D110BD60780E28A1
:1032200079D2DFE800F007111C29303C4854606C6B
:103230007985919D00205549087055490870554978
:1032400008700120607098E05349204601F0A6FE06
:103250005249204601F0A2FE022060708DE04E49E6
:103260002046FEF75BFB30B14C492046FEF756FB8B
:1032700008B10320607080E04949204601F08EFECD
:103280000420607079E046492046FEF747FB28B1EC
:103290004449204601F082FE052060706DE04149FE
:1032A0002046FEF73BFB28B13F49204601F076FE61
:1032B0000620607061E03C492046FEF72FFB28B1F4
:1032C0003A49204601F06AFE0720607055E0374910
:1032D0002046FEF723FB28B13549204601F05EFE6B
:1032E0000820607049E032492046FEF717FB28B1FC
:1032F0003049204601F052FE092060703DE02D4922
:103300002046FEF70BFB28B12B49204601F046FE74
:103310000A20607031E02FE027492046FEF7FEFAD0
:1033200028B12649204601F039FE0B20607024E0C8
:1033300022492046FEF7F2FA28B12149204601F041
:103340002DFE0C20607018E01D492046FEF7E6FABD
:1033500028B11C49204601F021FE0D2060700CE0D0
:1033600018492046FEF7DAFA28B10120074908700B
:103370004FF6FF70206200E000BF00BF2046FDF75F
:10338000EBFA00BF49E70000505B0020E925002070
:10339000E5250020E6250020F05C00209860002054
:1033A000905E0020605F0020BC5C0020545C002028
:1033B000EC5B0020F85E0020845B002004620020AB
:1033C00038620020A062002010B5404C207810B177
:1033D000607F012800D110BD6078022848D003DC4E
:1033E00038B101286AD129E014284FD0152865D1B9
:1033F00055E037480078072807D1152004F0F0FF82
:1034000018B14FF6FF70206217E0152004F0E8FFB6
:1034100028B100202E490870142060700DE00020B3
:103420002B4908702B48B0F9302048F6B803012129
:10343000052005F0B7FB0120607040E0152004F086
:10344000CFFF68B1052005F0F1FD2248B0F930202A
:103450000A230121052005F0A5FB0220607006E08B
:103460000520FEF775FA10B142F22570206226E0C1
:103470000520FEF76DFA40B10720154908700520B8
:1034800005F018FD4FF6FF70206218E0C8233222C5
:103490000021052005F086FB152060700FE0052057
:1034A000FEF756FA48B1152004F09AFF10B9002033
:1034B000607002E042F22670206200E000BF00BFB0
:1034C0002046FDF749FA00BF85E70000386200207A
:1034D000E7250020EE5A002010B5534C207810B19B
:1034E000607F012800D110BD6078062878D005DC07
:1034F00074D2DFE800F00C214159916007287AD09E
:1035000014280AD015280FD0FF2867D17AE00020B0
:1035100046490870142060707FE04549204601F05C
:103520003DFD1520607078E041492046FEF7F6F930
:1035300008B10120607070E0142004F051FF58B908
:103540003C48B0F92E204CF250330121042005F004
:1035500029FB052060700EE0142004F041FF50B1FB
:103560003448B0F92E204FF47A730021042005F07E
:1035700019FB0220607050E00420FEF7E9F990B1D9
:10358000142004F02DFF38B94FF49671204601F055
:1035900089FC0320607006E00420FEF7D9F910B121
:1035A00042F22370206238E02046FCF7BBFE01287F
:1035B00000D1607031E0142004F012FF28B1042023
:1035C00005F034FD0620607006E00420FEF7C0F927
:1035D00010B142F2247020621FE001E01CE00AE01A
:1035E0001448B0F92E2001231946042005F0DAFA18
:1035F0000720607011E00120FEF7AAF908B1FF2052
:1036000060700AE0042005F055FC072007490870A7
:103610004FF6FF70206200E000BF00BF2046FDF7BC
:103620009BF900BF5FE7000004620020F125002045
:1036300038620020EE5A002010B5734C207810B18B
:10364000607F012800D110BD60780B2813D2DFE81D
:1036500000F006132536476E8092A3B9CC000120F6
:103660006A49087002206A4908706A49204601F0D8
:1036700095FC01206070C1E066492046FEF74EF9D6
:1036800058B10120644908700220644908706449F7
:10369000204601F083FC02206070AFE060492046C4
:1036A000FEF73CF950B15F49204601F077FC4FF43A
:1036B000FA71204601F0F6FB032060709EE0204680
:1036C000FCF730FE01280AD156492046FEF726F9BC
:1036D00028B15549204601F061FC042060708DE05E
:1036E00051492046FEF71AF900B3122004F078FE83
:1036F00030B1192004F074FE10B90520607015E097
:103700004A480078032807DA48480078401C4749AF
:1037100008700120607009E0002044490870002111
:10372000042003F0CDFD42F23570206266E03E4990
:103730002046FEF7F3F858B10120344908700620FE
:10374000334908703349204601F028FC0620607098
:1037500054E030492046FEF7E1F858B101202E49E7
:10376000087006202D4908702D49204601F016FCEE
:103770000720607042E02A492046FEF7CFF850B19A
:103780002B49204601F00AFC4FF4FA71204601F063
:1037900089FB0820607031E025492046FEF7BEF81D
:1037A00078B12046FCF7BEFD01280AD11E4920460B
:1037B00001F0F4FB4FF47A71204601F073FB09200D
:1037C00060701BE02046FCF7ADFD01280CD11920EC
:1037D00004F006FE30B9052005F028FC42F23670F0
:1037E000206201E00A20607008E00F492046FEF7E1
:1037F00095F810B14FF6FF70206200BF00BF204661
:10380000FDF7AAF800BF1EE770630020F025002036
:10381000F1250020D0610020F3250020F4250020B0
:103820006C62002030600020386200205A260020A0
:103830006460002010B51F4C207810B1607F012813
:1038400000D110BD607810B101282CD113E0062002
:1038500004F0C6FD18B14FF6FF7020620AE00121A6
:10386000092003F02DFD40F6B831204601F01AFB87
:103870000120607018E0062004F0B2FD38B1032189
:10388000092003F01DFD4FF6FF7020620AE020467C
:10389000FCF748FD30B10321092003F011FD42F28D
:1038A0001970206200E000BF00BF2046FDF754F809
:1038B00000BFC6E7585D002010B51F4C207810B13E
:1038C000607F012800D110BD607810B101282CD193
:1038D00013E0072004F084FD18B14FF6FF7020625A
:1038E0000AE00121092003F0EBFC40F6B831204644
:1038F00001F0D8FA0120607018E0072004F070FD94
:1039000038B10321092003F0DBFC4FF6FF70206281
:103910000AE02046FCF706FD30B10321092003F040
:10392000CFFC42F21A70206200E000BF00BF2046C8
:10393000FDF712F800BFC6E78C5D002010B5244CDF
:10394000207810B1607F012800D110BD6078052873
:1039500037D2DFE800F003121E2A320000201D4992
:1039600008701D490870012005F060FB1B492046C6
:1039700001F014FB0120607023E018492046FDF798
:10398000CDFF28B11649204601F008FB02206070E7
:1039900017E013492046FDF7C1FF28B11149204621
:1039A00001F0FCFA032060700BE00E492046FDF7A1
:1039B000B5FF08B10420607003E04FF6FF7020628D
:1039C00000BF00BF2046FCF7C7FF00BFBDE70000F7
:1039D0009C6100206861002000610020EC5B0020F9
:1039E000545C0020BC5C002010B57F4C207810B1E6
:1039F000607F012800D110BD60780C2870D2DFE80C
:103A000000F0060D1F3142537B8BADBECFE27749EC
:103A1000204601F0C3FA01206070DEE073492046C1
:103A2000FDF77CFF58B101207149087006207149EB
:103A300008707149204601F0B1FA02206070CCE0B4
:103A40006D492046FDF76AFF58B101206B490870A7
:103A500006206B4908706B49204601F09FFA03204D
:103A60006070BAE067492046FDF758FF50B16649DB
:103A7000204601F093FA4FF4FA71204601F012FA51
:103A800004206070A9E060492046FDF747FF50B16F
:103A90002046FCF747FC012805D15C49204601F08F
:103AA0007DFA0520607098E058492046FDF736FF02
:103AB00008B3122004F094FC30B1192004F090FCFB
:103AC00010B90620607016E051480078032808DA23
:103AD0004F480078401C4E490870022060700AE090
:103AE0007AE000204A4908700021042003F0E8FB36
:103AF00042F22B70206270E00020454908700120DE
:103B00003B49087002203B4908703B49204601F0C0
:103B100045FA0720607060E037492046FDF7FEFE59
:103B2000D8B1122004F05CFC80B1192004F058FCDC
:103B300060B90120314908700220314908703149CB
:103B4000204601F02BFA0820607006E000210420D6
:103B500003F0B6FB42F2377020623EE0294920466E
:103B6000FDF7DCFE50B12B49204601F017FA4FF467
:103B7000FA71204601F096F9092060702DE0204688
:103B8000FCF7D0FB01280AD12049204601F006FAB3
:103B90004FF4FA61204601F085F90A2060701CE0BC
:103BA0002046FCF7BFFB01280CD1192004F018FCBB
:103BB00030B9052005F03AFA42F23270206201E095
:103BC0000B20607009E011492046FDF7A7FE10B1F7
:103BD0004FF6FF70206200E000BF00BF2046FCF7F8
:103BE000BBFE00BF07E7000008630020D46200208E
:103BF000F0250020F1250020D0610020F3250020D1
:103C0000F42500206C620020306000203862002023
:103C1000572600206460002010B54A4C207810B16F
:103C2000607F012800D110BD6078052862D005DCD6
:103C300078D2DFE800F00C353E454D00062867D00D
:103C400014281ED0152823D0FF2874D16BE03E48DD
:103C50000078012807D100203B4908703B480078D4
:103C60003B49087003E03B48807A3949087038487E
:103C70000078062802DD42F2227020621420607073
:103C80005AE03549204601F089F91520607053E06B
:103C900031492046FDF742FE08B1012060704BE03B
:103CA0002A48007810B90220607001E0042060709A
:103CB00042E02A49204601F071F9032060703BE0A0
:103CC00026492046FDF72AFE08B10420607033E043
:103CD00023480078642807DA21480078401C2049EE
:103CE00008700520607004E00220607000201C490C
:103CF000087021E01B48164B1B7850F823201A4807
:103D0000B0F92E10042005F0A5F80620607013E02D
:103D10000420FDF71DFE20B1042005F087F9FF20E7
:103D2000607009E007E00A480078084908704FF61B
:103D3000FF70206200E000BF00BF2046FCF70CFED1
:103D400000BF70E7D0610020F0250020F1250020A1
:103D500055260020A0370020386200200462002091
:103D6000F225002014260020EE5A002010B54D4CFC
:103D7000207810B1607F012800D110BD6078042840
:103D800043D007DC78B1012827D002282ED00328A1
:103D900075D132E005284FD0062855D0072864D0C9
:103DA000FF2878D16CE040480078012807D1002036
:103DB0003D4908703D4800783D49087003E03D48A2
:103DC000807A3B4908703A480078062802DD42F2C2
:103DD00027702062012060705EE03448007810B9DE
:103DE0000220607001E00420607055E032492046F6
:103DF00001F0D4F8032060704EE02F492046FDF713
:103E00008DFD08B10420607046E0294800782B49F8
:103E10000978884202D1062060700CE00120284910
:103E2000087023480078254908702649204601F08B
:103E3000B5F8052060702FE022492046FDF76EFDA1
:103E400008B10620607027E01F48194B1B7850F816
:103E5000230000EB4000C2001C48B0F930100520E0
:103E600004F0F8FF0720607016E00520FDF770FDF4
:103E700020B1052005F0DAF8FF2060700CE00AE0C0
:103E80000220134908700A480078084908704FF664
:103E9000FF70206200E000BF00BF2046FCF75CFD21
:103EA00000BF6AE76C620020F3250020F4250020A3
:103EB00056260020A037002038620020F12500207F
:103EC000F0250020D061002034260020EE5A00208A
:103ED000E725002010B5114C207810B1607F012833
:103EE00000D110BD607820B1012805D002280ED184
:103EF00009E0012060700BE00021042003F0E0F9EC
:103F00000220607004E04FF6FF70206200E000BF06
:103F100000BF2046FCF720FD00BFE2E76460002000
:103F200010B5114C207810B1607F012800D110BD70
:103F3000607820B1012805D002280ED109E00120C7
:103F400060700BE00121042003F0BAF902206070D8
:103F500004E04FF6FF70206200E000BF00BF204683
:103F6000FCF7FAFC00BFE2E73060002010B5A24C7D
:103F7000207810B1607F012800D110BD60781C2826
:103F800071D2DFE800F00E19202C38447070707088
:103F90007070704C5D717D8F9BB2C5D1E3F3F1F011
:103FA000EFEE022004F01CFA10B90120607002E06C
:103FB00042F22C70206218E19049204600F0EEFF9A
:103FC0000220607011E18D492046FDF7A7FC28B161
:103FD0008B49204600F0E2FF0320607005E188492C
:103FE0002046FDF79BFC28B18649204600F0D6FF0D
:103FF00004206070F9E083492046FDF78FFC28B16A
:104000008149204600F0CAFF05206070EDE07E493E
:104010002046FDF783FC08B10D206070E5E001202B
:104020007A4908707A4908707A49204600F0B6FF4C
:104030004FF4FA71204600F035FF0E206070D4E096
:104040002046FCF76FF901280CD1032004F0C8F9D1
:1040500010B10F20607005E0012004F0E7FF42F28C
:104060002D702062C1E0BFE06A492046FDF756FC92
:1040700028B16949204600F091FF10206070B4E03B
:1040800065492046FDF74AFC58B16448B0F9120072
:104090004FF47A7200FB02F1204600F003FF11207A
:1040A0006070A2E02046FCF73DF9012805D1564991
:1040B000204600F073FF1220607096E052492046BF
:1040C000FDF72CFC80B101205049087002205049B6
:1040D00008705049204600F061FF4FF4FA71204605
:1040E00000F0E0FE132060707FE02046FCF71AF934
:1040F00001280CD1042004F073F910B11420607071
:1041000005E0012004F092FF42F22E7020626CE084
:1041100040492046FDF702FC28B14149204600F005
:104120003DFF1520607060E03D492046FDF7F6FB3D
:1041300058B13A48B0F914004FF47A7200FB02F11A
:10414000204600F0AFFE162060704EE02046FCF7DF
:10415000E9F828B12B49204600F020FF17206070B5
:1041600043E038E02CE01FE012E0FFE7254920465D
:10417000FDF7D4FB58B101202449087004202449DC
:1041800008702449204600F009FF182060702CE0D8
:1041900020492046FDF7C2FB28B12249204600F005
:1041A000FDFE1920607020E01E492046FDF7B6FB99
:1041B00028B11D49204600F0F1FE1A20607014E07D
:1041C000022004F00DF910B91B20607002E042F2E9
:1041D0002F70206209E014492046FDF79FFB10B1C3
:1041E0004FF6FF70206200E000BF00BF2046FCF7E2
:1041F000B3FB00BFC1E6000000610020285E002084
:10420000905E0020545C0020EC5B0020ED25002037
:10421000EE2500205C5E0020B85B0020EE5A0020F6
:10422000205C0020C45E00202C5F002010B51B4CD9
:10423000207810B1607F012800D110BD607810B1E6
:10424000012824D113E00B2004F0CAF818B14FF66E
:10425000FF7020620AE00121052003F031F840F6EA
:10426000B831204600F01EFE0120607010E00B20E7
:1042700004F0B6F818B14FF6FF70206206E0204651
:10428000FCF750F810B142F21370206200E000BF5A
:1042900000BF2046FCF760FB00BFCEE7B85B002004
:1042A00010B51B4C207810B1607F012800D110BDE3
:1042B000607810B1012824D113E00A2004F090F8AE
:1042C00018B14FF6FF7020620AE00021052002F0CD
:1042D000F7FF40F6B831204600F0E4FD01206070A1
:1042E00010E00A2004F07CF818B14FF6FF7020624D
:1042F00006E02046FCF716F810B142F21470206276
:1043000000E000BF00BF2046FCF726FB00BFCEE761
:10431000EC5B002010B5254C207810B1607F01289F
:1043200000D110BD607830B101281AD0022820D009
:10433000032834D128E01E480078022803D14FF624
:10434000FF7020620CE01A480078012802D1022098
:10435000607005E01749204600F020FE01206070E3
:104360001EE014492046FDF7D9FA08B1022060701A
:1043700016E01148B0F910300A220021022004F0A2
:1043800011FC032060700BE00220FDF7E1FA28B178
:104390000220074908704FF6FF70206200E000BF5E
:1043A00000BF2046FCF7D8FA00BFBAE7945F0020B0
:1043B000E6250020605F0020EE5A002010B53A4C40
:1043C000207810B1607F012800D110BD60780228EC
:1043D00040D003DC38B101285FD123E0142844D059
:1043E00015285AD14AE031480078012803D14FF608
:1043F000FF70206215E0102003F0F2FF28B10020CA
:104400002A490870142060700BE0002027490870CA
:104410004FF4FA630A220121022004F0C3FB0120B9
:1044200060703BE0102003F0DBFF58B1022004F085
:10443000FDFD64230A220121022004F0B3FB0220C7
:10444000607006E00220FDF783FA10B142F220709E
:10445000206223E00220FDF77BFA28B101201349F6
:1044600008704FF6FF70206218E0C8230A2200216E
:10447000022004F097FB152060700FE00220FDF78A
:1044800067FA48B1102003F0ABFF10B9002060704C
:1044900002E042F22170206200E000BF00BF20462F
:1044A000FCF75AFA00BF90E7605F0020E625002085
:1044B000014908627047000000000E422DE9F05FDC
:1044C00080460F4691461D464FF0000B0026B2462F
:1044D000C7EBC70000EB80002B4901EB001000F197
:1044E0000C04802104F10C00FBF767FE40202073D0
:1044F000402161732821A1734121E1732774B8F130
:10450000000F07D02148007840F0800161742178C5
:10451000A1740EE01D4801786174A078FF2801D1D4
:10452000012060706178A1746078A0706078401C90
:104530006070290AE1742575002607E006F109007C
:1045400019F8002004F10C010A54761CAE42F5D390
:1045500094F80FA0012606E0F01C04F10C01085CA1
:1045600080EA0A0A761CA81D8642F5D3C01C04F115
:104570000C0101F800A02922401C0A5405F10B0B84
:104580005846BDE8F09F0000A0390020D425002047
:104590007047000070B5002546480078002870D0AC
:1045A0000020444908704448407A632823DC4FF4D3
:1045B000007241494148FBF7E7FD3F48807A3E4998
:1045C000C97A083188403C49497A3D4A52F821105D
:1045D00088613949497A52F8210000F0FFFC18B18E
:1045E000E0203849887202E0E120364988720120D3
:1045F0003549086026E03048407A642819D14FF4E4
:1046000000722D49491C2D48FBF7BEFD2A49897AC5
:104610002B4A52F8210000F0E1FC18B1E0202949B2
:10462000887202E0E120274988720120264908604B
:1046300008E02148407AC82802DB00F04DF801E08C
:1046400000F0CEF940201F4908704870282088707B
:104650004120C8701D48007808711D4800784871D5
:104660001C480078887118480088401C000AC871EE
:1046700015480078401C08720F48407A48720024A0
:1046800006E015E0E01C0F49085C4540601CC4B220
:104690000D480068C01D8442F4D30B4800680A30FE
:1046A00008490D542921084800680B30054A115467
:1046B00070BD00001400002060260020A0370020FC
:1046C000D8630020202C002018000020D5250020D1
:1046D000D42500202400002070B500249E48407A94
:1046E000D1287BD00BDCA0F1C5000C286CD2DFE810
:1046F00000F01F6B6B1B29353E43485C616CD6286C
:1047000075D008DCD22879D0D3287CD0D42871D0B9
:10471000D52859D1B3E0D7286DD0D8286CD0FE2841
:104720006BD0FF28F5D10CE14FF00060804710E11D
:104730008AA002F047F8FD20904988720120904934
:10474000086006E1844AD17A907A02F0B9FDE0204F
:104750008A49887201208A490860FAE004F0E0FC86
:10476000E02086498872012085490860F1E002F066
:1047700035FB83490860ECE002F0CAFA8049086022
:10478000E7E0804800787D4988727E480088000A0A
:10479000C8727C480068000C08737A480068000EF4
:1047A0004873042076490860D3E003F011FA744995
:1047B0000860CEE004F0BEF9E02070498872012064
:1047C0006F490860C5E009E0C2E0FCF78AFEE0201E
:1047D0006A49887201206A490860BAE000F0DCFB8F
:1047E000E02066498872012065490860B1E056E022
:1047F00004E008E025E061E06EE07CE002F066FBAA
:104800005F490860A5E0012410E05F4850F82400EB
:10481000066AC6F30720082101EB4401574A5054A9
:10482000092101EB44015654601CC4B2574800787A
:104830008442EADB55480078401E40005049086039
:1048400087E0012410E0504850F824000569C5F3C2
:104850000720082101EB4401484A5054092101EB8B
:1048600044015554601CC4B2484800788442EADBD5
:1048700046480078401E40004149086069E0364AD9
:10488000D17A927A404B53F8220000F041FA10B1ED
:10489000E0203A49887201203949086059E02E4ADF
:1048A000D17A927A384B53F8220000F09FFBE02037
:1048B000324988720120324908604AE02649897AE3
:1048C000314A52F82100FDF71FF9E0202B49887288
:1048D00001202B4908603CE01F4AD17A927A2A4B8A
:1048E00053F8220000F0DBFAE0202449887201200E
:1048F000234908602DE01848807A4D280FD1002404
:1049000005E01549601C085C0855601CC4B22048CD
:1049100000680C308442F4D3FFF7DEFE10E00E484E
:10492000807A532806D1E020144988720120144966
:10493000086005E0E02011498872012010490860F4
:1049400007E0E0200D49887201200D49086000E071
:1049500000BF00BF70BD000060260020506C656184
:10496000736520676F20746F20426F6F746C6F6186
:10497000646572204669727374210A00202C00203D
:10498000180000201C250020D8630020EA25002004
:104990002C000020002017E00D4931F910200D4BAC
:1049A000411C43F821200A4A0A3132F911200A4BEE
:1049B000411C43F82120064A103132F91120074BDF
:1049C000411C43F82120C8B20528E5DB70470000F0
:1049D000EE5A0020F825002014260020342600205E
:1049E00010B500243F48407A822847D00CDC6F285D
:1049F0002FD004DC642822D06E286FD122E07128E9
:104A00002ED072286AD132E0832847D084285FD024
:104A1000C62802D0C72861D108E0FCF7EBFFE020F0
:104A20003149887201203149086058E0FCF7F6FFEF
:104A3000E0202D49887201202C4908604FE000F0E9
:104A400031F94CE0E02028498872012027490860AC
:104A500045E0E020244988720120244908603EE0B6
:104A6000E0202149887201202049086037E0E020D9
:104A70001D49887201201D49086030E0002407E0CC
:104A80001B48015D04F10A00174A1154601CC4B2AE
:104A90000A2CF5DB0A201549086020E01148807ACD
:104AA000012806D1134800780F4988720020114967
:104AB00008700C48807A022806D10F4800780A490D
:104AC000887200200C49087001200849086006E03F
:104AD00002F0C4F90549086001E0FFE700BF00BF2C
:104AE00010BD000060260020202C002018000020AF
:104AF000E45A0020EB250020EC25002029B1064ACD
:104B000052690243044B5A6104E0034A52698243EA
:104B1000014B5A61704700000010024029B1064A5B
:104B2000D2690243044BDA6104E0034AD26982434A
:104B3000014BDA61704700000010024029B1064ABB
:104B400012690243044B1A6104E0034A126982436A
:104B5000014B1A61704700000010024029B1064A5B
:104B600092690243044B9A6104E0034A92698243CA
:104B7000014B9A61704700000010024029B1064ABB
:104B8000D2680243044BDA6004E0034AD2688243ED
:104B9000014BDA60704700000010024030B5002180
:104BA0000022002400232D4D6D6805F00C0121B179
:104BB000042905D0082923D105E0294D056022E00C
:104BC000274D05601FE0254D6D6805F47012234DDB
:104BD0006D6805F48034022505EB92421CB9214D25
:104BE000554305600BE01D4D6D6815F4003F03D083
:104BF0001C4D5543056002E0194D5543056002E028
:104C0000174D056000BF00BF144D6D6805F0F00141
:104C10000909154D6B5C0568DD4045600F4D6D68F9
:104C200005F4E061090A104D6B5C4568DD40856064
:104C30000A4D6D6805F46051C90A0B4D6B5C4568FF
:104C4000DD40C560054D6D6805F44041890B074D99
:104C50006B5CC568B5FBF3F5056130BD0010024023
:104C600000127A0000093D00000000201000002022
:104C700000210A4A11700A4A82F82010012802D045
:104C8000042808D103E00121044A117004E0052141
:104C9000024A117000E000BF00BF704720100240C0
:104CA0000010024010B5022409E0164951F8240012
:104CB0004FF6FF722146FCF731FC601CC4B212486B
:104CC00000788442F1DB012405E00021204602F057
:104CD000F7FA601CC4B20C2CF7DD01240FE020466B
:104CE00004F0A4F90121204604F026F9002004EB89
:104CF000C401064A02EBC1014871601CC4B2082C11
:104D0000EDDD10BDD8630020EA2500207C55002091
:104D100010B502460B460120107082F824300020A6
:104D200082F825001146086AA0F57F44FF3C01D0B7
:104D3000002008620020487709E0C96A086AA0F5E7
:104D40007F44FF3C01D00020086200204877C86AF9
:104D50008842F2D1012010BD00B587B0012141F297
:104D60000400FFF7FBFEE020ADF8040001208DF801
:104D7000060018208DF8070001A91C48FCF7D2FA9C
:104D80001020ADF8040001208DF8060010208DF8E9
:104D9000070001A91548FCF7C5FA10211348FCF7D4
:104DA0009EFB0020ADF808004FF48270ADF80A00B9
:104DB0000020ADF80C00ADF80E00ADF810004FF477
:104DC0000070ADF812001020ADF814000020ADF80E
:104DD00016000720ADF8180002A9054800F040F8B9
:104DE0000121034800F022F807B000BD000801408F
:104DF0000030014010B5044600BF02210A4800F00F
:104E000021F80028F9D02146074800F027F800BF14
:104E10000121054800F016F80028F9D0024800F0FA
:104E20001AF8C0B210BD00000030014021B1028864
:104E300042F04002028004E002884FF6BF731A403D
:104E4000028070470246002013890B4201D00120E6
:104E500000E00020704701468889704781817047D3
:104E600010B50022028802F441520B884C8823437B
:104E70008C882343CC8823430C8923434C892343C8
:104E80008C892343CC8923431A430280838B4FF2BE
:104E9000FF74234083830B8A038210BD7047017720
:104EA00070470000024A126842614160704700008A
:104EB0002C25002010B500F001F810BD0CB5002025
:104EC000019000903248006840F48030304908601A
:104ED00000BF2F48006800F4003000900198401C8B
:104EE0000190009818B90198B0F5A06FF1D1284849
:104EF000006810F4003F02D00120009001E0002083
:104F000000900098012842D12248006840F010002B
:104F1000204908600846006820F003000860084641
:104F2000006840F00200086019484068184948606D
:104F30000846406848600846406840F48060486021
:104F40000846406820F47C1048600846406840F4F9
:104F5000E81048600846006840F08070086000BFB4
:104F60000B48006810F0007FFAD00948406820F034
:104F70000300074948600846406840F00200486066
:104F800000BF0348406800F00C000828F9D10CBDB0
:104F9000001002400020024070470000024601203D
:104FA00001F10C0101F80C0C4FF0000001F80B0CA2
:104FB0000874487488744861087648768876C8769C
:104FC0004877A1F10C011163CA6203480068886048
:104FD0004FF00100704700002C25002000B503466B
:104FE0000021184600F002F800BD00000246012032
:104FF00002F10C0202F80C0C4FF0000002F80B0C4E
:105000001174507490745061107650769076D0760A
:105010005077A2F10C02D2621263034800689060DC
:105020004FF00100704700002C25002010B5FEF75E
:10503000EDF8FEF705F8FCF7D7FFFDF7C3FFFDF726
:1050400005F9FDF7CBF8FEF7F5FBFEF735FCFDF7AC
:10505000E1FBFDF721FCFDF787FCFDF755F9FFF7B4
:105060001FF9FFF7E3F8FDF7AFF9FDF773F9FDF767
:10507000DBFCFDF79FFCFDF711FDFDF77FFEFFF761
:105080009DF9FFF747F9FDF7F3FEFDF7CBFEFEF7BD
:1050900047FFFEF71FFFFDF741FCFDF70FF9FEF795
:1050A00065FFFDF731FBFDF7C9F9FEF747FCFEF799
:1050B000B3FDFEF711FAFEF787F9FEF757FEFDF78D
:1050C000FDFEFCF721FFFEF78FFCFCF721FDFEF74C
:1050D000B3FAFDF75FFD10BD12480068401C11498E
:1050E000086011480068401C0F4908600D480068BE
:1050F000B0F5FA7F15D300200A4908600B48007804
:1051000018B101200A49086003E001200849091F7D
:1051100008600648007808B9012000E00020034933
:1051200008707047002500202C250020FC2400205A
:105130001408014010B51348006840F001001149FF
:10514000086008464068104908400E494860084613
:1051500000680E4908400B4908600846006820F4C2
:10516000802008600846406820F4FE0048604FF444
:105170001F008860FFF79EFE4FF000600449086042
:1051800010BD0000001002400000FFF8FFFFF6FE17
:1051900008ED00E02DE9F0470027B846B946BA46C9
:1051A0000221480700F0C5FD18B1FD4D012600247D
:1051B0001CE00421080700F0BCFD18B1F94D0226DF
:1051C000012413E00821C80600F0B3FD18B1F64D24
:1051D000032602240AE01021880600F0AAFD18B177
:1051E000F24D0426032401E0BDE8F08704EBC4007F
:1051F000EF4901EBC000807830B304EBC40001EB51
:10520000C000406935F8108004EBC40001EBC00019
:10521000406B401C04EBC401E54A02EBC10148634A
:1052200004EBC400114601EBC000406BC8280AD94A
:10523000002004EBC40102EBC101887004EBC4013F
:1052400002EBC1014863BAE104EBC400D84901EBA9
:10525000C000007998B9012004EBC401D44A02EBE4
:10526000C10108710021304603F0B2FE04EBC40016
:10527000CF4901EBC000406935F810809FE1002064
:1052800004EBC401CA4A02EBC1010871012004EB1E
:10529000C40102EBC101C8700121304603F098FE41
:1052A00004EBC400C24901EBC000407958B904EBDB
:1052B000C40001EBC0008069401C04EBC401BC4A7F
:1052C00002EBC101886104EBC400B94911F8300058
:1052D000B849095D88420DD104EBC400B44901EB23
:1052E000C000806B401C04EBC401B14A02EBC10159
:1052F00088630CE004EBC400AD4901EBC000806B97
:10530000401E04EBC401AA4A02EBC101886304EB0E
:10531000C400A74901EBC0004078012815D104EB77
:10532000C40001EBC000806804EBC401A04A02EB9A
:10533000C101C860002004EBC40102EBC101886018
:1053400004EBC40102EBC101086104EBC4009849FD
:1053500001EBC000806828B304EBC40001EBC0007F
:10536000406935F8108004EBC40001EBC000806890
:10537000401E04EBC4018E4A02EBC101886004EBBD
:10538000C400114601EBC000806858B304EBC400B0
:1053900001EBC0004069401C04EBC40102EBC101F9
:1053A00048614CE004EBC400814901EBC000006996
:1053B000C8B104EBC40001EBC000406935F81080AF
:1053C00004EBC40001EBC000407958B904EBC40001
:1053D00001EBC0000069401E04EBC401744A02EBFB
:1053E000C10108612BE004EBC400714901EBC0006E
:1053F000C06820B304EBC40001EBC000406935F87D
:10540000108004EBC40001EBC000C068401E04EB38
:10541000C401674A02EBC101C86004EBC400114635
:1054200001EBC000406950B104EBC40001EBC000C7
:105430004069401E04EBC40102EBC101486104EB6A
:10544000C4005B4901EBC000C06828BB2CB9002236
:105450000221480700F07EFC16E0012C05D1002255
:105460000421080700F076FC0EE0022C05D1002292
:105470000821C80600F06EFC06E0032C04D10022CF
:105480001021880600F066FC002004EBC401484AA5
:1054900002EBC101C87092E004EBC400444901EB87
:1054A000C00090F83D00002879D0002004EBC40132
:1054B0003F4A02EBC10181F83D0004EBC4001146F4
:1054C00001EBC000806804EBC40102EBC101096973
:1054D000084404EBC40102EBC101C96800EB0109F7
:1054E00004EBC400114601EBC000406C04EBC401A6
:1054F00002EBC101496988420DD904EBC400114691
:1055000001EBC000406C04EBC40102EBC10149692E
:10551000A0EB010A0DE004EBC400254901EBC0003B
:10552000406904EBC401224A02EBC101496CA0EBC3
:10553000010A04EBC4001E4901EBC000406C50445A
:1055400048453CD204EBC40001EBC000C0F808A001
:1055500004EBC40001EBC000406C04EBC401144A2E
:1055600002EBC101C86004EBC400114601EBC000AE
:105570008068A9EB000004EBC40102EBC101C9681B
:10558000401A04EBC40102EBC101086104EBC40042
:10559000114601EBC000406C04EBC4010CE00EE0CE
:1055A000300100201805002000090020E80C002030
:1055B0007C550020E824002002EBC101086484B976
:1055C0000221480700F0A4FA4FF0804000F0A4FB4D
:1055D000074607EB080081B24FF0804000F01FFD46
:1055E00033E0012C0ED10421080700F091FAA00746
:1055F00000F095FB074607EB080081B2A00700F01A
:1056000010FD22E0022C0ED10821C80600F080FA1D
:10561000600700F087FB074607EB080081B26007D0
:1056200000F001FD11E0032C0FD11021880600F0DD
:105630006FFA4FF0804000F078FB074607EB080058
:1056400081B24FF0804000F0F0FC00BFCCE50000DC
:105650002DE9F0470027B846B946BA460221FD4871
:1056600000F067FB18B1FC4D052604241CE0042162
:10567000F84800F05EFB18B1F84D0626052413E04B
:105680000821F44800F055FB18B1F54D0726062413
:105690000AE01021EF4800F04CFB18B1F14D08264C
:1056A000072401E0BDE8F08704EBC400EE4901EBFC
:1056B000C000807830B304EBC40001EBC000406947
:1056C00035F8108004EBC40001EBC000406B401CB7
:1056D00004EBC401E44A02EBC101486304EBC400DB
:1056E000114601EBC000406BC8280AD9002004EB2A
:1056F000C40102EBC101887004EBC40102EBC101DB
:105700004863BDE104EBC400D74901EBC000007958
:1057100098B9012004EBC401D34A02EBC10108711E
:105720000021304603F054FC04EBC400CE4901EBE9
:10573000C000406935F81080A2E1002004EBC401EC
:10574000C94A02EBC1010871012004EBC40102EB5C
:10575000C101C8700121304603F03AFC04EBC400DB
:10576000C14901EBC000407958B904EBC40001EB1A
:10577000C0008069401C04EBC401BB4A02EBC101BC
:10578000886104EBC400B84911F83000B749095DDD
:1057900088420DD104EBC400B34901EBC000806B1B
:1057A000401C04EBC401B04A02EBC10188630CE069
:1057B00004EBC400AC4901EBC000806B401E04EB5D
:1057C000C401A94A02EBC101886304EBC400A649E5
:1057D00001EBC0004078012815D104EBC40001EBB7
:1057E000C000806804EBC4019F4A02EBC101C8609D
:1057F000002004EBC40102EBC101886004EBC4018A
:1058000002EBC101086104EBC400974901EBC00041
:10581000806828B304EBC40001EBC000406935F890
:10582000108004EBC40001EBC0008068401E04EB54
:10583000C4018D4A02EBC101886004EBC40011462B
:1058400001EBC000806858B304EBC40001EBC0005A
:105850004069401C04EBC40102EBC10148614CE00B
:1058600004EBC400804901EBC0000069C8B104EB3F
:10587000C40001EBC000406935F8108004EBC4009F
:1058800001EBC000407958B904EBC40001EBC00043
:105890000069401E04EBC401734A02EBC1010861B8
:1058A0002BE004EBC400704901EBC000C06820B3DA
:1058B00004EBC40001EBC000406935F8108004EB34
:1058C000C40001EBC000C068401E04EBC401664A7E
:1058D00002EBC101C86004EBC400114601EBC0003B
:1058E000406950B104EBC40001EBC0004069401EA8
:1058F00004EBC40102EBC101486104EBC4005A4946
:1059000001EBC000C06830BB042C05D1002202218D
:10591000504800F01FFA16E0052C05D100220421A2
:105920004C4800F017FA0EE0062C05D100220821A1
:10593000484800F00FFA06E0072C04D1002210219D
:10594000444800F007FA002004EBC401464A02EB89
:10595000C101C87094E004EBC400434901EBC000EE
:1059600090F83D00002874D0002004EBC4013E4AAA
:1059700002EBC10181F83D0004EBC400114601EBCC
:10598000C000806804EBC40102EBC101096908444E
:1059900004EBC40102EBC101C96800EB010904EB8F
:1059A000C400114601EBC000406C04EBC40102EBE3
:1059B000C101496988420DD904EBC400114601EBCD
:1059C000C000406C04EBC40102EBC1014969A0EBCB
:1059D000010A0DE004EBC400234901EBC00040695B
:1059E00004EBC401204A02EBC101496CA0EB010A9F
:1059F00004EBC4001C4901EBC000406C5044484516
:105A00003ED204EBC40001EBC000C0F808A004EBD8
:105A1000C40001EBC000406C04EBC401124A02EB6D
:105A2000C101C86004EBC400114601EBC0008068EE
:105A3000A9EB000004EBC40102EBC101C968401AE4
:105A400004EBC40102EBC101086104EBC400114680
:105A50000EE015E000040040B8140020A01800205B
:105A6000881C0020702000207C550020E8240020A5
:105A700001EBC000406C04EBC40102EBC1010864FF
:105A8000042C0ED10221214800F042F81F4800F0FA
:105A900043F9074607EB080081B21C4800F0BFFA43
:105AA00031E0052C0ED10421184800F031F81748D8
:105AB00000F035F9074607EB080081B2134800F003
:105AC000B0FA20E0062C0ED10821104800F020F892
:105AD0000E4800F027F9074607EB080081B20B4893
