:020000040801F1
:1000000018640020650101087D180108DD1401084D
:100010005D18010805030108694901080000000096
:10002000000000000000000000000000B1300108E6
:10003000BD09010800000000F1270108A1320108F4
:100040007F0101087F0101087F0101087F0101088C
:100050007F0101087F0101087F010108890F010864
:100060007F0101087F0101087F0101087F0101086C
:100070007F0101087F0101087F0101087F0101085C
:1000800055090108570901087F0101087F0101088E
:10009000674901087F0101087F0101089B0F0108E2
:1000A0007F0101087F0101087F0101087F0101082C
:1000B0005D330108193801087F0101087F0101083B
:1000C0007F0101087F0101087F0101087F0101080C
:1000D0007F0101087F0101081D4501087F0101081A
:1000E0007F0101087F0101085B4901087F010108C8
:1000F0007F0101087F0101087F0101087F010108DC
:100100007F0101087F0101087F0101087F010108CB
:100110009D4201087F0101087F0101087F0101085C
:100120007F0101087F0101087F0101087F010108AB
:10013000DFF80CD000F084F800480047D1650108D2
:1001400018640020EFF30980704780F30988704736
:10015000EFF30880704780F30888704740BA704713
:10016000C0BA70470648804706480047FEE7FEE7EA
:10017000FEE7FEE7FEE7FEE7FEE7FEE7FEE7FEE757
:10018000FD3201083101010840EA01039B0703D059
:1001900009E008C9121F08C0042AFAD203E011F8C6
:1001A000013B00F8013B521EF9D27047D2B201E088
:1001B00000F8012B491EFBD270470022F6E710B56C
:1001C00013460A4604461946FFF7F0FF204610BDC5
:1001D000421C10F8011B0029FBD1801A70472DE941
:1001E000F05F0546002092469B46884606468146BB
:1001F00040241BE0284641464746224600F041F88D
:1002000053465A46C01A914110D311461846224609
:1002100000F028F82D1A67EB01084F46224601200E
:10022000002100F01FF817EB00094E41201EA4F139
:100230000104DFDC484631462A464346BDE8F09FCC
:10024000064C074D06E0E06840F0010394E8070023
:1002500098471034AC42F6D3FFF76EFFF4730108F1
:1002600014740108202A04DB203A00FA02F100206D
:1002700070479140C2F1200320FA03F319439040E4
:100280007047202A04DB203A21FA02F0002170474F
:1002900021FA02F3D040C2F12002914008431946EE
:1002A000704770B58D1810F8014B14F0030201D19E
:1002B00010F8012B231106D110F8013B03E010F8D0
:1002C000016B01F8016B521EF9D1B3B110F8012B8B
:1002D00004F00C048A1A0C2C04D0A2EB841203F153
:1002E000020308E010F8014BA2EB0422F7E712F832
:1002F000014B01F8014B5B1EF9D5A942D3D3002075
:1003000070BD000002A004F041FB00BFFEE700004A
:100310004275734661756C745F48616E646C65729A
:10032000210A000030B503460848016800225869D8
:10033000081A72F1000400D200BF5869091A5C68FB
:100340008C4201D8012030BD0020FCE72C25002084
:100350002DE9F04106460027C6EBC60000EB800001
:10036000DFF83C8108EB001000F10C0191F88C00E3
:10037000402802D00320BDE8F0818D20405C402859
:1003800001D00420F7E78E20405C282801D005200A
:10039000F1E78F20405C412801D00720EBE7912056
:1003A000405CDFF8008188F800004046007810F0DB
:1003B000800F05D10020DFF8F08088F800000CE005
:1003C0000120DFF8E48088F800009120405C00F014
:1003D0007F00DFF8D08088F800009220435C32482C
:1003E000007838B923B10878984201D10120C2E7DA
:1003F0000B700CE023B18878984201D00B20BAE74B
:1004000091F89580487D804501D00C20B3E793207A
:10041000425C12029420405C024402F10B008860AE
:100420001AB140F2B550824201D90920A3E71E4813
:100430000078012806D191F89580487D804501D04B
:100440000C2098E702F1060C8F20475C012506E09E
:10045000E81C01F18C0818F8000047406D1C654548
:10046000F6D302F1090401F18C00005DB8420AD014
:1004700001F18C00005D2A2805D001F18C00005D9F
:1004800008B10A2077E701F18C0004F1010810F8A7
:100490000800292801D006206DE700206BE7000046
:1004A0002C390020D52500202600002070471CB5DF
:1004B0000121084602F05CFC0821062000F00EFF36
:1004C0000521022000F00AFF4FF4807000F08EFD3D
:1004D0004FF4007000F08AFD00208DF80400082021
:1004E0008DF805004FF49070009001208DF8060003
:1004F000684600F095FD1CBD00B597B001210802CB
:1005000002F006FC012140F2E11002F031FC4CF255
:100510000370ADF81C0018208DF81F0003208DF823
:100520001E0007A9504800F0F9FE4FF68070ADF8A4
:100530001C0007A94D4800F0F1FE7820ADF81C0022
:1005400007A94A4800F0EAFE4FF4C050ADF81C007D
:1005500007A9454800F0E2FE4FF23F00ADF81C004D
:1005600007A9434800F0DAFE3F20ADF81C0007A9B8
:10057000404800F0D3FE3020ADF81C0007A93A48EF
:1005800000F0CCFE4FF4A050ADF81C0007A939488C
:1005900000F0C4FE0320ADF81C0007A9334800F0AA
:1005A000BDFE0F200090052001900F20029000203A
:1005B00003900490052005900020069004200890E8
:1005C000002009900A900B900C900E900F901090C4
:1005D0004FF4805011900020129013901490CDF899
:1005E00054D0CDF858D008A800F008FE012104200E
:1005F00000F0EAFD05200090002001900520029007
:10060000002003900490059006900620089000209A
:1006100009900A9010200B9000200C900E900F90E3
:1006200010904FF480501190002012900D90139074
:100630001490CDF854D008A800F0E0FD05200090FB
:100640000020019005200290002003900490059066
:100650000690CDF858D008A800F0D0FD0121062062
:1006600000F0B2FD17B000BD0014014000180140B9
:10067000001C01400020014010B500F011F800F00E
:10068000C5F804200149086010BD0000100C0140AD
:1006900010B54FF48031C80201F036F910BD0000EA
:1006A00008B540F20370ADF8000003208DF8020099
:1006B00014208DF803006946314800F02FFE042015
:1006C000ADF8000003208DF8020010208DF8030023
:1006D00069462C4800F022FE4EF22300ADF80000DF
:1006E00003208DF8020010208DF80300694625488C
:1006F00000F014FE4EF21000ADF8000003208DF85B
:10070000020010208DF8030069461F4800F006FE25
:100710004FF49C50ADF8000003208DF80200142027
:100720008DF803006946184800F0F8FD0C20ADF87C
:10073000000003208DF8020014208DF803006946A4
:10074000124800F0EBFD4FF4F860ADF80000032014
:100750008DF8020010208DF8030069460C4800F067
:10076000DDFD4FF40060ADF8000003208DF80200BD
:1007700014208DF803006946054800F0CFFD08BD40
:1007800000080140000C014000100140001401402D
:10079000001C014010B50121042002F0E9FA0121FA
:1007A000082002F0E5FA0121102002F0E1FA01210F
:1007B000202002F0DDFA0121402002F0D9FA0121C7
:1007C000802002F0D5FA0121080202F0D1FA0121BD
:1007D000C80202F0CDFA0121084602F0A9FA01216F
:1007E000022002F0A5FA0121042002F0A1FA012161
:1007F000082002F09DFA0121202002F099FA012040
:1008000001F086FF002002F03DFB10BD08B54FF45B
:10081000C050ADF8000003208DF8020014208DF8C0
:1008200003006946234800F079FD4FF4DE50ADF82F
:10083000000003208DF8020014208DF803006946A3
:100840001D4800F06BFD4020ADF8000003208DF83E
:10085000020014208DF803006946184800F05EFD80
:100860004020ADF8000003208DF8020014208DF820
:1008700003006946124800F051FD7C20ADF80000ED
:1008800003208DF8020014208DF8030069460D48FE
:1008900000F044FD4EF6C030ADF8000003208DF8A6
:1008A000020014208DF803006946074800F036FD69
:1008B00008BD000000080140000C0140001001408C
:1008C00000140140001801400020014030B51648D6
:1008D00000684FF47A72B0FBF2F1B1F1807F01D37E
:1008E00001201DE021F07F40401E4FF0E0225061CA
:1008F00050170F22002807DA13071D0E0B4B00F0CC
:100900000F04241F1D5503E013071C0E084B1C5435
:1009100000BF00204FF0E02290610720106100200E
:1009200008B100BFFEE730BD0425002018ED00E04F
:1009300000E400E029B1064A52680243044B5A60C1
:1009400004E0034A52688243014B5A60704700003A
:10095000002004E070477047417890F827209142CA
:1009600006D090F8271080F82610417880F82710DC
:10097000002180F82410016AA1F57F42FF3A16D1C8
:10098000002180F8251001700B490968C160D0E989
:100990000221914206D2C16841F4803182688A1AEC
:1009A000026108E0D0E90221891A016103E0016ACD
:1009B00009B10121417770472C25002070470000C4
:1009C000C8203A4908606420486014208860FA20F2
:1009D000C8604FF4AF60086140F6C41048614FF43E
:1009E000487088610B20C8610C2008620D204862A5
:1009F0000B2088620C20C8620D2008630E2048631B
:100A00000F2088631020C8631120086412204864F6
:100A1000132088641420C8641520086516204865D2
:100A2000172088651820C865192008661A204866AE
:100A30001B2088661C20C8661D2008671E2048678A
:100A40001F2088672020C8672120C1F8800022204D
:100A5000C1F884002320C1F888002420C1F88C004C
:100A60002520C1F890002620C1F894002720C1F865
:100A700098002820C1F89C002920C1F8A0002A2055
:100A8000C1F8A4002B20C1F8A8002C20C1F8AC00AC
:100A90002D20C1F8B0002E20C1F8B4002F20C1F8DD
:100AA000B8003020C1F8BC0070470000705A002028
:100AB00070B505460026012D02D11148066803E0F5
:100AC000022D01D10F4806680F48407900F07F04DD
:100AD000C4EBC40101EB81010C4A02EB011101F1ED
:100AE000980032460849FFF74FFBC4EBC40000EB07
:100AF0008000064901EB00104661204670BD0000F1
:100B0000D000002008010020EC2500202C39002016
:100B10000346062106221248018812480288A3B122
:100B2000012B1AD132B9A1F56E40EE3800D17047D1
:100B30000120FCE739B9A2F56E40EE3801D1012061
:100B4000F5E70020F3E7AB20F1E709B90020EEE775
:100B50000AB90120EBE7AB20E9E70020E7E7000056
:100B600000F0070800F8070810B504240B4800F04F
:100B7000A1FA0446042C01D0204610BD00210748EC
:100B800000F0E2FA0446042C01D02046F5E70448C0
:100B900000F090FA04462046EFE7000000F0070856
:100BA00000F807082DE9F0474FF0060A0626002551
:100BB0000027A8464FF0FF397448B0F800A07448E9
:100BC00006885FEA0A0074D0A0F56E40EE382AD09D
:100BD000A0F5885011386DD146B96C4800F06AFA1A
:100BE0000446042C1ED02046BDE8F087A6F56E40D2
:100BF000EE3810D1654800F05DFA0446042C01D0AF
:100C00002046F1E70021624800F09EFA0446042CD9
:100C100008D02046E8E7FFF7A7FF0446042C01D0E0
:100C20002046E1E7AEE07EBB002522E05748C088C1
:100C3000584931F81510884201D10FFA85F94D4510
:100C400015D0544931F81500534900F021F9804678
:100C5000B8F1010F0BD04F4931F815004E49098802
:100C600000F048F90746042F01D03846BCE7681C5D
:100C700085B2C82DDADB0021444800F065FA04464D
:100C8000042C02D02046AFE707E0414800F012FAFA
:100C90000446042C1FD02046A6E7A6F57F40FF3867
:100CA00012D13B4800F006FA0446042C03D020463B
:100CB0009AE711E05EE00021344800F045FA04466E
:100CC000042C08D020468FE7FFF74EFF0446042C83
:100CD00001D0204688E755E036B9FFF745FF0446C6
:100CE000042C46D020467FE7A6F57F40FF3807D189
:100CF000274800F0DFF90446042C3AD0204673E779
:100D0000002523E02248801D0088224931F8151073
:100D1000884201D10FFA85F94D4515D01D4931F8AA
:100D200015001D4900F0B4F88046B8F1010F0BD052
:100D3000184931F815001849098800F0DBF8074612
:100D4000042F01D038464FE7681C85B2C82DD9DB87
:100D500000210F4800F0F8F90446042C01D0204689
:100D600042E70A4800F0A6F90446042C01D02046C8
:100D70003AE707E0FFF7F8FE0446042C01D02046CE
:100D800032E700BF00BF04202EE7000000F0070894
:100D900000F807080C5A0020F82400202DE9F84F2D
:100DA000074689460425DFF8D0A0344800904FF06C
:100DB0000008002400264FF0000B0020FFF7A8FEDB
:100DC0008046B8F1010F04D1DFF8B4A02D4800909F
:100DD0000AE0B8F1000F04D1DFF8A8A0284800907D
:100DE00002E0AB20BDE8F88F4EF6EE61504600F011
:100DF000ABF90546042D01D02846F3E749463846AD
:100E000000F078F80646042E01D03046EAE70024C8
:100E10001CE01D4830F81400B84215D01A4931F8CA
:100E200014001A4900F034F88346BBF1010F0BD0CF
:100E3000154931F814001549098800F05BF8064699
:100E4000042E01D03046CDE7601C84B2C82CE0DB14
:100E5000009800F02FF90546042D01D02846C1E77F
:100E60000021504600F070F90546042D01D02846B7
:100E7000B8E72846B6E70000FF03010800000108B4
:100E800000F0070800F807080C5A0020F82400209A
:100E90002DE9F04706460F46002445F255584FF01D
:100EA0000109124DAA460020FFF732FE0446AB2C82
:100EB00001D1BDE8F0870E4800EBC42A601C0C4944
:100EC000891E01EBC0250AE0B5F80080B04505D1C8
:100ED00035F8020C38804FF0000904E02D1F0AF1AC
:100EE00002008542F0D800BF4846E2E70000010852
:100EF00000F007082DE9F04706468846042700253C
:100F0000154CDFF858900120FFF702FE0546AB2D87
:100F100001D1BDE8F087124800EBC524681C1049D8
:100F2000891E01EBC02913E02068401C0FD1414607
:100F3000204600F009F90746042F01D03846E8E7BB
:100F40003146A01C00F000F907463846E1E7241DB1
:100F50004C45E9D38020DCE700000108FF070108C9
:100F600000F0070870B505460E46002431462846B5
:100F7000FFF7C0FF0446802C04D131462846FFF716
:100F80000DFF0446204670BD10B5022000F034F875
:100F900010B1022000F02AF810BD10B5202000F09A
:100FA0002BF810B1202000F021F8402000F024F8A8
:100FB00010B1402000F01AF8802000F01DF810B1A8
:100FC000802000F013F84FF4807000F015F818B18D
:100FD0004FF4807000F00AF84FF4007000F00CF845
:100FE00018B14FF4007000F001F810BD014908601D
:100FF0007047000014040140014600200022074B06
:101000001B6803EA0102054B14331B680B4202D034
:101010000AB1012000E000207047000000040140F8
:10102000002123498279002A3AD00A4612680368CF
:101030009A430B461A600A1D126803689A430B1DF7
:101040001A60027911440A6803681A430A60184A50
:101050000832126803689A43154B08331A601A1D48
:10106000126803689A43124B0C331A604279102AB3
:101070000ED11A1F126803681A430D4B08331A6009
:101080001A1D126803681A43094B0C331A600DE0ED
:101090000749427911440A6803681A430A6005E067
:1010A000027911440A6803689A430A607047000095
:1010B0000004014030B5044604254FF4302000F010
:1010C0006FF80546042D17D10C48006940F0020066
:1010D0000A49086108464461006940F0400008611F
:1010E0004FF4302000F05CF805460448006941F6F2
:1010F000FD71084001490861284630BD00200240CA
:1011000004200B49C96811F0010F01D001200EE045
:101110000749C96811F0040F01D0022007E0044913
:10112000C96811F0100F01D0032000E004207047BF
:10113000002002400348006940F080000149086136
:10114000704700000020024070B504460D4604269A
:10115000F00200F025F80646042E11D10948006976
:1011600040F00100074908612580F00200F018F8FE
:1011700006460448006941F6FE71084001490861CD
:10118000304670BD002002400248034948600348D1
:10119000486070472301674500200240AB89EFCDCE
:1011A00000B502460423FFF7ABFF034603E0FFF759
:1011B000A7FF0346521E012B01D1002AF7D102B925
:1011C0000523184600BD000051B14FF0204252F8EF
:1011D000202042F001024FF0204343F8202009E094
:1011E0004FF0204252F82020034B1A404FF020438A
:1011F00043F8202070470000FEFF0F00D0E90112E5
:101200001143C26811430269114342691143826963
:101210001143C2691143026A1143426A1143826A4F
:101220001143C26A1143026B11434FF0204302681D
:1012300043F822108168082908D11A46016852F83B
:10124000211041F04001026843F82210416B096807
:10125000426B526841EA0211426B926841EA0221F4
:10126000426B928941EA0241426B128A41EA025181
:10127000426B127D41EA0261426B9269114302683E
:10128000521C4FF0204343F82210C16AB1F5804F41
:101290001AD1816B0968826B526841EA0211826B34
:1012A000926841EA0221826B128A41EA0251826B02
:1012B000127D41EA0261826B92691143026803EB7D
:1012C0008202C2F8041108E06FF070414FF0204331
:1012D000026803EB8202C2F80411704730B50022A5
:1012E0008B071C0F0F2303FA04F20B4B8C1053F8DF
:1012F00024309343084C8D1044F8253023468C103D
:1013000053F824308C07240F00FA04F42343024CD2
:101310008D1044F8253030BD080001402DE9F04122
:10132000024600250026002000230024002791F813
:1013300003C00CF00F0591F803C01CF0100F03D090
:1013400091F802C04CEA050591F800C0BCF1000F0D
:1013500031D0146800202BE04FF0010C0CFA00F3A0
:10136000B1F800C00CEA03069E4220D183004FF082
:101370000F0C0CFA03F7BC4305FA03FC4CEA040417
:1013800091F803C0BCF1280F06D14FF0010C0CFA04
:1013900000FCC2F814C00AE091F803C0BCF1480F89
:1013A00005D14FF0010C0CFA00FCC2F810C0401C33
:1013B0000828D1D31460B1F800C0BCF1FF0F34DDB0
:1013C000546800202EE000F1080C4FF0010808FAE4
:1013D0000CF3B1F800C00CEA03069E4221D1830051
:1013E0004FF00F0C0CFA03F7BC4305FA03FC4CEA70
:1013F000040491F803C0BCF1280F05D100F1080CDA
:1014000008FA0CF8C2F8148091F803C0BCF1480F38
:1014100007D100F1080C4FF0010808FA0CF8C2F8E7
:101420001080401C0828CED35460BDE8F081000035
:10143000F0B50A46002300240021002500F00046F4
:10144000B6F1004F02D11D4EF16901E01B4E7168EB
:10145000C0F3034583B200F44016B6F5401F08D12F
:1014600021F07061154E766826F07066134F7E602D
:1014700012E000F48016B6F5801F06D1032606FAA6
:1014800005F4A14341F0706106E0460D360103FA10
:1014900006F6B14341F0706122B1460D360103FA00
:1014A00006F6314300F00046B6F1004F02D1034E7C
:1014B000F16101E0014E7160F0BD000000000140EB
:1014C0000246002093680B4201D0012000E000207A
:1014D0007047416170470161704770470348006879
:1014E00010F0010F00D000BE00BFFEE7F0ED00E0FD
:1014F00010B5FFF701F8FFF74DF9FFF7BDF8FFF75B
:10150000E5F910BD10B5FEF7D1FFFEF7D0FFFFF7EC
:10151000BFF810BD002300F10C0000F80C3C00F8EF
:101520000B3C037443748374037643768376C376EB
:10153000437701774261A0F10C00C06200637047FD
:1015400010B56449644802780078401C624B1870FA
:10155000624840F822106249184602780078401C20
:1015600018705E4840F822105E49184602780078EC
:10157000401C1870594840F822105B491846027800
:101580000078401C1870554840F82210574A1846F9
:1015900001780078401C1870504840F82120544AC7
:1015A000184601780078401C18704C4840F82120FB
:1015B0005049184602780078401C1870474840F897
:1015C00022104D4A184601780078401C1870434894
:1015D00040F821204949184602780078401C1870CC
:1015E0003E4840F82210464A184601780078401CD0
:1015F00018703A4840F8212042491846027800788D
:10160000401C1870354840F822103F4918460278AF
:101610000078401C1870314840F822103B4A1846A8
:1016200001780078401C18702C4840F82120384977
:10163000184602780078401C1870284840F822109C
:10164000344A184601780078401C1870234840F846
:1016500021203149184602780078401C18701F4834
:1016600040F822102D4A184601780078401C187066
:101670001A4840F821202A4A184601780078401C70
:101680001870164840F8212026491846027800783C
:10169000401C1870114840F822102349184602785F
:1016A0000078401C18700D4840F82210012409E011
:1016B0000A4951F824004FF6FE722146FFF72AFF2F
:1016C000601CC4B2044800788442F1DB052117484D
:1016D000C16610BD3C5B0020E12500204C5F00206E
:1016E000705B0020A45B0020D85B00200C5C002015
:1016F000405C0020745C0020A85C0020DC5C0020C2
:10170000105D0020445D0020785D0020AC5D00206D
:10171000E05D0020145E0020485E00207C5E00201A
:10172000B05E0020E45E0020185F00200855002015
:101730000246086AA0F57F43FF3B02D112630120F5
:101740007047086A58B1012082F829001163086ABD
:10175000106291F8250082F825000020F0E70020B3
:10176000EEE700000146481E00EBC000044A02EB11
:10177000C000C07808B9012070470020FCE70000D5
:1017800008550020F0B591B00446402101A8FEF7AD
:1017900014FD20680F4900EA0107B7F1005F0ED180
:1017A0003A460DA101A803F001F901A803F0EEF8F3
:1017B000666835462068FEF7CEFCA84707E03A4643
:1017C0000BA101A803F0F2F801A803F0DFF811B0B3
:1017D000F0BD00000000FF2F4F4B2C5B5374616382
:1017E0006B546F703D307825785D210A0000000051
:1017F0004661696C2C5B537461636B546F703D3050
:101800007825785D210A000010B5FFF793FC03A04E
:1018100003F0BCF80548FFF7B5FF10BD4A756D70C1
:1018200020546F20415050210A00000000000108A0
:1018300010B504A003F0AAF84FF00060FFF7A2FF74
:1018400010BD00004A756D7020546F20426F6F7498
:101850004C6F61646572210A0000000002A003F071
:1018600095F800BFFEE700004D656D4D616E616744
:10187000655F48616E646C6572210A007047000004
:1018800070B5002100230F22C4780CB3164C2468D5
:1018900004F4E064C4F5E064210AC1F10403CA4021
:1018A000447804FA03F184781440214309010F4C71
:1018B0000678A155047804F01F050124AC40057892
:1018C0006D114FF0E02606EB8505C5F8004109E0F3
:1018D000047804F01F050124AC40054D067876110C
:1018E00045F8264070BD00000CED00E000E400E08B
:1018F00080E100E002490143024A116070470000A4
:101900000000FA050CED00E0024A0A400243024BD7
:101910001A60704780FFFF1F08ED00E0002181770B
:101920007047000010B5334C207810B1607F01285B
:1019300000D110BD6078042826D003DC38B103281C
:1019400050D107E005283FD0FF284BD146E00320C7
:10195000607048E028480078022803D026480078C4
:1019600003280AD125484FF4FA53002102680120C8
:1019700005F0F6F90420607005E0052244F62561C3
:10198000204601F096FB2EE0052004F009FE60B130
:10199000012005F0EDFB1948436900210268012090
:1019A00005F0DEF9052060700DE00120FFF7DAFE9A
:1019B00048B10021012005F061FB052244F62661B3
:1019C000204601F076FB0EE00120FFF7CBFE20B1B0
:1019D000012009490870FF20607004E04FF6FF7095
:1019E000206200E000BF00BF2046FEF7B5FF00BF49
:1019F0009FE70000D85B0020E4250020705A0020FB
:101A000010B5114C207810B1607F012800D110BDB5
:101A1000607820B1012805D002280ED109E001200C
:101A200060700BE00021082003F02EFD02206070A2
:101A300004E04FF6FF70206200E000BF00BF2046C8
:101A4000FEF78AFF00BFE2E7785D002010B52B4C5F
:101A5000207810B1607F012800D110BD607830B1CE
:101A6000012807D002281BD003283FD124E0012001
:101A700060703CE00D2004F093FD68B90C2004F088
:101A80008FFD10B10220607009E0052242F218714A
:101A9000204601F00EFB02E04FF6FF70206226E0C8
:101AA0000121062003F0F0FC4FF4FA61204601F01A
:101AB00009FB032060701AE00D2004F071FD18B1DD
:101AC0004FF6FF70206210E02046FEF72BFC60B15D
:101AD00094F82400012802D10220607005E005225C
:101AE00042F21971204601F0E4FA00E000BF00BFA5
:101AF0002046FEF731FF00BFAFE70000745C002016
:101B000010B5184C207810B1607F012800D110BDAD
:101B1000607830B1012807D0032811D0FF281AD1EE
:101B200015E00120607016E00121062003F0ACFCF6
:101B30004FF4FA61204601F0C5FA022060700AE015
:101B40002046FEF7EFFB08B1FF20607003E04FF680
:101B5000FF70206200BF00BF2046FEF7FDFE00BF01
:101B6000D5E700007C5E002010B52B4C207810B12A
:101B7000607F012800D110BD607830B1012807D006
:101B800002281BD003283FD124E0012060703CE0F4
:101B90000C2004F005FD68B90D2004F001FD10B122
:101BA0000220607009E0052242F21871204601F01F
:101BB00080FA02E04FF6FF70206226E00021062046
:101BC00003F062FC4FF4FA61204601F07BFA032037
:101BD00060701AE00C2004F0E3FC18B14FF6FF70BF
:101BE000206210E02046FEF79DFB60B194F82400CF
:101BF000012802D10220607005E0052242F21A712C
:101C0000204601F056FA00E000BF00BF2046FEF774
:101C1000A3FE00BFAFE70000A85C002010B5324C67
:101C2000207810B1607F012800D110BD60780528B0
:101C300030D005DC50D2DFE800F00C0F161E250076
:101C400006282ED0072834D0082839D0FF2843D1C1
:101C50003EE00120607040E02449204601F0AEFAE9
:101C60000220607039E021492046FFF761FD08B18C
:101C70000320607031E01E49204601F09FFA0420E5
:101C800060702AE01A492046FFF752FD08B105208E
:101C9000607022E01749204601F090FA062060703B
:101CA0001BE014492046FFF743FD08B10720607090
:101CB00013E01149204601F081FA082060700CE021
:101CC0000D492046FFF734FD08B1FF20607004E0A5
:101CD0004FF6FF70206200E000BF00BF2046FEF715
:101CE0003BFE00BFA1E70000E45E0020B05E0020E4
:101CF000DC5C0020105D0020185F002010B5194C3E
:101D0000207810B1607F012800D110BD607830B11B
:101D1000012807D0022812D0FF281BD116E001208D
:101D2000607018E01048806900F5C8630E48012112
:101D30000268084605F014F8022060700BE00120EC
:101D4000FFF710FD08B1FF20607004E04FF6FF7050
:101D5000206200E000BF00BF2046FEF7FDFD00BF8F
:101D6000D3E70000185F0020705A002010B52D4CFA
:101D7000207810B1607F012800D110BD6078032861
:101D80002DD005DC58B101280CD0022843D118E031
:101D900004282BD0052833D0FF283CD137E0012080
:101DA000607039E0052004F0FBFB48B91E484FF491
:101DB000FA5300210268012004F0D2FF0220607073
:101DC0002AE0052004F0ECFB40B1012005F0D0F939
:101DD0006421204601F076F9032060701CE0204663
:101DE000FEF7A0FA08B10420607015E00E48836980
:101DF00001210268084604F0B3FF052060700BE083
:101E00000120FFF7AFFC08B1FF20607004E04FF63F
:101E1000FF70206200E000BF00BF2046FEF79CFD7F
:101E200000BFAAE7B05E0020705A002010B5644CD5
:101E3000207810B1607F012800D110BD607808289B
:101E40006AD006DC6FD2DFE800F015181F272E3F9E
:101E50004F5A0C2868D006DC092866D00A286BD0B7
:101E60000B2860D170E00D2875D00E2874D0FF28A3
:101E7000F7D19AE0012060709CE05249204601F0C1
:101E80009DF90220607095E04E492046FFF750FC16
:101E900008B1032060708DE04B49204601F08EF9B7
:101EA0000420607086E048492046FFF741FC50B1AD
:101EB000464840684FF4FA7200FB02F1204601F0F8
:101EC00001F90520607075E02046FEF72BFA50B14D
:101ED000062060703D4840684FF4FA7200FB02F142
:101EE000204601F0EFF865E02046FEF71BFA28B126
:101EF0003749204601F062F9072060705AE0344902
:101F00002046FFF715FC30B1082060704FF4FA71DD
:101F1000204601F0D7F84DE02046FEF703FA08B15D
:101F20000920607046E044E017E02A49204601F0AD
:101F300045F90A2060703DE026492046FFF7F8FB8E
:101F400008B10B20607035E02349204601F036F9D6
:101F50000C2060702EE011E01BE01F492046FFF7C7
:101F6000E7FB50B1194880684FF47A7200FB02F128
:101F7000204601F0A7F80D2060701BE02046FEF718
:101F8000D1F928B11549204601F018F90E206070EA
:101F900010E012492046FFF7CBFB28B1104920463C
:101FA00001F00CF9FF20607004E04FF6FF70206232
:101FB00000E000BF00BF2046FEF7CEFC00BF3CE7BC
:101FC000AC5D0020705B00200C5C0020705A00208B
:101FD000405C0020A45B0020745C0020A85C002012
:101FE000D85B002010B5184C207810B1607F012814
:101FF00000D110BD607830B1012807D0032811D07E
:10200000FF281AD115E00120607016E0002106209B
:1020100003F03AFA4FF4FA61204601F053F8022037
:1020200060700AE02046FEF77DF908B1FF2060707D
:1020300003E04FF6FF70206200BF00BF2046FEF7AE
:102040008BFC00BFD5E70000485E002010B5114CA6
:10205000207810B1607F012800D110BD607820B1D8
:10206000012805D002280ED109E0012060700BE0A4
:102070000121082003F008FA0220607004E04FF606
:10208000FF70206200E000BF00BF2046FEF764FC46
:1020900000BFE2E7445D002010B52B4C207810B162
:1020A000607F012800D110BD607830B1012807D0D1
:1020B00002281BD003283FD124E0012060703CE0BF
:1020C0000E2004F06DFA68B90F2004F069FA10B11F
:1020D0000220607009E0052242F21B71204600F0E8
:1020E000E8FF02E04FF6FF70206226E001210720A2
:1020F00003F0CAF94FF4FA61204600F0E3FF032031
:1021000060701AE00E2004F04BFA18B14FF6FF7021
:10211000206210E02046FEF705F960B194F8240033
:10212000012802D10220607005E0052242F21C71F4
:10213000204600F0BEFF00E000BF00BF2046FEF7D3
:102140000BFC00BFAFE70000DC5C002010B52B4C9F
:10215000207810B1607F012800D110BD607830B1C7
:10216000012807D002281BD003283FD124E00120FA
:1021700060703CE00F2004F013FA68B90E2004F000
:102180000FFA10B10220607009E0052242F21B71C3
:10219000204600F08EFF02E04FF6FF70206226E03E
:1021A0000021072003F070F94FF4FA61204600F097
:1021B00089FF032060701AE00F2004F0F1F918B1D4
:1021C0004FF6FF70206210E02046FEF7ABF860B1DA
:1021D00094F82400012802D10220607005E0052255
:1021E00042F21D71204600F064FF00E000BF00BF16
:1021F0002046FEF7B1FB00BFAFE70000105D0020F6
:1022000010B54D4C207810B1607F012800D110BD71
:10221000607804285FD007DC78B1012810D002284C
:102220002FD0032872D14BE005285BD0062863D05D
:1022300007286DD0FF2877D172E00120607074E02C
:102240003E480078022803D03C480078032806D195
:102250003B49204600F0B2FF0720607010E00520E7
:1022600004F09EF950B9374840F6B83301210268AE
:10227000084604F075FD0220607001E005206070E2
:1022800053E0052004F08CF960B1012004F070FFE8
:102290002C48C36801210268084604F061FD032050
:1022A00060700CE00120FFF75DFA40B1012004F0FE
:1022B0005FFF042244F62161204600F0FAFE34E07C
:1022C0000120FFF74FFA28B16421204600F0FAFE02
:1022D0000420607029E02046FEF724F808B10520AC
:1022E000607022E01748436900210268012004F071
:1022F00037FD0620607018E00120FFF733FA20B1A7
:1023000001200E490870FF2060700EE00CE0FFE72E
:102310000B492046FFF70CFA08B1FF20607004E07B
:102320004FF6FF70206200E000BF00BF2046FEF7BE
:1023300013FB00BF6BE700003C5B0020E42500209E
:10234000D85B0020705A002010B52B4C207810B1BB
:10235000607F012800D110BD6078022824D003DC02
:1023600038B1012840D107E003282FD0FF283BD106
:1023700036E00120607038E020480078012806D15E
:102380001F49204600F01AFF022060700BE01B4836
:102390000078022801D1607005E0052244F624612E
:1023A000204600F086FE20E015492046FFF7C0F9E0
:1023B00058B11448006900F5FA6312480121026817
:1023C000084604F0CDFC032060700EE00120FFF70A
:1023D000C9F920B1032009490870FF20607004E0AA
:1023E0004FF6FF70206200E000BF00BF2046FEF7FE
:1023F000B3FA00BFAFE70000A45B0020E425002093
:10240000705B0020705A002010B5304C207810B15D
:10241000607F012800D110BD6078022822D003DC43
:1024200038B101284BD107E003283AD0FF2846D124
:1024300041E00120607043E02548007801280AD17E
:10244000244841F2883301210268084604F088FCE0
:102450000220607005E0052244F62261204600F06B
:1024600028FE2DE0052004F09BF860B1012004F067
:102470007FFE1848C36801210268084604F070FC1A
:10248000032060700CE00120FFF76CF940B10120DF
:1024900004F06EFE042244F62361204600F009FE9B
:1024A0000EE00120FFF75EF920B102200849087014
:1024B000FF20607004E04FF6FF70206200E000BF74
:1024C00000BF2046FEF748FA00BFA4E7705B00207B
:1024D000E4250020705A002010B52B4C207810B154
:1024E000607F012800D110BD607830B1012807D08D
:1024F00002281BD003283FD124E0012060703CE07B
:102500000B2004F04DF868B90A2004F049F810B126
:102510000220607009E0052242F21571204600F0A9
:10252000C8FD02E04FF6FF70206226E00121052081
:1025300002F0AAFF4FF4FA61204600F0C3FD032029
:1025400060701AE00B2004F02BF818B14FF6FF7002
:10255000206210E02046FDF7E5FE60B194F824000B
:10256000012802D10220607005E0052242F21671B6
:10257000204600F09EFD00E000BF00BF2046FEF7B1
:10258000EBF900BFAFE700000C5C002010B5184C61
:10259000207810B1607F012800D110BD607830B183
:1025A000012807D0032811D0FF281AD115E00120F7
:1025B000607016E00121052002F066FF4FF4FA6119
:1025C000204600F07FFD022060700AE02046FDF703
:1025D000A9FE08B1FF20607003E04FF6FF70206293
:1025E00000BF00BF2046FEF7B7F900BFD5E70000E7
:1025F000145E002010B5184C207810B1607F0128BF
:1026000000D110BD607830B1012807D0032811D067
:10261000FF281AD115E00120607016E00021052086
:1026200002F032FF4FF4FA61204600F04BFD022029
:1026300060700AE02046FDF775FE08B1FF2060706B
:1026400003E04FF6FF70206200BF00BF2046FEF798
:1026500083F900BFD5E70000E05D002010B52B4CEA
:10266000207810B1607F012800D110BD607830B1B2
:10267000012807D002281BD003283FD124E00120E5
:1026800060703CE00A2003F08BFF68B90B2003F078
:1026900087FF10B10220607009E0052242F2157137
:1026A000204600F006FD02E04FF6FF70206226E0B3
:1026B0000021052002F0E8FE4FF4FA61204600F008
:1026C00001FD032060701AE00A2003F069FF18B1D1
:1026D0004FF6FF70206210E02046FDF723FE60B148
:1026E00094F82400012802D10220607005E0052240
:1026F00042F21671204600F0DCFC00E000BF00BF93
:102700002046FEF729F900BFAFE70000405C00203B
:10271000014908627047000000000E422DE9F05F99
:1027200080460F4691461D464FF0000B0026B246EC
:10273000C7EBC70000EB80002B4901EB001000F154
:102740000C04802104F10C00FDF737FD40202073BC
:10275000402161732821A1734121E1732774B8F1ED
:10276000000F07D02148007840F080016174217883
:10277000A1740EE01D4801786174A078FF2801D192
:10278000012060706178A1746078A0706078401C4E
:102790006070290AE1742575002607E006F109003A
:1027A00019F8002004F10C010A54761CAE42F5D34E
:1027B00094F80FA0012606E0F01C04F10C01085C5F
:1027C00080EA0A0A761CA81D8642F5D3C01C04F1D3
:1027D0000C0101F800A02922401C0A5405F10B0B42
:1027E0005846BDE8F09F00002C390020D425002079
:1027F0007047000070B5002546480078002870D06A
:102800000020444908704448407A632823DC4FF490
:10281000007241494148FDF7B7FC3F48807A3E4984
:10282000C97A083188403C49497A3D4A52F821101A
:1028300088613949497A52F8210000F0DFFC18B16B
:10284000E0203849887202E0E12036498872012090
:102850003549086026E03048407A642819D14FF4A1
:1028600000722D49491C2D48FDF78EFC2A49897AB2
:102870002B4A52F8210000F0C1FC18B1E020294990
:10288000887202E0E1202749887201202649086009
:1028900008E02148407AC82802DB00F04DF801E04A
:1028A00000F0A8F940201F4908704870282088705F
:1028B0004120C8701D48007808711D480078487193
:1028C0001C480078887118480088401C000AC871AC
:1028D00015480078401C08720F48407A487200245E
:1028E00006E015E0E01C0F49085C4540601CC4B2DE
:1028F0000D480068C01D8442F4D30B4800680A30BC
:1029000008490D542921084800680B30054A115424
:1029100070BD000014000020EC2500202C370020A2
:102920004C5F0020AC2B002018000020D525002093
:10293000D42500202400002070B500249E48407A51
:10294000D1287BD00BDCA0F1C5000C286CD2DFE8CD
:1029500000F01F6B6B1B29353E43485C616CD62829
:1029600075D008DCD22879D0D3287CD0D42871D077
:10297000D52859D1B3E0D7286DD0D8286CD0FE28FF
:102980006BD0FF28F5D10CE14FF00060804710E1DB
:102990008AA001F0FBFFFD20904988720120904938
:1029A000086006E1844AD17A907A02F06DFDE02059
:1029B0008A49887201208A490860FAE004F052FCD2
:1029C000E02086498872012085490860F1E002F024
:1029D000E9FA83490860ECE002F07EFA8049086079
:1029E000E7E0804800787D4988727E480088000AC8
:1029F000C8727C480068000C08737A480068000EB2
:102A00004873042076490860D3E003F0C5F974499F
:102A10000860CEE004F06CF9E02070498872012073
:102A20006F490860C5E009E0C2E0FEF756FDE0200E
:102A30006A49887201206A490860BAE000F0BCFB6C
:102A4000E02066498872012065490860B1E056E0DF
:102A500004E008E025E061E06EE07CE002F01AFBB3
:102A60005F490860A5E0012410E05F4850F82400A9
:102A7000066AC6F30720082101EB4401574A505467
:102A8000092101EB44015654601CC4B25748007838
:102A90008442EADB55480078401E400050490860F7
:102AA00087E0012410E0504850F824000569C5F380
:102AB0000720082101EB4401484A5054092101EB49
:102AC00044015554601CC4B2484800788442EADB93
:102AD00046480078401E40004149086069E0364A97
:102AE000D17A927A404B53F8220000F01BFA10B1D1
:102AF000E0203A49887201203949086059E02E4A9D
:102B0000D17A927A384B53F8220000F07FFBE02014
:102B1000324988720120324908604AE02649897AA0
:102B2000314A52F82100FEF7F9FEE0202B49887265
:102B300001202B4908603CE01F4AD17A927A2A4B47
:102B400053F8220000F0BCFAE020244988720120EA
:102B5000234908602DE01848807A4D280FD10024C1
:102B600005E01549601C085C0855601CC4B220488B
:102B700000680C308442F4D3FFF7DEFE10E00E480C
:102B8000807A532806D1E020144988720120144924
:102B9000086005E0E02011498872012010490860B2
:102BA00007E0E0200D49887201200D49086000E02F
:102BB00000BF00BF70BD0000EC250020506C6561B7
:102BC000736520676F20746F20426F6F746C6F6144
:102BD000646572204669727374210A00AC2B002070
:102BE000180000201C2500204C5F0020E12500205B
:102BF0002C00002010B500243F48407A822847D09E
:102C00000CDC6F282FD004DC642822D06E286FD112
:102C100022E071282ED072286AD132E0832847D072
:102C200084285FD0C62802D0C72861D108E0FEF70B
:102C3000EBFDE0203149887201203149086058E0FD
:102C4000FEF7F6FDE0202D49887201202C4908602E
:102C50004FE000F031F94CE0E02028498872012073
:102C60002749086045E0E020244988720120244972
:102C700008603EE0E0202149887201202049086078
:102C800037E0E0201D49887201201D49086030E0CE
:102C9000002407E01B48015D04F10A00174A1154A3
:102CA000601CC4B20A2CF5DB0A201549086020E03C
:102CB0001148807A012806D1134800780F4988729C
:102CC0000020114908700C48807A022806D10F486C
:102CD00000780A49887200200C49087001200849D0
:102CE000086006E002F09EF90549086001E0FFE790
:102CF00000BF00BF10BD0000EC250020AC2B002061
:102D000018000020305B0020E2250020E325002091
:102D100029B1064A52690243044B5A6104E0034A4E
:102D200052698243014B5A61704700000010024013
:102D300029B1064AD2690243044BDA6104E0034A2E
:102D4000D2698243014BDA617047000000100240F3
:102D500029B1064A12690243044B1A6104E0034A8E
:102D600012698243014B1A61704700000010024053
:102D700029B1064A92690243044B9A6104E0034A6E
:102D800092698243014B9A61704700000010024033
:102D900029B1064AD2680243044BDA6004E0034AD0
:102DA000D2688243014BDA60704700000010024095
:102DB00030B500210022002400232D4D6D6805F060
:102DC0000C0121B1042905D0082923D105E0294DA2
:102DD000056022E0274D05601FE0254D6D6805F474
:102DE0007012234D6D6805F48034022505EB924284
:102DF0001CB9214D554305600BE01D4D6D6815F460
:102E0000003F03D01C4D5543056002E0194D55436A
:102E1000056002E0174D056000BF00BF144D6D68EE
:102E200005F0F0010909154D6B5C0568DD40456052
:102E30000F4D6D6805F4E061090A104D6B5C456843
:102E4000DD4085600A4D6D6805F46051C90A0B4D7F
:102E50006B5C4568DD40C560054D6D6805F440411B
:102E6000890B074D6B5CC568B5FBF3F5056130BD9B
:102E70000010024000127A0000093D00000000200E
:102E80001000002000210A4A11700A4A82F820101E
:102E9000012802D0042808D103E00121044A11705E
:102EA00004E00521024A117000E000BF00BF704736
:102EB000201002400010024010B5022409E016491B
:102EC00051F824004FF6FF722146FEF723FB601CE9
:102ED000C4B2124800788442F1DB012405E00021ED
:102EE000204602F0D1FA601CC4B20C2CF7DD01249C
:102EF0000FE0204604F03CF90121204604F0BEF822
:102F0000002004EBC401064A02EBC1014871601CB9
:102F1000C4B2082CEDDD10BD4C5F0020E12500207F
:102F20000855002010B502460B460120107082F8AB
:102F30002430002082F825001146086AA0F57F445D
:102F4000FF3C01D0002008620020487709E0C96AF0
:102F5000086AA0F57F44FF3C01D0002008620020F1
:102F60004877C86A8842F2D1012010BD00B587B009
:102F7000012141F20400FFF7FBFEE020ADF8040060
:102F800001208DF8060018208DF8070001A91C48C3
:102F9000FEF7C4F91020ADF8040001208DF80600FA
:102FA00010208DF8070001A91548FEF7B7F9102188
:102FB0001348FEF790FA0020ADF808004FF4827035
:102FC000ADF80A000020ADF80C00ADF80E00ADF829
:102FD00010004FF40070ADF812001020ADF814008E
:102FE0000020ADF816000720ADF8180002A905482A
:102FF00000F040F80121034800F022F807B000BDBE
:10300000000801400030014010B5044600BF022115
:103010000A4800F021F80028F9D02146074800F0BE
:1030200027F800BF0121054800F016F80028F9D064
:10303000024800F01AF8C0B210BD00000030014094
:1030400021B1028842F04002028004E002884FF67B
:10305000BF731A40028070470246002013890B425A
:1030600001D0012000E000207047014688897047A8
:103070008181704710B50022028802F441520B880A
:103080004C8823438C882343CC8823430C892343D7
:103090004C8923438C892343CC8923431A430280E0
:1030A000838B4FF2FF74234083830B8A038210BD0E
:1030B0007047012380F82930016280F8252070478D
:1030C00001777047024A1268426141607047000010
:1030D0002C25002010B500F001F810BD0CB5002023
:1030E000019000903248006840F480303049086018
:1030F00000BF2F48006800F4003000900198401C89
:103100000190009818B90198B0F5A06FF1D1284846
:10311000006810F4003F02D00120009001E0002080
:1031200000900098012842D12248006840F0100029
:10313000204908600846006820F00300086008463F
:10314000006840F00200086019484068184948606B
:103150000846406848600846406840F4806048601F
:103160000846406820F47C1048600846406840F4F7
:10317000E81048600846006840F08070086000BFB2
:103180000B48006810F0007FFAD00948406820F032
:103190000300074948600846406840F00200486064
:1031A00000BF0348406800F00C000828F9D10CBDAE
:1031B000001002400020024070470000024601203B
:1031C00001F10C0101F80C0C4FF0000001F80B0CA0
:1031D0000874487488744861087648768876C8769A
:1031E0004877A1F10C011163CA6203480068886046
:1031F0004FF00100704700002C25002000B5034669
:103200000021184600F002F800BD0000024601202F
:1032100002F10C0202F80C0C4FF0000002F80B0C4B
:103220001174507490745061107650769076D07608
:103230005077A2F10C02D2621263034800689060DA
:103240004FF00100704700002C25002010B5FEF75C
:10325000D7FFFFF7D9F8FFF777F8FEF763FBFFF723
:10326000FDF9FFF739F9FEF77FFCFEF7EFFBFEF7FC
:103270006DFFFEF711FFFEF7E9FEFEF7C1FBFEF75B
:10328000D5FDFFF7B7F9FFF781F9FEF7ABFEFEF7C3
:1032900037FCFEF76BFDFEF7C1FCFEF72FFD10BDFE
:1032A00012480068401C1149086011480068401C21
:1032B0000F4908600D480068B0F5FA7F15D300206B
:1032C0000A4908600B48007818B101200A490860D3
:1032D00003E001200849091F08600648007808B982
:1032E000012000E0002003490870704700250020FD
:1032F0002C250020FC2400201408014010B51348A0
:10330000006840F001001149086008464068104913
:1033100008400E494860084600680E4908400B49BD
:1033200008600846006820F480200860084640686D
:1033300020F4FE0048604FF41F008860FFF7CAFECB
:103340004FF000600449086010BD0000001002400A
:103350000000FFF8FFFFF6FE08ED00E02DE9F04762
:103360000027B846B946BA460221480700F0C5FD15
:1033700018B1FD4D012600241CE00421080700F0CF
:10338000BCFD18B1F94D0226012413E00821C8063E
:1033900000F0B3FD18B1F64D032602240AE0102117
:1033A000880600F0AAFD18B1F24D0426032401E0BE
:1033B000BDE8F08704EBC400EF4901EBC000807862
:1033C00030B304EBC40001EBC000406935F8108055
:1033D00004EBC40001EBC000406B401C04EBC401D3
:1033E000E54A02EBC101486304EBC400114601EB5E
:1033F000C000406BC8280AD9002004EBC40102EBCE
:10340000C101887004EBC40102EBC1014863BAE159
:1034100004EBC400D84901EBC000007998B9012041
:1034200004EBC401D44A02EBC1010871002130460B
:1034300003F070FE04EBC400CF4901EBC00040690B
:1034400035F810809FE1002004EBC401CA4A02EB6A
:10345000C1010871012004EBC40102EBC101C87075
:103460000121304603F056FE04EBC400C24901EBD3
:10347000C000407958B904EBC40001EBC00080697A
:10348000401C04EBC401BC4A02EBC101886104EB9F
:10349000C400B94911F83000B849095D88420DD11E
:1034A00004EBC400B44901EBC000806B401C04EB8A
:1034B000C401B14A02EBC10188630CE004EBC40013
:1034C000AD4901EBC000806B401E04EBC401AA4A69
:1034D00002EBC101886304EBC400A74901EBC00003
:1034E0004078012815D104EBC40001EBC0008068CE
:1034F00004EBC401A04A02EBC101C860002004EB48
:10350000C40102EBC101886004EBC40102EBC101FC
:10351000086104EBC400984901EBC000806828B33F
:1035200004EBC40001EBC000406935F8108004EBE7
:10353000C40001EBC0008068401E04EBC4018E4A49
:1035400002EBC101886004EBC400114601EBC0002E
:10355000806858B304EBC40001EBC0004069401C14
:1035600004EBC40102EBC10148614CE004EBC40070
:10357000814901EBC0000069C8B104EBC40001EB54
:10358000C000406935F8108004EBC40001EBC000B6
:10359000407958B904EBC40001EBC0000069401E3B
:1035A00004EBC401744A02EBC10108612BE004EB97
:1035B000C400714901EBC000C06820B304EBC40033
:1035C00001EBC000406935F8108004EBC40001EB4A
:1035D000C000C068401E04EBC401674A02EBC10191
:1035E000C86004EBC400114601EBC000406950B153
:1035F00004EBC40001EBC0004069401E04EBC401B1
:1036000002EBC101486104EBC4005B4901EBC0005F
:10361000C06828BB2CB900220221480700F07EFCBC
:1036200016E0012C05D100220421080700F076FCE9
:103630000EE0022C05D100220821C80600F06EFC25
:1036400006E0032C04D100221021880600F066FC5D
:10365000002004EBC401484A02EBC101C87092E0AB
:1036600004EBC400444901EBC00090F83D00002881
:1036700079D0002004EBC4013F4A02EBC10181F87C
:103680003D0004EBC400114601EBC000806804EB70
:10369000C40102EBC1010969084404EBC40102EB57
:1036A000C101C96800EB010904EBC400114601EB3C
:1036B000C000406C04EBC40102EBC10149698842BF
:1036C0000DD904EBC400114601EBC000406C04EBC3
:1036D000C40102EBC1014969A0EB010A0DE004EB52
:1036E000C400254901EBC000406904EBC401224A33
:1036F00002EBC101496CA0EB010A04EBC4001E49B6
:1037000001EBC000406C504448453CD204EBC4007F
:1037100001EBC000C0F808A004EBC40001EBC0003E
:10372000406C04EBC401144A02EBC101C86004EB15
:10373000C400114601EBC0008068A9EB000004EB57
:10374000C40102EBC101C968401A04EBC40102EBD9
:10375000C101086104EBC400114601EBC000406CDC
:1037600004EBC4010CE00EE030010020180500203D
:1037700000090020E80C002008550020E824002063
:1037800002EBC101086484B90221480700F0A4FAE1
:103790004FF0804000F0A4FB074607EB080081B221
:1037A0004FF0804000F01FFD33E0012C0ED10421CA
:1037B000080700F091FAA00700F095FB074607EB19
:1037C000080081B2A00700F010FD22E0022C0ED10B
:1037D0000821C80600F080FA600700F087FB074662
:1037E00007EB080081B2600700F001FD11E0032C37
:1037F0000FD11021880600F06FFA4FF0804000F0E2
:1038000078FB074607EB080081B24FF0804000F0DC
:10381000F0FC00BFCCE500002DE9F0470027B846DA
:10382000B946BA460221FD4800F067FB18B1FC4DCD
:10383000052604241CE00421F84800F05EFB18B1C2
:10384000F84D0626052413E00821F44800F055FB46
:1038500018B1F54D072606240AE01021EF4800F0C4
:103860004CFB18B1F14D0826072401E0BDE8F087B4
:1038700004EBC400EE4901EBC000807830B304EBE8
:10388000C40001EBC000406935F8108004EBC400AF
:1038900001EBC000406B401C04EBC401E44A02EBA6
:1038A000C101486304EBC400114601EBC000406B4A
:1038B000C8280AD9002004EBC40102EBC1018870BA
:1038C00004EBC40102EBC1014863BDE104EBC40099
:1038D000D74901EBC000007998B9012004EBC4017D
:1038E000D34A02EBC10108710021304603F012FCFB
:1038F00004EBC400CE4901EBC000406935F81080EC
:10390000A2E1002004EBC401C94A02EBC101087125
:10391000012004EBC40102EBC101C8700121304653
:1039200003F0F8FB04EBC400C14901EBC00040798F
:1039300058B904EBC40001EBC0008069401C04EBE3
:10394000C401BB4A02EBC101886104EBC400B84961
:1039500011F83000B749095D88420DD104EBC4006D
:10396000B34901EBC000806B401C04EBC401B04ABA
:1039700002EBC10188630CE004EBC400AC4901EB2D
:10398000C000806B401E04EBC401A94A02EBC101D8
:10399000886304EBC400A64901EBC000407801280D
:1039A00015D104EBC40001EBC000806804EBC40136
:1039B0009F4A02EBC101C860002004EBC40102EB86
:1039C000C101886004EBC40102EBC101086104EB92
:1039D000C400974901EBC000806828B304EBC40021
:1039E00001EBC000406935F8108004EBC40001EB26
:1039F000C0008068401E04EBC4018D4A02EBC10187
:103A0000886004EBC400114601EBC000806858B325
:103A100004EBC40001EBC0004069401C04EBC4018E
:103A200002EBC10148614CE004EBC400804901EBAA
:103A3000C0000069C8B104EBC40001EBC0004069DC
:103A400035F8108004EBC40001EBC000407958B990
:103A500004EBC40001EBC0000069401E04EBC4018C
:103A6000734A02EBC10108612BE004EBC40070490A
:103A700001EBC000C06820B304EBC40001EBC00040
:103A8000406935F8108004EBC40001EBC000C06849
:103A9000401E04EBC401664A02EBC101C86004EB9E
:103AA000C400114601EBC000406950B104EBC400F2
:103AB00001EBC0004069401E04EBC40102EBC101F0
:103AC000486104EBC4005A4901EBC000C06830BB38
:103AD000042C05D100220221504800F01FFA16E004
:103AE000052C05D1002204214C4800F017FA0EE005
:103AF000062C05D100220821484800F00FFA06E004
:103B0000072C04D100221021444800F007FA0020BD
:103B100004EBC401464A02EBC101C87094E004EB17
:103B2000C400434901EBC00090F83D00002874D068
:103B3000002004EBC4013E4A02EBC10181F83D00C4
:103B400004EBC400114601EBC000806804EBC40123
:103B500002EBC1010969084404EBC40102EBC10195
:103B6000C96800EB010904EBC400114601EBC00079
:103B7000406C04EBC40102EBC101496988420DD9D4
:103B800004EBC400114601EBC000406C04EBC4011F
:103B900002EBC1014969A0EB010A0DE004EBC4008E
:103BA000234901EBC000406904EBC401204A02EB49
:103BB000C101496CA0EB010A04EBC4001C4901EBF4
:103BC000C000406C504448453ED204EBC40001EBB9
:103BD000C000C0F808A004EBC40001EBC000406CBA
:103BE00004EBC401124A02EBC101C86004EBC4003B
:103BF000114601EBC0008068A9EB000004EBC40192
:103C000002EBC101C968401A04EBC40102EBC10117
:103C1000086104EBC40011460EE015E0000400400A
:103C2000B8140020A0180020881C0020702000205C
:103C300008550020E824002001EBC000406C04EB94
:103C4000C40102EBC1010864042C0ED102212148F9
:103C500000F042F81F4800F043F9074607EB080060
:103C600081B21C4800F0BFFA31E0052C0ED10421CE
:103C7000184800F031F8174800F035F9074607EB0F
:103C8000080081B2134800F0B0FA20E0062C0ED1F3
:103C90000821104800F020F80E4800F027F90746E8
:103CA00007EB080081B20B4800F0A1FA0FE0072CE7
:103CB0000DD11021074800F00FF8064800F019F95F
:103CC000074607EB080081B2024800F092FA00BFF5
:103CD000CCE5000000040040CA430282704721B1D5
:103CE000028842F00102028004E002884FF6FE736F
:103CF0001A4002807047000010B5044668488442AC
:103D000008D10121C014FFF743F80021E014FFF7A8
:103D10003FF8C4E0B4F1804F08D101210846FFF715
:103D200017F800210120FFF713F8B8E05D4884423E
:103D300008D101210220FFF70BF800210220FFF734
:103D400007F8ACE05848844208D101210420FEF76E
:103D5000FFFF00210420FEF7FBFFA0E05348844250
:103D600008D101210820FEF7F3FF00210820FEF70B
:103D7000EFFF94E04E48844208D101211020FEF765
:103D8000E7FF00211020FEF7E3FF88E04948844266
:103D900008D101212020FEF7DBFF00212020FEF7C3
:103DA000D7FF7CE04448844208D101214014FEF74B
:103DB000EFFF00216014FEF7EBFF70E03F48844204
:103DC00009D10121C804FEF7E3FF00214FF40020D0
:103DD000FEF7DEFF63E03A48844209D1012108057D
:103DE000FEF7D6FF00214FF48010FEF7D1FF56E01A
:103DF0003448844209D101214805FEF7C9FF00215A
:103E00004FF40010FEF7C4FF49E02F48844208D168
:103E100001214020FEF79CFF00214020FEF798FF83
:103E20003DE02A48844208D101218020FEF790FF1E
:103E300000218020FEF78CFF31E02548844208D124
:103E400001218015FEF784FF0021A015FEF780FFF9
:103E500025E02048844209D101210804FEF798FF9B
:103E600000214FF48030FEF793FF18E01A48844297
:103E700009D101214804FEF78BFF00214FF40030E7
:103E8000FEF786FF0BE01548844208D10121880423
:103E9000FEF77EFF00214FF48020FEF779FF10BD72
:103EA000002C01400004004000080040000C0040CD
:103EB000001000400014004000340140004C01405C
:103EC000005001400054014000180040001C004018
:103ED00000200040004001400044014000480140F3
:103EE0000146888E70470146088F70470146888FCB
:103EF00070470146B1F84000704730B502460020D7
:103F000000230024158A05EA0103958905EA0104C6
:103F100013B10CB1012000E0002030BD1AB183893B
:103F20000B43838102E083898B43838170470000C8
:103F300070B5002400220023058C4FF6FE76354034
:103F40000584028C8388048B4FF68F752C40B51E38
:103F50002C400D882C43751E2A400D892A434D881C
:103F60002A43144DA8420BD0134DA84208D0134D3C
:103F7000A84205D0124DA84202D0124DA84213D13A
:103F80004FF6F7752A404D892A434FF6FB752A40B4
:103F90008D882A434FF6FF652B404FF6FF552B4087
:103FA0008D892B43CD892B4383800483CD888586DF
:103FB000028470BD002C01400034014000400140EB
:103FC00000440140004801400A460021018B4FF6A1
:103FD000F7731940114301837047000070B5002446
:103FE00000220023058C4FF6EF7635400584028CC5
:103FF0008388048B48F6FF752C404FF6FF452C4014
:104000000D884FF6FF7606EA05252C434FF6DF753F
:104010002A400D8906EA05152A434D8806EA05154A
:104020002A43154DA84202D0144DA8421DD14FF687
:104030007F752A404D894FF6FF7606EA05152A431B
:104040004FF6BF752A408D8806EA05152A434FF6BC
:10405000FF352B404FF2FF752B408D8906EA850511
:104060002B43CD8906EA85052B4383800483CD88C5
:104070000587028470BD0000002C0140003401401F
:104080000A460021018B4FF2FF7319404FF6FF7370
:1040900003EA0223194301837047000070B500242E
:1040A00000220023058C4FF6FF6635400584028C04
:1040B0008388848B4FF68F752C404FF6FC752C400F
:1040C0000D882C434FF6FF552A400D894FF6FF7699
:1040D00006EA05252A434D8806EA05252A43154D9B
:1040E000A84202D0144DA8421DD14FF2FF752A40BC
:1040F0004D894FF6FF7606EA05252A434FF6FF3530
:104100002A408D8806EA05252A434EF6FF752B4086
:104110004DF6FF752B408D8906EA05152B43CD8999
:1041200006EA05152B4383808483CD888587028426
:1041300070BD0000002C0140003401400A460021FF
:10414000818B4FF6F773194011438183704700004C
:1041500070B5002200230024058C4EF6FF76354012
:104160000584038C8488828B48F6FF752A404FF6BD
:10417000FF452A400D884FF6FF7606EA05252A43BB
:104180004DF6FF752B400D8906EA05352B434D880A
:1041900006EA05352B430B4DA84202D00A4DA84232
:1041A00008D14BF6FF752C408D894FF6FF7606EA55
:1041B00085152C4384808283CD88A0F840500384E9
:1041C00070BD0000002C0140003401400A4600216F
:1041D000818B4FF2FF7319404FF6FF7303EA0223FE
:1041E00019438183704781867047018770478187B3
:1041F0007047A0F840107047002202881D4B98427B
:104200000ED01D4B98420BD0B0F1804F08D01B4B05
:10421000984205D01A4B984202D01A4B984204D1CA
:104220004FF68F731A404B881A43174B984207D0AA
:10423000164B984204D04FF6FF431A40CB881A43DE
:1042400002808B8883850B8803850A4B98420BD0AC
:10425000094B984208D00E4B984205D00D4B98421E
:1042600002D00D4B984201D10B7A03860123838241
:1042700070470000002C0140003401400004004061
:1042800000080040000C00400010004000140040F6
:1042900000400140004401400048014010B540F298
:1042A00025518F4800F094FA00286FD08C4800F018
:1042B0004BFBC4B28B48007828B1002089490870B4
:1042C000012089490870884800780C2816D2DFE858
:1042D00000F0E30616273849535E6B9FB7C9402CA0
:1042E0000CD140208149087002207F4908700120CC
:1042F0007F4908707F4800687F490860CCE0402C07
:104300000AD14020794948707A4800687A490860A3
:1043100003207549087002E0012073490870BBE072
:10432000282C0AD128207149887072480068724987
:10433000086004206C49087002E001206A49087096
:10434000AAE0412C0AD141206849C8706948006838
:104350006949086005206449087002E0012062494B
:10436000087099E061480471624800686249086019
:1043700006205D4908708FE05C4844715D48006824
:104380005D49086007205849087085E085E0574876
:1043900084715848006858490860002057490860EF
:1043A00008205149087077E054480068C01D4F4903
:1043B0000C54504800685049086050480068401C40
:1043C0004E49086008460068022820D14748C07955
:1043D0004B49086008460068000208604348007ABC
:1043E00009680844464908600846006860B1084604
:1043F000006840F2B551884206D800203F49086065
:1044000009203949087002E001203749087043E06B
:104410003A480068093035490C5436480068364936
:10442000086036480068401C344908600846006847
:1044300033490968884202D10A202B4908702BE0D1
:104440002E480068093029490C542A4800682A4936
:1044500008602A480068401C284908600B2022494F
:10446000087019E0292C16D1292124480068093048
:104470001E4A115401202349087000201C4908706D
:104480001F4800680B302049086000201B49086065
:1044900001201549087000BF00BF40F22771104885
:1044A00000F096F9D8B1194800781949096888428E
:1044B0000CD21848154A1278815C094800F049FA74
:1044C00012480078401C1149087008E00120124988
:1044D0000870002240F22771014800F0A3F910BDD6
:1044E000004C0040150100202C010020EC2500208C
:1044F000140100202C25002010010020280100209C
:104500002401002001010020080100200C010020EE
:1045100004010020AC2B00200201002010B540F265
:1045200025518C4800F054F900286FD0894800F0DC
:104530000BFAC4B28848007828B100208649087078
:10454000012086490870854800780C2816D2DFE8DB
:1045500000F0DD0616273849535E6B9FB7C9402C23
:104560000CD140207E49087002207C49087001204F
:104570007C4908707C4800687C490860C6E0402C93
:104580000AD140207649487077480068774908602A
:1045900003207249087002E0012070490870B5E0FC
:1045A000282C0AD128206E4988706F4800686F490E
:1045B000086004206949087002E00120674908701A
:1045C000A4E0412C0AD141206549C87066480068C2
:1045D0006649086005206149087002E001205F49D2
:1045E000087093E05E4804715F4800685F490860A6
:1045F00006205A49087089E0594844715A480068B1
:104600005A4908600720554908707FE07FE0544808
:104610008471554800685549086000205449086075
:1046200008204E49087071E051480068C01D4C498F
:104630000C544D4800684D4908604D480068401CC6
:104640004B49086008460068022820D14448C079D8
:104650004849086008460068000208604048007A3F
:1046600009680844434908600846006860B1084684
:10467000006840F2B551884206D800203C490860E5
:1046800009203649087002E00120344908703DE0F5
:1046900037480068093032490C54334800683349C0
:1046A000086033480068401C3149086008460068CB
:1046B00030490968884202D10A202849087025E05B
:1046C0002B480068093026490C54274800682749C0
:1046D000086027480068401C254908600B201F49D6
:1046E000087013E0292C10D12921214800680930D5
:1046F0001B4A1154012020490870002019490870F4
:104700001B49086001201549087000BF00BF40F236
:104710002771104800F05CF8D8B1184800781849A3
:10472000096888420CD21748144A1278815C0948FB
:1047300000F00FF911480078401C1049087008E09B
:10474000012011490870002240F22771014800F051
:1047500069F810BD00440040150100202001002030
:10476000EC250020140100202C2500201001002041
:104770001C01002018010020010100200C01002074
:1047800004010020AC2B00200201002001F4007283
:10479000B2F5007F00D100BFCA430280704721B14B
:1047A000828942F40052828104E082894DF6FF73CF
:1047B0001A408281704702460020B1F5007F00D187
:1047C00000BF13880B4201D0012000E00020704799
:1047D00070B502460024002300250020A1F51066D4
:1047E0006A3E00D100BFC1F3421501F01F0301264C
:1047F00006FA03F3012D02D19689334006E0022D1B
:1048000002D1168A334001E0968A33400C12012609
:1048100006FA04F41688344013B10CB1012000E00C
:10482000002070BDF0B503460024002600250020BE
:10483000A1F510676A3F00D100BF1846C1F34214CA
:1048400001F01F06012707FA06F5012C01D10C30F3
:1048500004E0022C01D1103000E014301AB10768D6
:104860002F43076002E00768AF430760F0BD000018
:104870002DE9F04786B005460E460024A24600BF4B
:10488000A1460027B08900B100BF2F462C8A4CF604
:10489000FF700440F08804432C82AC894EF6F3107C
:1048A0000440B08831890843718908430443AC81CE
:1048B000AC8A4FF6FF400440B0890443AC8201A8A3
:1048C000FEF776FA1F48874202D1DDF810A001E01A
:1048D000DDF80CA0A88910F4004F08D00AEBCA003C
:1048E00000EB0A1031684900B0FBF1F807E00AEB71
:1048F000CA0000EB0A1031688900B0FBF1F86420AF
:10490000B8FBF0F004012009642101FB1089A8899B
:1049100010F4004F08D0322000EBC900B0FBF1F0DA
:1049200000F00700044308E0322000EB0910642186
:10493000B0FBF1F000F00F0004432C8106B0BDE89D
:10494000F08700000038014001468888C0F3080065
:104950007047C1F308028280704710B54FF4802081
:10496000FCF744FB10BD704702A000F00FF800BF39
:10497000FEE7000055736167654661756C745F48BA
:10498000616E646C6572210A000000000FB4054B73
:1049900010B503A9044A029800F02CF810BC5DF889
:1049A00014FB0000CD5C0108E82500200FB4084B83
:1049B00010B504A902AA039800F01CF8044602A945
:1049C000002000F046FA204610BC5DF814FB000001
:1049D000534E010802E008C8121F08C1002AFAD18C
:1049E00070477047002001E001C1121F002AFBD16F
:1049F000704700002DE9FF4F8DB00F460546002699
:104A0000DEE1252874D100246D1CF149A246A1469F
:104A100001222B78203B02FA03F0084202D0044323
:104A20006D1CF6E728782A2810D06FF02F0228781E
:104A3000A0F13001092915D80AEB8A0102EB4101E6
:104A400044F0020400EB010A6D1CF0E757F804ABD8
:104A5000BAF1000F03DA44F40054CAF1000A44F03A
:104A600002046D1C28782E2817D115F8010F44F088
:104A700004042A280ED06FF02F022878A0F130010C
:104A800009290AD809EB890102EB410100EB010970
:104A90006D1CF2E757F8049B6D1C28786C280FD02A
:104AA00006DC4C2817D068280DD06A2814D104E001
:104AB000742810D07A280FD10DE044F400140AE0D5
:104AC00044F4801401E044F440146978814202D136
:104AD0006D1C04F580146D1C2A786E2A20D00DDC24
:104AE000632A33D005DC002A6FD0582A12D1A2E005
:104AF00011E0642A6AD0692A0CD167E0732A2FD0AA
:104B000004DC6F2A6FD0702A04D199E0752A6BD02B
:104B1000782A6AD01046DDE90F129047761C4EE1E4
:104B2000C4F30250022806D003280AD0042801CF7B
:104B30000AD0066043E101CF4FEAE671C0E90061A7
:104B40003DE101CF06803AE1067038E117F8040B29
:104B50008DF8000000208DF80100EB46012003E0F5
:104B600057F804BB4FF0FF3061074FF0000102D44B
:104B70000DE008F10101884649450FDA8045F8DB70
:104B80001BF808100029F4D108E008F1010188465B
:104B90008142FADB1BF808100029F6D1DDE90F236A
:104BA000AAEB08008146214600F03BF9304400EBB7
:104BB000080604E0DDE90F121BF8010B9047B8F17D
:104BC0000108F7D221464846F4E0FDE00A21C4F38B
:104BD00002534FF0000B0891022B07D001CFC117F1
:104BE000032B09D00AE034E023E024E0FF1D27F086
:104BF0000707F7E8020105E000B2C117042B01D155
:104C000040B2C117002907DA4FF0000CD0EB0C00BE
:104C10006CEB01012D2302E0230504D52B238DF835
:104C20002430012303E0E30701D02023F7E798466F
:104C300050E00A210EE010204FF0000B08900CE02D
:104C400010214FF0000B44F004044FF008090891C4
:104C500003E008214FF0000B0891C4F30253022B2C
:104C600004D001CF0021032B06D006E0FF1D27F062
:104C70000707F7E8020103E080B2042B00D1C0B2BD
:104C80004FF00008230725D5702A2AD0DDF820C070
:104C90008CF0100C5CEA0B0C09D150EA010306D031
:104CA00030238DF824308DF8252002239846DDF836
:104CB00020C08CF0080C5CEA0B0C0BD150EA01030D
:104CC00001D1630706D530238DF824304FF0010859
:104CD000A9F10109582A09D03EA20B9208AA0A920A
:104CE00011E040238DF824300123DFE73EA2F4E7F2
:104CF0005B46089AFBF773FA0B9B9B5C0A9AA2F13E
:104D000001020A92137050EA0102F1D10A98ADEB48
:104D1000000000F1200B600702D524F4803401E08C
:104D20004FF00109D94502DDA9EB0B0000E000209E
:104D300000EB0B0141440890AAEB010AE00306D402
:104D4000DDE90F232146504600F06BF806440020B1
:104D500008E009A911F80900DDE90F129047761C57
:104D600009F1010081464045F3DBE0030CD5DDE9A4
:104D70000F232146504600F054F8064404E0DDE9D4
:104D80000F1230209047761C0899481E0890002981
:104D9000F5DC08E00A980A990078491C0A91DDE9D7
:104DA0000F129047761CBBF10001ABF1010BF1DC57
:104DB00021465046DDE90F2300F020F806446D1C23
:104DC000287800287FF41DAE11B03046BDE8F08F82
:104DD00009280100303132333435363738396162D1
:104DE0006364656600000000303132333435363795
:104DF0003839414243444546000000002DE9F04166
:104E0000044600251E461746880405D406E03946A8
:104E10002020B04705F10105641EF8D52846BDE8FD
:104E2000F0812DE9F041044600251E469046C80356
:104E300001D5302700E02027880405D506E041464B
:104E40003846B04705F10105641EF8D52846BDE88F
:104E5000F0810A68531C0B601070704770B50246F1
:104E60000748036800249E1A74F1000000D200BFB6
:104E70009B1A8B4201D2002070BD0120FCE700008C
:104E80002C25002030B504460B460021012A03D111
:104E90001131A3F108000144022A03D1891DA3F1B5
:104EA0000800014406E06078257840EA05200144C6
:104EB000A41C9B1E012BF6D813B1207801EB002116
:104EC00002E088B200EB1141080CFAD14FF6FF75F1
:104ED00081EA050030BD000000202E4909782E4AE5
:104EE00091722C490988090AD1722A490968090C6A
:104EF000117328490968090E517300219173D17308
:104F00001174517425490978917424490988090A52
:104F1000D17422490968090C117520490968090EE4
:104F2000517500219175D175117651761C49C9785A
:104F300091761B4991F84B10D176194991F893104D
:104F40001177174991F8DB105177154991F8231122
:104F50009177134991F86B11D177114991F8B311F9
:104F600082F820100E4991F8FB1182F821100021DF
:104F700082F8221082F8231082F8241082F825107B
:104F800082F8261082F8271082F8281082F829105B
:104F9000202070471C250020AC2B00202825002055
:104FA0000855002070B50025002408E01A48006864
:104FB000015D04F10A00194A1154601CC4B216487C
:104FC0000068FBF705F9A042F0D813480068FBF72A
:104FD000FFF8C5B20A2105F10A00104A1154681CF5
:104FE000C5B2002409E00E480068015D05F10A0021
:104FF00020440A4A1154601CC4B209480068FBF7F7
:10500000E7F8A042EFD806480068FBF7E1F828442B
:10501000C5B2284670BD0000CC250020AC2B002076
:105020001825002030B593B000251648006801907F
:105030001022154902A8FBF7A7F800240AE0601C1B
:1050400000EBC000114901EBC000C17805A8015573
:10505000601CC4B2082CF2DB002408E0611CC8B25A
:1050600001F068FE07A941F82400601CC4B2082CB6
:10507000F4DB3C2201A90648FBF786F83C252846CC
:1050800013B030BD1C250020885900200855002091
:10509000B62B002010B500200022234B997A234B19
:1050A00053F8213093F82030214CA3721F4B53F852
:1050B00021301B8C1B0AE3721C4B53F8213093F8F0
:1050C00025302373194B53F821305B786373174BEA
:1050D00053F821301B7CA373144B53F821301B8AE7
:1050E0001B0AE373114B53F8213093F826302374D5
:1050F0000E4B53F8212000E0126B136B9342FBD14F
:1051000092F828300A4C6374537FA374074B53F80A
:10511000213093F82930E3740023044C54F82140E3
:1051200084F829300A2010BDEC2500204C5F0020B7
:10513000AC2B00203EB50024A8480078092873D283
:10514000DFE800F07205337EA7FDFCFBFA00A448FF
:105150000078012812D1A34908700020A0490870E6
:105160000120A1490870A1480068A14908600120F8
:10517000A049087002209949087015E09E480078FF
:10518000012811D19D49087000209B490870022018
:10519000954908709548006895490860012095492F
:1051A000087002208D49087015E18F480078FBF7E0
:1051B0007FFC9349087008460078FBF7C9F804465D
:1051C0001CB903208549087039E0012C1BD18D489A
:1051D0000078C0EBC00000EB80008B4B03EB0010AD
:1051E000D0F81C2187480078C0EBC00000EB80009D
:1051F00003EB001000F592718448FAF7C5FF052013
:10520000764908701BE00020009001900290224631
:105210007FA16846FFF7CAFB73480078012804D1D4
:1052200000207049087007E0D4E06F480078022839
:1052300002D1002071490870012068490870CAE055
:105240007548007830B9012074490870042063491A
:1052500008701DE06B480078C0EBC00000EB8000D8
:10526000694901EB001090F8260288B901206549D0
:105270000978C1EBC10101EB8101634A02EB011125
:1052800081F8260200205749087001205349087010
:10529000A1E0634803685B1C5C4A5948017801201F
:1052A000FDF73CFA57490978C1EBC10101EB8101D7
:1052B000554A02EB0111086152480078C0EBC0006A
:1052C00000EB8000134603EB001002694D480078A4
:1052D000C0EBC00000EB800003EB001000F11801F0
:1052E0004A48FAF751FF474A1278C2EBC20202EB72
:1052F0008202454B03EB021202F10C01414A127883
:10530000C2EBC20202EB820203EB021202F58C70C6
:105310004FF48672FAF738FF3A480078C0EBC000C5
:1053200000EB8000384901EB001000693D4908603E
:105330003D490860052003E04BE033E026E002E051
:105340002649087047E0294800683849086026481F
:105350000078012803D106202049087015E0224872
:105360000078022803D107201C4908700DE01E4870
:105370000078032803D108201849087005E00020B0
:105380001849087001201549087024E001202849B7
:10539000087000F07BFB00201249087001200F49C3
:1053A000087018E02348007828B101F08DFC012036
:1053B0000A4908700CE04FF47A711C480068FFF746
:1053C0004DFD28B10120054908701BA0FFF7DEFA4A
:1053D00001E000E000BF00BF3EBD00009C000020D7
:1053E000CD000020CC000020940000202C250020BF
:1053F000200000201C0000200101002000010020EE
:105400009D000020D52500202C390020AC2B002049
:10541000452564210A000000260000201400002019
:105420001800002004010020D8000020980000206F
:10543000D40000200201002074696D656F7574311D
:105440000A000000002107E0002200E0521C40F2A8
:1054500075439A42FAD3491C8142F5D370470CB583
:10546000002101910BE00021009102E00099491C0C
:10547000009100991E29F9D30199491C01910199C4
:105480008142F0D30CBD000070B5024600200C2A0A
:1054900000DD70BD02B9FCE70B46541E6400A3405A
:1054A000541E364D295565000324AC40344D2D68FB
:1054B000A543334C256024681C43314D2C60541E99
:1054C0006406200EA9B3012913D0022921D0032993
:1054D00040D12C4D441C35F814502B4E56F8244026
:1054E0006561284C34F81040354655F820506C6101
:1054F00040E0244D441C35F81450234E56F8244007
:105500002561204C34F81040354655F820506C6128
:1055100030E01C4D441C35F814501B4E56F8244006
:105520006561184C34F81040354655F820502C6110
:1055300020E0FFE7134D441C35F81450124E56F886
:10554000244025610F4C34F81040354655F8205062
:105550002C610FE00B4D441C35F814500A4E56F8E0
:1055600024406561074C34F81040354655F820500A
:105570006C6100BF00BF00BF8BE7000088590020AE
:1055800028250020902500203025002010B5044655
:105590001020514948613220FFF754FF10204E4936
:1055A00008613220FFF74EFF10214C48FBF793FFB4
:1055B000FF220021104600F0FBF93220FFF742FFE6
:1055C0000020474908600021082000F0CBF90021A5
:1055D000092000F0C7F900210C2000F0C3F90021D8
:1055E0000D2000F0BFF9FE210A2000F0BBF91921BF
:1055F0000B2000F0B7F9FF21042000F0B3F91921C6
:10560000052000F0AFF9FF21062000F0ABF91F21C3
:10561000072000F0A7F9B021382000F0A3F93F21BE
:10562000282000F09FF93021292000F09BF9F92172
:10563000302000F097F9F721312000F093F90D2187
:10564000C02000F08FF90021C12000F08BF9322238
:10565000C221802000F0ACF91221C62000F082F9AE
:105660000C21C72000F07EF91221C42000F07AF945
:10567000DC21CA2000F076F90521CB2000F072F978
:105680002178E42000F06EF96178E52000F06AF9F5
:10569000A178E22000F066F9E178E32000F062F9F9
:1056A0002179E02000F05EF96179E12000F05AF9FB
:1056B0004FF48071102000F0D7F81F2000F038F967
:1056C000C0221B21802000F073F904221F218020BA
:1056D00000F06EF910BD000000100140000801400C
:1056E000C80000202DE9F04105460F46392000F0A2
:1056F000D6F810B90020BDE8F0813A4801780020C2
:1057000000F030F937480088C0F30721012000F08D
:1057100029F900213A2000F0E9F832490860002117
:105720003A2000F0E3F82F49096841EA00202D49AA
:10573000086000213A2000F0D9F8044600213A2000
:1057400000F0D4F844EA0024241F00213A2000F09D
:10575000CDF8064600213A2000F0C8F846EA0026B7
:10576000681EA04200D26C1E16F0800F01D10024EA
:1057700003E03946204600F09DF81A4801780C20D5
:1057800000F0F0F817480088C0F307210D2000F062
:10579000E9F81448006830B112480068401E41F62C
:1057A000FE11884208D9FE210C2000F0DBF81921F7
:1057B0000D2000F0D7F80EE00A480078401EC1B274
:1057C0000C2000F0CFF807480088401EC0F30721E6
:1057D0000D2000F0C7F840221E21802000F0E8F8DC
:1057E000204688E7C800002070B504460D460FE04B
:1057F0001C2000F054F810F0020F09D080221F2165
:10580000104600F0D5F880221F21A02000F0D0F82B
:105810001F21002000F06AF810F0080FE8D1FF21E6
:10582000022000F09FF81921032000F09BF8FF20D0
:105830002044C1B2062000F095F841F6FF10204444
:10584000C0F30721072000F08DF8002211467A20CE
:1058500000F0AEF82946204600F090F808221F21FB
:10586000802000F0A5F870BD70B505460C462946AD
:10587000D42000F077F8E1B2D62000F073F8C4F33A
:105880000721D72000F06EF802E00F20FFF7E7FDB8
:10589000EA2000F004F810F0010FF6D170BD10B549
:1058A0000446204600F044F82146002000F01EF88F
:1058B00010BD000070B505460C4610210A48FBF7E4
:1058C00008FE3A20FDF7A0FB05E06D1E0020FDF765
:1058D0009BFB2070641C002DF7D10020207010214C
:1058E0000148FBF7F8FD70BD0008014070B50546A2
:1058F0000C46002610210D48FBF7EBFD04F01F00BD
:1059000040EA05063046FDF77FFBFF20FDF77CFBF4
:10591000064614F0800F03D0FF20FDF775FB064606
:1059200010210248FBF7D7FD304670BD000801404A
:1059300010B5044604F060000949097888420ED089
:1059400003221F21A02000F033F8C4F341121F21CD
:10595000802000F02DF804F060000149087010BDAF
:10596000C400002070B504460D462046FFF7E0FF56
:105970002A462146402000F01BF870BD70B5044651
:105980000D4610210948FBF7A4FD7A20FDF73CFBEA
:1059900004E0641E2878FDF737FB6D1C002CF8D15D
:1059A00010210248FBF797FD70BD00000008014080
:1059B0002DE9F04104460D461646002710210A48FD
:1059C000FBF787FD05F01F0040EA04073846FDF7A6
:1059D0001BFB37463846FDF717FB10210248FBF743
:1059E0007AFDBDE8F08100000008014010B50246D4
:1059F0000B460021292B01D2002010BD107B082866
:105A000002D1507B062801D00020F6E70AE001F120
:105A10002600105C054C645CA04201D00020ECE73D
:105A2000481CC1B20429F2DB0120E6E7FB0000209C
:105A300002460B4600210C2B01D2002070470021AA
:105A400006E0505CFF2801D00020F7E7481CC1B2F7
:105A50000629F6DB0120F1E710B502460B460021CE
:105A60000C2B01D2002010BD002108E0505C064C38
:105A7000645CA04201D00020F5E7481CC1B20629B1
:105A8000F4DB0120EFE70000F500002010B524480A
:105A90000078002842D02348007802280ED141F631
:105AA0009073214821490268214800F04DFF1E48AB
:105AB0001E4902681F48FAF767FB2CE01948007876
:105AC000012812D118481949026819483630FAF7E6
:105AD0005BFB15480168164800F086FE1248134922
